:100000000000022075F101005DF101005FF10100C7
:1000100061F1010063F1010065F1010000000000E1
:1000200000000000000000000000000067F1010077
:1000300069F10100000000006BF101006DF10100A9
:100040006FF101006FF101006912020095140200C6
:10005000D52202006FF10100CD3002006FF10100E6
:100060006FF101006FF101006FF101006FF101000C
:100070006FF101006FF101006FF101006FF10100FC
:100080006FF101006FF101006FF101006FF10100EC
:100090006FF101006FF101006FF101006FF10100DC
:1000A0006FF101006FF101006FF101006FF10100CC
:1000B0006FF101006FF1010000000000000000007E
:1000C0006FF101006FF101006FF10100AD1402004A
:1000D0006FF101006FF101006FF101006FF101009C
:1000E0006FF10100000000000000000000000000AF
:1000F000000000006FF1010000000000C5140200C4
:1001000000000000000000000000000000000000EF
:1001100000000000000000000000000000000000DF
:1001200000000000000000000000000000000000CF
:1001300000000000000000000000000000000000BF
:1001400000000000000000000000000000000000AF
:10015000000000000000000000000000000000009F
:10016000000000000000000000000000000000008F
:10017000000000000000000000000000000000007F
:10018000000000000000000000000000000000006F
:10019000000000000000000000000000000000005F
:1001A000000000000000000000000000000000004F
:1001B000000000000000000000000000000000003F
:1001C000000000000000000000000000000000002F
:1001D000000000000000000000000000000000001F
:1001E000000000000000000000000000000000000F
:1001F00000000000000000000000000000000000FF
:020000021000EC
:10F00000354936480A1A02D0072291438D463449C1
:10F0100034480A1A06D00722914381F30988022254
:10F0200082F3148830483149314A00F044F83148BD
:10F030003149324A00F03FF831483249324A00F053
:10F040003AF832483249334A00F035F83248334909
:10F05000334A00F030F833483349344A00F02BF893
:10F0600033483449344A00F026F834483449002201
:10F0700000F02CF833483449002200F027F83348D8
:10F080003349091A082902DB002202604160314A33
:10F0900090471F481F49884205D00268043003B4D6
:10F0A000904703BCF7E700208646EC46002000218D
:10F0B000294A9047FEE7884207D0521A05D00378C4
:10F0C00001300B700131013AF9D17047884202D00A
:10F0D00002700130FAE770470000022000E00120D2
:10F0E0000000022000000220403403000000002045
:10F0F00024000020D0F10100D0F1010034270300EA
:10F10000403403000000002000000020C02703005E
:10F11000C0270300C0270300C0270300C027030047
:10F12000C0270300C0270300C02703003E340300AC
:10F130006434030024000020240000202400002068
:10F14000040B0020040B0020080B00201C0B0020E7
:10F150001C2B00209DF10100DDF50100FEE7FEE71C
:10F16000FEE7FEE7FEE7FEE7FEE7FEE7FEE7FEE777
:10F1700000F002B8FFF7FCBF0F484FF007018843CB
:10F1800085460E4880470E48016841F470010160D1
:10F19000BFF34F8FBFF36F8FFFF732BF09480A49A4
:10F1A0000A4A884207D0521A05D0037801300B7002
:10F1B0000131013AF9D1704700000220610E0200CE
:10F1C00088ED00E0C02703000000002000000020C0
:10F1D00000B583B0094B1B88184603F0D5FE0346E3
:10F1E0000193019B002B04D0044B1B88184603F0AD
:10F1F000A3FE019B184603B05DF804FB000000204D
:10F2000000B583B00190019B002B05D0044B1B88F7
:10F210000121184603F024FE00BF03B05DF804FB93
:10F220000000002000B585B00190019B002B0AD0A2
:10F23000074B43F001030393019B9B010293039B44
:10F240000298984700E000BF05B05DF804FB00BFDE
:10F25000C027030000B583B00190019800F006F9C3
:10F2600000BF03B05DF804FB00B583B001900198C6
:10F27000FFF7D8FF00BF03B05DF804FB00B585B011
:10F28000264B1B689B680393039B4FF080421A61D7
:10F29000039B4FF0A0525A61039B002283F82C205D
:10F2A000039B0293039B1C330193029B03221A705E
:10F2B000029B01221A73029B194A5A60029B022286
:10F2C0001A72019B03221A70019B08225A70019B3B
:10F2D0001D229A70019BFF22DA70019B02221A7193
:10F2E000019BFF225A71019B4FF080429A60019B63
:10F2F00000221A73019B00225A730A4A6B46126855
:10F30000114619800233120C1A706B4619462620DA
:10F3100003F0ECFC00BF05B05DF804FB100000201A
:10F3200000F00240C827030000B585B00190019BA2
:10F33000002B0AD0074B43F001030393019B9B0171
:10F340000293039B0298984700E000BF05B05DF868
:10F3500004FB00BF2028030082B00190019B1B68C2
:10F360001F2B02D84FF0A04306E0019B1B6803F05F
:10F370001F02019B1A60024B184602B0704700BF83
:10F380000003005000B585B00190084611461A46AA
:10F3900003468DF803300B468DF8023013468DF886
:10F3A000013001AB1846FFF7D7FF03909DF803200B
:10F3B0009DF802305B001A439DF801309B001A4310
:10F3C0009DF818301B0242EA03019DF81C301B0413
:10F3D000019A1943039B02F5E07243F8221000BF23
:10F3E00005B05DF804FB00B585B0039000230193E0
:10F3F000002300930023012201210398FFF7C2FF9D
:10F4000000BF05B05DF804FB00B585B0019001AB0D
:10F410001846FFF7A1FF0390039800F00AF8024690
:10F42000019B22FA03F303F00103184605B05DF8CF
:10F4300004FB82B00190019BD3F81035184602B04E
:10F44000704700B583B00190019B002B0AD04FF4A8
:10F450007A70FFF769FF019B013B0193019B002B31
:10F46000F5D100E000BF03B05DF804FB00B583B048
:10F4700001900198FFF7E5FF00BF03B05DF804FBC2
:10F4800000B583B003F0CEFB0190019B0093009B7D
:10F49000002B04D0044A4121009800F0D3FB00BFA8
:10F4A00003B05DF804FB00BFF027030000B583B094
:10F4B00001900B468DF8033000F034F800BF03B024
:10F4C0005DF804FB00B585B0134A01AB1268114624
:10F4D00019800233120C1A7001238DF8053001AB2C
:10F4E0000E4A1946222003F04BFC0390039B029323
:10F4F000029B002B04D00A4A5721029800F0A2FB7D
:10F500000021222003F0ACFC3320FFF76CFF00BF8A
:10F5100005B05DF804FB00BF10280300ADF4010046
:10F52000F027030008B506E0074B1B68002B02D04C
:10F53000054B1B68984700F009F80346002BF3D1F0
:10F5400000BF00BF08BD00BF5400002008B5044B39
:10F550001B881846FFF758FF0346184608BD00BF32
:10F560000000002000B585B00190019B002B0AD05F
:10F57000074B43F001030393019B9B010293039B01
:10F580000298984700E000BF05B05DF804FB00BF9B
:10F590003028030000B583B00190019B002B0AD0F6
:10F5A0004FF47A70FFF7DEFF019B013B0193019B53
:10F5B000002BF5D100E000BF03B05DF804FB0000B4
:10F5C00000B583B001900199034800F015FB00BF1E
:10F5D00003B05DF804FB00BF2828030008B5032032
:10F5E00001F02DFEFFF74CFFFFF748FEFFF76AFF23
:10F5F0000220FFF7CFFF00F03FF9FEE700B587B02C
:10F6000003460A468DF80F3013468DF80E309DF8EC
:10F610000F308DF814309DF80E308DF81530094BF1
:10F62000197805AA002300930223074802F0C2FCC0
:10F630000346002B0CBF01230023DBB2184607B0A2
:10F640005DF804FB140000203828030000B585B0E5
:10F65000034602918DF80F3013468DF80E309DF859
:10F660000E30012B06D99DF80F3063F07F03DBB21B
:10F670008DF80F30104B19780DF10F020123009314
:10F6800001230E4802F096FC0346002B01D0002314
:10F690000DE0094B19789DF80E30029A074802F0E8
:10F6A000B1FC0346002B0CBF01230023DBB218463C
:10F6B00005B05DF804FB00BF1400002038280300EB
:10F6C00010B586B02F4B02AC0FCB84E80F0002A917
:10F6D000002300222C4802F07FF90346002B01D0C2
:10F6E00000234BE0284802F009FA00238DF8073088
:10F6F000264B19221A700DF10703012219460F201B
:10F70000FFF7A4FF034683F00103DBB2002B03D114
:10F710009DF80730332B15D01C4B18221A700DF1B1
:10F720000703012219460F20FFF790FF034683F0DD
:10F730000103DBB2002B03D19DF80730332B01D03E
:10F7400000231BE057212020FFF758FF034683F0DA
:10F750000103DBB2002B01D000230FE000212320A6
:10F76000FFF74CFF034683F00103DBB2002B01D00F
:10F77000002303E0064B01221A700123184606B04D
:10F7800010BD00BF402803003828030014000020EB
:10F790005800002000B587B00390029101921E4BE3
:10F7A0001B7883F00103DBB2002B01D000232FE094
:10F7B00004AB062219462820FFF748FF034683F0D2
:10F7C0000103DBB2002B01D0002321E09DF81030B3
:10F7D0001AB29DF811301B021BB213431AB2039BDD
:10F7E0001A809DF812301AB29DF813301B021BB21A
:10F7F00013431AB2029B1A809DF814301AB29DF876
:10F8000015301B021BB213431AB2019B1A8001234D
:10F81000184607B05DF804FB5800002000B585B01D
:10F820000190019B002B0AD0074B43F00103039387
:10F83000019B9B010293039B0298984700E000BF45
:10F8400005B05DF804FB00BFD028030000B583B00D
:10F850000190019B002B0AD04FF47A70FFF7DEFF76
:10F86000019B013B0193019B002BF5D100E000BF00
:10F8700003B05DF804FB000000B591B0FFF720FF76
:10F88000034683F00103DBB2002B07D01B48FFF7D0
:10F8900097FE4FF47A70FFF7D9FFFAE71848FFF7A1
:10F8A0008FFE0DF10A0203A90DF10E031846FFF7B2
:10F8B00071FF0346002B1AD0BDF90E309B111BB20D
:10F8C0001946BDF90C309B111BB21A46BDF90A301E
:10F8D0009B111BB204A8019300920B46094A3021E8
:10F8E00003F032FD04AB1846FFF76AFE02E006485B
:10F8F000FFF766FE6420FFF7A9FFD2E75028030058
:10F9000078280300A8280300BC28030000B583B0B2
:10F910001F4B0193019B02221A61019B02225A6133
:10F92000019B1C4A9A61019B1B4ADA61019B4FF4BF
:10F9300080621A62019B00229A62019B00225A6235
:10F94000019B0022DA62019B124A9A64019B134ACE
:10F95000DA64019B10221A65019B00229A65019BC3
:10F9600000225A65019B0022DA65019B07330C498E
:10F97000184603F078FD019B0A49184603F073FD11
:10F98000019B20229A7100BF03B05DF804FB00BF09
:10F990005C000020D8280300D4000020D4040020FC
:10F9A000E4280300E828030000B589B00390029121
:10F9B000019200230693039BDB680593039B1B695D
:10F9C0000493049A059B9A4205D9049A059BD31A7D
:10F9D000013B079307E0039B9A680499059BCB1AA8
:10F9E0001344013B0793039B9A68059BD31A079A1C
:10F9F000934228BF13460793079A019B934228BF5F
:10FA000013460793039B5A68059B1344079A029970
:10FA1000184603F0CCFC069A079B13440693029AFF
:10FA2000079B13440293019A079BD31A0193059AEB
:10FA3000079B13440593039B9B68059A9A4201D147
:10FA400000230593039B059ADA60019B002BB5D137
:10FA5000069B184609B05DF804FB00B589B0039019
:10FA600002910192039BDB680793039B9A68079BB3
:10FA7000D31A0693069A019B9A420ED9039B5A68A1
:10FA8000079B1344019A0299184603F090FC079AC9
:10FA9000019B1A44039BDA601AE0069B0593039BC3
:10FAA0005A68079B1344059A0299184603F07FFC95
:10FAB000019A069BD31A0593039B5868029A069BEA
:10FAC0001344059A194603F072FC039B059ADA6009
:10FAD00000BF09B05DF804FB86B00190019B1B6973
:10FAE0000493019BDB680393049A039B9A4208D812
:10FAF000019B9A68039BD21A049B1344013B059314
:10FB000004E0049A039BD31A013B0593059B184616
:10FB100006B0704700B589B0039002910192029B34
:10FB20000693039B5A1C13465B001344DB00204AD8
:10FB300013440593059B5B69022B29D0022B2ED819
:10FB4000002B02D0012B13D029E00598FFF7C4FF4A
:10FB50000490049A019B9A4202D20023079321E069
:10FB6000019B0793019A06990598FFF776FF19E024
:10FB70000598FFF7B1FF0490019A049B934228BFB8
:10FB800013460793079A06990598FFF766FF09E061
:10FB9000019A06990598FFF707FF079002E00023F6
:10FBA000079300BF079B184609B05DF804FB00BF30
:10FBB0005C00002000B587B00390029101920D4BCC
:10FBC0001B78002B01D1FFF7A1FEEFF311834FF05B
:10FBD000200181F311880593019A02990398FFF798
:10FBE00099FF0490059B83F31188049B184607B086
:10FBF0005DF804FB5C0000200FB400B5A3B025AB9A
:10FC0000009301A8009B249A802103F0C2FB21905D
:10FC1000219B802B06DD01AB802219460020FFF7D7
:10FC2000C9FF08E0219B002B05DD219A01AB194695
:10FC30000020FFF7BFFF219B184623B05DF804EBBF
:10FC400004B0704700B583B002900091019244F275
:10FC5000010071466A4600F003F803B000BD00BF22
:10FC600030B58BB007900691059272B600BF00F0D8
:10FC7000DBFC00BF00F008FB0346002BFAD1079B1A
:10FC800044F20102934216D0079B44F202029342CF
:10FC90003ED1059B09932C4A2C4BD31ADB081B043D
:10FCA00043F00100099B5B681A46099B1B682849C1
:10FCB00000F0ADFA39E0059B0893234A234BD31A91
:10FCC000DB081B0443F00104089B9D68089B9B68AC
:10FCD000184600F0C7FC03461846089B5B681946A7
:10FCE000089B1B68069A02920193009103462A46DC
:10FCF0001849204600F09FFA134A144BD31ADB0828
:10FD00001B0443F001031449184600F061FA0CE0AB
:10FD10000D4A0E4BD31ADB081B0443F00103069A6D
:10FD20000E49184600F062FA00BF0D4B1B6803F045
:10FD30000103002B00D000BE059A0699079800F039
:10FD4000D9FC00BF0BB030BDB027030088270300EB
:10FD5000F02803000C29030034290300482903007C
:10FD6000F0ED00E000B583B001900091019B1B68AD
:10FD70001B6800990198984700BF03B05DF804FB29
:10FD800000B583B00190019B1B685B6801989847A0
:10FD900000BF03B05DF804FB00B583B00190019B88
:10FDA0001B689B680198984700BF03B05DF804FB8F
:10FDB00082B00190019BDB6801225A7100BF02B042
:10FDC000704782B00190019BDB685B79184602B0F6
:10FDD000704784B00190009100238DF80F30019B93
:10FDE0001B7803F00403DBB2002B24D0019B1B78AB
:10FDF000C3F30103DBB2012B02D0022B0CD017E0BE
:10FE0000009B1B68019A1288C2F38312D2B213447A
:10FE10009A1C009B1A600BE0009B1B68019A528899
:10FE2000C2F3891292B213449A1C009B1A6000BF5D
:10FE300001238DF80F309DF80F30184604B070473D
:10FE400000B58BB00023ADF826303B4800F015FD1F
:10FE50003A4800F012FD3A4B9B680493394B1B68FB
:10FE60000693049A069B134002339B00344A1344C2
:10FE70000433089304AB19460898FFF7AAFF03461A
:10FE8000002B09D0049A069B134002339B002C4A96
:10FE9000134404330893EDE700BF0023079311E0F8
:10FEA000049B5A1C0492069A1340079A920001A9D7
:10FEB0000A44234902339B000B445B681360079B91
:10FEC00001330793079B012BEAD99DF80430C3F354
:10FED0000103DBB2012B10D0022B1CD1BDF80A307C
:10FEE000ADF82630BDF80630C3F389139BB2033357
:10FEF0009A08049B134404930EE0BDF80A30ADF851
:10FF00002630BDF80430C3F38313DBB21A46049BDA
:10FF10001344049300E000BF084800F0BAFC0590C9
:10FF2000059B002B02D0049B054A9360BDF8263048
:10FF300018460BB05DF804FBCC090020C80900206E
:10FF4000B40500201800002000B585B00021074846
:10FF500000F01CFC0390039B0293029B83F31003AD
:10FF60000193019B184605B05DF804FBD009002001
:10FF700000B589B00390029101920093039B1B0C82
:10FF80000693FFF7E1FF0790079B1904009B5A1C9B
:10FF90000A9B1340069A0A431B4902339B000B44F9
:10FFA0005A60009A0A9B134002339B00164A13447E
:10FFB00004330593039B03F00703D9B2059A137822
:10FFC00061F3C5031370019B03F00F03D9B2059AC7
:10FFD000138861F389131380029BC3F31501059AFB
:10FFE000136861F39F231360059A1378012161F36D
:10FFF00001031370059A13786FF38203137000BF27
:020000022000DC
:1000000009B05DF804FB00BFB405002000BF7047D5
:1000100000B58BB00390029113468DF80730039B17
:100020000233089301238DF81F30002000F05AFCA2
:100030003E4B5A68029B1A603D4B1A683B4B9968CD
:100040003A4B5B68CB1A13440133099314E0012146
:10005000384800F0E2FBFFF7F3FE059005993548BC
:1000600000F0DBFB324B1A68304B99682F4B5B6812
:10007000CB1A134401330993089A099B9A42E6D894
:100080009DF81F30002B48D0002304939DF80730C3
:10009000002B17D09DF81030012262F301038DF878
:1000A00010309DF8103043F004038DF81030039B9E
:1000B00003F00F03DAB2BDF8103062F38913ADF824
:1000C000103016E09DF81030022262F301038DF823
:1000D00010309DF8103043F004038DF81030039B6E
:1000E000C3F309039AB2BDF8123062F38F13ADF86F
:1000F00012300E4B5A680E4B1B68134002339B00A4
:100100000A4A134404330693049A069B1A60074B69
:100110005A68089B1344054A5360002000F0EBFB2B
:100120009DF81F3018460BB05DF804FBB4050020A5
:1001300018000020D009002000B58BB00590049174
:1001400003920293204B1B68079306AB01221946CA
:100150000298FFF75DFF0346002B24D0069B023375
:1001600009930023089311E0089B9B00039A1A440B
:10017000099B591C099107990B40126813490233D6
:100180009B000B445A60089B01330893089A029B1A
:100190009A42E9D3069A079B00931346029A049960
:1001A0000598FFF7E5FE094B1B78002B05D000BF33
:1001B00000F06AF80346002BFAD1FFF727FF00BFD3
:1001C0000BB05DF804FB00BF18000020B405002050
:1001D00000B583B00190009100230022009901989E
:1001E000FFF7AAFF00BF03B05DF804FB00B587B0BE
:1001F000039002910192019B059305AA01230299A4
:100200000398FFF799FF00BF07B05DF804FB00B546
:1002100087B00390029101920093019B0493009B8D
:10022000059304AA022302990398FFF785FF00BFF4
:1002300007B05DF804FB00B58BB00390029101920A
:100240000093019B0593009B06930C9B07930D9BCA
:1002500008930E9B099305AA052302990398FFF7BB
:100260006BFF00BF0BB05DF804FB0000054B9A6804
:10027000044B5B689A420CBF01230023DBB2184693
:10028000704700BFB405002000B599B0FFF7EEFF3E
:100290000346002B01D00023B9E19B4B0022C3F899
:1002A0001824BFF34F8F00BF974B9B680493974B65
:1002B0001B681093049A109B134002339B00924AD0
:1002C0001344043311930023179300231693002340
:1002D0000F9304AB19461198FFF77BFD0346002BE3
:1002E00019D0894BD3F81834002B14D1864B5A6897
:1002F000049B9A4205D8844B5B68834A9360002331
:1003000085E1049A109B134002339B007E4A1344FC
:1003100004331193DDE70023159311E0049B5A1C6D
:100320000492109A1340159A920001A90A44764942
:1003300002339B000B445B681360159B01331593DC
:10034000159B012BEAD99DF8043003F00303DBB2BF
:10035000022B40F09C80BDF80630C3F389139BB29A
:100360000D93BDF80630C3F389139BB2502B28BF01
:1003700050239BB20C930C9BC3F309039AB2BDF8B4
:10038000063062F38F13ADF806300C9B08330B93E5
:100390009DF80430C3F3C203DBB20F930B995C48A2
:1003A00000F0B4FA1790179B002B00F0D380179839
:1003B00000F03DFB01A9169B0822179800F0E1FB15
:1003C000169B08331693049BDA43109B13400133AA
:1003D0009B000A930C9A0A9B9A4242D90A9B002BD3
:1003E00008D0049A109B134002339B00464A1344E2
:1003F000043300E0474B08930A9B002B02D00A9B72
:10040000DBB201E00C9BDBB28DF81F300A9B002BA6
:1004100001D0404B00E0002306930A9B002B06D03E
:100420000C9BDAB20A9BDBB2D31ADBB200E00023EA
:100430008DF817309DF81F20169B0899179800F02B
:10044000A0FB9DF81F30169A13441693069B002BB1
:1004500016D09DF81720169B0699179800F091FB6F
:100460000EE0049A109B134002339B00264A13446B
:1004700004330993169B0C9A0999179800F081FB95
:100480000D9B03339A08049B1344049362E09DF888
:10049000043003F00303DBB2012B5BD1BDF8043061
:1004A000C3F38313DBB2062B28BF0623DAB2BDF8F1
:1004B000043062F38913ADF80430BDF80430C3F39F
:1004C0008313DBB202330E939DF80430C3F3C203EF
:1004D000DBB20F930E9B9B0019460D4800F016FAF5
:1004E0001790179B002B35D0179800F0A0FA01A9A0
:1004F000169B0822179800F044FB169B08331693AE
:10050000002315931DE000BFB40500201800002053
:10051000080B0020C0050020049B5A1C0492109A6E
:10052000134002339B003C4A1344191D169B0422BE
:10053000179800F026FB169B04331693159B013386
:100540001593BDF80430C3F38313DBB21A46159B31
:100550009342E1D3179B002B39D02F4BD3F81034A3
:1005600014932D4BD3F81834002B1BD0179800F0A0
:100570006DFA46E000238DF84F301498FFF721FC08
:100580000346002B02D001238DF84F309DF84F30E9
:10059000002B03D017991498FFF7E4FB149BDB683A
:1005A0001B681493149B002BE4D1179800F04EFAAB
:1005B000002000F097F9184BD3F81834002B02D123
:1005C000049B154A9360002000F095F919E0124B46
:1005D000D3F81034129306E01298FFF7DDFB129B5C
:1005E000DB681B681293129B002BF5D10B4A0C4B56
:1005F000D31ADB081B0443F002030A491846FFF72D
:10060000E7FDFFF733FE034683F00103DBB2184634
:1006100019B05DF804FB00BFB4050020B02703004B
:10062000882703006429030000B583B00C4BD3F87E
:10063000103401930A4B01221A7009E00198FFF768
:10064000B7FB0198FFF79CFB019BDB681B680193DC
:10065000019B002BF2D100BF00BF03B05DF804FB8B
:10066000B405002000B585B00190019800F00EF8A7
:100670000390039B002B01D0039B00E0024B184624
:1006800005B05DF804FB00BF7829030086B0019037
:10069000164B0593164B04931FE0049A059BD31A3F
:1006A000DB10DA0F13445B10DB00059A134403934D
:1006B000039B1B680293029A019B9A4202D9039BF7
:1006C00004930AE0029A019B9A4203D2039B0833E7
:1006D000059302E0039B5B6804E0059A049B9A4241
:1006E000DBD30023184606B0704700BF4C2D030033
:1006F000642E030086B003900291019201238DF8CD
:1007000017309DF81730204A039B13601E4A029B46
:1007100053601D4A019B9360039B44F20102934284
:1007200012D0039B44F20202934220D1019B164A4D
:10073000D360154BDB681B68134A9361124BDB686F
:100740005B68114AD36112E0019B0F4A13610E4BA3
:100750001B699B680C4A53610B4B1B691B680A4A57
:100760009361094B1B695B68074AD36100BF72B68E
:1007700000BF00BF9DF81730DBB2002BFAD162B684
:1007800000BF00BF06B07047D409002010B487B086
:1007900001900091019B009A53E8004F104643E8F6
:1007A000000191F0000FF7D1059404900391059B8F
:1007B000184607B05DF8044B704710B487B001903D
:1007C0000091019B009A53E8004F44EA020043E87D
:1007D000000191F0000FF6D1059404900391049B61
:1007E000184607B05DF8044B704710B487B001900D
:1007F0000091019B009A53E8004F04EA020043E88D
:10080000000191F0000FF6D1059404900391059B2F
:10081000184607B05DF8044B704710B487B00190DC
:100820000091019B009A53E8004F04EB020043E85B
:10083000000191F0000FF6D1059404900391049B00
:10084000184607B05DF8044B704710B487B00190AC
:100850000091019B009A53E8004FA4EB020043E88B
:10086000000191F0000FF6D1059404900391049BD0
:10087000184607B05DF8044B704700B583B001908F
:1008800001210198FFF799FF0346184603B05DF870
:1008900004FB00B583B0019000210198FFF7A5FF8C
:1008A0000346184603B05DF804FB000072B600BFB3
:1008B000034B1B680133024A136000BF704700BF3F
:1008C000F4090020064B1B68013B054A1360044BEA
:1008D0001B68002B01D162B600BF00BF704700BF8C
:1008E000F409002000B583B00190FFF7DFFF00BFDF
:1008F00003B05DF804FB00B583B003468DF8073004
:10090000FFF7E0FF00BF03B05DF804FB00B58BB05C
:1009100001900091019B1B8A043B0793009A079B5F
:100920001344DA1C079BB2FBF3F38DF81B300198DC
:1009300000F05BF90590059B002B01D1002338E006
:10094000059B00221A71059B01225A71079B9AB2DE
:10095000059BDA80059B09939DF81B30013B0493AE
:10096000099B019A1A60002308931DE0019800F08A
:100970003CF90390039B002B0ED0059B5B79013360
:10098000DAB2059B5A71099B039A1A60039B019A7C
:100990001A60039B099304E0059800F00EF8002309
:1009A00007E0089B01330893089A049B9A42DDD321
:1009B000059B18460BB05DF804FB00B58BB00190A9
:1009C000019B0793079B5B798DF81B30019B089374
:1009D0009DF81B30013B05930023099305E0089B1C
:1009E0001B680893099B01330993099A059B9A4256
:1009F000F5D3089B1B680493019B0893002309937C
:100A00000BE0089B1B6803930899049800F024F9F5
:100A1000039B0893099B013309939DF81B30099AA6
:100A20009A42EED300BF00BF0BB05DF804FB00B5E7
:100A300085B00190019B0393039B04330121184669
:100A4000FFF7EBFE00BF05B05DF804FB00B587B013
:100A50000190019B0593059B043301211846FFF784
:100A6000F4FE0346039303AB0493049B1B78002B13
:100A700002D10198FFF7A1FF00BF07B05DF804FBAA
:100A800000B591B00390029101920093039B0993EA
:100A9000039B0F93099BDB881A46099B5B7902FB3A
:100AA00003F3043B0893099BDB880793009B1A1D03
:100AB000079BB2FBF3F30E93009B0433079AB3FB3F
:100AC000F2F2079901FB02F29B1A0D93019B1A683F
:100AD000009B1344089A9A4203D2089A009BD31AA7
:100AE00001E0019B1B680C93019B0C9A1A6005E0C6
:100AF0000F9B1B680F930E9B013B0E930E9B002BCD
:100B0000F6D100230B93079A0D9BD31A0A930A9AE6
:100B10000C9B934228BF13460A932AE0029A0B9B30
:100B2000134406930F9A0D9B1344043305939DF8C9
:100B30004830002B05D00A9A0599069802F037FC38
:100B400004E00A9A0699059802F031FC00230D93FF
:100B50000F9B1B680F930C9A0A9BD31A0C930B9A4A
:100B60000A9B13440B93079A0C9B934228BF13468E
:100B70000A930C9B002BD1D100BF00BF11B05DF8D0
:100B800004FB00B589B00590049103920293039B86
:100B9000079307AA00230093029B04990598FFF787
:100BA0006FFF00BF09B05DF804FB82B001900B46F7
:100BB0008DF80330019BDA689DF803300199098AAA
:100BC00001FB03F31344184602B0704782B0019052
:100BD0000091009B019AD2689B1A019A128AB3FB7A
:100BE000F2F3DBB2184602B0704700B585B0019051
:100BF000002303930020FFF775FE019B1B681A6812
:100C0000019B5B689A421FD9019B1B681A68013AD5
:100C10001A601B681B7819460198FFF7C6FF0390FE
:100C2000019B9A68019B1B681B68D31A8DF80B30D7
:100C3000019B1B681B799DF80B209A4204D9019BEC
:100C40001B689DF80B201A710020FFF754FE039BD0
:100C5000184605B05DF804FB10B584B00190009112
:100C6000009B03930020FFF73DFE019B1B681C685F
:100C7000621C1A6003990198FFF7A8FF03462370CE
:100C80000020FFF738FE00BF04B010BDBFF34F8F48
:100C900000BF064BDB6803F4E0620449044B1343D6
:100CA000CB60BFF34F8F00BF00BFFDE700ED00E05A
:100CB0000400FA0582B0114B1B680193104B1B68AE
:100CC0000093019B0D2B14D1009B022B0DD0009B98
:100CD000022B0CD8009B002B03D0009B012B02D0D1
:100CE00005E0012306E0012304E0012302E00123E3
:100CF00000E00023184602B0704700BF300100102A
:100D00003401001082B0114B1B680193104B1B681B
:100D10000093019B0D2B14D1009B022B0DD0009B47
:100D2000022B0CD8009B002B03D0009B012B02D080
:100D300005E0012306E0012304E0012302E0012392
:100D400000E00023184602B0704700BF30010010D9
:100D50003401001082B0114B1B680193104B1B68CB
:100D60000093019B0D2B14D1009B022B0DD0009BF7
:100D7000022B0CD8009B002B03D0009B012B02D030
:100D800005E0012306E0012304E0012302E0012342
:100D900000E00023184602B0704700BF3001001089
:100DA0003401001082B0114B1B680193104B1B687B
:100DB0000093019B0D2B14D1009B022B0DD0009BA7
:100DC000022B0CD8009B002B03D0009B012B02D0E0
:100DD00005E0002306E0002304E0012302E00123F4
:100DE00000E00023184602B0704700BF3001001039
:100DF0003401001008B5FFF7D5FF0346002B07D0DC
:100E00004FF010234FF08042D3F80832C2F8583523
:100E100000BF08BD00BF044BD3F80034002BFAD04C
:100E200000BF00BF704700BF00E0014000B583B0C5
:100E30000190054A019BC2F80435FFF7EBFF00BFA4
:100E400003B05DF804FB00BF00E00140024B034A21
:100E50001A6000BF704700BF1C0000200090D00344
:100E600008B5FFF727FF0346002B0ED04FF0804355
:100E70000022C3F80C214FF080430022C3F8102158
:100E80004FF080430022C3F83825FFF73BFF0346AD
:100E9000002B76D04FF080535E4AD3F80434C2F86A
:100EA00020354FF080535B4AD3F80834C2F824351C
:100EB0004FF08053574AD3F80C34C2F828354FF01E
:100EC0008053544AD3F81034C2F82C354FF0805375
:100ED000504AD3F81434C2F830354FF080534D4A9D
:100EE000D3F81834C2F834354FF08053494AD3F858
:100EF0001C34C2F840354FF08053464AD3F82034B2
:100F0000C2F844354FF08053424AD3F82434C2F833
:100F100048354FF080533F4AD3F82834C2F84C3557
:100F20004FF080533B4AD3F82C34C2F850354FF081
:100F30008053384AD3F83034C2F854354FF08053D8
:100F4000344AD3F83434C2F860354FF08053314A14
:100F5000D3F83834C2F864354FF080532D4AD3F8B3
:100F60003C34C2F868354FF080532A4AD3F84034F5
:100F7000C2F86C354FF08053264AD3F84434C2F897
:100F80007035FFF7E7FE0346002B0DD04FF080438E
:100F9000D3F8003403F00103002B05D04FF0804359
:100FA0006FF00102C3F800241B4BD3F888301A4AB3
:100FB00043F47003C2F88830BFF34F8F00BFBFF314
:100FC0006F8F00BFFFF716FF4FF01023D3F80032EA
:100FD000002B05DB4FF01023D3F80432002B15DA79
:100FE0000120FFF723FF4FF010231222C3F8002245
:100FF000FFF710FF4FF010231222C3F80422FFF76F
:1010000009FF0020FFF712FFFFF740FEFFF71EFF6A
:1010100000BF08BD00C0004000ED00E082B00190BC
:10102000019B1B681F2B02D84FF0A04306E0019BD9
:101030001B6803F01F02019B1A60024B184602B0A6
:10104000704700BF0003005000B585B0019008460E
:1010500011461A4603468DF803300B468DF80230D0
:1010600013468DF8013001AB1846FFF7D7FF039008
:101070009DF803209DF802305B001A439DF8013073
:101080009B001A439DF818301B0242EA03019DF8A9
:101090001C301B04019A1943039B02F5E07243F8CC
:1010A000221000BF05B05DF804FB00B585B00390C9
:1010B00000230193002300930023012201210398C0
:1010C000FFF7C2FF00BF05B05DF804FB00B585B0B7
:1010D00003900B468DF80B309DF80B3000220192E7
:1010E00000220092002200210398FFF7ADFF00BF0D
:1010F00005B05DF804FB00B585B0019001AB184662
:10110000FFF78CFF0390019B012202FA03F31946BB
:10111000039800F02AF800BF05B05DF804FB00B5A5
:1011200085B0019001AB1846FFF778FF0390019B53
:10113000012202FA03F31946039800F020F800BFD9
:1011400005B05DF804FB00B583B001900091009BF1
:10115000002B03D10198FFF7E2FF02E00198FFF7AF
:10116000CAFF00BF03B05DF804FB82B0019000919C
:10117000019B009AC3F8082500BF02B0704782B0F7
:1011800001900091019B009AC3F80C2500BF02B0AA
:101190007047000000B583B00190064A019B1344DC
:1011A0001B7801211846FFF7CEFF00BF03B05DF8A2
:1011B00004FB00BF642E030000B583B0002301933D
:1011C00005E00198FFF7E6FF019B01330193019BC6
:1011D000032BF6D900BF00BF03B05DF804FB00008D
:1011E00000B583B00023019309E0094A019B134431
:1011F0001B781846FFF759FF019B01330193019BB0
:10120000032BF2D9FFF7D8FF00BF03B05DF804FB52
:10121000642E030000B583B00023019307E002238E
:1012200003211846FFF752FF019B01330193019BF5
:10123000002BF4D000BF00BF03B05DF804FB00B585
:1012400083B00190019B03F00103002B01D0FFF755
:10125000C7FF019B03F00203002B01D0FFF7DAFF69
:1012600000BF03B05DF804FB08B5024B1B6898474C
:1012700000BF08BDF809002082B00190019B044A1C
:10128000934201D1034B00E00023184602B070479F
:1012900000200040F809002000B587B001900091BF
:1012A0000198FFF7E9FF0390039B002B1ED000235A
:1012B0008DF817300020FFF715FB039B1B79002BDF
:1012C00003D001238DF8173005E0039B009A1A60C4
:1012D000039B01221A710020FFF70DFB9DF81730C8
:1012E000002B03D011230493049B02E000230493FA
:1012F000049B184607B05DF804FB84B001900B46D0
:10130000ADF80230BDF80230019A134400221A6091
:10131000BDF80230019A13441B680393039B00BF7E
:1013200004B0704782B001900B46ADF80230BDF8B2
:101330000230019A13441B68002B14BF01230023C1
:10134000DBB2184602B0704782B00190019B1B6867
:101350001F2B02D84FF0A04306E0019B1B6803F04F
:101360001F02019B1A60024B184602B0704700BF73
:101370000003005000B585B0019001AB1846FFF79F
:10138000E3FF0390019B012202FA03F3194603983D
:1013900000F018F800BF05B05DF804FB00B585B09B
:1013A000019001AB1846FFF7CFFF0390019B01228C
:1013B00002FA03F31946039800F00EF800BF05B0D7
:1013C0005DF804FB82B001900091019B009AC3F884
:1013D000082500BF02B0704782B001900091019BC8
:1013E000009AC3F80C2500BF02B07047024A034BB5
:1013F0001B68136000BF7047000E00406C0A00209D
:1014000000B583B00190019BDB7FFF2B0ED0019BC9
:101410009B7F002B05D0019BDB7F1846FFF7BEFFAB
:1014200004E0019BDB7F1846FFF7A4FF019B00222D
:101430005A77019B00221A72019B1B68019A02F1E4
:101440000800019A52681146984700BF03B05DF842
:1014500004FB000000B583B0019000914FF48C7143
:101460000198FFF75FFF0346002B0DD0019B084A50
:10147000934201D1FFF7BAFF4FF48C710198FFF747
:101480003CFF0098FFF7BCFF00BF03B05DF804FB12
:1014900000F0024008B503490348FFF7DBFF00BF37
:1014A00008BD00BF000A00200030004008B5034915
:1014B0000348FFF7CFFF00BF08BD00BF240A00208C
:1014C0000030024008B503490348FFF7C3FF00BFDF
:1014D00008BD00BF480A002000F0024082B0034669
:1014E0008DF807309DF90730002B0CDB9DF8073095
:1014F00003F01F0205499DF907305B09012000FA3E
:1015000002F241F8232000BF02B0704700E100E082
:1015100082B003468DF807309DF90730002B0DDBB4
:101520009DF8073003F01F0206499DF907305B095B
:10153000012000FA02F2603341F8232000BF02B01C
:10154000704700BF00E100E082B0034600918DF8D3
:1015500007309DF90730002B0ADB009BDAB20C49FB
:101560009DF907305201D2B20B4483F800230BE0FF
:10157000009BDAB207499DF8073003F00F03043BE4
:101580005201D2B20B441A7600BF02B0704700BFBE
:1015900000E100E000ED00E082B00190019B03F06B
:1015A0006043B3F1005F0CBF01230023DBB2184698
:1015B00002B0704782B00190019B1B0B5BB21846D2
:1015C00002B0704700B583B003460A468DF8073075
:1015D00013468DF806309DF806209DF90730114618
:1015E0001846FFF7B1FF00BF03B05DF804FB00B57C
:1015F00083B003468DF807309DF907301846FFF792
:101600006DFF00BF03B05DF804FB00B583B0034677
:101610008DF807309DF907301846FFF779FF00BFB6
:1016200003B05DF804FB82B001900B468DF80330E7
:101630009DF80330019A134401221A6000BF02B0E2
:10164000704784B001900B46ADF80230BDF802300F
:10165000019A134400221A60BDF80230019A134423
:101660001B680393039B00BF04B0704782B00190D6
:101670000B46ADF80230BDF80230019A13441B68E6
:10168000002B14BF01230023DBB2184602B07047C1
:1016900082B001900091019B009AC3F8042300BF1F
:1016A00002B0704782B001900091019B009AC3F88C
:1016B000082300BF02B0704782B00190019B062250
:1016C000C3F8002500BF02B0704782B00190019BB3
:1016D0000022C3F8002500BF02B0704784B0039019
:1016E00002910192039B029AC3F80825039B019A79
:1016F000C3F80C2500BF04B0704782B00190009180
:10170000019B009AC3F8242500BF02B0704784B043
:101710000190019BD3F8C4340393019B039AC3F84F
:10172000C424039B184604B0704782B001900B4656
:101730008DF803309DF80320019BC3F8882500BF76
:1017400002B0704784B0039002910192029A039B09
:10175000C3F84425039B019AC3F8482500BF04B091
:10176000704784B0039002910192029A039BC3F8E0
:101770003425039B019AC3F8382500BF04B0704795
:1017800082B001900091019B009AC3F8002200BF33
:1017900002B0704782B00190019BD3F84C351846D7
:1017A00002B0704782B00190019BD3F80032184616
:1017B00002B0704782B00190019BD3F83C351846C7
:1017C00002B0704782B00190019B0122C3F85025FE
:1017D00000BF02B0704782B00190019B0022C3F8A5
:1017E000502500BF02B0704782B00190019B0122DA
:1017F000C3F8402500BF02B0704782B00190019B42
:101800000022C3F8402500BF02B0704782B00190AB
:10181000019B1B681F2B02D84FF0A04306E0019BE1
:101820001B6803F01F02019B1A60024B184602B0AE
:10183000704700BF0003005000B585B00190084616
:1018400011461A4603468DF803300B468DF80230D8
:1018500013468DF8013001AB1846FFF7D7FF039010
:101860009DF803209DF802305B001A439DF801307B
:101870009B001A439DF818301B0242EA03019DF8B1
:101880001C301B04019A1943039B02F5E07243F8D4
:10189000221000BF05B05DF804FB84B00190032363
:1018A0000393019B03F00103002B02D04FF402438A
:1018B0000393019B03F00203002B02D048F20123A3
:1018C0000393019B03F00403002B02D048F2022390
:1018D0000393039B184604B07047000000B585B021
:1018E0000190009101238DF80F30009B1B7B032B8F
:1018F00056D801A252F823F071190200891902008A
:101900004919020009190200009B9B6803F4802317
:10191000002B07D00198FFF73DFF0246009B1B6993
:101920009A420DD1009B9B6803F48023002B39D190
:101930000198FFF72FFF0246009B5B699A4231D066
:1019400000238DF80F302DE00198FFF723FF0246AA
:10195000009B1B699A4207D10198FFF72BFF0246B3
:10196000009B5B699A421FD000238DF80F301BE06B
:101970000198FFF70FFF0246009B1B699A4215D0A2
:1019800000238DF80F3011E00198FFF713FF024696
:10199000009B1B699A420BD000238DF80F3007E0A3
:1019A00000BF06E000BF04E000BF02E000BF00E0AF
:1019B00000BF9DF80F3083F00103DBB2002B05D090
:1019C0000198FFF782FE0198FFF776FE9DF80F3031
:1019D000184605B05DF804FB00B58BB00590049186
:1019E00003920293059B1B791A46342302FB03F3EF
:1019F000404A13440793079B93F82D30002B03D0E4
:101A000008230993099B70E0059B1A68059B1B79C5
:101A10001946394B53F8213019461046FFF73CFC64
:101A20000346002B03D011230993099B5DE0079B1C
:101A3000039A1A60079B029A5A60079B00229A60D9
:101A4000079B002283F83020079B002283F82F2079
:101A5000049B5A7B079B83F83220049B1868002361
:101A6000019306230093032300220021FFF7E4FEE5
:101A7000049B58680023019306230093032300224C
:101A80000021FFF7D9FE059B1B680893049B19688A
:101A9000049B5B681A460898FFF720FE049B9B682E
:101AA00019460898FFF729FE079B1B68002B15D0E5
:101AB000059B1B681846FFF77DFD03461A46049BED
:101AC0001B7B19461046FFF77DFD059B1B681846DA
:101AD000FFF770FD03461846FFF789FD079B0122BB
:101AE00083F82D2000230993099B18460BB05DF85D
:101AF00004FB00BF700A00207C2E030000B585B0F7
:101B00000190019B1B791A46342302FB03F3084A18
:101B100013440393019B1B681846FFF7CDFD039BFD
:101B2000022283F82D2000BF05B05DF804FB00BF42
:101B3000700A002000B583B001900091009B03F073
:101B40000103002B03D00198FFF73CFE02E001984F
:101B5000FFF741FE009B03F00203002B03D0019826
:101B6000FFF742FE02E00198FFF747FE00BF03B017
:101B70005DF804FB30B589B00390029101920093A7
:101B80000023079308238DF81B30039B002283F862
:101B90002E20019BDB681846FFF7FEFC034683F00E
:101BA0000103DBB2002B03D010230793079BDDE179
:101BB000A9490298FFF776FD039B93F82F30DBB21B
:101BC000002B09D0039B9B6819460298FFF760FD24
:101BD00011230793079BC9E1009B03F00403002B2B
:101BE00006D1009B03F01003002B01D1012300E07C
:101BF000002303F00103DAB2039B83F82F20039B39
:101C0000019A03F10C0415460FCD0FC42B68236015
:101C1000009B1B0903F00103002B14BF01230023C9
:101C2000DAB2039B83F83020039B009A1A62019B6F
:101C30005B7819460298FFF778FD4FF4827102989D
:101C4000FFF7FFFC4FF492710298FFF7FAFC4FF494
:101C5000B0710298FFF7F5FC4FF4A4710298FFF7FA
:101C6000F0FC00990298FFF765FF019B1B78032B9E
:101C700000F2BB8001A252F823F000BF731D0200E6
:101C8000BB1D02001B1D02008D1C0200019B1B6975
:101C90001846FFF781FC034683F00103DBB2002BFB
:101CA00003D010230793079B60E14FF480710298E3
:101CB000FFF766FD019BD968019B5B681A46029895
:101CC000FFF740FD4FF4A8710298FFF7BAFC2021FE
:101CD0000298FFF7A8FC08210298FFF7A4FC00BFB8
:101CE0004FF4A8710298FFF7C1FC034683F001038B
:101CF000DBB2002BF4D14FF4A8710298FFF7A1FCDE
:101D0000019B1969019B9B681A460298FFF71AFD0F
:101D1000039B4FF480229A606AE0019BD968019B83
:101D20005B681A460298FFF70DFD019B1B69184678
:101D3000FFF732FC034683F00103DBB2002B03D034
:101D400010230793079B11E1019B1969019B9B6875
:101D50001A460298FFF705FD4FF484510298FFF7E9
:101D60000FFD039B02229A6020210298FFF75BFC83
:101D70003EE0019BD968019B5B681A460298FFF719
:101D8000E1FC009B03F02003002B09D04FF480718D
:101D90000298FFF7F5FC039B4FF480229A6007E05E
:101DA0004FF400710298FFF7EBFC039B02229A604C
:101DB00020210298FFF737FC1AE0019BD968019BAC
:101DC0005B681A460298FFF7CCFC4FF480510298EA
:101DD000FFF7D6FC039B02229A6000238DF81B308C
:101DE00020210298FFF71FFC02E00723079300BFA2
:101DF000009B03F00803002B09D1019B1B78032BE8
:101E000005D09DF81B3019460298FFF70CFC039B88
:101E10001B68002B22D0009B03F00403002B02D090
:101E2000039B00229A60009B03F04003002B05D126
:101E3000039B9B6843F00202039B9A60039B9B6891
:101E400043F40072039B9A60039B9B6819460298B7
:101E5000FFF71EFC89E000BF02029C0100238DF801
:101E60001A304FF4A4710298FFF700FC0346002BD0
:101E700002D001238DF81A304FF482710298FFF7D7
:101E8000F5FB0346002B07D04FF482710298FFF751
:101E9000D8FB01238DF81A304FF492710298FFF7A6
:101EA000E5FB0346002B38D04FF492710298FFF700
:101EB000C8FB4FF4B0710298FFF7D8FB03468DF8CA
:101EC00019300298FFF76EFC05909DF8193083F0E9
:101ED0000103DBB2002B04D1059B03F40073002B3C
:101EE0000AD120210298FFF79EFB14210298FFF7E8
:101EF0009AFB00238DF81A309DF81930002B0CD076
:101F0000059B03F48073002B07D04FF4A471029853
:101F1000FFF797FB00238DF81A309DF81A3083F0F5
:101F20000103DBB2002B9CD10298FFF7F0FB049079
:101F3000039B002283F82F20049B002B04D00498DD
:101F4000FFF7ABFC079010E0009B03F04003002B71
:101F50000BD103990298FFF7C1FC034683F00103FC
:101F6000DBB2002B01D003230793079B184609B06F
:101F700030BD00BF00B587B00390029101920023ED
:101F80000593039B1B791A46342302FB03F3084A8B
:101F900013440493039B1968019B029A0498FFF76A
:101FA000E9FD0590059B184607B05DF804FB00BFEE
:101FB000700A002000B58BB00390019200930B468D
:101FC0008DF80B3000238DF814309DF80B308DF810
:101FD0001530009B069300230793019B0893002371
:101FE00009939DF83030002B01D0202200E0002220
:101FF00005AB19460398FFF7BDFF034618460BB023
:102000005DF804FB00B58BB00390019200930B4682
:102010008DF80B3001238DF814309DF80B308DF8BE
:102020001530009B069300230793019B0893002320
:10203000099305AB002219460398FFF79BFF03465F
:1020400018460BB05DF804FB30B58BB001900091E1
:102050004FF492710198FFF709FB0346002B3ED025
:102060004FF492710198FFF7ECFA4FF482710198E6
:10207000FFF7FCFA034683F00103DBB2002B2ED0FE
:10208000009B9B6819460198FFF70CFB009B0222FE
:102090009A60009B9B6819460198FFF7F9FA4FF484
:1020A000B0710198FFF7E2FA034683F00103DBB257
:1020B000002B07D10198FFF775FB034603F400736B
:1020C000002B07D120210198FFF7ADFA14210198C8
:1020D000FFF7A9FA009B012283F82E20F6E04FF4C7
:1020E00082710198FFF7C2FA0346002B5DD04FF4CE
:1020F00082710198FFF7A5FA009B1B6A03F0400369
:10210000002B1AD1009B93F82E3083F00103DBB231
:10211000002B12D000990198FFF7E0FB0346002B3B
:1021200014BF01230023DBB283F00103DBB203F011
:102130000103DAB2009B83F82E20009B1B6A03F098
:102140000403002B79D1009B04AC03F10C050FCDE7
:102150000FC42B6823604FF4B0710198FFF771FA38
:102160004FF4AE710198FFF76CFA009B93F8303092
:1021700083F00103DBB2002B04D1009B93F82E30D7
:10218000002B5AD000210198FFF7FAFA009B002299
:102190009A604F490198FFF785FA0198FFF70AFA0C
:1021A00003461846FFF731FA47E04FF4A47101984F
:1021B000FFF747FA009B1B7B002B22D1009B04AC4E
:1021C00003F10C050FCD0FC42B682360009B93F81F
:1021D000303083F00103DBB2002B2ED000210198B8
:1021E000FFF7CEFA009B00229A6039490198FFF769
:1021F00059FA0198FFF7DEF903461846FFF705FA8A
:102200001BE04FF400710198FFF7BAFA009B40F20F
:1022100002229A602E490198FFF744FA009B9B68BE
:1022200019460198FFF734FA08210198FFF7FBF9E6
:1022300020210198FFF7F7F948E00198FFF767FAC6
:102240000990099B03F00203002B03D001238DF8B2
:102250000C301DE0099B03F00403002B03D0022384
:102260008DF80C3014E0099B03F00103002B03D020
:1022700003238DF80C300BE0009B93F82E30002BDD
:1022800003D004238DF80C3002E000238DF80C30CD
:10229000009B93F8303083F00103DBB2002B03D0B6
:1022A000009B002283F82F20009B1B6A03F004038D
:1022B000002B04D0009B93F82E30002B06D0009BFF
:1022C0001B68009A516803AA104698470BB030BDAE
:1022D00002029C0108B503494FF04020FFF7B4FE0D
:1022E00000BF08BD700A002082B003468DF8073099
:1022F0009DF90730002B0CDB9DF8073003F01F021F
:1023000005499DF907305B09012000FA02F241F806
:10231000232000BF02B0704700E100E082B0034616
:1023200000918DF807309DF90730002B0ADB009BE8
:10233000DAB20C499DF907305201D2B20B4483F84E
:1023400000230BE0009BDAB207499DF8073003F049
:102350000F03043B5201D2B20B441A7600BF02B005
:10236000704700BF00E100E000ED00E082B00190A6
:10237000019B1B0B5BB2184602B0704700B583B0DF
:1023800003460A468DF8073013468DF806309DF84F
:1023900006209DF9073011461846FFF7BFFF00BF22
:1023A00003B05DF804FB00B583B003468DF8073039
:1023B0009DF907301846FFF797FF00BF03B05DF89F
:1023C00004FB00B583B00346ADF80630BDF8063017
:1023D000184600F026F803461B68012B0CBF0123AA
:1023E0000023DBB2184603B05DF804FB00B585B0EE
:1023F0000346ADF80630BDF80630184600F011F877
:1024000003461A4600231360BDF80630184600F054
:1024100008F803461B680393039B00BF05B05DF8F3
:1024200004FB82B00346ADF80630BDF8063003F178
:10243000804303F5C043184602B0704782B0019054
:10244000034A019BC2F8043300BF02B0704700BFCB
:102450000060004082B00190034A019BC2F808333B
:1024600000BF02B0704700BF0060004082B0019022
:10247000034BD3F80423019B1340184602B0704766
:102480000060004082B00190084A019B03F5A273EE
:1024900052F82330054943F00102019B03F5A27372
:1024A00041F8232000BF02B0704700BF0060004029
:1024B00082B00190084A019B03F5A27352F82330C1
:1024C000054923F00102019B03F5A27341F8232083
:1024D00000BF02B0704700BF0060004084B00390AE
:1024E000029113468DF80730144A039B03F5A2733B
:1024F00052F82330114923F44F3323F44073039AE5
:1025000002F5A27241F822300C4A039B03F5A27334
:1025100052F82320029B1B0203F47C519DF80730E4
:102520001B0403F440330B4304491A43039B03F594
:10253000A27341F8232000BF04B070470060004040
:1025400082B00190054A019B03F5A27352F8233033
:102550001B0A03F03F03184602B0704700600040BA
:1025600082B00190064A019B03F5A27352F8233012
:102570001B0C03F00303DBB2184602B0704700BF28
:102580000060004084B00390029111461A460B4649
:102590008DF8073013468DF80630184A039B03F573
:1025A000A27352F82330154923F4991323F4F853F6
:1025B000039A02F5A27241F82230104A039B03F5F8
:1025C000A27352F82320029B1B0203F47C519DF856
:1025D00007301B0403F4403319439DF806301B05F4
:1025E00003F480130B4305491A43039B03F5A273BD
:1025F00041F8232000BF04B0704700BF00600040D6
:1026000082B00190019B1B681F2B02D84FF0A043A2
:1026100006E0019B1B6803F01F02019B1A60024B3E
:10262000184602B0704700BF0003005000B585B0E7
:102630000190084611461A4603468DF803300B46B2
:102640008DF8023013468DF8013001AB1846FFF7C4
:10265000D7FF03909DF803209DF802305B001A43DA
:102660009DF801309B001A439DF818301B0242EA86
:1026700003019DF81C301B04019A1943039B02F5CA
:10268000E07243F8221000BF05B05DF804FB00B50E
:1026900085B00390002301930023009300230122BF
:1026A00001210398FFF7C2FF00BF05B05DF804FBEE
:1026B00000B585B003900B468DF80B309DF80B30BC
:1026C0000022019200220092002200210398FFF7CD
:1026D000ADFF00BF05B05DF804FB00B585B001900B
:1026E00001AB1846FFF78CFF0390019A039B02F59C
:1026F000E07253F8223023F002030293019A039B05
:1027000002F5E072029943F8221000BF05B05DF8AF
:1027100004FB00B585B001900B468DF8033001AB8A
:102720001846FFF76DFF0390019A039B02F5E072D4
:1027300053F82230019A23F44031039B02F5E072F2
:1027400043F82210019A039B02F5E07253F82230FD
:102750009DF8032012041146019A1943039B02F5C8
:10276000E07243F8221000BF05B05DF804FB00B52D
:1027700085B0019001AB1846FFF742FF0390019B23
:10278000012202FA03F31946039800F04BF800BF48
:1027900005B05DF804FB00B585B0019001AB1846AB
:1027A000FFF72EFF0390019B012202FA03F3194663
:1027B000039800F041F800BF05B05DF804FB00B5D8
:1027C00085B0019001AB1846FFF71AFF03900398FC
:1027D00000F020F80246019B22FA03F303F0010304
:1027E000184605B05DF804FB00B585B0019001AB5B
:1027F0001846FFF705FF0390019A039B02F5E0726C
:1028000053F822301B0C03F00303DBB2184605B06B
:102810005DF804FB82B00190019BD3F81035184697
:1028200002B0704782B001900091019B009AC3F8FA
:10283000082500BF02B0704782B001900091019B53
:10284000009AC3F80C2500BF02B0704788B003900F
:1028500002910192164A05AB92E8030083E8030057
:10286000039B079319E0079B9B0008AA134453F8A6
:102870000C3CD3F82025019B1A60079B9B0008AAFB
:10288000134453F80C3C019A1268C3F82025019BAD
:1028900004330193079B01330793039A029B13446C
:1028A000079A9A42DFD300BF00BF08B0704700BF4D
:1028B000802E030000B585B0019001AB1846FFF7EC
:1028C0009FFE0390019B012202FA03F31A46039B29
:1028D000C3F8202500BF05B05DF804FB84B001906B
:1028E000019B5B09029300230393029B002B03D0FF
:1028F000029B012B04D007E04FF0FF33039303E06A
:1029000040F2FF33039300BF019B03F01F030193C9
:10291000039A019B22FA03F303F00103002B14BF77
:1029200001230023DBB2184604B0704784B0019045
:102930000091009B0393019BDB080293019B03F032
:10294000070301930122019B02FA03F30399029A00
:102950000A4412781340184604B0704784B00190BE
:102960000091009B0393019BDB080293019B03F002
:1029700007030193039A029B13441B785AB2012167
:10298000019B01FA03F35BB2134359B2039A029B12
:102990001344CAB21A7000BF04B0704782B00190ED
:1029A000074A019B1344243393F90030B3F1FF3FEE
:1029B00014BF01230023DBB2184602B0704700BFEA
:1029C000A40A002082B001900C4A019B13442433D6
:1029D00093F90030002B09DB084A019B1344243390
:1029E00093F90030072B01DC012300E0002303F002
:1029F0000103DBB2184602B0704700BFA40A0020F2
:102A000082B00190064A019B1344243393F90030AD
:102A1000072BCCBF01230023DBB2184602B070475E
:102A2000A40A002082B00190064A019B134424337B
:102A300093F90030DB43DBB2DB09DBB2184602B0AE
:102A4000704700BFA40A002084B003900291019255
:102A50008DF80330029B59B20E4A039B1344243372
:102A60000A461A700B49029B019A41F823209DF8EF
:102A7000033083F00103DBB2002B08D0029B083B3C
:102A8000039A51B2034A13440A4683F84E2000BF0A
:102A900004B07047A40A002082B00190044A019B50
:102AA00013442433FE221A7000BF02B0704700BFE7
:102AB000A40A002082B00190044A019B13442433ED
:102AC000FF221A7000BF02B0704700BFA40A0020A6
:102AD00000B583B0019004490198FFF73FFF00BFA4
:102AE00003B05DF804FB00BFF30A002082B0019040
:102AF000044A019B1344243393F90030184602B072
:102B0000704700BFA40A002082B00190034A019BD5
:102B100052F82330184602B0704700BFA40A0020C4
:102B200084B00190074A019B13444E3393F900305F
:102B30008DF80F309DF80F3023F0C003184604B015
:102B4000704700BFA40A002084B00190074A019B8F
:102B500013444E3393F900308DF80F309DF80F3049
:102B60009B09DBB2184604B0704700BFA40A0020DE
:102B700000B589B00390029113468DF80730FF230A
:102B80008DF81F309DF80730002B01D0002300E0A6
:102B9000082305939DF80730002B01D0082300E09F
:102BA00009230493059B069314E00F4A069B52F8F1
:102BB0002330B3F1FF3F0AD19DF80730029A0699FE
:102BC0000398FFF741FF069B8DF81F3006E0069B38
:102BD00001330693069A049B9A42E6D39DF91F306F
:102BE000184609B05DF804FBA40A002082B0034631
:102BF0008DF807309DF80730094A4FF0FF3142F851
:102C000023109DF80730072B07D99DF80730083BA4
:102C1000034A1344FF2283F84E2000BF02B07047DE
:102C2000A40A002000B583B02D4B93F85530002B3B
:102C300003D008230093009B4EE000238DF807305B
:102C400011E09DF807301846FFF748FE0346002BB9
:102C500004D09DF807301846FFF72CFF9DF8073089
:102C600001338DF807309DF80730292BE9D900236F
:102C70008DF8073009E09DF807301846FFF7B6FFDA
:102C80009DF8073001338DF807309DF80730082B89
:102C9000F1D906220021134800F0B2FB1248FFF7D9
:102CA00065FB034607211846FFF768FB0E48FFF750
:102CB0005DFB03461846FFF776FB4FF4BE70FFF747
:102CC00095FB4FF00040FFF7B9FB054B012283F85D
:102CD000552000230093009B184603B05DF804FBC9
:102CE000A40A0020F30A00200060004000B585B06F
:102CF00001900091002303930198FFF74FFE0346D4
:102D0000002B02D00823039334E0009B9B78002B18
:102D100019D0012200210198FFF72AFF03468DF800
:102D20000B309DF90B30B3F1FF3F09D09DF90B003B
:102D3000009B1A78009B5B780199FFF723FC05E064
:102D40000423039302E00198FFF7A6FE039B002BE8
:102D500010D1009B5B78012B03D10198FFF707FD91
:102D600002E00198FFF717FD0198FFF790FC01982A
:102D7000FFF7AEFE039B184605B05DF804FB0000AC
:102D800000B587B003900291019200230593039848
:102D9000FFF748FE0346002B02D00823059357E0B7
:102DA000029B9B78C3F34003DBB21A460199039858
:102DB000FFF7DEFE03468DF813309DF91330B3F1B3
:102DC000FF3F43D0029B9B78C3F38003DBB283F0C9
:102DD0000103DBB2002B13D0029B9B7803F00103AD
:102DE000DBB2002B03D00398FFF777FC05E0029BD2
:102DF0005B7819460398FFF75BFC0398FFF768FEC2
:102E0000029B9B7803F00203DBB2002B08D09DF9F4
:102E10001300029B1B781A460399FFF75FFB17E02C
:102E20009DF91330083B0D4A134493F94E10029B51
:102E30001B789B015AB29DF91330083B0A4351B2EB
:102E4000064A13440A4683F84E2001E00423059302
:102E5000059B184607B05DF804FB00BFA40A0020DC
:102E600000B589B001900B468DF803300198FFF74B
:102E7000C7FD0346002B2AD00198FFF737FE034613
:102E8000083B1846FFF760FE03468DF80F309DF8AB
:102E90000F30032B0BD10198FFF791FC0346002B59
:102EA00001D0032300E002238DF81F3008E09DF8D5
:102EB0000F30012B01D1022300E003238DF81F30D6
:102EC0009DF81F3019460198FFF723FC30E0019868
:102ED000FFF778FD0346002B2AD00198FFF706FE86
:102EE00003460693069B9BB240339BB29B00ADF812
:102EF0001630069B1846FFF7C5FABDF8163018467F
:102F0000FFF774FA9DF80330002B11D00198FFF7FA
:102F1000EDFD03461846FFF7F7FD0490049B002BD8
:102F200006D00122069B02FA03F31846FFF786FA41
:102F300000BF09B05DF804FB00B585B001900198B1
:102F4000FFF75EFD0346002B04D000210198FFF738
:102F5000E0FB15E00198FFF735FD0346002B0FD08D
:102F60000198FFF7C3FD03460393039B1846FFF741
:102F70009FFA0122039B02FA03F31846FFF76AFA4D
:102F800000BF05B05DF804FB00B583B00190019867
:102F9000FFF715FC0346002B14BF01230023DBB20F
:102FA000184603B05DF804FB00B585B00190019AA6
:102FB00002210020FFF74AFC002303930BE0039B50
:102FC0009B00019A13441B68002B01D0012306E0EB
:102FD000039B01330393039B012BF0D90023184675
:102FE00005B05DF804FB000000B587B00190002338
:102FF00005935BE0344A059B13444E3393F900304C
:10300000B3F1FF3F4ED00598FFF78AFD0490019978
:103010000498FFF78BFC0346002B44D00598FFF77C
:1030200093FD03468DF80F300498FFF7DDFB034650
:103030008DF80E309DF80E30022B01D1032300E0F5
:1030400002238DF80D309DF80D3019460498FFF7D6
:1030500060FB0498FFF72EFC0498FFF747FD03463A
:103060001846FFF751FD0290029B002B1BD09DF8E4
:103070000F30032B0FD09DF80E30022B03D19DF89B
:103080000F30012B07D09DF80E30032B0BD19DF88C
:103090000F30022B07D19DF80F20029B1146049898
:1030A000984700E000BF059B01330593059B002B6B
:1030B000A0D00198FFF778FF0346002B97D100BFFF
:1030C00000BF07B05DF804FBA40A002000B58BB078
:1030D0000023089301AB00221A605A604FF48073FA
:1030E000ADF81A30012309930023079321E0BDF8BE
:1030F0001A301846FFF765F90346002B0ED00998E1
:10310000FFF7B4F90346002B08D0BDF81A30184673
:10311000FFF76CF9089A099B13430893099B5B001E
:103120000993BDF81A300433ADF81A30079B013308
:103130000793079B072BDAD94FF4BE70FFF741F9CD
:103140000346002B0DD04FF4BE70FFF74FF9089BDC
:1031500043F00043089301AB1A4602210020FFF719
:1031600075FB089BDBB2002B29D0012309930023B8
:10317000079321E0099A089B1340002B16D007986B
:10318000FFF7DEF905900798FFF7EAF903468DF897
:1031900013300798FFF7B8FC0390039B002B05D072
:1031A0009DF81320039B114605989847099B5B00E7
:1031B0000993079B01330793079B072BDAD9089BD9
:1031C000002B03DA01AB1846FFF70EFF00BF0BB070
:1031D0005DF804FB00487047FC0A002070B5041E2F
:1031E00006DB002C1DDD002600200F490F4D06E0F8
:1031F00064420126F8E764100835002C07DD14F05E
:10320000010FF8D0D5E9002301F086FBF3E72EB1DA
:1032100002460B460020044901F01AFC41EC100B59
:1032200070BD00200049F9E70000F03FC82E030000
:1032300010B504460846A2684AB12368616803F1E4
:10324000010C8C4508BF00208B4208D2D054E368A3
:103250002BB121686268914201D2214698472368C8
:103260000133236010BD70B54C1E09D41646C5B29B
:1032700029463046FFF7DCFF013CB4F1FF3FF7D1B0
:1032800070BD10F0100F08D108B510F4007F14BF06
:1032900030202020FFF7E7FF08BD70470028B8BFA7
:1032A0004042704700B5FFF795FF024B18445DF8A8
:1032B00004FB00BF0800000038B5204B204A9B1AD1
:1032C000102B39D9044601F097F904F1130020F0CE
:1032D0000F021C4B186858B34FF0FF3400252946E5
:1032E00011E041B103680B60044644F8042B01F07F
:1032F00084F9204638BD0168124B1960F4E7036871
:10330000014653B1184643689342EAD09342F6D936
:10331000A3423CBF1C460546F1E74DB16B689B1AC2
:103320006B60A31AEC18EA5001F067F90434E0E787
:1033300001F063F90024DCE70024DAE71C2B00200D
:103340001C0B0020200000200CB400B587B008AA98
:1033500052F8043B05920390002004900291194614
:1033600001A800F0D5F807B05DF804EB02B0704793
:10337000037853B159B10144034613F8012F12B138
:103380008B42FAD10B46181A70470346FBE70346F7
:10339000F9E710B584B00C46114602900022039262
:1033A00001941A46684600F0B3F804B010BD844694
:1033B00040EA010313F0030F18D18446202A0BD3EF
:1033C0002DE9F007B1E8F807A0E8F807A2F120021C
:1033D000202AF7D2BDE8F007042A07D351F8043BAE
:1033E00040F8043BA2F10402042AF7D2002A05D0D7
:1033F00011F8013B00F8013B013AF9D160467047F2
:103400008446002A2DD010F0030F04D000F8011BD1
:10341000013A26D0F7E7C9B241EA012141EA014168
:10342000202A12D3A2F120022DE9F0030B460C460C
:103430000D460E460F4688468946A0E8FA03203A14
:10344000FBD2BDE8F00320320BD0042A05D340F8AC
:10345000041B043A05D0042AF9D200F8011B013AF2
:10346000FBD160467047024610F0030F16D111F0F1
:10347000030F13D12DE9F0004FF001374FF08033E7
:1034800051F8044BA4EB070525EA04051D4002D1C1
:1034900042F8044BF4E7A1F10401F0BC11F8013B40
:1034A00002F8013B002BF9D1704700F1010110F047
:1034B000030F11D010F8012B002A23D010F0030FB6
:1034C0000AD010F8012B002A1CD010F0030F03D0F3
:1034D00010F8012B002A15D02DE970004FF00132B1
:1034E0004FF0803350F8044BA4EB020525EA0405A5
:1034F0001D4000D1F6E7A0F1040070BC10F8012BCC
:10350000002AFBD1A0EB0100704700000000000082
:103510002DE9F04F2DED088B93B0824609920023E0
:1035200003600C4614F8011B002900F0E9879FEDA9
:103530009C9B9FED9DBB9FED9EAB4F4600F0D2BF85
:10354000002507E05E2869D145F4805501E045F08B
:1035500040051C46234613F8010B3028F2D81F28DB
:1035600037D9A0F12002102A33D801A151F822F056
:103570004F350200D3350200D3350200B5350200C5
:10358000D3350200D3350200D3350200BB3502002B
:10359000D3350200D3350200D3350200C135020015
:1035A000D3350200C7350200D3350200D3350200FF
:1035B000CD35020045F08005CBE745F40045C8E76E
:1035C00045F02005C5E745F01005C2E745F4007554
:1035D000BFE72A2822D1099A111D09911268002AF1
:1035E000BCBF524245F010051878A31C22EAE272D3
:1035F00004922E2827D00026742848D07A2846D056
:103600006A2800F0C5806C2800F0D6804C2800F0B5
:10361000E180682800F0EF809B463BE0A0F130029B
:10362000D2B2092A88BF0022E0D8002202EB82022F
:10363000303800EB420213F8010BA0F13001C9B29F
:103640000929F3D9D2E718782A280AD1099A111D35
:103650000991166858780233002ECDDB45F4807549
:10366000CAE70133A0F13002D2B2092A88BF00268E
:10367000F4D8002606EB8606303800EB460613F831
:10368000010BA0F13002D2B2092AF3D9E4E79B463C
:103690001BF8010B782800F2A080DFE810F0430748
:1036A0009E009E009E009E009E009E009E009E002A
:1036B0009E009E009E009E009E009E009E009E001A
:1036C0009E009E009E009E009E009E009E009E000A
:1036D0009E009E009E009E009E009E009E009E00FA
:1036E0009E009E009E009E00BA009E009E009E00CE
:1036F0009E009E009E009E009E009E009E009E00DA
:103700009E009E009E009E009E009E009E009E00C9
:103710009E009E009E009E009E009E009E009E00B9
:103720009E009E009E009E000B0226022B029E0021
:103730009E009E009E009E009E009E009E009E0099
:103740009E009E009E009E009E009E009E004E01D8
:103750009E009E009E009E009E009E009E009E0079
:103760009E009E00C000A4010D0228022D029E00B2
:10377000A4019E009E009E009E00D10090012801A1
:103780009E009E00EC009E009C019E009E00500149
:1037900045F002059B461BF8010B7BE7AFF3008069
:1037A000000000000000E03F000000000000594061
:1037B000A0C8EB85F3CCE17F18786C2804D003F126
:1037C000010B45F0010565E745F0020503F1020B29
:1037D00058785FE745F001059B46B24B1C68002C0A
:1037E00000F07C8609AB01930096049B2A46514663
:1037F000A04700F073BE1878682804D003F1010BCD
:1038000045F0040546E745F0080503F1020B58783A
:1038100040E725215046FFF70BFD00F05FBE099BF6
:103820001A1D09921C78049B03F1FF385246414649
:103830002846FFF726FD21465046FFF7F9FC47E0F2
:1038400015F0080F08D0DAF80020099B191D09911E
:103850001B681A7000F042BE15F0020F099B03F1BD
:10386000040209921B68DAF800201A601CBF0022CB
:103870005A6000F033BE099B1A1D09921B6802931F
:103880002B468948029A002A18BF1046029023F45A
:10389000007513F4807F26D03146FFF769FD04469A
:1038A000049BA3EB0408524641462846FFF7E9FC77
:1038B000671E6CB1DDE90267334601361978504660
:1038C000FFF7B6FC013CF7D1CDE902674FF0FF37B7
:1038D00015F0100F00F00286524641462020FFF7F7
:1038E000C2FC00F0FBBDFFF7E0FD0446D8E70999F4
:1038F0000B1D09930A68002310461946CDE9020101
:1039000015F0800F18BF2323059345F48075082612
:10391000DDE902783946424643463B4300F0BB8529
:103920000BAF002405F4005CDFF88081DFF880E154
:103930006346AC461D4600F061BD45F4005515F0E8
:10394000800F08D043F2780243F25803782818BF5A
:103950001A46059201E00023059315F4807F01D0FB
:1039600025F4007515F4804F64D015F0020F42D095
:10397000099B073323F0070303F108020992D3E9F7
:103980000034CDE9023415F0040F3FD0DDE9022305
:1039900014B242F3C03122460B46CDE90223DDE9E1
:1039A00002784246002A3BDA7B421C4668EB48011B
:1039B00022460B46CDE902232D23059352E015F054
:1039C000800F0CBF00233023059315F4807FC9D0EE
:1039D00025F40075C6E715F4807F09D025F400753D
:1039E00000230593BEE745F4804500230593B9E71E
:1039F00000230593B6E7099B1A1D09921B681C4614
:103A0000D91722460B46CDE90223BCE715F0080F73
:103A1000C5D09DF80840002122460B46CDE902237F
:103A200015F0200F3BD115F0400F059B18BF202348
:103A3000059317E015F0020F1CD0099B073323F004
:103A4000070303F108020992D3E90034CDE90234F7
:103A500015F0040F18D0BDF80840002122460B468F
:103A6000CDE9022315F4807F00F0448425F400752D
:103A700000F041BC099B1A1D09921C6800212246D6
:103A80000B46CDE90223E3E715F0080FEAD09DF8D5
:103A90000840002122460B46CDE90223E2E72B2312
:103AA0000593DFE7FC0A0020102F0300A02E03007F
:103AB000B02E030045F4005545F48068099B073398
:103AC00023F0070303F10802099293ED008B8DEDBB
:103AD000028B18F4807F12D096B908F44066B6F5D0
:103AE000406F14BF002601260AE045F4005545F456
:103AF0000068E3E745F4005545F44068DEE7062634
:103B0000B0EE480AF0EE680A01F064F9002840F0CF
:103B1000CB80B0EE480AF0EE680A01F065F9089033
:103B2000002840F0DE80B0EE480AF0EE680A01F0AE
:103B300065F960B148F060088DED068A18EE903A9C
:103B400003F100430793DDE90634CDE90234DDE9F2
:103B5000024511A845EC104B01F05EF9119B03EBF7
:103B60004303B64A82FB0312DB17C3EBA203119394
:103B7000002200232046294601F06EF8002800F0BC
:103B8000BC8008F440630593B3F5806F0AD0B3F5A9
:103B9000406F40F03282119BB34203DA13F1040FFD
:103BA00080F22B821198B0F59A7F40F0C28053ECDE
:103BB0001A2B2046294600F04BFFCDE90201DDE932
:103BC0000245002200232046294601F045F800283E
:103BD00048D145EC104B01F0FDF8002840F0B580CD
:103BE0000022974B2046294601F050F8C0B1119BA6
:103BF00003F10109CDF808900022914B2046294697
:103C000000F026FF04460D4609F1010900228C4B05
:103C100001F03CF80028EDD1029B1193CDE902455B
:103C2000DDE902450022874B2046294601F068F86D
:103C3000C0B1119B03F1FF39CDF808900022804BF1
:103C40002046294600F068FE04460D4609F1FF397A
:103C500000227C4B01F054F80028EDD1029B119317
:103C6000CDE90245002E00F06684059BB3F5406F58
:103C700000F088807042FFF7B1FA51EC100B53EC62
:103C8000192B00F049FEDDE9022300F01FFD044678
:103C90000D46CDE902450022694B00F0F7FF0028F0
:103CA00000F06F8400F05FBC0022002351EC180B81
:103CB00001F026F868B918F4005F634B634A08BF47
:103CC000134618F0200F08BF0133029328F48073C5
:103CD000D7E518F4005F5E4A5E4B18BF13460293A7
:103CE000F4E718F4005F5C485C4B08BF184628F402
:103CF0008073CBE5119B0133119311980130FFF7CD
:103D00006DFA53EC102B2046294600F0DDFF002809
:103D1000F0D102E0119B013B11931198FFF75EFA7D
:103D200053EC102B2046294600F0EAFF0028F1D181
:103D300027E74042FFF752FA53EC102B2046294662
:103D400000F0EAFDCDE9020139E700220023204618
:103D5000294600F0D5FF68B918F4005F3A4B3B4A9A
:103D600008BF134618F0200F08BF0133029328F450
:103D7000807386E518F4005F354A364B18BF13464A
:103D80000293F4E706F1FF39C6F10100FFF726FAC6
:103D900051EC100B53EC192B00F0BEFDDDE90223B2
:103DA00000F094FC04460D46CDE902450022244B68
:103DB00000F06CFF08B14E46D5E34E46DEE3102E10
:103DC000A8BF1026DDE902453046FFF707FA53EC9D
:103DD000102B2046294600F09FFD00F0ADFF8146E4
:103DE000059151EA00030BD128F400630593049B6D
:103DF000A3F1050918F0800340F0D1830893D0E3C4
:103E00000A22002300F0FAFB134340F0C0830A2487
:103E10000025013E22462B464846059900F0EEFB60
:103E200081460591002EDFD022462B4600F0E6FBAE
:103E30001343EED0ABE301261FE000BF6766666662
:103E4000000024400000F03F282F0300302F030023
:103E5000182F0300202F0300382F03003C2F0300EE
:103E60000022C34BDDE9020100F056FDCDE902015D
:103E7000013C119409F1FF390226089B23EAE37300
:103E8000089318F0600F18BF09F1FF391198FFF778
:103E900005FA6328C8BF09F1FF39DDE90278384621
:103EA000414600F049FF04460D4600F065FF02461A
:103EB0000B463846414600F02BFDCDE9020129EAC8
:103EC000E977059B13F4047F00F05A81059B13F0FA
:103ED000200F00F0638113F0400F14BF2D212B2120
:103EE0005046FFF7A5F9059B13F0100F00F0608115
:103EF00006F10053013B9F4A02EBC3084FF0300923
:103F0000013ED8F80030D8F804C0A8F108089C4257
:103F100075EB0C02C0F0598149460131C9B2E01A73
:103F200065EB0C0204461546984272EB0C02F4D283
:103F30005046FFF77DF9002EE2D1059B13F4006493
:103F400040F04581089B002B40F05081059B13F009
:103F5000800F40F0EA82059B13F4806F2FD013F49A
:103F6000005F14BF452165215046FFF761F9119BA1
:103F7000002BC0F2A1812B215046FFF759F911996E
:103F8000632900F3A18111997B4C84FB0132C9178D
:103F9000C1EBA2013031C9B25046FFF749F9119B7C
:103FA00084FB0324D917C1EBA40101EB8101A3EB2E
:103FB000410303F13001C9B25046FFF739F9002F30
:103FC00000F08C822024013F21465046FFF730F953
:103FD000002FF8D182E253EC1B2BDDE9020100F047
:103FE0009BFCCDE90201023C1194A9F102090326D0
:103FF00043E73E4641E7012643E718F4806F2FD0A0
:10400000119B0E2B2DDC0133F21A102AA8BF1022AF
:10401000089218F0800F24D1B34222D016463046C1
:10402000FFF7DCF853EC102B2046294600F074FC17
:1040300053EC192B00F04AFB41EC100B00F09CFFF5
:104040009FED491B00F0ECFF51EC100B0022002308
:1040500000F002FE002866D0013EE0D1089600E0A4
:10406000089628F480630593119B089A5042A3F1A7
:104070000F028242C8BFA3F11000FFF7AFF84FF064
:10408000FF3000F0F1FE53EC102B2046294600F0E3
:104090001DFBCDE90201DDE9026711980130FFF750
:1040A0009DF853EC102B3046394600F0EFFD10B16F
:1040B000119B01331193119800284CDB102834DC3C
:1040C0003046394600F038FE04460D4600F054FEF6
:1040D00002460B463046394600F01AFCCDE9020193
:1040E000002311930A2C75F1000339D3234B0126C9
:1040F000013653F8081F5A688C4275EB0202F7D25A
:1041000008998B19119A1344049AA2EB030908F039
:1041100080030B4318BF09F1FF3918F0600F18BF77
:1041200009F1FF39CBE608969BE7A0F11003119344
:10413000C0F11000FFF752F853EC102B304639460F
:1041400000F0EAFB00F0F8FD04460D4600220023D3
:10415000CDE90223C6E7002511952C460126CFE7BD
:104160000126CDE7AFF300800000000000002440EE
:1041700000002440402F030067666666482F030056
:10418000B9F1000F7FF7A2AE4FF02008013F414682
:104190005046FFF74DF8002FF8D197E6059B13F036
:1041A000400F3FF4A0AE20215046FFF741F89AE6B9
:1041B000002F3FF49DAE4FF03008013F414650467E
:1041C000FFF736F8002FF8D192E64946B0E6119B8A
:1041D000002B7FF7B7AE3025013B1193294650469F
:1041E000FFF726F8119B002BF6DCABE62E2150469C
:1041F000FFF71EF8089E102EA8BF102626EAE676C6
:10420000089BA3EB0608D4B1DDE902451198301AEA
:10421000FEF7E4FF53EC102B2046294600F07CFB10
:1042200000F08AFD04460D46C6B3DFF8C89306F1D8
:104230000056013E09EBC606CDF810B01FE0DDE9DF
:1042400002453046FEF7CAFF53EC102B20462946A4
:1042500000F062FB00F070FD04460D46E4E701311A
:10426000C9B2E01A65EB0C0204461546984272EB9F
:104270000C02F4D25046FEF7DBFFCB450CD033687E
:10428000D6F804C0B346083E9C4275EB0C0201D33D
:104290003021E4E73021EDE7DDF810B0B8F1000F90
:1042A0003FF459AE30244546013D21465046FEF7C5
:1042B000BFFF002DF8D14EE62D215046FEF7B8FF86
:1042C000119B5B4211935AE6C74C84FB0132C9171C
:1042D000C1EB62113031C9B25046FEF7A9FF119B04
:1042E00084FB0324DA17C2EB6414642202FB143348
:1042F000119348E601265838202800F2B38001A324
:1043000053F820F0113902006544020065440200B0
:1043100065440200654402006544020065440200F1
:1043200065440200654402006544020065440200E1
:1043300065440200BD43020065440200654402007A
:104340006544020065440200BD430200654402006A
:1043500065440200654402006544020065440200B1
:1043600089430200113902006544020065440200DD
:104370006544020065440200BD430200654402003A
:104380006544020011390200DDE902783A464146EF
:1043900043463B4308BF002465D00BA8002402F02D
:1043A0000703303300F8013B0134D30843EA41737B
:1043B000CF081A4639463B43F1D154E0DDE90212F9
:1043C0000F46904613460B4308BF00244BD00024F1
:1043D00005F40043CDF820B0AB461D4630E001F0B7
:1043E0000F0318F8033007F8013B01340B0943EAC7
:1043F0000273100919460246034306D0002DEED081
:1044000001F00F031EF80330EDE765462BE012AB19
:1044100003EB04090A2200233846414600F0EEF877
:10442000303209F81C2C01340A2200233846414658
:1044300000F0E4F80A2F78F100030FD3074688460E
:10444000002DE4D004F00303032BE0D112AB23448E
:104450004FF02C0203F81C2C0134D8E75D46DDF840
:1044600020B000E00024361B26EAE676049BA3EB8E
:104470000608A8EB0408059BFF2B0ED9A8F102083B
:10448000C3F307215046FEF7D3FE9DF814105046A3
:10449000FEF7CEFE05E00024E5E7059B002B40F08B
:1044A0009F80524641462846FEF7EBFE5246314673
:1044B0003020FEF7D8FE671E0DD40BAF013C3C4404
:1044C000217826465046FEF7B3FEA74204F1FF349A
:1044D000F6D14FF0FF3715F0100F0BD15C4614F8F2
:1044E000011B69B125293FF42BA85046FEF7A0FE19
:1044F000A346F3E7524641462020FEF7B4FEEDE71F
:10450000DAF808303BB1DAF80020DAF804108A4211
:104510003CBF00219954DAF8000013B0BDEC088BC1
:10452000BDE8F08F4FF0FF30F7E72E215046FEF741
:104530007FFE089E64E60020FEF750FE51EC100B53
:1045400053EC192B00F0E8F9DDE9022300F0BEF886
:1045500004460D46CDE902450022244B00F096FBAF
:1045600000283FF441AC119B0133119300221F4BF3
:104570002046294600F06CFACDE90201002E3FF4F6
:1045800033AC08F40863B3F5006F3FF418AC28F4BB
:1045900000630593731D049AA2EB0309089609F1C1
:1045A000FF3918F4805F3FF426AD119C104B83FB5C
:1045B0000423A3EBE47303EB4303E31A0233042B5A
:1045C0003FF617AD01A252F823F000BF613E020092
:1045D000D73F0200373E0200613E0200D73F020093
:1045E00008F1FF3851E700BF1F85EB510000244060
:1045F00056555555402F03007047704753EA020C3B
:1046000061D02DE9F04BB3FA83F51E0007BFB2FA73
:1046100082F502FA05F403FA05F41646C5F1200501
:104620001EBF22FA05F73C43203556EA044C4FEAF8
:10463000144418BF0134A3464FF00009C846904205
:1046400071EB030C39D3094207BFB0FA80F700FAC7
:1046500007F6B1FA81F701FA07F6C7F120071EBF86
:1046600020FA07FC46EA0C062037B6FBFBFC7F1B52
:10467000103F07F01F04C4F120060CFA04F42CFAD2
:1046800006F644BF34460026202FA4BF2646002449
:1046900054EA060C08BF012418EB040849EB06098C
:1046A000A4FB027CC01B06FB02CC04FB03CC71EB19
:1046B0000C01904271EB030CC5D20B4602464946F1
:1046C0004046BDE8F08BB2FBF3F2000030B591EA52
:1046D000030F00F18480841A71EB030C05D21219C8
:1046E00053EB0C03001B71EB0C0140F2000CCFF6F6
:1046F000E07C1CEA430F54D0BCEB410F61D90C0D98
:10470000A4EB135E31EA0C0141F4801133EA0C038F
:1047100043F48013DEF1200C2AD303FA0CF5401980
:1047200041F1000122FA0EF5401923FA0EF5694114
:1047300012FA0CF2CD0208D349085FEA30005FEAB2
:10474000320228BF42F001020134013C5FEA500C02
:1047500072F1004250F1000051EB04514FF400138C
:1047600013EB410F38BF30BD090D0905002030BDE6
:10477000BEF1200EBEF1200F1ED223FA0EF5401915
:1047800041F10001CEF1200C124218BF012203FAC0
:104790000CF52A43CEE711EA5C0F04BF002000218C
:1047A00030BD1CEA410F04BF01F00041002030BDC4
:1047B00001F00041002030BD21F4801101EB0451D3
:1047C00030BD004218BF41F00101BCEB410F08BFF2
:1047D00030BD4FF0FE4141F47801002030BD83F040
:1047E0000043841A71EB030E07D28EF0004E001BBB
:1047F00071EB0E01121953EB0E0340F2000CCFF6D1
:10480000E07C1CEA430FC6D0BCEB410F72D90C0D03
:10481000A4EB135EC90241EA5051C00241F00041CD
:10482000DB0243EA5253D20243F00043DEF1200C94
:1048300041D312FA0CF522FA0EF203FA0CF542EA11
:10484000050218BF42F0010223FA0EF3801A9941C3
:10485000E30AC4F30A0411F0404F03D418D0013C1A
:1048600040004941013C23D44205C00A40EA41507E
:10487000C90A51EAC3715FEA500C72F1004250F16B
:10488000000051EB045130BD01002FD00020203C2E
:104890000029F9D0B1FA81FCDCF1200E11FA0CF1FB
:1048A00030FA0EF510FA0CF02943A4EB0C04D9E70A
:1048B0000020D90730BDAEF1200EBEF1200F0DD281
:1048C000CEF1200C03FA0CF533FA0EF32A4318BF8D
