:020000021000EC
:109000000000022075F101005DF101005FF1010037
:1090100061F1010063F1010065F101000000000051
:1090200000000000000000000000000067F10100E7
:1090300069F10100000000006BF101006DF1010019
:109040006FF101006FF1010019130200C514020055
:10905000111A02006FF10100092802006FF10100EE
:109060006FF101006FF101006FF101006FF101007C
:109070006FF101006FF101006FF101006FF101006C
:109080006FF10100F15902006FF101006FF1010071
:10909000315A02006FF101009D3102006FF10100B1
:1090A0006FF101006FF101006FF101006FF101003C
:1090B0006FF101006FF101000000000000000000EE
:1090C0006FF101006FF101006FF10100DD1402008A
:1090D0006FF101006FF101006FF101006FF101000C
:1090E0006FF101000000000000000000000000001F
:1090F000000000006FF1010000000000F514020004
:10910000000000000000000000000000000000005F
:10911000000000000000000000000000000000004F
:10912000000000000000000000000000000000003F
:10913000000000000000000000000000000000002F
:10914000000000000000000000000000000000001F
:10915000000000000000000000000000000000000F
:1091600000000000000000000000000000000000FF
:1091700000000000000000000000000000000000EF
:1091800000000000000000000000000000000000DF
:1091900000000000000000000000000000000000CF
:1091A00000000000000000000000000000000000BF
:1091B00000000000000000000000000000000000AF
:1091C000000000000000000000000000000000009F
:1091D000000000000000000000000000000000008F
:1091E000000000000000000000000000000000007F
:1091F000000000000000000000000000000000006F
:10F00000354936480A1A02D0072291438D463449C1
:10F0100034480A1A06D00722914381F30988022254
:10F0200082F3148830483149314A00F044F83148BD
:10F030003149324A00F03FF831483249324A00F053
:10F040003AF832483249334A00F035F83248334909
:10F05000334A00F030F833483349344A00F02BF893
:10F0600033483449344A00F026F834483449002201
:10F0700000F02CF833483449002200F027F83348D8
:10F080003349091A082902DB002202604160314A33
:10F0900090471F481F49884205D00268043003B4D6
:10F0A000904703BCF7E700208646EC46002000218D
:10F0B000294A9047FEE7884207D0521A05D00378C4
:10F0C00001300B700131013AF9D17047884202D00A
:10F0D00002700130FAE770470000022000E00120D2
:10F0E0000000022000000220C863030080230020EB
:10F0F000A4230020D0F10100D0F101006C500300E6
:10F10000C86303008023002080230020585103009F
:10F11000585103005851030058510300585103003F
:10F12000585103005851030058510300C6630300AF
:10F13000EC630300A4230020A4230020A4230020C8
:10F140005431002054310020583100206C3100200F
:10F150006C5100209DF10100DDF50100FEE7FEE7A6
:10F16000FEE7FEE7FEE7FEE7FEE7FEE7FEE7FEE777
:10F1700000F002B8FFF7FCBF0F484FF007018843CB
:10F1800085460E4880470E48016841F470010160D1
:10F19000BFF34F8FBFF36F8FFFF732BF09480A49A4
:10F1A0000A4A884207D0521A05D0037801300B7002
:10F1B0000131013AF9D1704700000220110F02001D
:10F1C00088ED00E0585103008023002080230020B8
:10F1D00000B583B0094B1B88184603F073FA034649
:10F1E0000193019B002B04D0044B1B88184603F0AD
:10F1F00041FA019B184603B05DF804FB8023002010
:10F2000000B583B00190019B002B05D0044B1B88F7
:10F210000121184603F0C2F900BF03B05DF804FBFA
:10F220008023002000B585B00190019B002B0AD0FF
:10F23000074B43F001030393019B9B010293039B44
:10F240000298984700E000BF05B05DF804FB00BFDE
:10F250006051030000B583B00190019800F006F9F9
:10F2600000BF03B05DF804FB00B583B001900198C6
:10F27000FFF7D8FF00BF03B05DF804FB00B585B011
:10F28000264B1B689B680393039B4FF080421A61D7
:10F29000039B4FF0A0525A61039B002283F82C205D
:10F2A000039B0293039B1C330193029B03221A705E
:10F2B000029B01221A73029B194A5A60029B022286
:10F2C0001A72019B03221A70019B08225A70019B3B
:10F2D0001D229A70019BFF22DA70019B01221A7194
:10F2E000019BFF225A71019B4FF080429A60019B63
:10F2F00000221A73019B00225A730A4A6B46126855
:10F30000114619800233120C1A706B4619462620DA
:10F3100003F08AF800BF05B05DF804FB90230020DD
:10F3200000F002406851030000B585B00190019BD8
:10F33000002B0AD0074B43F001030393019B9B0171
:10F340000293039B0298984700E000BF05B05DF868
:10F3500004FB00BFC051030082B00190019B1B68F9
:10F360001F2B02D84FF0A04306E0019B1B6803F05F
:10F370001F02019B1A60024B184602B0704700BF83
:10F380000003005000B585B00190084611461A46AA
:10F3900003468DF803300B468DF8023013468DF886
:10F3A000013001AB1846FFF7D7FF03909DF803200B
:10F3B0009DF802305B001A439DF801309B001A4310
:10F3C0009DF818301B0242EA03019DF81C301B0413
:10F3D000019A1943039B02F5E07243F8221000BF23
:10F3E00005B05DF804FB00B585B0039000230193E0
:10F3F000002300930023012201210398FFF7C2FF9D
:10F4000000BF05B05DF804FB00B585B0019001AB0D
:10F410001846FFF7A1FF0390039800F00AF8024690
:10F42000019B22FA03F303F00103184605B05DF8CF
:10F4300004FB82B00190019BD3F81035184602B04E
:10F44000704700B583B00190019B002B0AD04FF4A8
:10F450007A70FFF769FF019B013B0193019B002B31
:10F46000F5D100E000BF03B05DF804FB00B583B048
:10F4700001900198FFF7E5FF00BF03B05DF804FBC2
:10F4800000B583B002F06CFF0190019B0093009BDC
:10F49000002B04D0044A4121009800F0C7FB00BFB4
:10F4A00003B05DF804FB00BF9051030000B583B0CA
:10F4B00001900B468DF8033000F034F800BF03B024
:10F4C0005DF804FB00B585B0134A01AB1268114624
:10F4D00019800233120C1A7001238DF8053001AB2C
:10F4E0000E4A1946222002F0E9FF0390039B029383
:10F4F000029B002B04D00A4A5721029800F096FB89
:10F500000021222003F04AF83320FFF76CFF00BFF0
:10F5100005B05DF804FB00BFB0510300ADF401007D
:10F520009051030008B506E0074B1B68002B02D082
:10F53000054B1B68984700F009F80346002BF3D1F0
:10F5400000BF00BF08BD00BFD423002008B5044B96
:10F550001B881846FFF758FF0346184608BD00BF32
:10F560008023002000B585B00190019B002B0AD0BC
:10F57000074B43F001030393019B9B010293039B01
:10F580000298984700E000BF05B05DF804FB00BF9B
:10F59000D051030000B583B00190019B002B0AD02D
:10F5A0004FF47A70FFF7DEFF019B013B0193019B53
:10F5B000002BF5D100E000BF03B05DF804FB0000B4
:10F5C00000B583B001900199034800F009FB00BF2A
:10F5D00003B05DF804FB00BFC851030008B5032069
:10F5E00001F085FEFFF74CFFFFF748FEFFF76AFFCB
:10F5F0000220FFF7CFFF00F027F9FEE77ADF704720
:10F6000000BF18467CDF704700BF184641DF7047D7
:10F6100000BF184600B583B001900091019B1B8884
:10F62000102B02D0112B08D00FE0019B9A88094BB8
:10F630001A800948FFF7C4FF07E0064B4FF6FF7238
:10F640001A800648FFF7BCFF00BF00BF03B05DF89B
:10F6500004FB00BF94230020D8510300E8510300AD
:10F6600000B595B00390029104A8029B0093039B00
:10F67000054A402106F006FB04AB1846FFF7A0FF41
:10F6800000BF15B05DF804FBFC51030000B58FB05E
:10F6900003F002FD0D900D991748FFF7E1FF0023DD
:10F6A0000C930CAB1946012003F0A2FD0D900D99AF
:10F6B0001248FFF7D5FF0C9B6846114A302106F02F
:10F6C000E1FA6B461846FFF77BFF0CAB184603F0D8
:10F6D0007DFE0D900D990B48FFF7C2FF0C9B68460D
:10F6E000094A302106F0CEFA6B461846FFF768FF4C
:10F6F00000BF0FB05DF804FB0C520300245203005E
:10F70000405203005C5203007052030000B587B002
:10F710009DF80830012262F303038DF808309DF84C
:10F720000830012262F307138DF808301D4806F0F7
:10F730005AFB03469AB202AB1A491846FFF762FF1A
:10F740000590059B0493049B002B04D0164A61216D
:10F75000049800F06BFA6B4608220021184606F068
:10F76000EDFA1023ADF800303C23ADF80230002351
:10F77000ADF804304FF4C873ADF806306B46184648
:10F78000FFF73CFF0590059B0393039B002B04D0E0
:10F79000054A6B21039800F049FA00BF07B05DF8F5
:10F7A00004FB00BF885203009452030000B583B0ED
:10F7B0000021094805F052FA0190019B0093009B3B
:10F7C000002B04D0054A7121009800F02FFA00BFE9
:10F7D00003B05DF804FB00BFE42300209452030053
:10F7E00000B5AFB001ABAC220021184606F0A6FA76
:10F7F00002238DF8043000238DF8063006238DF89F
:10F80000073001238DF88030402323930023249375
:10F8100001AB19460A4804F006FF2D902D9B2C934E
:10F820002C9B002B04D0074A82212C9800F0FEF973
:10F830000121034804F0EAFE00BF2FB05DF804FB8D
:10F84000F42300209452030000B58FB01D48FFF749
:10F85000B7FE1D4B9B6801A81C4A302106F012FA26
:10F8600001AB1846FFF7ACFE06F0E8F80D900D99D5
:10F870001748FFF7F5FE1748FFF7A2FEFFF706FF50
:10F880001548FFF79DFEFFF741FF1448FFF798FE6C
:10F89000FFF78CFF1248FFF793FEFFF7A1FF114817
:10F8A000FFF78EFE0321104804F092FF0D900D9992
:10F8B0000E48FFF7D5FE0E48FFF782FEFFF7A6FEC3
:10F8C000FCE700BFB052030000ED00E0C4520300AB
:10F8D000D4520300E4520300F85203001053030013
:10F8E0002453030040530300F42300205C5303001F
:10F8F0007453030000B583B01F4B0193019B022298
:10F900001A61019B02225A61019B1C4A9A61019B68
:10F910001B4ADA61019B4FF480621A62019B00224C
:10F920009A62019B00225A62019B0022DA62019BCB
:10F93000124A9A64019B134ADA64019B10221A65E9
:10F94000019B00229A65019B00225A65019B0022BF
:10F95000DA65019B07330C49184606F022FA019B31
:10F960000A49184606F01DFA019B20229A7100BF31
:10F9700003B05DF804FB00BFEC24002094530300A7
:10F980006425002064290020A0530300A453030031
:10F9900000B589B003900291019200230693039B66
:10F9A000DB680593039B1B690493049A059B9A42A9
:10F9B00005D9049A059BD31A013B079307E0039BE3
:10F9C0009A680499059BCB1A1344013B0793039B48
:10F9D0009A68059BD31A079A934228BF1346079348
:10F9E000079A019B934228BF13460793039B5A68CB
:10F9F000059B1344079A0299184606F076F9069A71
:10FA0000079B13440693029A079B13440293019A9F
:10FA1000079BD31A0193059A079B13440593039BF5
:10FA20009B68059A9A4201D100230593039B059A8E
:10FA3000DA60019B002BB5D1069B184609B05DF832
:10FA400004FB00B589B0039002910192039BDB682F
:10FA50000793039B9A68079BD31A0693069A019B08
:10FA60009A420ED9039B5A68079B1344019A029944
:10FA7000184606F03AF9079A019B1A44039BDA608C
:10FA80001AE0069B0593039B5A68079B1344059A4B
:10FA90000299184606F029F9019A069BD31A059394
:10FAA000039B5868029A069B1344059A194606F070
:10FAB0001CF9039B059ADA6000BF09B05DF804FBEE
:10FAC00086B00190019B1B690493019BDB68039343
:10FAD000049A039B9A4208D8019B9A68039BD21A06
:10FAE000049B1344013B059304E0049A039BD31A3F
:10FAF000013B0593059B184606B0704700B589B0D9
:10FB0000039002910192029B0693039B5A1C134699
:10FB10005B001344DB00204A13440593059B5B699B
:10FB2000022B29D0022B2ED8002B02D0012B13D070
:10FB300029E00598FFF7C4FF0490049A019B9A42BC
:10FB400002D20023079321E0019B0793019A0699B3
:10FB50000598FFF776FF19E00598FFF7B1FF0490CD
:10FB6000019A049B934228BF13460793079A06996C
:10FB70000598FFF766FF09E0019A06990598FFF7D7
:10FB800007FF079002E00023079300BF079B18467A
:10FB900009B05DF804FB00BFEC24002000B587B07D
:10FBA0000390029101920D4B1B78002B01D1FFF7BE
:10FBB000A1FEEFF311834FF0200181F3118805932B
:10FBC000019A02990398FFF799FF0490059B83F32C
:10FBD0001188049B184607B05DF804FBEC24002054
:10FBE0000FB400B5A3B025AB009301A8009B249AE5
:10FBF000802106F06CF82190219B802B06DD01AB63
:10FC0000802219460020FFF7C9FF08E0219B002B46
:10FC100005DD219A01AB19460020FFF7BFFF219BAC
:10FC2000184623B05DF804EB04B0704700B583B00C
:10FC300002900091019244F2010071466A4600F080
:10FC400003F803B000BD00BF30B58BB0079006913C
:10FC5000059272B600BF00F019FD00BF00F040FB36
:10FC60000346002BFAD1079B44F2020293422FD0A5
:10FC7000079B44F20202934269D8079B44F20102B7
:10FC8000934237D0079B44F2010293425FD8079B0F
:10FC9000012B05D0079B41F2010293420CD056E0A4
:10FCA000394A3A4BD31ADB081B0443F001033849A5
:10FCB000184600F0B9FA57E0334A344BD31ADB0840
:10FCC0001B0443F001033349184600F0ADFA4BE042
:10FCD000059B09932C4A2D4BD31ADB081B0443F0D8
:10FCE0000100099B5B681A46099B1B682A4900F0C2
:10FCF000BAFA39E0059B0893234A244BD31ADB0850
:10FD00001B0443F00104089B9D68089B9B681846F0
:10FD100000F0DAFC03461846089B5B681946089B0E
:10FD20001B68069A02920193009103462A461B49DA
:10FD3000204600F0ACFA144A144BD31ADB081B041B
:10FD400043F001031649184600F06EFA0CE00E4A23
:10FD50000E4BD31ADB081B0443F00103069A11492A
:10FD6000184600F06FFA00BF0F4B1B6803F0010349
:10FD7000002B00D000BE059A0699079800F0ECFC15
:10FD800000BF0BB030BD00BFE8500300C0500300FF
:10FD9000AC530300CC530300F05303000C54030096
:10FDA0003454030048540300F0ED00E000B583B084
:10FDB00001900091019B1B681B680099019898476E
:10FDC00000BF03B05DF804FB00B583B00190019B58
:10FDD0001B685B680198984700BF03B05DF804FB9F
:10FDE00000B583B00190019B1B689B680198984700
:10FDF00000BF03B05DF804FB82B00190019BDB689B
:10FE000001225A7100BF02B0704782B00190019B7D
:10FE1000DB685B79184602B0704784B001900091AE
:10FE200000238DF80F30019B1B7803F00403DBB235
:10FE3000002B24D0019B1B78C3F30103DBB2012B01
:10FE400002D0022B0CD017E0009B1B68019A12888D
:10FE5000C2F38312D2B213449A1C009B1A600BE0C7
:10FE6000009B1B68019A5288C2F3891292B2134414
:10FE70009A1C009B1A6000BF01238DF80F309DF87B
:10FE80000F30184604B0704700B58BB00023ADF8B2
:10FE900026303B4800F03BFD3A4800F038FD3A4B35
:10FEA0009B680493394B1B680693049A069B134086
:10FEB00002339B00344A13440433089304AB1946BD
:10FEC0000898FFF7AAFF0346002B09D0049A069B67
:10FED000134002339B002C4A134404330893EDE78C
:10FEE00000BF0023079311E0049B5A1C0492069A5A
:10FEF0001340079A920001A90A44234902339B0048
:10FF00000B445B681360079B01330793079B012B2E
:10FF1000EAD99DF80430C3F30103DBB2012B10D002
:10FF2000022B1CD1BDF80A30ADF82630BDF80630E2
:10FF3000C3F389139BB203339A08049B13440493BD
:10FF40000EE0BDF80A30ADF82630BDF80430C3F33A
:10FF50008313DBB21A46049B1344049300E000BFF2
:10FF6000084800F0E0FC0590059B002B02D0049BA4
:10FF7000054A9360BDF8263018460BB05DF804FBC7
:10FF80005C2E0020582E0020442A002098230020B8
:10FF900000B585B00021074800F02AFC0390039BC0
:10FFA0000293029B83F310030193019B184605B053
:10FFB0005DF804FB602E002000B589B0039002912B
:10FFC00001920093039B1B0C0693FFF7E1FF079040
:10FFD000079B1904009B5A1C0A9B1340069A0A436C
:10FFE0001B4902339B000B445A60009A0A9B134042
:10FFF00002339B00164A134404330593039B03F01A
:020000022000DC
:100000000703D9B2059A137861F3C5031370019BF6
:1000100003F00F03D9B2059A138861F38913138093
:10002000029BC3F31501059A136861F39F231360C4
:10003000059A1378012161F301031370059A13786F
:100040006FF38203137000BF09B05DF804FB00BFBB
:10005000442A002000BF704700B58DB00390029184
:1000600013468DF80730039B02330A9301238DF862
:10007000273000238DF81B300DF11B03184600F0CC
:100080007BFC404B5A68029B1A603F4B1A683D4B01
:1000900099683C4B5B68CB1A134401330B9314E013
:1000A00001213A4800F003FCFFF7EEFE07900799A4
:1000B000364800F0FCFB344B1A68324B9968314BE0
:1000C0005B68CB1A134401330B930A9A0B9B9A4239
:1000D000E6D89DF82730002B48D0002305939DF8E3
:1000E0000730002B17D09DF81430012262F3010372
:1000F0008DF814309DF8143043F004038DF814305B
:10010000039B03F00F03DAB2BDF8143062F38913D6
:10011000ADF8143016E09DF81430022262F30103AA
:100120008DF814309DF8143043F004038DF814302A
:10013000039BC3F309039AB2BDF8163062F38F1321
:10014000ADF816300F4B5A680F4B1B681340023343
:100150009B000C4A134404330893059A089B1A60C9
:10016000084B5A680A9B1344064A53609DF81B309B
:10017000184600F00AFC9DF8273018460DB05DF8CF
:1001800004FB00BF442A002098230020602E00209A
:1001900000B58BB00590049103920293204B1B682D
:1001A000079306AB012219460298FFF755FF034655
:1001B000002B24D0069B023309930023089311E0FF
:1001C000089B9B00039A1A44099B591C09910799A3
:1001D0000B401268134902339B000B445A60089B82
:1001E00001330893089A029B9A42E9D3069A079B27
:1001F00000931346029A04990598FFF7DDFE094B18
:100200001B78002B05D000BF00F06AF80346002BD6
:10021000FAD1FFF71FFF00BF0BB05DF804FB00BF72
:1002200098230020442A002000B583B0019000915B
:100230000023002200990198FFF7AAFF00BF03B036
:100240005DF804FB00B587B0039002910192019B19
:10025000059305AA012302990398FFF799FF00BFB0
:1002600007B05DF804FB00B587B0039002910192DE
:100270000093019B0493009B059304AA0223029917
:100280000398FFF785FF00BF07B05DF804FB00B5DA
:100290008BB00390029101920093019B0593009B08
:1002A00006930C9B07930D9B08930E9B099305AA3D
:1002B000052302990398FFF76BFF00BF0BB05DF8B1
:1002C00004FB0000054B9A68044B5B689A420CBF24
:1002D00001230023DBB21846704700BF442A0020E8
:1002E00000B599B0FFF7EEFF0346002B01D00023C5
:1002F000C0E19B4B0022C3F81824BFF34F8F00BF0F
:10030000974B9B680493974B1B681093049A109B20
:10031000134002339B00924A134404331193002389
:1003200017930023169300230F9304AB19461198DB
:10033000FFF773FD0346002B19D0894BD3F818340F
:10034000002B14D1864B5A68049B9A4205D8844BE3
:100350005B68834A936000238CE1049A109B1340EE
:1003600002339B007E4A134404331193DDE70023DC
:10037000159311E0049B5A1C0492109A1340159A8D
:10038000920001A90A44764902339B000B445B6842
:100390001360159B01331593159B012BEAD99DF82A
:1003A000043003F00303DBB2022B40F09C80BDF865
:1003B0000630C3F389139BB20D93BDF80630C3F327
:1003C00089139BB2502B28BF50239BB20C930C9BDC
:1003D000C3F309039AB2BDF8063062F38F13ADF888
:1003E00006300C9B08330B939DF80430C3F3C20313
:1003F000DBB20F930B995C4800F0D2FA1790179B71
:10040000002B00F0D380179800F05BFB01A9169B2E
:100410000822179800F0FFFB169B08331693049BE5
:10042000DA43109B134001339B000A930C9A0A9BFA
:100430009A4242D90A9B002B08D0049A109B134081
:1004400002339B00464A1344043300E0474B0893B1
:100450000A9B002B02D00A9BDBB201E00C9BDBB2B3
:100460008DF81F300A9B002B01D0404B00E0002389
:1004700006930A9B002B06D00C9BDAB20A9BDBB2D8
:10048000D31ADBB200E000238DF817309DF81F204F
:10049000169B0899179800F0BEFB9DF81F30169A1E
:1004A00013441693069B002B16D09DF81720169B1D
:1004B0000699179800F0AFFB0EE0049A109B1340CA
:1004C00002339B00264A134404330993169B0C9A6B
:1004D0000999179800F09FFB0D9B03339A08049B22
:1004E0001344049362E09DF8043003F00303DBB28D
:1004F000012B5BD1BDF80430C3F38313DBB2062BB1
:1005000028BF0623DAB2BDF8043062F38913ADF8D0
:100510000430BDF80430C3F38313DBB202330E930F
:100520009DF80430C3F3C203DBB20F930E9B9B0014
:1005300019460D4800F034FA1790179B002B35D060
:10054000179800F0BEFA01A9169B0822179800F030
:1005500062FB169B08331693002315931DE000BF22
:10056000442A00209823002058310020502A0020DF
:10057000049B5A1C0492109A134002339B003F4A7A
:100580001344191D169B0422179800F044FB169B78
:1005900004331693159B01331593BDF80430C3F350
:1005A0008313DBB21A46159B9342E1D3179B002BB2
:1005B00040D0324BD3F810341493304BD3F8183466
:1005C000002B1BD0179800F08BFA4DE000238DF81C
:1005D0004F301498FFF719FC0346002B02D001237B
:1005E0008DF84F309DF84F30002B03D01799149899
:1005F000FFF7DCFB149BDB681B681493149B002B38
:10060000E4D1179800F06CFA00238DF803300DF157
:100610000303184600F0B0F9184BD3F81834002B38
:1006200002D1049B154A93609DF80330184600F0F0
:10063000ACF919E0114BD3F81034129306E012987C
:10064000FFF7CEFB129BDB681B681293129B002BFB
:10065000F5D10B4A0B4BD31ADB081B0443F0020302
:1006600009491846FFF7E0FDFFF72CFE034683F02B
:100670000103DBB2184619B05DF804FB442A0020E0
:10068000E8500300C05003006454030000B583B079
:100690000C4BD3F8103401930A4B01221A7009E075
:1006A0000198FFF7A9FB0198FFF78EFB019BDB6820
:1006B0001B680193019B002BF2D100BF00BF03B068
:1006C0005DF804FB442A002000B585B00190019834
:1006D00000F00EF80390039B002B01D0039B00E079
:1006E000024B184605B05DF804FB00BF78540300C8
:1006F00086B00190164B0593164B04931FE0049AA5
:10070000059BD31ADB10DA0F13445B10DB00059A4C
:1007100013440393039B1B680293029A019B9A4222
:1007200002D9039B04930AE0029A019B9A4203D2E6
:10073000039B0833059302E0039B5B6804E0059A82
:10074000049B9A42DBD30023184606B0704700BFD3
:1007500078580300A059030086B0039002910192DB
:1007600001238DF817309DF81730204A039B136042
:100770001E4A029B53601D4A019B9360039B44F2F7
:100780000102934212D0039B44F20202934220D111
:10079000019B164AD360154BDB681B68134A9361B3
:1007A000124BDB685B68114AD36112E0019B0F4A70
:1007B00013610E4B1B699B680C4A53610B4B1B6901
:1007C0001B680A4A9361094B1B695B68074AD3613E
:1007D00000BF72B600BF00BF9DF81730DBB2002B20
:1007E000FAD162B600BF00BF06B07047642E002089
:1007F00010B487B001900091019B009A53E8004F1C
:10080000104643E8000191F0000FF7D105940490E1
:100810000391059B184607B05DF8044B704710B470
:1008200087B001900091019B009A53E8004F44EA81
:10083000020043E8000191F0000FF6D10594049006
:100840000391049B184607B05DF8044B704710B441
:1008500087B001900091019B009A53E8004F04EA91
:10086000020043E8000191F0000FF6D105940490D6
:100870000391059B184607B05DF8044B704710B410
:1008800087B001900091019B009A53E8004F04EA61
:10089000020043E8000191F0000FF6D105940490A6
:1008A0000391049B184607B05DF8044B704710B4E1
:1008B00087B001900091019B009A53E8004F04EB30
:1008C000020043E8000191F0000FF6D10594049076
:1008D0000391049B184607B05DF8044B704710B4B1
:1008E00087B001900091019B009A53E8004FA4EB60
:1008F000020043E8000191F0000FF6D10594049046
:100900000391049B184607B05DF8044B704700B58F
:1009100083B0019001210198FFF781FF034618463B
:1009200003B05DF804FB00B583B00190002101988D
:10093000FFF78DFF0346184603B05DF804FB000087
:1009400072B600BF034B1B680133024A136000BF3D
:10095000704700BF842E0020064B1B68013B054AF0
:100960001360044B1B68002B01D162B600BF00BFAF
:10097000704700BF842E002000B583B00190FFF7C0
:10098000DFFF00BF03B05DF804FB00B583B0034692
:100990008DF80730FFF7E0FF00BF03B05DF804FB00
:1009A00000B58BB001900091019B1B8A043B07931B
:1009B000009A079B1344DA1C079BB2FBF3F38DF8F4
:1009C0001B30019800F05BF90590059B002B01D1CD
:1009D000002338E0059B00221A71059B01225A7101
:1009E000079B9AB2059BDA80059B09939DF81B3003
:1009F000013B0493099B019A1A60002308931DE0B0
:100A0000019800F03CF90390039B002B0ED0059B4E
:100A10005B790133DAB2059B5A71099B039A1A601C
:100A2000039B019A1A60039B099304E0059800F068
:100A30000EF8002307E0089B01330893089A049BF3
:100A40009A42DDD3059B18460BB05DF804FB00B558
:100A50008BB00190019B0793079B5B798DF81B304E
:100A6000019B08939DF81B30013B059300230993DC
:100A700005E0089B1B680893099B01330993099AB9
:100A8000059B9A42F5D3089B1B680493019B08932E
:100A9000002309930BE0089B1B68039308990498B3
:100AA00000F02BF9039B0893099B013309939DF8F0
:100AB0001B30099A9A42EED300BF00BF0BB05DF81D
:100AC00004FB00B585B00190019B0393039B0433A5
:100AD00001211846FFF7EBFE00BF05B05DF804FBEF
:100AE00000B587B00190019B0593059B043301215C
:100AF0001846FFF7F4FE0346039303AB0493049BED
:100B00001B78002B02D10198FFF7A1FF00BF07B0AF
:100B10005DF804FB00B591B003900291019200933F
:100B2000039B0993039B0F93099BDB881A46099B40
:100B30005B7902FB03F3043B0893099BDB88079373
:100B4000009B1A1D079BB2FBF3F30E93009B04332B
:100B5000079AB3FBF2F2079901FB02F29B1A0D937D
:100B6000019B1A68009B1344089A9A4203D2089A80
:100B7000009BD31A01E0019B1B680C93019B0C9A0C
:100B80001A6005E00F9B1B680F930E9B013B0E93B1
:100B90000E9B002BF6D100230B93079A0D9BD31AC3
:100BA0000A930A9A0C9B934228BF13460A932AE0A1
:100BB000029A0B9B134406930F9A0D9B1344043324
:100BC00005939DF84830002B05D00A9A05990698A0
:100BD00005F08BF804E00A9A0699059805F085F867
:100BE00000230D930F9B1B680F930C9A0A9BD31A3B
:100BF0000C930B9A0A9B13440B93079A0C9B9342FA
:100C000028BF13460A930C9B002BD1D100BF00BF15
:100C100011B05DF804FB00B589B005900491039212
:100C20000293039B079307AA00230093029B049956
:100C30000598FFF76FFF00BF09B05DF804FB82B0B5
:100C400001900B468DF80330019BDA689DF8033064
:100C50000199098A01FB03F31344184602B0704757
:100C600082B001900091009B019AD2689B1A019A70
:100C7000128AB3FBF2F3DBB2184602B0704700B53C
:100C800085B001900023039300238DF80A300DF105
:100C90000A031846FFF770FE019B1B681A68019B48
:100CA0005B689A421FD9019B1B681A68013A1A6057
:100CB0001B681B7819460198FFF7C1FF0390019B41
:100CC0009A68019B1B681B68D31A8DF80B30019B37
:100CD0001B681B799DF80B209A4204D9019B1B6865
:100CE0009DF80B201A719DF80A301846FFF74DFE4B
:100CF000039B184605B05DF804FB10B584B0019065
:100D00000091009B039300238DF80B300DF10B0332
:100D10001846FFF731FE019B1B681C68621C1A60B5
:100D200003990198FFF79CFF034623709DF80B3051
:100D30001846FFF72AFE00BF04B010BDBFF34F8F67
:100D400000BF064BDB6803F4E0620449044B134325
:100D5000CB60BFF34F8F00BF00BFFDE700ED00E0A9
:100D60000400FA0582B0114B1B680193104B1B68FD
:100D70000093019B0D2B14D1009B022B0DD0009BE7
:100D8000022B0CD8009B002B03D0009B012B02D020
:100D900005E0012306E0012304E0012302E0012332
:100DA00000E00023184602B0704700BF3001001079
:100DB0003401001082B0114B1B680193104B1B686B
:100DC0000093019B0D2B14D1009B022B0DD0009B97
:100DD000022B0CD8009B002B03D0009B012B02D0D0
:100DE00005E0012306E0012304E0012302E00123E2
:100DF00000E00023184602B0704700BF3001001029
:100E00003401001082B0114B1B680193104B1B681A
:100E10000093019B0D2B14D1009B022B0DD0009B46
:100E2000022B0CD8009B002B03D0009B012B02D07F
:100E300005E0012306E0012304E0012302E0012391
:100E400000E00023184602B0704700BF30010010D8
:100E50003401001082B0114B1B680193104B1B68CA
:100E60000093019B0D2B14D1009B022B0DD0009BF6
:100E7000022B0CD8009B002B03D0009B012B02D02F
:100E800005E0002306E0002304E0012302E0012343
:100E900000E00023184602B0704700BF3001001088
:100EA0003401001008B5FFF7D5FF0346002B07D02B
:100EB0004FF010234FF08042D3F80832C2F8583573
:100EC00000BF08BD00BF044BD3F80034002BFAD09C
:100ED00000BF00BF704700BF00E0014000B583B015
:100EE0000190054A019BC2F80435FFF7EBFF00BFF4
:100EF00003B05DF804FB00BF00E00140024B034A71
:100F00001A6000BF704700BF9C2300200090D003F0
:100F100008B5FFF727FF0346002B0ED04FF08043A4
:100F20000022C3F80C214FF080430022C3F81021A7
:100F30004FF080430022C3F83825FFF73BFF0346FC
:100F4000002B76D04FF080535E4AD3F80434C2F8B9
:100F500020354FF080535B4AD3F80834C2F824356B
:100F60004FF08053574AD3F80C34C2F828354FF06D
:100F70008053544AD3F81034C2F82C354FF08053C4
:100F8000504AD3F81434C2F830354FF080534D4AEC
:100F9000D3F81834C2F834354FF08053494AD3F8A7
:100FA0001C34C2F840354FF08053464AD3F8203401
:100FB000C2F844354FF08053424AD3F82434C2F883
:100FC00048354FF080533F4AD3F82834C2F84C35A7
:100FD0004FF080533B4AD3F82C34C2F850354FF0D1
:100FE0008053384AD3F83034C2F854354FF0805328
:100FF000344AD3F83434C2F860354FF08053314A64
:10100000D3F83834C2F864354FF080532D4AD3F802
:101010003C34C2F868354FF080532A4AD3F8403444
:10102000C2F86C354FF08053264AD3F84434C2F8E6
:101030007035FFF7E7FE0346002B0DD04FF08043DD
:10104000D3F8003403F00103002B05D04FF08043A8
:101050006FF00102C3F800241B4BD3F888301A4A02
:1010600043F47003C2F88830BFF34F8F00BFBFF363
:101070006F8F00BFFFF716FF4FF01023D3F8003239
:10108000002B05DB4FF01023D3F80432002B15DAC8
:101090000120FFF723FF4FF010231222C3F8002294
:1010A000FFF710FF4FF010231222C3F80422FFF7BE
:1010B00009FF0020FFF712FFFFF740FEFFF71EFFBA
:1010C00000BF08BD00C0004000ED00E082B001900C
:1010D000019B1B681F2B02D84FF0A04306E0019B29
:1010E0001B6803F01F02019B1A60024B184602B0F6
:1010F000704700BF0003005000B585B0019008465E
:1011000011461A4603468DF803300B468DF802301F
:1011100013468DF8013001AB1846FFF7D7FF039057
:101120009DF803209DF802305B001A439DF80130C2
:101130009B001A439DF818301B0242EA03019DF8F8
:101140001C301B04019A1943039B02F5E07243F81B
:10115000221000BF05B05DF804FB00B585B0039018
:10116000002301930023009300230122012103980F
:10117000FFF7C2FF00BF05B05DF804FB00B585B006
:1011800003900B468DF80B309DF80B300022019236
:1011900000220092002200210398FFF7ADFF00BF5C
:1011A00005B05DF804FB00B585B0019001AB1846B1
:1011B000FFF78CFF0390019B012202FA03F319460B
:1011C000039800F02AF800BF05B05DF804FB00B5F5
:1011D00085B0019001AB1846FFF778FF0390019BA3
:1011E000012202FA03F31946039800F020F800BF29
:1011F00005B05DF804FB00B583B001900091009B41
:10120000002B03D10198FFF7E2FF02E00198FFF7FE
:10121000CAFF00BF03B05DF804FB82B001900091EB
:10122000019B009AC3F8082500BF02B0704782B046
:1012300001900091019B009AC3F80C2500BF02B0F9
:101240007047000000B583B00190064A019B13442B
:101250001B7801211846FFF7CEFF00BF03B05DF8F1
:1012600004FB00BFA059030000B583B00023019325
:1012700005E00198FFF7E6FF019B01330193019B15
:10128000032BF6D900BF00BF03B05DF804FB0000DC
:1012900000B583B00023019309E0094A019B134480
:1012A0001B781846FFF759FF019B01330193019BFF
:1012B000032BF2D9FFF7D8FF00BF03B05DF804FBA2
:1012C000A059030000B583B00023019307E0022377
:1012D00003211846FFF752FF019B01330193019B45
:1012E000002BF4D000BF00BF03B05DF804FB00B5D5
:1012F00083B00190019B03F00103002B01D0FFF7A5
:10130000C7FF019B03F00203002B01D0FFF7DAFFB8
:1013100000BF03B05DF804FB08B5024B1B6898479B
:1013200000BF08BD882E002084B001900B46ADF8A8
:101330000230BDF80230019A134400221A60BDF851
:101340000230019A13441B680393039B00BF04B04F
:10135000704782B001900B46ADF80230BDF8023004
:10136000019A13441B68002B14BF01230023DBB236
:10137000184602B07047000082B00190019B1B68C4
:101380001F2B02D84FF0A04306E0019B1B6803F01F
:101390001F02019B1A60024B184602B0704700BF43
:1013A0000003005000B585B0019001AB1846FFF76F
:1013B000E3FF0390019B012202FA03F3194603980D
:1013C00000F018F800BF05B05DF804FB00B585B06B
:1013D000019001AB1846FFF7CFFF0390019B01225C
:1013E00002FA03F31946039800F00EF800BF05B0A7
:1013F0005DF804FB82B001900091019B009AC3F854
:10140000082500BF02B0704782B001900091019B97
:10141000009AC3F80C2500BF02B07047024A034B84
:101420001B68136000BF7047000E0040FC2E0020B8
:1014300000B583B00190019BDB7FFF2B0ED0019B99
:101440009B7F002B05D0019BDB7F1846FFF7BEFF7B
:1014500004E0019BDB7F1846FFF7A4FF019B0022FD
:101460005A77019B00221A72019B1B68019A02F1B4
:101470000800019A52681146984700BF03B05DF812
:1014800004FB000000B583B0019000914FF48C7113
:101490000198FFF75EFF0346002B0DD0019B084A21
:1014A000934201D1FFF7BAFF4FF48C710198FFF717
:1014B0003BFF0098FFF7BCFF00BF03B05DF804FBE3
:1014C00000F0024008B503490348FFF7DBFF00BF07
:1014D00008BD00BF902E00200030004008B5034931
:1014E0000348FFF7CFFF00BF08BD00BFB42E0020A8
:1014F0000030024008B503490348FFF7C3FF00BFAF
:1015000008BD00BFD82E002000F0024082B0034684
:101510008DF807309DF90730002B0DDB9DF8073063
:1015200003F01F0206499DF907305B09012000FA0C
:1015300002F2603341F8232000BF02B0704700BFC1
:1015400000E100E082B00190019B1B0B5BB21846EA
:1015500002B0704700B583B003468DF807309DF99F
:1015600007301846FFF7D2FF00BF03B05DF804FB59
:1015700082B001900B468DF803309DF80330019A3C
:10158000134401221A6000BF02B0704784B001907A
:101590000B46ADF80230BDF80230019A1344002228
:1015A0001A60BDF80230019A13441B680393039B31
:1015B00000BF04B0704782B001900B46ADF8023016
:1015C000BDF80230019A13441B68002B14BF01239D
:1015D0000023DBB2184602B0704782B00190009140
:1015E000019B009AC3F8042300BF02B0704782B089
:1015F00001900091019B009AC3F8082300BF02B03C
:10160000704782B00190019B0622C3F8002500BFFD
:1016100002B0704782B00190019B0022C3F8002500
:1016200000BF02B0704784B00190019BD3F8C4346E
:101630000393019B039AC3F8C424039B184604B088
:10164000704782B001900091019B009AC3F800227C
:1016500000BF02B0704782B00190019BD3F84C35B7
:10166000184602B0704782B00190019BD3F8003257
:10167000184602B0704782B00190019BD3F83C3508
:10168000184602B07047000000B585B00190009187
:1016900001238DF80F30009B1B7B032B56D801A232
:1016A00052F823F01D17020035170200F51602004C
:1016B000B5160200009B9B6803F48023002B07D023
:1016C0000198FFF7C8FF0246009B1B699A420DD1A3
:1016D000009B9B6803F48023002B39D10198FFF70E
:1016E000BAFF0246009B5B699A4231D000238DF815
:1016F0000F302DE00198FFF7AEFF0246009B1B69FB
:101700009A4207D10198FFF7B6FF0246009B5B693A
:101710009A421FD000238DF80F301BE00198FFF78D
:101720009AFF0246009B1B699A4215D000238DF850
:101730000F3011E00198FFF79EFF0246009B1B69E6
:101740009A420BD000238DF80F3007E000BF06E06F
:1017500000BF04E000BF02E000BF00E000BF9DF852
:101760000F3083F00103DBB2002B05D00198FFF7A7
:1017700051FF0198FFF745FF9DF80F30184605B05F
:101780005DF804FB30B58BB0019000914FF492717D
:101790000198FFF710FF0346002B3ED04FF49271E3
:1017A0000198FFF7F3FE4FF482710198FFF703FFF2
:1017B000034683F00103DBB2002B2ED0009B9B6815
:1017C00019460198FFF713FF009B02229A60009BC5
:1017D0009B6819460198FFF700FF4FF4B07101981C
:1017E000FFF7E9FE034683F00103DBB2002B07D1CC
:1017F0000198FFF738FF034603F40073002B07D16D
:1018000020210198FFF7B4FE14210198FFF7B0FEE4
:10181000009B012283F82E20F6E04FF4827101989C
:10182000FFF7C9FE0346002B5DD04FF4827101988B
:10183000FFF7ACFE009B1B6A03F04003002B1AD19C
:10184000009B93F82E3083F00103DBB2002B12D003
:1018500000990198FFF718FF0346002B14BF0123DE
:101860000023DBB283F00103DBB203F00103DAB241
:10187000009B83F82E20009B1B6A03F00403002BBF
:1018800079D1009B04AC03F10C050FCD0FC42B687C
:1018900023604FF4B0710198FFF778FE4FF4AE71FA
:1018A0000198FFF773FE009B93F8303083F001033B
:1018B000DBB2002B04D1009B93F82E30002B5AD0C2
:1018C00000210198FFF7BDFE009B00229A604F495E
:1018D0000198FFF78CFE0198FFF734FE0346184687
:1018E000FFF738FE47E04FF4A4710198FFF74EFE72
:1018F000009B1B7B002B22D1009B04AC03F10C0549
:101900000FCD0FC42B682360009B93F8303083F019
:101910000103DBB2002B2ED000210198FFF791FECE
:10192000009B00229A6039490198FFF760FE0198F8
:10193000FFF708FE03461846FFF70CFE1BE04FF4C6
:1019400000710198FFF77DFE009B40F202229A6031
:101950002E490198FFF74BFE009B9B6819460198A2
:10196000FFF73BFE08210198FFF702FE20210198B6
:10197000FFF7FEFD48E00198FFF755FE0990099B2F
:1019800003F00203002B03D001238DF80C301DE07F
:10199000099B03F00403002B03D002238DF80C30C5
:1019A00014E0099B03F00103002B03D003238DF8FF
:1019B0000C300BE0009B93F82E30002B03D0042357
:1019C0008DF80C3002E000238DF80C30009B93F86A
:1019D000303083F00103DBB2002B03D0009B0022E8
:1019E00083F82F20009B1B6A03F00403002B04D014
:1019F000009B93F82E30002B06D0009B1B68009AAA
:101A0000516803AA104698470BB030BD02029C01F2
:101A100008B503494FF04020FFF7B4FE00BF08BDF2
:101A2000002F002082B003468DF807309DF9073063
:101A3000002B0CDB9DF8073003F01F0205499DF9D0
:101A400007305B09012000FA02F241F8232000BFB1
:101A500002B0704700E100E082B0034600918DF8CB
:101A600007309DF90730002B0ADB009BDAB20C49E6
:101A70009DF907305201D2B20B4483F800230BE0EA
:101A8000009BDAB207499DF8073003F00F03043BCF
:101A90005201D2B20B441A7600BF02B0704700BFA9
:101AA00000E100E000ED00E082B00190019B1B0B23
:101AB0005BB2184602B0704700B583B003460A46D1
:101AC0008DF8073013468DF806309DF806209DF9F5
:101AD000073011461846FFF7BFFF00BF03B05DF89F
:101AE00004FB00B583B003468DF807309DF907303D
:101AF0001846FFF797FF00BF03B05DF804FB00B581
:101B000083B00346ADF80630BDF80630184600F045
:101B100026F803461B68012B0CBF01230023DBB210
:101B2000184603B05DF804FB00B585B00346ADF878
:101B30000630BDF80630184600F011F803461A4684
:101B400000231360BDF80630184600F008F803467D
:101B50001B680393039B00BF05B05DF804FB82B0D4
:101B60000346ADF80630BDF8063003F1804303F5B7
:101B7000C043184602B0704782B00190034A019BEF
:101B8000C2F8043300BF02B0704700BF00600040DD
:101B900082B00190034A019BC2F8083300BF02B033
:101BA000704700BF0060004082B00190034BD3F843
:101BB0000423019B1340184602B0704700600040A8
:101BC00082B00190084A019B03F5A27352F82330BA
:101BD000054943F00102019B03F5A27341F823205C
:101BE00000BF02B0704700BF0060004082B00190AB
:101BF000084A019B03F5A27352F82330054923F0EC
:101C00000102019B03F5A27341F8232000BF02B03B
:101C1000704700BF0060004084B0039002911346FB
:101C20008DF80730144A039B03F5A27352F8233052
:101C3000114923F44F3323F44073039A02F5A2723F
:101C400041F822300C4A039B03F5A27352F823207B
:101C5000029B1B0203F47C519DF807301B0403F424
:101C600040330B4304491A43039B03F5A27341F825
:101C7000232000BF04B070470060004082B0019094
:101C8000054A019B03F5A27352F823301B0A03F0A7
:101C90003F03184602B070470060004082B00190D8
:101CA000064A019B03F5A27352F823301B0C03F084
:101CB0000303DBB2184602B0704700BF006000406B
:101CC00084B00390029111461A460B468DF80730F6
:101CD00013468DF80630184A039B03F5A27352F899
:101CE0002330154923F4991323F4F853039A02F58A
:101CF000A27241F82230104A039B03F5A27352F8F6
:101D00002320029B1B0203F47C519DF807301B0427
:101D100003F4403319439DF806301B0503F4801388
:101D20000B4305491A43039B03F5A27341F8232093
:101D300000BF04B0704700BF0060004082B0019057
:101D4000019B1B681F2B02D84FF0A04306E0019BAC
:101D50001B6803F01F02019B1A60024B184602B079
:101D6000704700BF0003005000B585B001900846E1
:101D700011461A4603468DF803300B468DF80230A3
:101D800013468DF8013001AB1846FFF7D7FF0390DB
:101D90009DF803209DF802305B001A439DF8013046
:101DA0009B001A439DF818301B0242EA03019DF87C
:101DB0001C301B04019A1943039B02F5E07243F89F
:101DC000221000BF05B05DF804FB00B585B003909C
:101DD0000023019300230093002301220121039893
:101DE000FFF7C2FF00BF05B05DF804FB00B585B08A
:101DF00003900B468DF80B309DF80B3000220192BA
:101E000000220092002200210398FFF7ADFF00BFDF
:101E100005B05DF804FB00B585B0019001AB184634
:101E2000FFF78CFF0390019A039B02F5E07253F8D1
:101E3000223023F002030293019A039B02F5E07221
:101E4000029943F8221000BF05B05DF804FB00B50D
:101E500085B001900B468DF8033001AB1846FFF7B3
:101E60006DFF0390019A039B02F5E07253F8223054
:101E7000019A23F44031039B02F5E07243F82210EB
:101E8000019A039B02F5E07253F822309DF803207B
:101E900012041146019A1943039B02F5E07243F8BC
:101EA000221000BF05B05DF804FB00B585B00190BD
:101EB00001AB1846FFF742FF0390019B012202FA93
:101EC00003F31946039800F04BF800BF05B05DF826
:101ED00004FB00B585B0019001AB1846FFF72EFF5B
:101EE0000390019B012202FA03F31946039800F0C4
:101EF00041F800BF05B05DF804FB00B585B0019066
:101F000001AB1846FFF71AFF0390039800F020F882
:101F10000246019B22FA03F303F00103184605B0C1
:101F20005DF804FB00B585B0019001AB1846FFF7E2
:101F300005FF0390019A039B02F5E07253F82230EB
:101F40001B0C03F00303DBB2184605B05DF804FB7D
:101F500082B00190019BD3F81035184602B070474B
:101F600082B001900091019B009AC3F8082500BF40
:101F700002B0704782B001900091019B009AC3F8B3
:101F80000C2500BF02B0704788B003900291019207
:101F9000164A05AB92E8030083E80300039B07930E
:101FA00019E0079B9B0008AA134453F80C3CD3F894
:101FB0002025019B1A60079B9B0008AA134453F835
:101FC0000C3C019A1268C3F82025019B043301934D
:101FD000079B01330793039A029B1344079A9A4283
:101FE000DFD300BF00BF08B0704700BFB85903007F
:101FF00000B585B0019001AB1846FFF79FFE039036
:10200000019B012202FA03F31A46039BC3F8202521
:1020100000BF05B05DF804FB84B00190019B5B0933
:10202000029300230393029B002B03D0029B012BFE
:1020300004D007E04FF0FF33039303E040F2FF3397
:10204000039300BF019B03F01F030193039A019BBD
:1020500022FA03F303F00103002B14BF0123002332
:10206000DBB2184604B0704784B001900091009B29
:102070000393019BDB080293019B03F00703019389
:102080000122019B02FA03F30399029A0A4412788F
:102090001340184604B0704784B001900091009B33
:1020A0000393019BDB080293019B03F00703019359
:1020B000039A029B13441B785AB20121019B01FA37
:1020C00003F35BB2134359B2039A029B1344CAB29F
:1020D0001A7000BF04B0704782B00190074A019B9C
:1020E0001344243393F90030B3F1FF3F14BF0123AD
:1020F0000023DBB2184602B0704700BF342F002027
:1021000082B001900C4A019B1344243393F90030B0
:10211000002B09DB084A019B1344243393F9003058
:10212000072B01DC012300E0002303F00103DBB2F5
:10213000184602B0704700BF342F002082B00190D3
:10214000064A019B1344243393F90030072BCCBF7C
:1021500001230023DBB2184602B07047342F002061
:1021600082B00190064A019B1344243393F9003056
:10217000DB43DBB2DB09DBB2184602B0704700BFBD
:10218000342F002084B00390029101928DF8033027
:10219000029B59B20E4A039B134424330A461A7019
:1021A0000B49029B019A41F823209DF8033083F0EC
:1021B0000103DBB2002B08D0029B083B039A51B20B
:1021C000034A13440A4683F84E2000BF04B0704708
:1021D000342F002082B00190044A019B1344243321
:1021E000FE221A7000BF02B0704700BF342F0020DB
:1021F00082B00190044A019B13442433FF221A70D9
:1022000000BF02B0704700BF342F002000B583B07C
:10221000019004490198FFF73FFF00BF03B05DF84C
:1022200004FB00BF832F002082B00190044A019B71
:102230001344243393F90030184602B0704700BFAE
:10224000342F002082B00190034A019B52F82330C2
:10225000184602B0704700BF342F002084B00190B0
:10226000074A019B13444E3393F900308DF80F3029
:102270009DF80F3023F0C003184604B0704700BF2C
:10228000342F002084B00190074A019B13444E3341
:1022900093F900308DF80F309DF80F309B09DBB2B9
:1022A000184604B0704700BF342F002000B589B035
:1022B0000390029113468DF80730FF238DF81F30ED
:1022C0009DF80730002B01D0002300E00823059380
:1022D0009DF80730002B01D0082300E00923049368
:1022E000059B069314E00F4A069B52F82330B3F186
:1022F000FF3F0AD19DF80730029A06990398FFF72D
:1023000041FF069B8DF81F3006E0069B01330693C4
:10231000069A049B9A42E6D39DF91F30184609B0ED
:102320005DF804FB342F002082B003468DF807309F
:102330009DF80730094A4FF0FF3142F823109DF80D
:102340000730072B07D99DF80730083B034A134491
:10235000FF2283F84E2000BF02B07047342F0020C8
:1023600000B583B02D4B93F85530002B03D00823D4
:102370000093009B4EE000238DF8073011E09DF89C
:1023800007301846FFF748FE0346002B04D09DF89F
:1023900007301846FFF72CFF9DF8073001338DF802
:1023A00007309DF80730292BE9D900238DF8073035
:1023B00009E09DF807301846FFF7B6FF9DF8073093
:1023C00001338DF807309DF80730082BF1D906222C
:1023D0000021134803F0B2FC1248FFF765FB0346E7
:1023E00007211846FFF768FB0E48FFF75DFB034621
:1023F0001846FFF776FB4FF4BE70FFF795FB4FF0E2
:102400000040FFF7B9FB054B012283F8552000235C
:102410000093009B184603B05DF804FB342F0020A6
:10242000832F00200060004000B585B0019000912E
:10243000002303930198FFF74FFE0346002B02D0C1
:102440000823039334E0009B9B78002B19D00122D2
:1024500000210198FFF72AFF03468DF80B309DF904
:102460000B30B3F1FF3F09D09DF90B00009B1A78A8
:10247000009B5B780199FFF723FC05E0042303939D
:1024800002E00198FFF7A6FE039B002B10D1009BF2
:102490005B78012B03D10198FFF707FD02E001985B
:1024A000FFF717FD0198FFF790FC0198FFF7AEFECC
:1024B000039B184605B05DF804FB000000B587B02B
:1024C000039002910192002305930398FFF748FEC1
:1024D0000346002B02D00823059357E0029B9B780C
:1024E000C3F34003DBB21A4601990398FFF7DEFEFF
:1024F00003468DF813309DF91330B3F1FF3F43D0FD
:10250000029B9B78C3F38003DBB283F00103DBB251
:10251000002B13D0029B9B7803F00103DBB2002B4E
:1025200003D00398FFF777FC05E0029B5B78194620
:102530000398FFF75BFC0398FFF768FE029B9B780C
:1025400003F00203DBB2002B08D09DF91300029BBD
:102550001B781A460399FFF75FFB17E09DF91330CC
:10256000083B0D4A134493F94E10029B1B789B01C4
:102570005AB29DF91330083B0A4351B2064A13443C
:102580000A4683F84E2001E004230593059B184674
:1025900007B05DF804FB00BF342F002000B589B000
:1025A00001900B468DF803300198FFF7C7FD0346F5
:1025B000002B2AD00198FFF737FE0346083B184648
:1025C000FFF760FE03468DF80F309DF80F30032BA8
:1025D0000BD10198FFF791FC0346002B01D0032398
:1025E00000E002238DF81F3008E09DF80F30012B2A
:1025F00001D1022300E003238DF81F309DF81F3026
:1026000019460198FFF723FC30E00198FFF778FDA9
:102610000346002B2AD00198FFF706FE03460693D7
:10262000069B9BB240339BB29B00ADF81630069BD5
:102630001846FFF7C5FABDF816301846FFF774FACA
:102640009DF80330002B11D00198FFF7EDFD0346F4
:102650001846FFF7F7FD0490049B002B06D00122DB
:10266000069B02FA03F31846FFF786FA00BF09B08B
:102670005DF804FB00B585B001900198FFF75EFDA1
:102680000346002B04D000210198FFF7E0FB15E082
:102690000198FFF735FD0346002B0FD00198FFF797
:1026A000C3FD03460393039B1846FFF79FFA0122DD
:1026B000039B02FA03F31846FFF76AFA00BF05B05E
:1026C0005DF804FB00B583B001900198FFF715FC9D
:1026D0000346002B14BF01230023DBB2184603B0CE
:1026E0005DF804FB00B585B00190019A022100203D
:1026F000FFF74AFC002303930BE0039B9B00019A26
:1027000013441B68002B01D0012306E0039B013317
:102710000393039B012BF0D90023184605B05DF805
:1027200004FB000000B587B00190002305935BE037
:10273000344A059B13444E3393F90030B3F1FF3F05
:102740004ED00598FFF78AFD049001990498FFF791
:102750008BFC0346002B44D00598FFF793FD0346FE
:102760008DF80F300498FFF7DDFB03468DF80E302F
:102770009DF80E30022B01D1032300E002238DF8D7
:102780000D309DF80D3019460498FFF760FB049852
:10279000FFF72EFC0498FFF747FD03461846FFF7A6
:1027A00051FD0290029B002B1BD09DF80F30032B94
:1027B0000FD09DF80E30022B03D19DF80F30012B66
:1027C00007D09DF80E30032B0BD19DF80F30022B54
:1027D00007D19DF80F20029B11460498984700E00E
:1027E00000BF059B01330593059B002BA0D00198EA
:1027F000FFF778FF0346002B97D100BF00BF07B05B
:102800005DF804FB342F002000B58BB00023089343
:1028100001AB00221A605A604FF48073ADF81A3091
:10282000012309930023079321E0BDF81A301846CD
:10283000FFF765F90346002B0ED00998FFF7B4F9AE
:102840000346002B08D0BDF81A301846FFF76CF984
:10285000089A099B13430893099B5B000993BDF8F1
:102860001A300433ADF81A30079B01330793079BE6
:10287000072BDAD94FF4BE70FFF741F90346002B5E
:102880000DD04FF4BE70FFF74FF9089B43F00043A3
:10289000089301AB1A4602210020FFF775FB089B45
:1028A000DBB2002B29D0012309930023079321E0F9
:1028B000099A089B1340002B16D00798FFF7DEF902
:1028C00005900798FFF7EAF903468DF8133007984B
:1028D000FFF7B8FC0390039B002B05D09DF8132055
:1028E000039B114605989847099B5B000993079B3A
:1028F00001330793079B072BDAD9089B002B03DAD8
:1029000001AB1846FFF70EFF00BF0BB05DF804FBEC
:1029100082B003468DF807309DF90730002B13DB9A
:102920009DF8073003F01F0209499DF907305B0944
:10293000012000FA02F2203341F82320BFF34F8F29
:1029400000BFBFF36F8F00BF00BF02B0704700BF72
:1029500000E100E0044BD3F80034002B14BF012346
:102960000023DBB2184670470000014008B5FFF7AE
:10297000F1FF034683F00103DBB2002B04D000F02B
:1029800033FA024B00229A7000BF08BD8C2F002042
:1029900000B583B000230193184B1B78002B02D0A5
:1029A000852301931CE0154B00229A60134B0022F3
:1029B0005A60124B00221A61104B0022DA60104854
:1029C00000F0ECF9019000F0BBFB034683F001033B
:1029D000DBB2002B01D000F0F9F9084B01221A708C
:1029E000FFF7B8FF0346002B02D0044B01229A7078
:1029F000019B184603B05DF804FB00BF8C2F00203C
:102A0000B12A020084B00190019B1B680393039BD1
:102A1000002B03D0039B1A68019B1A60039B184686
:102A200004B0704700B583B000238DF807300DF176
:102A300007031846FDF7A0FF094BDB68013B084A76
:102A4000D360074BDB68002B01D1FFF78FFF9DF8A8
:102A500007301846FDF799FF00BF03B05DF804FB8F
:102A60008C2F002000B585B003468DF807309DF807
:102A70000730002B02D10C4B039301E00B4B039367
:102A80000398FFF7BFFF0290029B002B06D0029B2A
:102A90005B689DF8072010469847F1E700BF00BF2C
:102AA00005B05DF804FB00BF942F00209C2F002090
:102AB00000B583B003468DF807309DF80730002B32
:102AC00005D10A4B01225A700020FFF7CBFF9DF879
:102AD0000730012B05D1054B01229A700120FFF729
:102AE000C1FF00BF03B05DF804FB00BF8C2F0020C6
:102AF00000B583B001900091019B002B05D1054BDF
:102B000001225A700020FFF7ADFF00BF03B05DF84F
:102B100004FB00BF8C2F002000B585B00346009158
:102B20008DF807309DF80730032B29D0032B2CDCC0
:102B3000002B02D0012B04D027E00020FFF7E8FE95
:102B400024E000238DF80F300DF10F031846FDF738
:102B500013FF104B1B7883F00103DBB2002B01D075
:102B6000FFF716FF0B4BDB6801330A4AD360094BB2
:102B700001229A709DF80F301846FDF706FF05E018
:102B800000F024F9FFF74EFF00E000BF00BF05B0E2
:102B90005DF804FB8C2F002082B003468DF80730CF
:102BA0009DF90730002B0CDB9DF8073003F01F0266
:102BB00005499DF907305B09012000FA02F241F84E
:102BC000232000BF02B0704700E100E082B003465E
:102BD00000918DF807309DF90730002B0ADB009B30
:102BE000DAB20C499DF907305201D2B20B4483F896
:102BF00000230BE0009BDAB207499DF8073003F091
:102C00000F03043B5201D2B20B441A7600BF02B04C
:102C1000704700BF00E100E000ED00E082B00190ED
:102C2000019B1B0B5BB2184602B0704700B583B026
:102C300003460A468DF8073013468DF806309DF896
:102C400006209DF9073011461846FFF7BFFF00BF69
:102C500003B05DF804FB00B583B003468DF8073080
:102C60009DF907301846FFF797FF00BF03B05DF8E6
:102C700004FB000082B003468DF807300F4A9DF92F
:102C80000730002B00DA1F335B115BB252F82320B0
:102C90009DF90730594203F01F0301F01F0158BF8F
:102CA0004B425BB222FA03F303F00103002B14BF83
:102CB00001230023DBB2184602B0704700E100E0B8
:102CC00082B001904FF08042019BC2F8083300BFF0
:102CD00002B0704782B003468DF807309DF8073088
:102CE00003F1804301221A6000BF02B0704784B034
:102CF0000346ADF80630BDF8063003F180430022EC
:102D00001A60BDF8063003F180431B680393039BF0
:102D100000BF04B0704782B001904FF08042019B29
:102D2000C2F8183500BF02B070474FF08043D3F8A7
:102D300018341B0C03F00103002B14BF01230023E4
:102D4000DBB21846704700B583B006238DF8073014
:102D50004FF08040FFF762FF03461846FFF78AFFF7
:102D6000034683F00103DBB2002B13D04FF0804009
:102D7000FFF754FF03461A469DF8073019461046E0
:102D8000FFF754FF4FF08040FFF748FF0346184617
:102D9000FFF761FF00BF03B05DF804FB84B0019052
:102DA00000230393084B1B79002B02D08523039348
:102DB00005E0054A019B1360034B01221A71039B36
:102DC000184604B0704700BFA02F002008B5FFF7D9
:102DD000BAFF0120FFF79FFF024B01221A7000BFCC
:102DE00008BD00BFA82F002008B50220FFF768FF2C
:102DF0004FF48270FFF77BFF0C20FFF76BFF00BFE3
:102E0000FFF793FF0346002BFAD100BF00BF08BDB8
:102E100082B003468DF807309DF90730002B0CDB9C
:102E20009DF8073003F01F0205499DF907305B0943
:102E3000012000FA02F241F8232000BF02B07047DF
:102E400000E100E082B003468DF807309DF90730BD
:102E5000002B09DB0B4A9DF90730134493F800332C
:102E6000DBB25B09DBB20AE0074A9DF8073003F0EA
:102E70000F03043B13441B7EDBB25B09DBB2184635
:102E800002B0704700E100E000ED00E082B0019088
:102E9000019B5B68184602B0704710DF704700BFA7
:102EA0001846000082B003468DF807309DF90730C0
:102EB0001F2B0CDC9DF907300F4A22FA03F303F0B5
:102EC0000103002B14BF01230023DBB210E09DF9A6
:102ED00007303F2B0BDC9DF90730203B012202FA23
:102EE00003F3002B14BF01230023DBB200E0012316
:102EF000184602B0704700BFFC06FFBD82B00190CB
:102F0000019B072B07D8EC22019B42FA03F303F045
:102F10000103002B01D1002300E00123184602B079
:102F20007047000000B583B003468DF807309DF967
:102F300007301846FFF7B6FF0346002B02D142F2D6
:102F400001032EE09DF907301846FFF77BFF03468B
:102F50001846FFF7D3FF0346002B02D142F20203CB
:102F60001FE0124B9B68002B15D09DF907305B09C1
:102F70000E4A52F823209DF8073003F01F03012169
:102F800001FA03F319469DF907305B090A43074923
:102F900041F8232004E09DF907301846FFF738FF79
:102FA0000023184603B05DF804FB00BFD8230020BF
:102FB00000B587B003468DF8073002AB14491846B8
:102FC00002F070FD17E002AB1846FFF75FFF0590B7
:102FD000059B1B680493059B59689DF80720049B7B
:102FE000104698470346002B01D111230BE002AB9A
:102FF000184602F06FFD02AB1846FFF747FF034685
:10300000002BE0D10023184607B05DF804FB00BF99
:10301000305A030000B587B003468DF8073002AB85
:103020001149184602F03EFD12E002AB1846FFF7C8
:103030002DFF0590059B1B680493059B59689DF81F
:103040000720049B1046984702AB184602F042FD49
:1030500002AB1846FFF71AFF0346002BE5D100BF6D
:1030600000BF07B05DF804FB3C5A030000B583B015
:103070001620FFF757FF0190019B0093009B002B48
:1030800004D0044AA1210098FCF7D0FD00BF03B092
:103090005DF804FBE059030000B585B0234B1B78B5
:1030A000002B01D008233CE0214B01221A700020A4
:1030B000FFF77EFF0346112B01D1002331E00020F2
:1030C000FFF7A8FF1B4B1B68029300238DF8073006
:1030D0000DF107031846FDF74FFC02AB16491846E1
:1030E000FFF7DBFE0390039B002B0CBF01230023A3
:1030F000DAB20E4B1A709DF807301846FDF745FC02
:10310000039B002B01D0039B0BE0094B00221A709C
:103110000A4B00221A70FFF7A9FF0120FFF77AFF80
:103120000023184605B05DF804FB00BFA92F00205E
:10313000AB2F00202C5A030049FC0100AA2F0020CD
:10314000014B1B7818467047A92F002000B585B0A9
:103150006B461149184602F0A5FC10E06B46184674
:10316000FFF794FE0390039B1B680293039B5A682E
:10317000029B104698476B46184602F0ABFC6B4624
:103180001846FFF783FE0346002BE7D100BF00BFC0
:1031900005B05DF804FB00BF485A030008B5FFF70F
:1031A000D5FF00BF08BD60DF704700BF184669DF6C
:1031B000704700BF184661DF704700BF184682B0F5
:1031C0000190019B5B68184602B0704782B0019085
:1031D000019B002B01D10E2304E0044B1A46019BF6
:1031E0001A600023184602B0704700BF80230020F9
:1031F00010B586B0034600918DF807300098FFF7B0
:10320000E5FF0590059B002B01D0059BBEE002ABBE
:103210000C220021184602F091FD9DF807308DF830
:10322000083001238DF80A300623ADF80C30009BDE
:103230001A6802AB19462020FFF7B9FF0590059BDD
:10324000002B0FD0534A544BD31ADB081B0443F016
:1032500001040598FDF738FA03461A464F492046FF
:10326000FCF7F0FF02AB0C220021184602F066FDCD
:1032700001238DF80930009B1A6802AB19464020E3
:10328000FFF795FF0590059B002B0FD0414A424B5D
:10329000D31ADB081B0443F001040598FDF714FA68
:1032A00003461A463E492046FCF7CCFF02AB0C22EF
:1032B0000021184602F042FD01238DF80830009BE2
:1032C0001A6802AB19460120FFF771FF0590059BB4
:1032D000002B0FD02F4A304BD31ADB081B0443F0CE
:1032E00001040598FDF7F0F903461A462D492046DA
:1032F000FCF7A8FF02AB0C220021184602F01EFDCD
:103300004FF4B0630293009B1A6802AB1946A120E8
:10331000FFF74DFF0590059B002B0FD01D4A1E4B5C
:10332000D31ADB081B0443F001040598FDF7CCF920
:1033300003461A461C492046FCF784FF02AB0C22C8
:103340000021184602F0FAFC9DF808306FF30003E4
:103350008DF80830009B1A6802AB1946A020FFF7D1
:1033600026FF0590059B002B0FD00A4A0A4BD31A63
:10337000DB081B0443F001040598FDF7A5F903469B
:103380001A460A492046FCF75DFF0023184606B09E
:1033900010BD00BF08510300C0500300605A030075
:1033A000A85A0300F45A0300405B0300945B030037
:1033B00082B04FF08053D3F80C319B020193019BF4
:1033C00003F10053184602B07047000010B584B0F6
:1033D0000190019B1B6803930198FFF7E4FE0290A4
:1033E000019B1B68039A9A4229D2224A224BD31A84
:1033F000DB081B0443F0020320491846FCF714FFC6
:103400001C4A1D4BD31ADB081B0443F00200019B2E
:103410001B68039A1A49FCF726FF164A164BD31A63
:10342000DB081B0443F00204FFF7C2FF0246019BC6
:103430001B68D31A1A4613492046FCF703FF029B68
:10344000002B03D1104B01221A700FE0094A0A4BDE
:10345000D31ADB081B0443F001040298FDF734F98A
:1034600003461A4609492046FCF7ECFE029B184623
:1034700004B010BD08510300C0500300E85B030016
:10348000185C03004C5C0300AC2F0020785C030048
:1034900000B597B00190234B1B7883F00103DBB29A
:1034A000002B3AD13423ADF846300DF1460202AB81
:1034B00011461846FFF77FFE1590159B002B03D091
:1034C000159B052B22D129E002AB14930FAB1649B3
:1034D000184602F0E7FA11E00FAB1846FFF76FFE4F
:1034E0001390139B1B681293139B5A68129B1146EF
:1034F000149898470FAB184602F0ECFA0FAB184639
:10350000FFF75DFE0346002BE6D1CBE7074A40F20A
:103510003B111598FCF78AFB00E000BF17B05DF87F
:1035200004FB00BFAC2F0020E85C0300985C0300A4
:1035300082B00190019B5B68184602B070474BDF78
:10354000704700BF1846000000B589B0019004AB79
:103550001846FFF7F4FF0790079B002B03D0079B4B
:10356000052B20D124E002AB1349184602F09AFA49
:1035700011E002AB1846FFF7DBFF0690069B1B68C5
:103580000593049A069B5968059B1046984702AB21
:10359000184602F09FFA02AB1846FFF7C9FF034630
:1035A000002BE6D1D3E7054A6B210798FCF73EFBD9
:1035B00000BF09B05DF804FB505D0300005D03002F
:1035C0006DDF704700BF184679DF704700BF1846AF
:1035D0007DDF704700BF184664DF704700BF1846A4
:1035E00082B003460091ADF80630BDF80630DAB27D
:1035F000009B1A70BDF806301B0A9AB2009B01337B
:10360000D2B21A700223184602B0704700B589B0D2
:10361000039002911346ADF80630029B1B8803F11C
:103620000902BDF806309A4201D90C2353E004ABDD
:103630001846FFF7C5FF0790079B0693069B002BD4
:1036400001D0069B47E0029B1B881A46039B13444C
:1036500008221A70029B1B8801339AB2029B1A80BF
:10366000029B1B881A46039B13441B221A70029B61
:103670001B8801339AB2029B1A80029B1B881A4650
:10368000039B981804AB01330622194602F02DFB68
:10369000029B1B8806339AB2029B1A809DF8103059
:1036A00023F00103DBB2002B07D1029B1B881A46D3
:1036B000039B134400221A7006E0029B1B881A46E3
:1036C000039B134401221A70029B1B8801339AB298
:1036D000029B1A800023184609B05DF804FB00B570
:1036E00089B0039002910192ADF80230039B1B78E0
:1036F000012B05D1039B5B78002B01D1072392E0BE
:10370000019B1B889A1CBDF802309A420ED8039B7D
:103710001B78012B0CD1019B1B881A46039B5B78FD
:1037200013449A1CBDF802309A4201D90C237AE066
:10373000019B1B88BDF80220D31A9BB2023BADF857
:103740001C30BDF81C30ADF81230019B1B880233D1
:10375000029A13440DF1120211461846FFF738FF82
:103760000690069B0593059B002B01D0059B5AE014
:10377000039B1B78022B06D0039B5B789AB2BDF8A3
:1037800012309A4209D3BDF81230BDF81C209A427B
:1037900003D309238DF81F3017E008238DF81F305D
:1037A000039B1B78012B0CD1039B5B789BB2BDF86C
:1037B0001C209A4205D3039B5B789BB2ADF8123074
:1037C00003E0BDF81C30ADF81230BDF81230FE2B0E
:1037D00001D90C2327E0BDF81230DAB2019B1B8817
:1037E0001946029B0B440132D2B21A70019B1B880E
:1037F00001339AB2019B1A80019B1B881A46029BD7
:1038000013449DF81F201A70019B1B8801339AB244
:10381000019B1A80019B1A88BDF8123013449AB29A
:10382000019B1A800023184609B05DF804FB00B51F
:1038300089B0039002911346ADF80630029B1B88B5
:103840001A1DBDF806309A4201D90C233BE00DF158
:1038500016031846FFF7B8FE0790079B0693069BD2
:10386000002B01D0069B2EE0029B1B881A46039B6F
:10387000134403221A70029B1B8801339AB2029BE5
:103880001A80029B1B881A46039B134419221A7044
:10389000029B1B8801339AB2029B1A80BDF8162046
:1038A000029B1B881946039B0B4419461046FFF7E1
:1038B00097FE03461946029B1A888BB213449AB2AC
:1038C000029B1A800023184609B05DF804FB84B0FF
:1038D000029101921A4603468DF80F301346ADF857
:1038E0000C30019B1B88DA1CBDF80C309A4201D9C0
:1038F0000C2328E0019B1B881A46029B13440222DA
:103900001A70019B1B8801339AB2019B1A80019B9C
:103910001B881A46029B134401221A70019B1B88C4
:1039200001339AB2019B1A80019B1B881A46029BA5
:1039300013449DF80F201A70019B1B8801339AB223
:10394000019B1A800023184604B0704784B002918E
:1039500001921A4603468DF80F301346ADF80C302D
:10396000019B1B88DA1CBDF80C309A4201D90C234C
:1039700028E0019B1B881A46029B134402221A70FE
:10398000019B1B8801339AB2019B1A80019B1B8803
:103990001A46029B13440A221A70019B1B880133AA
:1039A0009AB2019B1A80019B1B881A46029B134402
:1039B0009DF80F201A70019B1B8801339AB2019B5E
:1039C0001A800023184604B0704700B58FB00390EA
:1039D00001930B468DF80B3013468DF80A30002307
:1039E0008DF83330109B1B88ADF8303000230D93D9
:1039F00071E0039B5A680D9B9B001A4405AB10684D
:103A000018600DF11B0105AB00221846FFF7E4FD1D
:103A10000A900A9B0993099B002B01D0099B7CE02B
:103A20009DF81B309DF80A209A4251D19DF8333001
:103A3000002B01D0002300E002238DF82330109BDF
:103A40001B881A469DF81B301A449DF823301A44EF
:103A5000BDF844309A4201DD0C235EE09DF833301E
:103A600083F00103DBB2002B16D0109B1B880133BF
:103A70009AB2109B1A80109B1B881A46019B134414
:103A80009DF80B201A70109B1B8801339AB2109B73
:103A90001A8001238DF83330109B1B881A46019B36
:103AA0001A440DF11B0105AB1846FFF795FD0A906E
:103AB0000A9B0793079B002B01D0079B2DE0109BCF
:103AC0001A889DF81B309BB213449AB2109B1A803F
:103AD0000D9B01330D93039B1B881A460D9B93424C
:103AE00087DB9DF83330002B16D0109B1A88BDF869
:103AF0003030D31A9BB2013BADF82E30BDF82E30DA
:103B0000FF2B01D90C2308E0BDF83030019A134493
:103B1000BDF82E20D2B21A70002318460FB05DF8FF
:103B200004FB00B58BB0059003930B468DF8133062
:103B300013468DF812309DF81310BDF83430019300
:103B40000C9B0093039B02220598FFF73EFF099010
:103B5000099B0893089B002B01D0089B14E09DF85B
:103B60001210BDF8343001930C9B0093039B10227C
:103B70000598FFF72AFF0990099B0793079B002BE5
:103B800001D0079B00E0002318460BB05DF804FB52
:103B900082B00190019B1B88052B0AD9019B1B88D1
:103BA000B3F5486F07D9019B1B884FF6FF7293420C
:103BB00001D0072325E0019B5B88052B0AD9019BD7
:103BC0005B88B3F5486F07D9019B5B884FF6FF729E
:103BD000934201D0072314E0019B1B884FF6FF722C
:103BE00093420DD0019B5B884FF6FF72934207D042
:103BF000019B1A88019B5B889A4201D9072300E048
:103C00000023184602B0704700B587B003900291B8
:103C10000192ADF80230019B1B889A1DBDF802305D
:103C20009A4201D90C234DE00398FFF7B1FF0590AC
:103C3000059B0493049B002B01D0049B42E0019B55
:103C40001B881A46029B134405221A70019B1B888D
:103C500001339AB2019B1A80019B1B881A46029B72
:103C6000134412221A70019B1B8801339AB2019BE4
:103C70001A80039B1A88019B1B881946029B0B44E0
:103C800019461046FFF7ACFC03461946019B1A88FB
:103C90008BB213449AB2019B1A80039B5A88019BF2
:103CA0001B881946029B0B4419461046FFF798FCE7
:103CB00003461946019B1A888BB213449AB2019BA2
:103CC0001A800023184607B05DF804FB00B587B0E2
:103CD000039002910192ADF80230039B9B8802335E
:103CE0000593019B1B881A46059B13449A1CBDF83B
:103CF00002309A4201D90C2354E0059BFE2B01D9D6
:103D00000C234FE0059BDAB2019B1B881946029BEE
:103D10000B440132D2B21A70019B1B8801339AB254
:103D2000019B1A80019B1B881A46029B1344FF22A9
:103D30001A70019B1B8801339AB2019B1A80039B66
:103D40001A88019B1B881946029B0B441946104692
:103D5000FFF746FC03461946019B1A888BB21344B1
:103D60009AB2019B1A80039B9B88002B19D0039B5E
:103D70009B68002B01D1072314E0019B1B881A4686
:103D8000029B9818039B9968039B9B881A4601F035
:103D9000ACFF019B1A88039B9B8813449AB2019B3A
:103DA0001A800023184607B05DF804FB00B589B0FF
:103DB000039002910192ADF80230039B9B6A002BA5
:103DC00001D1072372E000238DF81F3066E0039BCA
:103DD000996A9DF81F2013465B0013449B000B4417
:103DE0000693069B9B8802330593059BFE2B01D906
:103DF0000C235BE0059BDAB2019B1B881946029BF2
:103E00000B440132D2B21A70019B1B8801339AB263
:103E1000019B1A80019B1B881A46029B13441622A1
:103E20001A70019B1B8801339AB2019B1A80069B72
:103E30001A88019B1B881946029B0B4419461046A1
:103E4000FFF7CEFB03461946019B1A888BB2134439
:103E50009AB2019B1A80069B9B88002B19D0069B67
:103E60009B68002B01D1072320E0019B1B881A4689
:103E7000029B9818069B9968069B9B881A4601F03E
:103E800034FF019B1A88069B9B8813449AB2019BBE
:103E90001A809DF81F3001338DF81F30039B93F873
:103EA0002C309DF81F209A4291D30023184609B068
:103EB0005DF804FB00B595B00590049103920023D2
:103EC0001393039B1B88ADF84A30039B00221A8092
:103ED000059B93F82D30002B0ED0BDF84A301A46C2
:103EE00003990498FFF792FB1390139B1193119B76
:103EF000002B01D0119BD8E0059B9B78002B0ED0A6
:103F0000BDF84A301A4603990498FFF790FC1390C5
:103F1000139B1093109B002B01D0109BC5E0059BB9
:103F2000DB78002B10D0059BDB7858B2BDF84A3007
:103F3000039A0499FFF7CBFC1390139B0F930F9BED
:103F4000002B01D00F9BB0E0059B5B68002B11D0CC
:103F5000059B5B6893F90000BDF84A30039A049909
:103F6000FFF7F4FC1390139B0E930E9B002B01D0D4
:103F70000E9B9AE0059B1B89002B14D0059B03F137
:103F80000800BDF84A300193039B0093049B06226E
:103F90000221FFF7C6FD1390139B0D930D9B002B81
:103FA00001D00D9B81E0059B1B8A002B14D0059B43
:103FB00003F11000BDF84A300193039B0093049B6A
:103FC00007220321FFF7ADFD1390139B0C930C9B6D
:103FD000002B01D00C9B68E0059B1B8B002B14D0A1
:103FE000059B03F11800BDF84A300193039B009331
:103FF000049B15221421FFF794FD1390139B0B9340
:104000000B9B002B01D00B9B4FE0059B1B6A002BE9
:104010000FD0059B186ABDF84A30039A0499FFF740
:10402000F3FD1390139B0A930A9B002B01D00A9B6C
:104030003BE0059B5B6A002B0FD0059B586ABDF8DF
:104040004A30039A0499FFF741FE1390139B09939A
:10405000099B002B01D0099B27E0059B93F82C308E
:10406000002B0ED0BDF84A30039A04990598FFF74B
:104070009DFE1390139B0893089B002B01D0089B77
:1040800013E0059B1B78002B0ED0BDF84A30039A35
:1040900004990598FFF723FB1390139B0793079B45
:1040A000002B01D0079B00E0139B184615B05DF86C
:1040B00004FB86B0039001921A460B46ADF80A3015
:1040C00013468DF80930039B002B02D0019B002B77
:1040D00001D100235CE00023ADF816300CE0BDF800
:1040E0001630039A13441B789AB2BDF81630134465
:1040F0009BB20133ADF81630BDF816305A1CBDF82E
:104100000A309A420FDA019B1B88BDF816209A42AA
:10411000E5D3BDF816300133039A13441B789DF89C
:1041200009209A42DBD1BDF81620BDF80A309A4228
:1041300001D300232CE0BDF816300233ADF8143063
:10414000BDF81630039A13441B78002B08D0BDF835
:104150001630039A13441B789BB2013B9BB200E0DC
:104160000023ADF81230BDF81230002B08D0BDF896
:104170001420BDF812301A44BDF80A309A4201DD0D
:10418000002305E0019BBDF814201A80BDF8123011
:10419000184606B0704700B585B001900B46ADF8E3
:1041A000023013468DF801300023ADF80C309DF835
:1041B000013003AABDF802100198FFF77AFF034609
:1041C000ADF80E30BDF80E30002B01D1002304E015
:1041D000BDF80C301A46019B1344184605B05DF833
:1041E00004FB72DF704700BF184673DF704700BFE3
:1041F000184682B00190019B93F8F430184602B043
:10420000704784B00190002303930AE0019A039B56
:1042100013441B78002B01D0012306E0039B0133DC
:104220000393039B052BF1D90023184604B0704774
:1042300082B003468DF807309DF807305A1C074BB3
:1042400083FB02135910D317C91A0B469B000B446A
:10425000D11ACBB2184602B0704700BF67666666D7
:1042600082B001900091009BDB7B012B04D1009B6D
:104270009A88019BA3F8E82000BF02B0704700B500
:1042800085B001900091019B002283F8F220009BF1
:104290009A88019BB3F8E8309A4216D1019B1B79AA
:1042A00083F00103DBB2002B0FD00121019800F055
:1042B0008FFA0390039B002B07D0019B9B6B002B75
:1042C00003D0019B9B6B0398984700BF05B05DF836
:1042D00004FB00B585B001900091009B1B88262B44
:1042E0001ED1009B1B7A012B03D0009B1B7A022B53
:1042F00017D1019B9B781846FFF79AFF0346194692
:10430000019800F065FA0390039B002B09D0019BF4
:104310009B6B002B05D0019B9B6B0398984700E09B
:1043200000BF05B05DF804FB00B585B001900B46F9
:104330008DF80330019BEB331846FFF762FF03460D
:104340008DF80F309DF80330013B032B32D801A2CA
:1043500052F823F065430200894302009D430200A6
:10436000A9430200019B9B79002B0DD0019B93F880
:10437000243083F00103DBB2002B05D09DF80F3011
:10438000002B01D0012316E0019BDB79002B05D027
:104390009DF80F30002B01D002230CE0019B1B7A0B
:1043A000002B01D0032306E0019B5B7A002B01D098
:1043B000042300E00023184605B05DF804FB00BFAD
:1043C00082B001900091019B012283F83120019B72
:1043D0000022C3F8E420019B03F1EA02009B5A602B
:1043E000009B00229A60009B02221A70009B802290
:1043F0009A810023184602B0704782B00190009164
:10440000019B022283F83120009B03221A70019B3A
:104410001B699AB2009B9A81019B0022C3F8E42099
:10442000019B03F1EA02009B5A60019BDA68009B42
:104430009A600023184602B0704700B583B001901F
:10444000019B5B79002B0FD0019B93F8F23083F036
:104450000103DBB2002B07D00198FFF7CAFE034629
:10446000002B01D0012300E0002303F00103DBB2A5
:10447000184603B05DF804FB00B585B001900B460B
:104480008DF80330019BD3F8D400019BB3F8D830EA
:1044900001221946FFF77FFE0390039B002B03D0F8
:1044A000039B9DF803201A70019B03F15400019BAC
:1044B00003F1D401019B3C331A46FFF792FE0346F9
:1044C000184605B05DF804FB00B585B00190009179
:1044D000019B5A69009B9A60019B9B699AB2009B61
:1044E0009A81019B012283F83C200198FFF7A5FFE8
:1044F0000346002B13D0009B02221A750421019859
:10450000FFF7BAFF0390039B0293029B002B01D09D
:10451000029B0FE0019B052283F8312003E0019B01
:10452000032283F83120019B03F1D402019BC3F8DD
:10453000E4200023184605B05DF804FB00B585B003
:1045400001900091019BDA69009B9A60019B1B6AB4
:104550009AB2009B9A81019B012283F83C2001982A
:10456000FFF76BFF0346002B13D0009B02221A7546
:1045700004210198FFF780FF0390039B0293029BA5
:10458000002B01D0029B0FE0019B062283F8312013
:1045900003E0019B042283F83120019B03F1D40244
:1045A000019BC3F8E4200023184605B05DF804FB26
:1045B00082B00190019B9B78002B06D0019B93F861
:1045C0002030002B01D000230AE0019B9B6A042BC2
:1045D00003D0019B5B6A042B01D1002300E001237F
:1045E000184602B0704784B00190019B93F82430C4
:1045F000002B03D01F23ADF80E3002E01F23ADF8CF
:104600000E30BDF80E30184604B0704782B00190ED
:104610000B468DF80330019B9DF8032083F8302072
:1046200000BF02B0704730B587B001900091009B89
:10463000002B02D0019B002B01D10E23B5E0009B83
:1046400078331846FFF7B4FF034683F00103DBB26B
:10465000002B01D00723A8E0019B00229A70019A49
:10466000009B141D03F178050FCD0FC40FCD0FC4AF
:1046700095E8070084E80700019B002283F83020BA
:10468000009BD3F8A420019B5A63009BD3F8A82079
:10469000019B9A63019B4FF6FF72A3F8E820019BF0
:1046A00003F1D402019BC3F8E420019BEA33072203
:1046B0000021184601F042FB019B1B7883F00103A7
:1046C000DBB2002B03D0019BFF2283F85420019B17
:1046D00003F15502019BC3F8D4200198FFF783FF33
:1046E00003461A46019BA3F8D8200098019B03F1CA
:1046F0005501019BD8331A46FFF7DCFB0590059B5B
:104700000493049B002B01D0049B4EE0019B03F11A
:104710009302019BC3F8DC200198FFF764FF034676
:104720001A46019BA3F8E020009B03F13C00019B8B
:10473000D3F8DC10019BE0331A46FFF7BBFB059072
:10474000059B0393039B002B01D0039B2DE0019B52
:10475000012283F85120019B9B699AB2019BA3F827
:104760004820019B012283F83C20019B00221A640F
:10477000019B002283F85020019B5A69019B5A64D7
:10478000019B03F15400019B3C331A460021FFF7C3
:1047900028FD0590059B0293029B002B01D0029BF4
:1047A00003E0019B01221A70059B184607B030BD3B
:1047B00082B00190019B1B68012B03D0019B1B68F9
:1047C000022B01D1012300E00023184602B07047FC
:1047D00000B585B001900B468DF80330019B1B7826
:1047E00083F00103DBB2002B01D0082309E1019B18
:1047F0009DF803209A70019BEA3307220021184696
:1048000001F09CFA019B9B79002B03D0019B9B78C4
:10481000012B0FD0019BDB79002B03D0019B9B78F0
:10482000012B07D0019BDB79002B14D0019B9B78D7
:10483000022B10D1019B5B6B002B08D0019B012246
:1048400083F8F120019B5B6B0820984703E0019BF4
:10485000002283F8F1209DF8033019460198FFF7F4
:1048600063FD03461A46019B9A70019B5B6B002B0C
:1048700020D0019B9B78032B03D0019B9B78042BBA
:1048800018D1019B5B79002B14D0019B93F8F23077
:1048900083F00103DBB2002B0CD0019B002283F8D4
:1048A000F420019B012283F8F320019B5B6B07201E
:1048B000984703E0019B002283F8F320019B3C33DF
:1048C00018220021184601F039FA019B012283F8D1
