:100000000000022075F101005DF101005FF10100C7
:1000100061F1010063F1010065F1010000000000E1
:1000200000000000000000000000000067F1010077
:1000300069F10100000000006BF101006DF10100A9
:100040006FF101006FF10100C1190200B523020038
:100050006FF101006FF10100393202006FF1010010
:100060006FF101006FF101006FF101006FF101000C
:100070006FF101006FF101006FF101006FF10100FC
:100080006FF101006FF101006FF101006FF10100EC
:100090006FF101006FF101006FF101006FF10100DC
:1000A0006FF101006FF101006FF101006FF10100CC
:1000B0006FF101006FF1010000000000000000007E
:1000C0006FF101006FF101006FF10100CD2302001B
:1000D0006FF101006FF101006FF101006FF101009C
:1000E0006FF10100000000000000000000000000AF
:1000F000000000006FF1010000000000E523020095
:1001000000000000000000000000000000000000EF
:1001100000000000000000000000000000000000DF
:1001200000000000000000000000000000000000CF
:1001300000000000000000000000000000000000BF
:1001400000000000000000000000000000000000AF
:10015000000000000000000000000000000000009F
:10016000000000000000000000000000000000008F
:10017000000000000000000000000000000000007F
:10018000000000000000000000000000000000006F
:10019000000000000000000000000000000000005F
:1001A000000000000000000000000000000000004F
:1001B000000000000000000000000000000000003F
:1001C000000000000000000000000000000000002F
:1001D000000000000000000000000000000000001F
:1001E000000000000000000000000000000000000F
:1001F00000000000000000000000000000000000FF
:020000021000EC
:10F00000354936480A1A02D0072291438D463449C1
:10F0100034480A1A06D00722914381F30988022254
:10F0200082F3148830483149314A00F044F83148BD
:10F030003149324A00F03FF831483249324A00F053
:10F040003AF832483249334A00F035F83248334909
:10F05000334A00F030F833483349344A00F02BF893
:10F0600033483449344A00F026F834483449002201
:10F0700000F02CF833483449002200F027F83348D8
:10F080003349091A082902DB002202604160314A33
:10F0900090471F481F49884205D00268043003B4D6
:10F0A000904703BCF7E700208646EC46002000218D
:10F0B000294A9047FEE7884207D0521A05D00378C4
:10F0C00001300B700131013AF9D17047884202D00A
:10F0D00002700130FAE770470000022000E00120D2
:10F0E0000000022000000220803903000000002000
:10F0F0005C000020D0F10100D0F10100982C030049
:10F100008039030000000020000000201C2D0300B7
:10F110001C2D03001C2D03001C2D03001C2D0300BF
:10F120001C2D03001C2D03001C2D03007E39030041
:10F13000DC3903005C0000205C0000205C00002043
:10F14000480D0020480D00204C0D0020600D0020CF
:10F15000602D00209DF1010019FC0100FEE7FEE793
:10F16000FEE7FEE7FEE7FEE7FEE7FEE7FEE7FEE777
:10F1700000F002B8FFF7FCBF0F484FF007018843CB
:10F1800085460E4880470E48016841F470010160D1
:10F19000BFF34F8FBFF36F8FFFF732BF09480A49A4
:10F1A0000A4A884207D0521A05D0037801300B7002
:10F1B0000131013AF9D1704700000220B114020078
:10F1C00088ED00E01C2D030000000020000000205E
:10F1D00000B583B0094B1B88184603F08BFF03462C
:10F1E0000193019B002B04D0044B1B88184603F0AD
:10F1F00059FF019B184603B05DF804FB0600002090
:10F2000000B583B00190019B002B05D0044B1B88F7
:10F210000121184603F0DAFE00BF03B05DF804FBDD
:10F220000600002000B585B00190019B002B0AD09C
:10F23000074B43F001030393019B9B010293039B44
:10F240000298984700E000BF05B05DF804FB00BFDE
:10F25000202D030000B583B00190019800F003FC5D
:10F2600000BF03B05DF804FB00B583B001900198C6
:10F27000FFF7D8FF00BF03B05DF804FB00B585B011
:10F280000190019B002B0AD0074B43F0010303932D
:10F29000019B9B010293039B0298984700E000BFEB
:10F2A00005B05DF804FB00BF502D030082B0019053
:10F2B000019B1B681F2B02D84FF0A04306E0019B67
:10F2C0001B6803F01F02019B1A60024B184602B034
:10F2D000704700BF0003005000B585B0019008469C
:10F2E00011461A4603468DF803300B468DF802305E
:10F2F00013468DF8013001AB1846FFF7D7FF039096
:10F300009DF803209DF802305B001A439DF8013000
:10F310009B001A439DF818301B0242EA03019DF836
:10F320001C301B04019A1943039B02F5E07243F859
:10F33000221000BF05B05DF804FB82B00190019B74
:10F340000722C3F8002500BF02B0704782B00190C9
:10F35000019B0022C3F8002500BF02B0704700B532
:10F360008FB003900291009313468DF8073000236D
:10F370000D93029B09939DF807300A93009B0B9312
:10F380009DF840300C93039B043309A900221846D2
:10F3900002F0A2FF0D900D9B18460FB05DF804FB24
:10F3A00000B583B00190019B002B0AD04FF47A7016
:10F3B000FFF764FF019B013B0193019B002BF5D1FB
:10F3C00000E000BF03B05DF804FB000000B585B0AD
:10F3D000264B1B689B680393039B4FF080421A6186
:10F3E000039B4FF0A0525A61039B002283F82C200C
:10F3F000039B0293039B1C330193029B03221A700D
:10F40000029B01221A73029B194A5A60029B022234
:10F410001A72019B03221A70019B08225A70019BE9
:10F420001D229A70019BFF22DA70019B02221A7141
:10F43000019BFF225A71019B4FF080429A60019B11
:10F4400000221A73019B00225A730A4A6B46126803
:10F45000114619800233120C1A706B461946262089
:10F4600003F0F0FC00BF05B05DF804FB14000020C1
:10F4700000F00240282D030000B585B00190019BEB
:10F480005B6803930398FFF758FF0023184605B005
:10F490005DF804FB00B585B00190019B5B680393A8
:10F4A0000398FFF753FF0023184605B05DF804FBEF
:10F4B00000B583B0104B1B681A690F4B1B685A626A
:10F4C0000D4B1B6818460C4B1B6803F11C010023F5
:10F4D000002202F01FFA0190019B002B04D0074A82
:10F4E0008421019800F0D5FE0220FFF759FF00BFEC
:10F4F00003B05DF804FB00BF000000202C2D0300CA
:10F5000000B585B01D4B1B685A691C4B1B685A62BD
:10F510001A4B1B681846194B1B6803F11C0100238A
:10F52000002202F0F7F90390039B002B04D0144A49
:10F530009621039800F0ADFE104B1B681B7F184608
:10F540000023019303230093002300220121FFF7EE
:10F55000C3FE0A4B1B685B7F1846002301930323FD
:10F560000093002301220121FFF7B6FE0220FFF7DE
:10F5700017FF00BF05B05DF804FB00BF00000020CE
:10F580002C2D030000B589B0049103930346ADF818
:10F5900016301346ADF81430BDF81620BDF81430FF
:10F5A000134401330793079BC82B01D904235BE065
:10F5B00000BF2F4B1B6893F82C30002BF9D12C4B3C
:10F5C0001B6893F82C30112B01D111234CE0284BF0
:10F5D0001B68112283F82C20254B1B681846FFF767
:10F5E0004BFF244B0693BDF816301A460499069833
:10F5F00004F08AFBBDF81630069A13440693BDF852
:10F6000014301A460399069804F07EFBBDF81430B6
:10F61000069A1344069301220AA9069804F074FB83
:10F62000154B1B88184603F056FC144B00221A7029
:10F630000F4B1B681846079BDAB2079BDBB200939F
:10F640000F4B0C49FFF78BFE094B1B681846FFF761
:10F6500021FF094B1B88184603F03DFC044B1B6837
:10F66000002283F82C200023184609B05DF804FB23
:10F670000000002090000020040000208C000020EA
:10F680005801002000B589B0049103930346ADF8FA
:10F6900016301346ADF81430BDF81620BDF81430FE
:10F6A00013440793079BC82B01D9042351E000BFE3
:10F6B0002A4B1B6893F82C30002BF9D1274B1B6881
:10F6C00093F82C30112B01D1112342E0234B1B68FE
:10F6D000112283F82C20214B1B681846FFF7CCFE23
:10F6E0001F4B0693BDF816301A460499069804F08D
:10F6F0000BFBBDF81630069A13440693BDF8143080
:10F700001A460399069804F0FFFA164B1B88184610
:10F7100003F0E1FB144B00221A70104B1B681846D3
:10F72000079BDAB2079BDBB20093104B0C49FFF743
:10F7300016FE0A4B1B681846FFF7ACFE094B1B88E8
:10F74000184603F0C8FB054B1B68002283F82C20E9
:10F750000023184609B05DF804FB00BF000000203C
:10F7600090000020040000208C00002058010020A0
:10F7700000B589B0049103930346ADF816301346E3
:10F78000ADF81430BDF81620BDF8143013440793BB
:10F79000079BC82B01D9042363E000BF334B1B68D0
:10F7A00093F82C30002BF9D1304B1B6893F82C3098
:10F7B000112B01D1112354E02C4B1B68112283F82B
:10F7C0002C202A4B1B681846FFF756FE284B069341
:10F7D000BDF816301A460499069804F095FABDF85B
:10F7E0001630069A13440693BDF814301A460021C9
:10F7F000069804F0B2FABDF81620BDF81430134490
:10F8000007931C4B1B88184603F065FB1A4B00221C
:10F810001A70164B1B681846079BDAB2079BDBB2BF
:10F820000093164B1249FFF79AFDBDF81630134AA4
:10F8300013440693BDF814301A460699039804F051
:10F8400063FA0A4B1B681846FFF724FE094B1B8816
:10F85000184603F040FB054B1B68002283F82C2060
:10F860000023184609B05DF804FB00BF000000202B
:10F8700090000020040000208C000020580100208F
:10F8800000B585B00190019B002B0AD0074B43F0D7
:10F8900001030393019B9B010293039B02989847EA
:10F8A00000E000BF05B05DF804FB00BF802D030041
:10F8B00082B00190019B1B681F2B02D84FF0A04320
:10F8C00006E0019B1B6803F01F02019B1A60024BBC
:10F8D000184602B0704700BF0003005000B585B065
:10F8E0000190084611461A4603468DF803300B4630
:10F8F0008DF8023013468DF8013001AB1846FFF742
:10F90000D7FF03909DF803209DF802305B001A4357
:10F910009DF801309B001A439DF818301B0242EA03
:10F9200003019DF81C301B04019A1943039B02F547
:10F93000E07243F8221000BF05B05DF804FB00B58B
:10F9400085B003900023019300230093002301223C
:10F9500001210398FFF7C2FF00BF05B05DF804FB6B
:10F9600000B585B003900B468DF80B309DF80B3039
:10F970000022019200220092002200210398FFF74A
:10F98000ADFF00BF05B05DF804FB00B585B0019088
:10F9900001AB1846FFF78CFF0390019B012202FA8E
:10F9A00003F31946039800F035F800BF05B05DF881
:10F9B00004FB00B585B0019001AB1846FFF778FF56
:10F9C0000390019B012202FA03F31946039800F009
:10F9D0002BF800BF05B05DF804FB00B585B00190C1
:10F9E00001AB1846FFF764FF0390039800F00AF894
:10F9F0000246019B22FA03F303F00103184605B007
:10FA00005DF804FB82B00190019BD3F810351846D5
:10FA100002B0704782B001900091019B009AC3F838
:10FA2000082500BF02B0704782B001900091019B91
:10FA3000009AC3F80C2500BF02B0704700B583B030
:10FA40000190019B002B0AD04FF47A70FFF718FF4A
:10FA5000019B013B0193019B002BF5D100E000BF0E
:10FA600003B05DF804FB00B583B001900198FFF787
:10FA7000E5FF00BF03B05DF804FB000000B583B0F4
:10FA800003F07CF90190019B0093009B002B04D0B4
:10FA9000044A4121009800F0FCFB00BF03B05DF870
:10FAA00004FB00BF582D030000B583B001900B4646
:10FAB0008DF8033000F054F800BF03B05DF804FB8C
:10FAC00000B585B0134A01AB1268114619800233A4
:10FAD000120C1A7001238DF8053001AB0E4A19463D
:10FAE000222003F003FA0390039B0293029B002B56
:10FAF00004D00A4A5721029800F0CBFB00212220B3
:10FB000003F064FA3320FFF71AFF00BF05B05DF879
:10FB100004FB00BF782D0300A9FA0100582D030053
:10FB200008B51920FFF70BFF1920FFF742FF02204D
:10FB3000FFF784FF00211920FFF712FF0220FFF7D3
:10FB40007DFF00BF08BD08B53320FFF71EFFC820AA
:10FB5000FFF796FE3320FFF72CFF00BF08BD000023
:10FB600008B506E0074B1B68002B02D0054B1B684D
:10FB7000984700F009F80346002BF3D100BF00BFFF
:10FB800008BD00BF2002002008B5044B1B881846A2
:10FB9000FFF723FF0346184608BD00BF06000020FC
:10FBA00000B585B00190019B002B0AD0074B43F0B4
:10FBB00001030393019B9B010293039B02989847C7
:10FBC00000E000BF05B05DF804FB00BFB02D0300EE
:10FBD00000B583B00190019B002B0AD04FF47A70DE
:10FBE000FFF7DEFF019B013B0193019B002BF5D149
:10FBF00000E000BF03B05DF804FB000000B583B077
:10FC000001900199034800F08DF900BF03B05DF841
:10FC100004FB00BFA82D030008B5032001F037FE48
:10FC2000FFF72CFFFFF7D2FBFFF74AFF0220FFF799
:10FC3000CFFF00F09DF9FEE700B583B01F4B0193A5
:10FC4000019B02221A61019B02225A61019B1C4AFC
:10FC50009A61019B1B4ADA61019B4FF480621A6230
:10FC6000019B00229A62019B00225A62019B0022A2
:10FC7000DA62019B124A9A64019B134ADA64019B7F
:10FC800010221A65019B00229A65019B00225A6589
:10FC9000019B0022DA65019B07330C49184604F0EA
:10FCA0008FF8019B0A49184604F08AF8019B20222C
:10FCB0009A7100BF03B05DF804FB00BF240200206E
:10FCC000B82D03009C0200209C060020C42D0300D8
:10FCD000C82D030000B589B0039002910192002362
:10FCE0000693039BDB680593039B1B690493049AAB
:10FCF000059B9A4205D9049A059BD31A013B0793A9
:10FD000007E0039B9A680499059BCB1A1344013BB7
:10FD10000793039B9A68059BD31A079A934228BFBF
:10FD200013460793079A019B934228BF13460793F4
:10FD3000039B5A68059B1344079A0299184603F0DF
:10FD4000E3FF069A079B13440693029A079B13440A
:10FD50000293019A079BD31A0193059A079B1344B8
:10FD60000593039B9B68059A9A4201D10023059352
:10FD7000039B059ADA60019B002BB5D1069B1846C0
:10FD800009B05DF804FB00B589B0039002910192BF
:10FD9000039BDB680793039B9A68079BD31A069320
:10FDA000069A019B9A420ED9039B5A68079B1344FB
:10FDB000019A0299184603F0A7FF079A019B1A447B
:10FDC000039BDA601AE0069B0593039B5A68079B26
:10FDD0001344059A0299184603F096FF019A069B70
:10FDE000D31A0593039B5868029A069B1344059AFD
:10FDF000194603F089FF039B059ADA6000BF09B03A
:10FE00005DF804FB86B00190019B1B690493019B84
:10FE1000DB680393049A039B9A4208D8019B9A6873
:10FE2000039BD21A049B1344013B059304E0049AFC
:10FE3000039BD31A013B0593059B184606B07047F8
:10FE400000B589B0039002910192029B0693039B37
:10FE50005A1C13465B001344DB00204A13440593ED
:10FE6000059B5B69022B29D0022B2ED8002B02D0D8
:10FE7000012B13D029E00598FFF7C4FF0490049AE2
:10FE8000019B9A4202D20023079321E0019B079332
:10FE9000019A06990598FFF776FF19E00598FFF794
:10FEA000B1FF0490019A049B934228BF1346079325
:10FEB000079A06990598FFF766FF09E0019A0699E7
:10FEC0000598FFF707FF079002E00023079300BFA4
:10FED000079B184609B05DF804FB00BF2402002010
:10FEE00000B587B00390029101920D4B1B78002B57
:10FEF00001D1FFF7A1FEEFF311834FF0200181F351
:10FF000011880593019A02990398FFF799FF0490CD
:10FF1000059B83F31188049B184607B05DF804FB2A
:10FF2000240200200FB400B5A3B025AB009301A8B4
:10FF3000009B249A802103F0D9FE2190219B802BE5
:10FF400006DD01AB802219460020FFF7C9FF08E05B
:10FF5000219B002B05DD219A01AB19460020FFF7FC
:10FF6000BFFF219B184623B05DF804EB04B0704737
:10FF700000B58BB08248FFF741FEFFF7C1FAFFF7EB
:10FF8000CFFD0220FFF76FFD7E4805F083FB00BF29
:10FF900005F0A0FC0346002BFAD0002005F0D4FBAE
:10FFA0000346B3F1FF3F03D17748FFF727FEFEE793
:10FFB000032005F0EBFC754805F0D2FB0346002B4F
:10FFC00003D07348FFF71AFEFEE7724805F0D4FB32
:10FFD00044F2010005F0DCFB44F2010005F0EAFB0D
:10FFE000F02005F09FFC4FF4C87005F061FC032081
:10FFF00005F09CFB684B1A78684B9A70802005F0DE
:020000022000DC
:10000000D7FC002265490C2005F0E6FB0122002107
:100010000C2005F0EFFB022005F0FAFB0023604AFC
:100020000021604800F0F5F85B4B1B780133DAB231
:10003000594B1A705B4B1B6803F48043002B00F094
:100040008C804FF4804005F0B3FC05F0E7FC0346DC
:10005000ADF82630BDF82630142B00F28180BDF8B3
:10006000263000221946504805F06EFC4E4B002207
:100070009A700A224D494C4803F0DCFD0346002BE0
:100080006ED105F0D7FB089005F0E6FB079005F070
:1000900069FC034607EE903AB8EEE77ADFED446A72
:1000A000C7EE267ACDED067A03AB1946414800F03B
:1000B0008FF802AB1946404800F08AF8079A089B6F
:1000C000D31A0593029A039BD31A0493059B07EE58
:1000D000903AB8EEE77A049B07EE903AF8EEE76ABA
:1000E000B7EE006ADDED067A76EE677A66EEA77AFD
:1000F00077EE677A17EE900A03F0AAFC4FF0000241
:100100004FF0804303F0E2FA02460B4610461946D0
:1001100017A3D3E9002303F03DFA02460B46274913
:10012000C1E90023254BD3E9000113A3D3E9002340
:1001300003F030FA02460B462149C1E90023204B67
:10014000D3E90023CDE900231E4A10211E4803F005
:10015000A8FD1D48FFF752FD02E01C4805F028FCF1
:100160004FF47A70FFF77FFC44E700BFAFF30080E5
:10017000FA48CE3B1835B13D0000001319DDB141FE
:10018000D02D03009C2D0300E42D03001800002057
:10019000F82D030048000020AC06002028000020B5
:1001A00000D02734C4060020B00600203400002010
:1001B0000000804CBA060020BE060020C8060020C1
:1001C000D00600200C2E0300D80600200090273413
:1001D00084B001900091009B00221A6000230393D9
:1001E00010E0009B1A68039B01990B441B78194689
:1001F000039BDB0001FA03F31A44009B1A60039B84
:1002000001330393039B032BEBDD00BF00BF04B05E
:10021000704700B587B003900291019200930023CC
:10022000059300230493019B002B14D00AE0009B4C
:10023000002B07D005F0E0FB0490049A009B1340CC
:10024000002B15D105F0C6FB0590059A019B1340C4
:10025000002BECD00DE0009B002B0AD000BF05F076
:10026000CBFB0490049A009B1340002BF7D000E0D6
:1002700000BF039B002B02D0039B059A1A60029BD0
:10028000002B02D0029B049A1A6000BF07B05DF8F1
:1002900004FB00B583B002900091019244F201008A
:1002A00071466A4600F004F803B000BD00BF0000CC
:1002B00030B58BB007900691059272B600BF00F082
:1002C000DBFC00BF00F008FB0346002BFAD1079BC4
:1002D00044F20102934216D0079B44F20202934279
:1002E0003ED1059B09932C4A2C4BD31ADB081B04E7
:1002F00043F00100099B5B681A46099B1B6828496B
:1003000000F0ADFA39E0059B0893234A234BD31A3A
:10031000DB081B0443F00104089B9D68089B9B6855
:10032000184600F0C7FC03461846089B5B68194650
:10033000089B1B68069A02920193009103462A4685
:100340001849204600F09FFA134A144BD31ADB08D1
:100350001B0443F001031449184600F061FA0CE055
:100360000D4A0E4BD31ADB081B0443F00103069A17
:100370000E49184600F062FA00BF0D4B1B6803F0EF
:100380000103002B00D000BE059A0699079800F0E3
:10039000D9FC00BF0BB030BD0C2D0300EC2C0300CA
:1003A0001C2E0300382E0300602E0300742E030061
:1003B000F0ED00E000B583B001900091019B1B6857
:1003C0001B6800990198984700BF03B05DF804FBD3
:1003D00000B583B00190019B1B685B68019898474A
:1003E00000BF03B05DF804FB00B583B00190019B32
:1003F0001B689B680198984700BF03B05DF804FB39
:1004000082B00190019BDB6801225A7100BF02B0EB
:10041000704782B00190019BDB685B79184602B09F
:10042000704784B00190009100238DF80F30019B3C
:100430001B7803F00403DBB2002B24D0019B1B7854
:10044000C3F30103DBB2012B02D0022B0CD017E067
:10045000009B1B68019A1288C2F38312D2B2134424
:100460009A1C009B1A600BE0009B1B68019A528843
:10047000C2F3891292B213449A1C009B1A6000BF07
:1004800001238DF80F309DF80F30184604B07047E7
:1004900000B58BB00023ADF826303B4800F015FDC9
:1004A0003A4800F012FD3A4B9B680493394B1B68A5
:1004B0000693049A069B134002339B00344A13446C
:1004C0000433089304AB19460898FFF7AAFF0346C4
:1004D000002B09D0049A069B134002339B002C4A40
:1004E000134404330893EDE700BF0023079311E0A2
:1004F000049B5A1C0492069A1340079A920001A981
:100500000A44234902339B000B445B681360079B3A
:1005100001330793079B012BEAD99DF80430C3F3FD
:100520000103DBB2012B10D0022B1CD1BDF80A3025
:10053000ADF82630BDF80630C3F389139BB2033300
:100540009A08049B134404930EE0BDF80A30ADF8FA
:100550002630BDF80430C3F38313DBB21A46049B84
:100560001344049300E000BF084800F0BAFC059073
:10057000059B002B02D0049B054A9360BDF82630F2
:1005800018460BB05DF804FBD00B0020CC0B00200C
:10059000B80700205000002000B585B000210748B2
:1005A00000F01CFC0390039B0293029B83F3100357
:1005B0000193019B184605B05DF804FBD40B0020A5
:1005C00000B589B00390029101920093039B1B0C2C
:1005D0000693FFF7E1FF0790079B1904009B5A1C45
:1005E0000A9B1340069A0A431B4902339B000B44A3
:1005F0005A60009A0A9B134002339B00164A134428
:1006000004330593039B03F00703D9B2059A1378CB
:1006100061F3C5031370019B03F00F03D9B2059A70
:10062000138861F389131380029BC3F31501059AA4
:10063000136861F39F231360059A1378012161F316
:1006400001031370059A13786FF38203137000BFD0
:1006500009B05DF804FB00BFB807002000BF704779
:1006600000B58BB00390029113468DF80730039BC1
:100670000233089301238DF81F30002000F05AFC4C
:100680003E4B5A68029B1A603D4B1A683B4B996877
:100690003A4B5B68CB1A13440133099314E00121F0
:1006A000384800F0E2FBFFF7F3FE05900599354866
:1006B00000F0DBFB324B1A68304B99682F4B5B68BC
:1006C000CB1A134401330993089A099B9A42E6D83E
:1006D0009DF81F30002B48D0002304939DF807306D
:1006E000002B17D09DF81030012262F301038DF822
:1006F00010309DF8103043F004038DF81030039B48
:1007000003F00F03DAB2BDF8103062F38913ADF8CD
:10071000103016E09DF81030022262F301038DF8CC
:1007200010309DF8103043F004038DF81030039B17
:10073000C3F309039AB2BDF8123062F38F13ADF818
:1007400012300E4B5A680E4B1B68134002339B004D
:100750000A4A134404330693049A069B1A60074B13
:100760005A68089B1344054A5360002000F0EBFBD5
:100770009DF81F3018460BB05DF804FBB807002049
:1007800050000020D40B002000B58BB005900491E0
:1007900003920293204B1B68079306AB0122194674
:1007A0000298FFF75DFF0346002B24D0069B02331F
:1007B00009930023089311E0089B9B00039A1A44B5
:1007C000099B591C099107990B4012681349023380
:1007D0009B000B445A60089B01330893089A029BC4
:1007E0009A42E9D3069A079B00931346029A04990A
:1007F0000598FFF7E5FE094B1B78002B05D000BFDD
:1008000000F06AF80346002BFAD1FFF727FF00BF7C
:100810000BB05DF804FB00BF50000020B8070020BB
:1008200000B583B001900091002300220099019847
:10083000FFF7AAFF00BF03B05DF804FB00B587B067
:10084000039002910192019B059305AA012302994D
:100850000398FFF799FF00BF07B05DF804FB00B5F0
:1008600087B00390029101920093019B0493009B37
:10087000059304AA022302990398FFF785FF00BF9E
:1008800007B05DF804FB00B58BB0039002910192B4
:100890000093019B0593009B06930C9B07930D9B74
:1008A00008930E9B099305AA052302990398FFF765
:1008B0006BFF00BF0BB05DF804FB0000054B9A68AE
:1008C000044B5B689A420CBF01230023DBB218463D
:1008D000704700BFB807002000B599B0FFF7EEFFE2
:1008E0000346002B01D00023B9E19B4B0022C3F843
:1008F0001824BFF34F8F00BF974B9B680493974B0F
:100900001B681093049A109B134002339B00924A79
:1009100013440433119300231793002316930023E9
:100920000F9304AB19461198FFF77BFD0346002B8C
:1009300019D0894BD3F81834002B14D1864B5A6840
:10094000049B9A4205D8844B5B68834A93600023DA
:1009500085E1049A109B134002339B007E4A1344A6
:1009600004331193DDE70023159311E0049B5A1C17
:100970000492109A1340159A920001A90A447649EC
:1009800002339B000B445B681360159B0133159386
:10099000159B012BEAD99DF8043003F00303DBB269
:1009A000022B40F09C80BDF80630C3F389139BB244
:1009B0000D93BDF80630C3F389139BB2502B28BFAB
:1009C00050239BB20C930C9BC3F309039AB2BDF85E
:1009D000063062F38F13ADF806300C9B08330B938F
:1009E0009DF80430C3F3C203DBB20F930B995C484C
:1009F00000F0B4FA1790179B002B00F0D3801798E3
:100A000000F03DFB01A9169B0822179800F0E1FBBE
:100A1000169B08331693049BDA43109B1340013353
:100A20009B000A930C9A0A9B9A4242D90A9B002B7C
:100A300008D0049A109B134002339B00464A13448B
:100A4000043300E0474B08930A9B002B02D00A9B1B
:100A5000DBB201E00C9BDBB28DF81F300A9B002B50
:100A600001D0404B00E0002306930A9B002B06D0E8
:100A70000C9BDAB20A9BDBB2D31ADBB200E0002394
:100A80008DF817309DF81F20169B0899179800F0D5
:100A9000A0FB9DF81F30169A13441693069B002B5B
:100AA00016D09DF81720169B0699179800F091FB19
:100AB0000EE0049A109B134002339B00264A134415
:100AC00004330993169B0C9A0999179800F081FB3F
:100AD0000D9B03339A08049B1344049362E09DF832
:100AE000043003F00303DBB2012B5BD1BDF804300B
:100AF000C3F38313DBB2062B28BF0623DAB2BDF89B
:100B0000043062F38913ADF80430BDF80430C3F348
:100B10008313DBB202330E939DF80430C3F3C20398
:100B2000DBB20F930E9B9B0019460D4800F016FA9E
:100B30001790179B002B35D0179800F0A0FA01A949
:100B4000169B0822179800F044FB169B0833169357
:100B5000002315931DE000BFB807002050000020BF
:100B60004C0D0020C4070020049B5A1C0492109ACC
:100B7000134002339B003C4A1344191D169B042268
:100B8000179800F026FB169B04331693159B013330
:100B90001593BDF80430C3F38313DBB21A46159BDB
:100BA0009342E1D3179B002B39D02F4BD3F810344D
:100BB00014932D4BD3F81834002B1BD0179800F04A
:100BC0006DFA46E000238DF84F301498FFF721FCB2
:100BD0000346002B02D001238DF84F309DF84F3093
:100BE000002B03D017991498FFF7E4FB149BDB68E4
:100BF0001B681493149B002BE4D1179800F04EFA55
:100C0000002000F097F9184BD3F81834002B02D1CC
:100C1000049B154A9360002000F095F919E0124BEF
:100C2000D3F81034129306E01298FFF7DDFB129B05
:100C3000DB681B681293129B002BF5D10B4A0C4BFF
:100C4000D31ADB081B0443F002030A491846FFF7D6
:100C5000E7FDFFF733FE034683F00103DBB21846DE
:100C600019B05DF804FB00BFB80700200C2D03008D
:100C7000EC2C0300902E030000B583B00C4BD3F88E
:100C8000103401930A4B01221A7009E00198FFF712
:100C9000B7FB0198FFF79CFB019BDB681B68019386
:100CA000019B002BF2D100BF00BF03B05DF804FB35
:100CB000B807002000B585B00190019800F00EF84B
:100CC0000390039B002B01D0039B00E0024B1846CE
:100CD00005B05DF804FB00BFA42E030086B00190B0
:100CE000164B0593164B04931FE0049A059BD31AE9
:100CF000DB10DA0F13445B10DB00059A13440393F7
:100D0000039B1B680293029A019B9A4202D9039BA0
:100D100004930AE0029A019B9A4203D2039B083390
:100D2000059302E0039B5B6804E0059A049B9A42EA
:100D3000DBD30023184606B0704700BF78320300AB
:100D40009033030086B003900291019201238DF845
:100D500017309DF81730204A039B13601E4A029BF0
:100D600053601D4A019B9360039B44F2010293422E
:100D700012D0039B44F20202934220D1019B164AF7
:100D8000D360154BDB681B68134A9361124BDB6819
:100D90005B68114AD36112E0019B0F4A13610E4B4D
:100DA0001B699B680C4A53610B4B1B691B680A4A01
:100DB0009361094B1B695B68074AD36100BF72B638
:100DC00000BF00BF9DF81730DBB2002BFAD162B62E
:100DD00000BF00BF06B07047D80B002010B487B02A
:100DE00001900091019B009A53E8004F104643E8A0
:100DF000000191F0000FF7D1059404900391059B39
:100E0000184607B05DF8044B704710B487B00190E6
:100E10000091019B009A53E8004F44EA020043E826
:100E2000000191F0000FF6D1059404900391049B0A
:100E3000184607B05DF8044B704710B487B00190B6
:100E40000091019B009A53E8004F04EA020043E836
:100E5000000191F0000FF6D1059404900391059BD9
:100E6000184607B05DF8044B704710B487B0019086
:100E70000091019B009A53E8004F04EB020043E805
:100E8000000191F0000FF6D1059404900391049BAA
:100E9000184607B05DF8044B704710B487B0019056
:100EA0000091019B009A53E8004FA4EB020043E835
:100EB000000191F0000FF6D1059404900391049B7A
:100EC000184607B05DF8044B704700B583B0019039
:100ED00001210198FFF799FF0346184603B05DF81A
:100EE00004FB00B583B0019000210198FFF7A5FF36
:100EF0000346184603B05DF804FB000072B600BF5D
:100F0000034B1B680133024A136000BF704700BFE8
:100F1000F80B0020064B1B68013B054A1360044B8D
:100F20001B68002B01D162B600BF00BF704700BF35
:100F3000F80B002000B583B00190FFF7DFFF00BF82
:100F400003B05DF804FB00B583B003468DF80730AD
:100F5000FFF7E0FF00BF03B05DF804FB00B58BB006
:100F600001900091019B1B8A043B0793009A079B09
:100F70001344DA1C079BB2FBF3F38DF81B30019886
:100F800000F05BF90590059B002B01D1002338E0B0
:100F9000059B00221A71059B01225A71079B9AB288
:100FA000059BDA80059B09939DF81B30013B049358
:100FB000099B019A1A60002308931DE0019800F034
:100FC0003CF90390039B002B0ED0059B5B7901330A
:100FD000DAB2059B5A71099B039A1A60039B019A26
:100FE0001A60039B099304E0059800F00EF80023B3
:100FF00007E0089B01330893089A049B9A42DDD3CB
:10100000059B18460BB05DF804FB00B58BB0019052
:10101000019B0793079B5B798DF81B30019B08931D
:101020009DF81B30013B05930023099305E0089BC5
:101030001B680893099B01330993099A059B9A42FF
:10104000F5D3089B1B680493019B08930023099325
:101050000BE0089B1B6803930899049800F024F99F
:10106000039B0893099B013309939DF81B30099A50
:101070009A42EED300BF00BF0BB05DF804FB00B591
:1010800085B00190019B0393039B04330121184613
:10109000FFF7EBFE00BF05B05DF804FB00B587B0BD
:1010A0000190019B0593059B043301211846FFF72E
:1010B000F4FE0346039303AB0493049B1B78002BBD
:1010C00002D10198FFF7A1FF00BF07B05DF804FB54
:1010D00000B591B00390029101920093039B099394
:1010E000039B0F93099BDB881A46099B5B7902FBE4
:1010F00003F3043B0893099BDB880793009B1A1DAD
:10110000079BB2FBF3F30E93009B0433079AB3FBE8
:10111000F2F2079901FB02F29B1A0D93019B1A68E8
:10112000009B1344089A9A4203D2089A009BD31A50
:1011300001E0019B1B680C93019B0C9A1A6005E06F
:101140000F9B1B680F930E9B013B0E930E9B002B76
:10115000F6D100230B93079A0D9BD31A0A930A9A90
:101160000C9B934228BF13460A932AE0029A0B9BDA
:10117000134406930F9A0D9B1344043305939DF873
:101180004830002B05D00A9A0599069802F0BCFD5C
:1011900004E00A9A0699059802F0B6FD00230D9323
:1011A0000F9B1B680F930C9A0A9BD31A0C930B9AF4
:1011B0000A9B13440B93079A0C9B934228BF134638
:1011C0000A930C9B002BD1D100BF00BF11B05DF87A
:1011D00004FB00B589B00590049103920293039B30
:1011E000079307AA00230093029B04990598FFF731
:1011F0006FFF00BF09B05DF804FB82B001900B46A1
:101200008DF80330019BDA689DF803300199098A53
:1012100001FB03F31344184602B0704782B00190FB
:101220000091009B019AD2689B1A019A128AB3FB23
:10123000F2F3DBB2184602B0704700B585B00190FA
:10124000002303930020FFF775FE019B1B681A68BB
:10125000019B5B689A421FD9019B1B681A68013A7F
:101260001A601B681B7819460198FFF7C6FF0390A8
:10127000019B9A68019B1B681B68D31A8DF80B3081
:10128000019B1B681B799DF80B209A4204D9019B96
:101290001B689DF80B201A710020FFF754FE039B7A
:1012A000184605B05DF804FB10B584B001900091BC
:1012B000009B03930020FFF73DFE019B1B681C6809
:1012C000621C1A6003990198FFF7A8FF0346237078
:1012D0000020FFF738FE00BF04B010BDBFF34F8FF2
:1012E00000BF064BDB6803F4E0620449044B134380
:1012F000CB60BFF34F8F00BF00BFFDE700ED00E004
:101300000400FA0582B0114B1B680193104B1B6857
:101310000093019B0D2B14D1009B022B0DD0009B41
:10132000022B0CD8009B002B03D0009B012B02D07A
:1013300005E0012306E0012304E0012302E001238C
:1013400000E00023184602B0704700BF30010010D3
:101350003401001082B0114B1B680193104B1B68C5
:101360000093019B0D2B14D1009B022B0DD0009BF1
:10137000022B0CD8009B002B03D0009B012B02D02A
:1013800005E0012306E0012304E0012302E001233C
:1013900000E00023184602B0704700BF3001001083
:1013A0003401001082B0114B1B680193104B1B6875
:1013B0000093019B0D2B14D1009B022B0DD0009BA1
:1013C000022B0CD8009B002B03D0009B012B02D0DA
:1013D00005E0012306E0012304E0012302E00123EC
:1013E00000E00023184602B0704700BF3001001033
:1013F0003401001082B0114B1B680193104B1B6825
:101400000093019B0D2B14D1009B022B0DD0009B50
:10141000022B0CD8009B002B03D0009B012B02D089
:1014200005E0002306E0002304E0012302E001239D
:1014300000E00023184602B0704700BF30010010E2
:101440003401001008B5FFF7D5FF0346002B07D085
:101450004FF010234FF08042D3F80832C2F85835CD
:1014600000BF08BD00BF044BD3F80034002BFAD0F6
:1014700000BF00BF704700BF00E0014000B583B06F
:101480000190054A019BC2F80435FFF7EBFF00BF4E
:1014900003B05DF804FB00BF00E00140024B034ACB
:1014A0001A6000BF704700BF540000200090D003B6
:1014B00008B5FFF727FF0346002B0ED04FF08043FF
:1014C0000022C3F80C214FF080430022C3F8102102
:1014D0004FF080430022C3F83825FFF73BFF034657
:1014E000002B76D04FF080535E4AD3F80434C2F814
:1014F00020354FF080535B4AD3F80834C2F82435C6
:101500004FF08053574AD3F80C34C2F828354FF0C7
:101510008053544AD3F81034C2F82C354FF080531E
:10152000504AD3F81434C2F830354FF080534D4A46
:10153000D3F81834C2F834354FF08053494AD3F801
:101540001C34C2F840354FF08053464AD3F820345B
:10155000C2F844354FF08053424AD3F82434C2F8DD
:1015600048354FF080533F4AD3F82834C2F84C3501
:101570004FF080533B4AD3F82C34C2F850354FF02B
:101580008053384AD3F83034C2F854354FF0805382
:10159000344AD3F83434C2F860354FF08053314ABE
:1015A000D3F83834C2F864354FF080532D4AD3F85D
:1015B0003C34C2F868354FF080532A4AD3F840349F
:1015C000C2F86C354FF08053264AD3F84434C2F841
:1015D0007035FFF7E7FE0346002B0DD04FF0804338
:1015E000D3F8003403F00103002B05D04FF0804303
:1015F0006FF00102C3F800241B4BD3F888301A4A5D
:1016000043F47003C2F88830BFF34F8F00BFBFF3BD
:101610006F8F00BFFFF716FF4FF01023D3F8003293
:10162000002B05DB4FF01023D3F80432002B15DA22
:101630000120FFF723FF4FF010231222C3F80022EE
:10164000FFF710FF4FF010231222C3F80422FFF718
:1016500009FF0020FFF712FFFFF740FEFFF71EFF14
:1016600000BF08BD00C0004000ED00E082B0019066
:10167000019B1B681F2B02D84FF0A04306E0019B83
:101680001B6803F01F02019B1A60024B184602B050
:10169000704700BF0003005000B585B001900846B8
:1016A00011461A4603468DF803300B468DF802307A
:1016B00013468DF8013001AB1846FFF7D7FF0390B2
:1016C0009DF803209DF802305B001A439DF801301D
:1016D0009B001A439DF818301B0242EA03019DF853
:1016E0001C301B04019A1943039B02F5E07243F876
:1016F000221000BF05B05DF804FB00B585B0039073
:101700000023019300230093002301220121039869
:10171000FFF7C2FF00BF05B05DF804FB00B585B060
:1017200003900B468DF80B309DF80B300022019290
:1017300000220092002200210398FFF7ADFF00BFB6
:1017400005B05DF804FB00B585B0019001AB18460B
:10175000FFF78CFF0390019B012202FA03F3194665
:10176000039800F02AF800BF05B05DF804FB00B54F
:1017700085B0019001AB1846FFF778FF0390019BFD
:10178000012202FA03F31946039800F020F800BF83
:1017900005B05DF804FB00B583B001900091009B9B
:1017A000002B03D10198FFF7E2FF02E00198FFF759
:1017B000CAFF00BF03B05DF804FB82B00190009146
:1017C000019B009AC3F8082500BF02B0704782B0A1
:1017D00001900091019B009AC3F80C2500BF02B054
:1017E0007047000000B583B00190064A019B134486
:1017F0001B7801211846FFF7CEFF00BF03B05DF84C
:1018000004FB00BF9033030000B583B000230193B5
:1018100005E00198FFF7E6FF019B01330193019B6F
:10182000032BF6D900BF00BF03B05DF804FB000036
:1018300000B583B00023019309E0094A019B1344DA
:101840001B781846FFF759FF019B01330193019B59
:10185000032BF2D9FFF7D8FF00BF03B05DF804FBFC
:101860009033030000B583B00023019307E0022307
:1018700003211846FFF752FF019B01330193019B9F
:10188000002BF4D000BF00BF03B05DF804FB00B52F
:1018900083B00190019B03F00103002B01D0FFF7FF
:1018A000C7FF019B03F00203002B01D0FFF7DAFF13
:1018B00000BF03B05DF804FB00B589B00190009152
:1018C000009B0793019B1B788DF80830019B5B6898
:1018D0000393019B9B68DBB28DF81030019BDB68A2
:1018E0000593019B1B69DBB28DF81830074A079BF3
:1018F00052F823300649079A51F8221002AA1046DE
:10190000984700BF09B05DF804FB00BFFC0B002046
:101910000C0C002010B58AB0039002910192009344
:10192000039B1B7809932249099B019A41F82320C4
:101930002049099B009A41F82320002308931E4B5D
:1019400004AC0FCB84E80F00029B1B788DF810309D
:10195000029B5B788DF81130029B9B788DF81230DA
:10196000029BDB788DF81330029B1B798DF81530C4
:10197000029B5B798DF81630029B9B680693029B55
:101980001B7B8DF81C30029B5B7B8DF81D30039B0D
:10199000181D019B002B01D0084A00E00022099B82
:1019A00004A900F0BFFA0890089B18460AB010BDC1
:1019B000FC0B00200C0C002094330300B91802002B
:1019C00008B5024B1B68984700BF08BD1C0C0020DF
:1019D00082B00190019B044A934201D1034B00E085
:1019E0000023184602B07047002000401C0C002065
:1019F00000B587B0019000910198FFF7E9FF0390CF
:101A0000039B002B1ED000238DF817300020FFF71A
:101A100091FA039B1B79002B03D001238DF817301B
:101A200005E0039B009A1A60039B01221A710020B3
:101A3000FFF789FA9DF81730002B03D01123049388
:101A4000049B02E000230493049B184607B05DF852
:101A500004FB000082B003468DF807309DF9073083
:101A6000002B0CDB9DF8073003F01F0205499DF9A0
:101A700007305B09012000FA02F241F8232000BF81
:101A800002B0704700E100E082B0034600918DF89B
:101A900007309DF90730002B0ADB009BDAB20C49B6
:101AA0009DF907305201D2B20B4483F800230BE0BA
:101AB000009BDAB207499DF8073003F00F03043B9F
:101AC0005201D2B20B441A7600BF02B0704700BF79
:101AD00000E100E000ED00E082B00190019B03F026
:101AE0006043B3F1005F0CBF01230023DBB2184653
:101AF00002B0704782B00190019B1B0B5BB218468D
:101B000002B0704700B583B003460A468DF807302F
:101B100013468DF806309DF806209DF907301146D2
:101B20001846FFF7B1FF00BF03B05DF804FB00B536
:101B300083B003468DF807309DF907301846FFF74C
:101B400089FF00BF03B05DF804FB82B001900B4633
:101B50008DF803309DF80330019A134401221A6076
:101B600000BF02B0704784B001900B46ADF8023060
:101B7000BDF80230019A134400221A60BDF8023009
:101B8000019A13441B680393039B00BF04B0704782
:101B900082B001900B46ADF80230BDF80230019AD8
:101BA00013441B68002B14BF01230023DBB218462B
:101BB00002B0704782B001900091019B009AC3F877
:101BC000042300BF02B0704782B001900091019BD6
:101BD000009AC3F8082300BF02B0704782B001909A
:101BE000019B0722C3F8002500BF02B0704784B0F4
:101BF0000390029101920093039B029AC3F8082577
:101C0000039B019AC3F80C25039B009AC3F8102587
:101C100000BF04B0704782B001900091009A019B10
:101C2000C3F8242500BF02B0704784B0039002912E
:101C30000192029A039BC3F84425039B019AC3F8BF
:101C4000482500BF04B0704784B003900291019210
:101C5000029A039BC3F83425039B019AC3F83825E5
:101C600000BF04B0704784B001900B468DF803307C
:101C700013468DF802309DF80230002B14BF01236B
:101C80000023DBB203939DF80330032B10D0032B0A
:101C900013DC012B02D0022B05D00EE0039B43F096
:101CA000020303930AE0039B43F00403039305E05C
:101CB000039B43F00603039300E000BF019B039ADC
:101CC000C3F8542500BF04B0704782B001900B46A2
:101CD0008DF803309DF80320019BC3F8C02500BF99
:101CE00002B0704782B00190019B0122C3F85025D9
:101CF00000BF02B0704782B00190019B0022C3F880
:101D0000502500BF02B0704782B00190019B0122B4
:101D1000C3F8402500BF02B0704782B00190019B1C
:101D20000022C3F8402500BF02B0704782B0019086
:101D3000019B1B681F2B02D84FF0A04306E0019BBC
:101D40001B6803F01F02019B1A60024B184602B089
:101D5000704700BF0003005000B585B001900846F1
:101D600011461A4603468DF803300B468DF80230B3
:101D700013468DF8013001AB1846FFF7D7FF0390EB
:101D80009DF803209DF802305B001A439DF8013056
:101D90009B001A439DF818301B0242EA03019DF88C
:101DA0001C301B04019A1943039B02F5E07243F8AF
:101DB000221000BF05B05DF804FB00B585B00390AC
:101DC00000230193002300930023012201210398A3
:101DD000FFF7C2FF00BF05B05DF804FB00B585B09A
:101DE00003900B468DF80B309DF80B3000220192CA
:101DF00000220092002200210398FFF7ADFF00BFF0
:101E000005B05DF804FB00B585B0019001AB184644
:101E1000FFF78CFF0390019B012202FA03F319469E
:101E2000039800F018F800BF05B05DF804FB00B59A
:101E300085B0019001AB1846FFF778FF0390019B36
:101E4000012202FA03F31946039800F00EF800BFCE
:101E500005B05DF804FB82B001900091019B009AEF
:101E6000C3F8082500BF02B0704782B0019000910E
:101E7000019B009AC3F80C2500BF02B07047000018
:101E800086B0019000911E4B1B681E4A1360009B98
:101E9000002B31D0019B009A13440293019B23F441
:101EA000FF5323F01F030593059B5B0B9BB201229D
:101EB00002FA03F3049300230393059B124A93420F
:101EC00003D94FF48073039312E0039A049B1343E6
:101ED0000393049B5B000493059B03F50053059358
:101EE000059A029B9A4203D2059B084A9342ECD37F
:101EF000034A039B136000E000BF06B0704700BFB9
:101F0000000E0040900C0020FFFF00200020012068
:101F1000024A034B1B68136000BF7047000E00406D
:101F2000900C002000B58DB00590049103920293AF
:101F3000059B1B791A461346DB0013449B00664A37
:101F400013440A930A9B1B7F002B03D0082307939B
:101F5000079BBDE0059B1B680993059B1A68059BC1
:101F60001B7919465D4B53F8213019461046FFF78F
:101F70003FFD0346002B03D011230793079BA7E0E7
:101F80000A9B039A1A600A9B029A5A60049B1B7B65
:101F9000012B05D8049B1B781846FFF748FF04E087
:101FA000049B1B781846FFF72EFF049B1B781846EE
:101FB0000023019300230093002300220121FFF757
:101FC000CBFE049B5B78FF2B09D0049B5B780B93C3
:101FD0000B98FFF72CFF0B98FFF7EFFE02E04FF096
:101FE000FF330B93049B9B78FF2B07D0049B9B78BC
:101FF000089301210898FFF7F1FE02E04FF0FF334C
:102000000893049B9A780A9B83F82020049BDA7833
:102010000A9BDA77049BDB78FF2B17D0049B1B7994
:10202000002B05D0049BDB781846FFF700FF04E087
:10203000049BDB781846FFF7E6FE049BDB78184626
:10204000FFF7BBFE049B1A790A9B9A77049B1B78C7
:102050001946089B0B9A0998FFF7C9FD049B9B68DA
:1020600019460998FFF7D7FD049B197B049B5B7BFE
:102070001A460998FFF7F7FD049B9B7919460998C2
:10208000FFF723FE0998FFF7A9FD0A9B1B68002BA9
:1020900015D0059B1B681846FFF72CFD03461A4612
:1020A000049B5B7919461046FFF72CFD059B1B68C6
:1020B0001846FFF71FFD03461846FFF738FD0A9B39
:1020C00000225A770A9B01221A7700230793079B65
:1020D00018460DB05DF804FB240C0020B03303005B
:1020E00000B583B00190019BDB7FFF2B0ED0019BDD
:1020F0009B7F002B05D0019BDB7F1846FFF797FEE7
:1021000004E0019BDB7F1846FFF77DFE019B002268
:102110005A77019B00221A72019B1B68019A02F1F7
:102120000800019A52681146984700BF03B05DF855
:1021300004FB00B583B001900B468DF803309DF889
:10214000033083F00103DBB2002B04D0402101985F
:10215000FFF73AFD03E040210198FFF72BFD00BF98
:1021600003B05DF804FB00B583B001900091009BC3
:1021700003F00103002B03D00198FFF7B3FD02E049
:102180000198FFF7B8FD009B03F00203002B03D07A
:102190000198FFF7B9FD02E00198FFF7BEFD00BF0F
:1021A00003B05DF804FB000000B587B00390029116
:1021B00001920093019B1B68002B0AD0019B1B68B6
:1021C0001846FFF789FC034683F00103DBB2002BBE
:1021D0000ED1019B9B68002B11D0019B9B68184678
:1021E000FFF77AFC034683F00103DBB2002B06D035
:1021F000029B00225A7710230593059B66E0019B02
:102200001968019B5B681A460398FFF70EFD019B56
:102210009968019BDB681A460398FFF715FD039B3D
:102220002C4A934207D1019B1A68019B5B681946AF
:102230001046FFF725FE4FF48C710398FFF793FCCF
:1022400000990398FFF78FFF009B03F00803002B12
:1022500003D110210398FFF778FC029B1B68002B29
:1022600025D100BF4FF48C710398FFF791FC034612
:1022700083F00103DBB2002BF4D1039B154A934298
:1022800001D1FFF745FE029BDB7FFF2B1BD0029B9A
:102290009B7F002B05D0029BDB7F1846FFF7C7FD15
:1022A00011E0029BDB7F1846FFF7ADFD0BE0009BC2
:1022B00003F00403002B0CBF01230023DBB21946FB
:1022C0000398FFF736FF00230593059B184607B0D8
:1022D0005DF804FB00F0024010B586B00390029157
:1022E0000192039B1B791A461346DB0013449B00A3
:1022F0001F4A1344049300230593049B5B7FDBB2C6
:10230000002B03D011230593059B2EE0049B1B6833
:10231000002B07D0019B03F01403002B02D1049B78
:1023200001225A77049B029A03F10C0413460FCB47
:1023300084E80F00049BDB7FFF2B0ED0049B9B7F68
:10234000002B05D0049BDB7F1846FFF75CFD04E003
:10235000049BDB7F1846FFF76AFD039B1868019B0F
:10236000029A0499FFF720FF0346184606B010BDF5
:10237000240C002000B583B0019000914FF48C71C3
:102380000198FFF705FC0346002B0DD0019B084A7E
:10239000934201D1FFF7BCFD4FF48C710198FFF718
:1023A000E2FB0098FFF79CFE00BF03B05DF804FB62
:1023B00000F0024008B503490348FFF7DBFF00BF08
:1023C00008BD00BF240C00200030004008B50349C0
:1023D0000348FFF7CFFF00BF08BD00BF480C002037
:1023E0000030024008B503490348FFF7C3FF00BFB0
:1023F00008BD00BF6C0C002000F0024082B0034614
:102400008DF807309DF90730002B0CDB9DF8073065
:1024100003F01F0205499DF907305B09012000FA0E
:1024200002F241F8232000BF02B0704700E100E053
:1024300082B0034600918DF807309DF90730002BDC
:102440000ADB009BDAB20C499DF907305201D2B287
:102450000B4483F800230BE0009BDAB207499DF898
:10246000073003F00F03043B5201D2B20B441A763B
:1024700000BF02B0704700BF00E100E000ED00E0E7
:1024800082B00190019B1B0B5BB2184602B07047F3
:1024900000B583B003460A468DF8073013468DF821
:1024A00006309DF806209DF9073011461846FFF7C3
:1024B000BFFF00BF03B05DF804FB00B583B0034667
:1024C0008DF807309DF907301846FFF797FF00BFDA
:1024D00003B05DF804FB00B583B00346ADF80630E9
:1024E000BDF80630184600F026F803461B68012B9D
:1024F0000CBF01230023DBB2184603B05DF804FBD8
:1025000000B585B00346ADF80630BDF80630184674
:1025100000F011F803461A4600231360BDF8063098
:10252000184600F008F803461B680393039B00BF9E
:1025300005B05DF804FB82B00346ADF80630BDF887
:10254000063003F1804303F5C043184602B07047DC
:1025500082B00190034A019BC2F8043300BF02B06D
:10256000704700BF0060004082B00190034A019BA9
:10257000C2F8083300BF02B0704700BF00600040DF
:1025800082B00190034BD3F80423019B13401846FB
:1025900002B070470060004082B00190084A019B81
:1025A00003F5A27352F82330054943F00102019B61
:1025B00003F5A27341F8232000BF02B0704700BFAB
:1025C0000060004082B00190084A019B03F5A273AD
:1025D00052F82330054923F00102019B03F5A27351
:1025E00041F8232000BF02B0704700BF00600040E8
:1025F00084B00390029113468DF80730144A039B70
:1026000003F5A27352F82330114923F44F3323F416
:102610004073039A02F5A27241F822300C4A039BE0
:1026200003F5A27352F82320029B1B0203F47C5192
:102630009DF807301B0403F440330B4304491A434D
:10264000039B03F5A27341F8232000BF04B0704739
:102650000060004082B00190054A019B03F5A2731F
:1026600052F823301B0A03F03F03184602B07047AC
:102670000060004082B00190064A019B03F5A273FE
:1026800052F823301B0C03F00303DBB2184602B0F0
:10269000704700BF0060004084B003900291114673
:1026A0001A460B468DF8073013468DF80630184A47
:1026B000039B03F5A27352F82330154923F49913B1
:1026C00023F4F853039A02F5A27241F82230104A1B
:1026D000039B03F5A27352F82320029B1B0203F411
:1026E0007C519DF807301B0403F4403319439DF8D7
:1026F00006301B0503F480130B4305491A43039B63
:1027000003F5A27341F8232000BF04B0704700BF57
:102710000060004082B00190019B1B681F2B02D813
:102720004FF0A04306E0019B1B6803F01F02019BD2
:102730001A60024B184602B0704700BF00030050F9
:1027400000B585B00190084611461A4603468DF83B
:1027500003300B468DF8023013468DF8013001AB83
:102760001846FFF7D7FF03909DF803209DF802302D
:102770005B001A439DF801309B001A439DF8183006
:102780001B0242EA03019DF81C301B04019A194305
:10279000039B02F5E07243F8221000BF05B05DF81C
:1027A00004FB00B585B00390002301930023009340
:1027B0000023012201210398FFF7C2FF00BF05B0EB
:1027C0005DF804FB00B585B003900B468DF80B3027
:1027D0009DF80B300022019200220092002200217D
:1027E0000398FFF7ADFF00BF05B05DF804FB00B52F
:1027F00085B0019001AB1846FFF78CFF0390019A5A
:10280000039B02F5E07253F8223023F00203029397
:10281000019A039B02F5E072029943F8221000BF6F
:1028200005B05DF804FB00B585B001900B468DF84E
:10283000033001AB1846FFF76DFF0390019A039B2D
:1028400002F5E07253F82230019A23F44031039BE1
:1028500002F5E07243F82210019A039B02F5E07240
:1028600053F822309DF8032012041146019A1943AF
:10287000039B02F5E07243F8221000BF05B05DF83B
:1028800004FB00B585B0019001AB1846FFF742FF8D
:102890000390019B012202FA03F31946039800F00A
:1028A0006DF800BF05B05DF804FB00B585B0019080
:1028B00001AB1846FFF72EFF0390019B012202FA9D
:1028C00003F31946039800F063F800BF05B05DF804
:1028D00004FB00B585B0019001AB1846FFF71AFF65
:1028E0000390039BD3F804350293029BDA43019BC8
:1028F000012101FA03F31A40039BC3F80825019B49
:1029000001229A40029B1A40039BC3F80C2500BF8A
:1029100005B05DF804FB00B585B0019001AB184629
:10292000FFF7F8FE0390039800F020F80246019BA1
:1029300022FA03F303F00103184605B05DF804FB27
:1029400000B585B0019001AB1846FFF7E3FE039098
:10295000019A039B02F5E07253F822301B0C03F03E
:102960000303DBB2184605B05DF804FB82B00190AA
:10297000019BD3F81035184602B0704782B0019021
:102980000091019B009AC3F8082500BF02B0704770
:1029900082B001900091019B009AC3F80C2500BF02
:1029A00002B0704788B0039002910192164A05ABBD
:1029B00092E8030083E80300039B079319E0079B59
:1029C0009B0008AA134453F80C3CD3F82025019B24
:1029D0001A60079B9B0008AA134453F80C3C019A09
:1029E0001268C3F82025019B04330193079B013330
:1029F0000793039A029B1344079A9A42DFD300BFBE
:102A000000BF08B0704700BFBC33030000B585B0FD
:102A1000019001AB1846FFF77DFE0390019B012258
:102A200002FA03F31A46039BC3F8202500BF05B042
:102A30005DF804FB84B00190019B5B0902930023C5
:102A40000393029B002B03D0029B012B04D007E0D1
:102A50004FF0FF33039303E040F2FF33039300BFD3
:102A6000019B03F01F030193039A019B22FA03F3D6
:102A700003F00103002B14BF01230023DBB218462F
:102A800004B0704784B001900091009B0393019BB8
:102A9000DB080293019B03F0070301930122019BD2
:102AA00002FA03F30399029A0A4412781340184673
:102AB00004B0704784B001900091009B0393019B88
:102AC000DB080293019B03F007030193039A029B27
:102AD00013441B785AB20121019B01FA03F35BB244
:102AE000134359B2039A029B1344CAB21A7000BF2F
:102AF00004B0704782B00190074A019B134424330D
:102B000093F90030B3F1FF3F14BF01230023DBB280
:102B1000184602B0704700BF940C002082B00190AC
:102B20000C4A019B1344243393F90030002B09DB3A
:102B3000084A019B1344243393F90030072B01DC2E
:102B4000012300E0002303F00103DBB2184602B0CA
:102B5000704700BF940C002082B00190064A019B90
:102B60001344243393F90030072BCCBF01230023F7
:102B7000DBB2184602B07047940C002082B001907E
:102B8000064A019B1344243393F90030DB43DBB244
:102B9000DB09DBB2184602B0704700BF940C00207E
:102BA00084B00390029101928DF80330029B59B2D8
:102BB0000E4A039B134424330A461A700B49029BA6
:102BC000019A41F823209DF8033083F00103DBB222
:102BD000002B08D0029B083B039A51B2034A1344CE
:102BE0000A4683F84E2000BF04B07047940C0020C2
:102BF00082B00190044A019B13442433FE221A70D0
:102C000000BF02B0704700BF940C002082B001905A
:102C1000044A019B13442433FF221A7000BF02B000
:102C2000704700BF940C002000B583B001900449A8
:102C30000198FFF73FFF00BF03B05DF804FB00BF42
:102C4000E30C002082B00190044A019B134424331A
:102C500093F90030184602B0704700BF940C002072
:102C600082B00190034A019B52F82330184602B00B
:102C7000704700BF940C002084B00190074A019B6C
:102C800013444E3393F900308DF80F309DF80F3018
:102C900023F0C003184604B0704700BF940C002016
:102CA00084B00190074A019B13444E3393F90030DE
:102CB0008DF80F309DF80F309B09DBB2184604B039
:102CC000704700BF940C002000B589B003900291BA
:102CD00013468DF80730FF238DF81F309DF807301D
:102CE000002B01D0002300E0082305939DF8073056
:102CF000002B01D0082300E009230493059B0693D1
:102D000014E00F4A069B52F82330B3F1FF3F0AD17B
:102D10009DF80730029A06990398FFF741FF069B3A
:102D20008DF81F3006E0069B01330693069A049B3C
:102D30009A42E6D39DF91F30184609B05DF804FBAE
:102D4000940C002082B003468DF807309DF80730C0
:102D5000094A4FF0FF3142F823109DF80730072B46
:102D600007D99DF80730083B034A1344FF2283F834
:102D70004E2000BF02B07047940C002000B583B015
:102D80002D4B93F85530002B03D008230093009B64
:102D90004EE000238DF8073011E09DF8073018460B
:102DA000FFF748FE0346002B04D09DF80730184675
:102DB000FFF72CFF9DF8073001338DF807309DF8A1
:102DC0000730292BE9D900238DF8073009E09DF859
:102DD00007301846FFF7B6FF9DF8073001338DF82E
:102DE00007309DF80730082BF1D90622002113483F
:102DF00000F0B3FF1248FFF743FB034607211846D4
:102E0000FFF746FB0E48FFF73BFB03461846FFF76C
:102E100054FB4FF4BE70FFF773FB4FF00040FFF719
:102E200097FB054B012283F8552000230093009B5C
:102E3000184603B05DF804FB940C0020E30C00205E
:102E40000060004000B585B001900091002303931D
:102E50000198FFF74FFE0346002B02D0082303938F
:102E600034E0009B9B78002B19D0012200210198AF
:102E7000FFF72AFF03468DF80B309DF90B30B3F1B5
:102E8000FF3F09D09DF90B00009B1A78009B5B78EF
:102E90000199FFF701FC05E00423039302E0019888
:102EA000FFF7A6FE039B002B10D1009B5B78012B44
:102EB00003D10198FFF7E5FC02E00198FFF7F5FC6C
:102EC0000198FFF76EFC0198FFF7AEFE039B1846D2
:102ED00005B05DF804FB00B583B001900198FFF7E1
:102EE000F8FC00BF03B05DF804FB000000B587B03C
:102EF000039002910192002305930398FFF73EFE91
:102F00000346002B02D00823059357E0029B9B78D1
:102F1000C3F34003DBB21A4601990398FFF7D4FECE
:102F200003468DF813309DF91330B3F1FF3F43D0C2
:102F3000029B9B78C3F38003DBB283F00103DBB217
:102F4000002B13D0029B9B7803F00103DBB2002B14
:102F500003D00398FFF74BFC05E0029B5B78194612
:102F60000398FFF72FFC0398FFF75EFE029B9B7808
:102F700003F00203DBB2002B08D09DF91300029B83
:102F80001B781A460399FFF733FB17E09DF91330BE
:102F9000083B0D4A134493F94E10029B1B789B018A
:102FA0005AB29DF91330083B0A4351B2064A134402
:102FB0000A4683F84E2001E004230593059B18463A
:102FC00007B05DF804FB00BF940C002000B589B089
:102FD00001900B468DF803300198FFF7BDFD0346C5
:102FE000002B2AD00198FFF72DFE0346083B184618
:102FF000FFF756FE03468DF80F309DF80F30032B78
:103000000BD10198FFF787FC0346002B01D0032367
:1030100000E002238DF81F3008E09DF80F30012BEF
:1030200001D1022300E003238DF81F309DF81F30EB
:1030300019460198FFF7F7FB30E00198FFF76EFDA6
:103040000346002B2AD00198FFF7FCFD03460693A8
:10305000069B9BB240339BB29B00ADF81630069B9B
:103060001846FFF799FABDF816301846FFF748FAE8
:103070009DF80330002B11D00198FFF7E3FD0346C4
:103080001846FFF7EDFD0490049B002B06D00122AB
:10309000069B02FA03F31846FFF75AFA00BF09B07D
:1030A0005DF804FB00B585B001900198FFF754FD71
:1030B0000346002B04D000210198FFF7B4FB15E074
:1030C0000198FFF72BFD0346002B0FD00198FFF767
:1030D000B9FD03460393039B1846FFF773FA0122D9
:1030E000039B02FA03F31846FFF73EFA00BF05B050
:1030F0005DF804FB00B583B001900198FFF70BFC6D
:103100000346002B14BF01230023DBB2184603B093
:103110005DF804FB00B585B00190019A0221002002
:10312000FFF740FC002303930BE0039B9B00019AF5
:1031300013441B68002B01D0012306E0039B0133DD
:103140000393039B012BF0D90023184605B05DF8CB
:1031500004FB000000B587B00190002305935BE0FD
:10316000344A059B13444E3393F90030B3F1FF3FCB
:103170004ED00598FFF780FD049001990498FFF761
:1031800081FC0346002B44D00598FFF789FD0346D8
:103190008DF80F300498FFF7D3FB03468DF80E30FF
:1031A0009DF80E30022B01D1032300E002238DF89D
:1031B0000D309DF80D3019460498FFF734FB049844
:1031C000FFF724FC0498FFF73DFD03461846FFF780
:1031D00047FD0290029B002B1BD09DF80F30032B64
:1031E0000FD09DF80E30022B03D19DF80F30012B2C
:1031F00007D09DF80E30032B0BD19DF80F30022B1A
:1032000007D19DF80F20029B11460498984700E0D3
:1032100000BF059B01330593059B002BA0D00198AF
:10322000FFF778FF0346002B97D100BF00BF07B020
:103230005DF804FB940C002000B58BB000230893CC
:1032400001AB00221A605A604FF48073ADF81A3057
:10325000012309930023079321E0BDF81A30184693
:10326000FFF739F90346002B0ED00998FFF788F9CC
:103270000346002B08D0BDF81A301846FFF740F976
:10328000089A099B13430893099B5B000993BDF8B7
:103290001A300433ADF81A30079B01330793079BAC
:1032A000072BDAD94FF4BE70FFF715F90346002B50
:1032B0000DD04FF4BE70FFF723F9089B43F0004395
:1032C000089301AB1A4602210020FFF76BFB089B15
:1032D000DBB2002B29D0012309930023079321E0BF
:1032E000099A089B1340002B16D00798FFF7B2F9F4
:1032F00005900798FFF7BEF903468DF8133007983D
:10330000FFF7AEFC0390039B002B05D09DF8132024
:10331000039B114605989847099B5B000993079BFF
:1033200001330793079B072BDAD9089B002B03DA9D
:1033300001AB1846FFF70EFF00BF0BB05DF804FBB2
:1033400000487047400D002030B591EA030F00F1AE
:103350008480841A71EB030C05D2121953EB0C0311
:10336000001B71EB0C0140F2000CCFF6E07C1CEA74
:10337000430F54D0BCEB410F61D90C0DA4EB135E8D
:1033800031EA0C0141F4801133EA0C0343F4801359
:10339000DEF1200C2AD303FA0CF5401941F10001AB
:1033A00022FA0EF5401923FA0EF5694112FA0CF2D1
:1033B000CD0208D349085FEA30005FEA320228BF35
:1033C00042F001020134013C5FEA500C72F100420C
:1033D00050F1000051EB04514FF4001313EB410F77
:1033E00038BF30BD090D0905002030BDBEF1200EEB
:1033F000BEF1200F1ED223FA0EF5401941F1000153
:10340000CEF1200C124218BF012203FA0CF52A4318
:10341000CEE711EA5C0F04BF0020002130BD1CEA9A
:10342000410F04BF01F00041002030BD01F0004118
:10343000002030BD21F4801101EB045130BD004269
:1034400018BF41F00101BCEB410F08BF30BD4FF088
:10345000FE4141F47801002030BD83F00043841A1E
:1034600071EB030E07D28EF0004E001B71EB0E01C4
:10347000121953EB0E0340F2000CCFF6E07C1CEA6D
:10348000430FC6D0BCEB410F72D90C0DA4EB135EF9
:10349000C90241EA5051C00241F00041DB0243EA57
:1034A0005253D20243F00043DEF1200C41D312FA12
:1034B0000CF522FA0EF203FA0CF542EA050218BFE7
:1034C00042F0010223FA0EF3801A9941E30AC4F391
:1034D0000A0411F0404F03D418D0013C4000494188
:1034E000013C23D44205C00A40EA4150C90A51EACE
:1034F000C3715FEA500C72F1004250F1000051EBD1
:10350000045130BD01002FD00020203C0029F9D00B
:10351000B1FA81FCDCF1200E11FA0CF130FA0EF553
:1035200010FA0CF02943A4EB0C04D9E70020D907CA
:1035300030BDAEF1200EBEF1200F0DD2CEF1200C29
:1035400003FA0CF533FA0EF32A4318BF43F00103D4
:10355000C01A61F10001B9E721F00041C00A40EA58
:103560004150C90A01EB045130BD0020002130BD9B
:10357000004218BF41F00101BCEB410F7FF467AF7F
:10358000BCEB430F3FF463AF30BD00BF83F000439B
:10359000FFF7DABEF0B540F2FF7681EA030C16EAD7
:1035A000115E1EBFB64516EA1355B5425AD021EA40
:1035B000465141F48011A1FB024723EA465343F4EC
:1035C0008013AE44A0FB03650CF0004C36197D411E
:1035D000A1FB034747F10003A0FB0217F619654161
:1035E00053F10003094218BF46F0010640F2FE7491
:1035F000B3F5007F13D2AEF5806EA6452BD24CEA10
:103600000331280341EA155140EA165032034508B8
:1036100072F1004250F1000051EB0E51F0BDAEF2DC
:10362000FF3EA64517D24CEAC321E80241EA5551B4
:1036300040EA5650F202450872F1004250F1000093
:1036400051EB0E51F0BD0CF0004141F0FE4141F450
:1036500070010020F0BD1EEA0E0FF4D50CF0004101
:103660000020F0BD16EA115F04BF01F00041002008
:10367000004218BF41F0010116EA135F04BF03F0D6
:1036800000430022124218BF43F0010306EA13541C
:10369000B44218BF9EEA060F03D00CF00041002090
:1036A000F0BD21F0004123F00043B1EB065F06D8E6
:1036B000B3EB065F03D8002918BF002BC3D140F23B
:1036C0000001C7F6F8710020F0BD00BF2DE9F043FE
:1036D00091EA030E0EF0004E40F20007CFF6E077BD
:1036E00017EA41051EBF95EA070F17EA430595EA59
:1036F000070F00F0A1807F0D17EA135623EA475306
:1037000043F4801317EA115521EA475141F480111F
:10371000AD1B05F2FD354FEAD31C1CF1010C4FF037
:103720000047B7FBFCF77F01A2FB079C0024E3FBEB
:1037300007C4DCF1000CD9F100097CF1000CA0FBFE
:1037400007620020E1FB072000275FEAC628E0FBB4
:103750000987760D46EAC226520DF61900277A41EE
:10376000E0FB0C625FEAC823E2FB09375FEA5858C6
:1037700048EAC628760D18EB070800214E41E2FB07
:103780000C8602EBC020DA02E6FB09215B0D43EA5E
:10379000C8235FEA58585B18002758EB0708E6FB78
:1037A0000C38D102E8FB0917520D42EAC3225B0D27
:1037B000D21900277B41E8FB0C2308EBC6265FEA01
:1037C000C128E3FB0987490D41EAC221520DC919FD
:1037D00042F10002E3FB0C12470019EB08095CEB15
:1037E000010C72EB040453EBC62047EB5653002642
:1037F000B3F5000F7641AD190236D6F1200910FA63
:1038000009F4F04013FA09F21043F340E40F0019F1
:1038100043F10003B3F5001F24BF5B08013540F2FC
:10382000FE77BD4204D24EEA05511944BDE8F0834B
:103830002D4224D5714626E0004218BF41F0010117
:10384000124218BF43F00103B7EB410F2CBFB7EB97
:10385000430F1BE0B7EB410F04BFB7EB430F15E07D
:1038600017EA410F04BF17EA430F0FE017EA410FB1
:10387000E0D017EA430F02D0B7EB430FDAD04EF097
:10388000FE4141F470010020BDE8F08340F20001E8
:10389000C7F6F871F7E700BF4FF4001C1CEB410FAF
:1038A00098BF1CEB430F11D851EA030C50EA4C0CA3
:1038B0005CEA020C0CD004D282428B418041013080
:1038C0007047904299418041013070470020704715
:1038D000012070474FF4001C1CEB410F98BF1CEBFC
:1038E000430F0CD850EA410C08BF52EA430C08D0F1
:1038F000904208BF99420CBF012000207047002071
:1039000070470120704700BF4FF4001C1CEB410FB3
:1039100098BF1CEB430F11D851EA030C50EA4C0C32
:103920005CEA020C0CD004D29042994180410130F3
:10393000704782428B4180410130704700207047C0
:10394000012070474FF4001C1CEB410F98BF1CEB8B
:10395000430F11D851EA030C50EA4C0C5CEA020CFC
:103960000AD004D282428B4180414042704790424B
:103970009941804140427047002070474FF4001C3D
:103980001CEB410F98BF1CEB430F11D851EA030CFD
:1039900050EA4C0C5CEA020C0AD004D290429941E5
:1039A00080414042704782428B4180414042704793
:1039B000002070470A15C90241EA5051C00241F087
:1039C000004140F21E439A1A08DA20320DD4D14148
:1039D000D04048409140D14048407047202A28BFFD
:1039E000202231FA02F0002170476FF000010846F2
:1039F000704700BFF9B140F23D42B1FA81F3D21AEB
:103A0000C3F1200C30FA0CFC9840994051EA0C01AB
:103A100083054FEAD02040EA41504FEAD12101EB23
:103A2000025138BF7047013041F100011B4208BF0D
:103A300020F00100704748B140F21D42B0FA80F317
:103A4000D21A9840C10A400501EB0251704700BFED
:103A5000C0F3C75191B142004FEA40704FEAD20122
:103A60004FEA310101F16051B2F17F4F38BF704729
:103A700001F1605118BF41F40021704710F000417E
:103A80000020704751EC100B0128494111F5001F2F
:103A90000CBF01200020704751EC100B0128494158
:103AA00011F5001F8CBF01200020704751EC100B56
:103AB00001F00040704700BF51EC100B21F00041B5
:103AC00041EC100B704700BF70B5041E06DB002CE4
:103AD0001DDD002600200F490F4D06E0644201263F
:103AE000F8E764100835002C07DD14F0010FF8D05A
:103AF000D5E90023FFF74EFDF3E72EB102460B4652
:103B000000200449FFF7E2FD41EC100B70BD0020DE
:103B10000049F9E70000F03F0834030010B50446FF
:103B20000846A2684AB12368616803F1010C8C451C
:103B300008BF00208B4208D2D054E3682BB1216823
:103B40006268914201D2214698472368013323607D
:103B500010BD70B54C1E09D41646C5B22946304674
:103B6000FFF7DCFF013CB4F1FF3FF7D170BD10F06F
:103B7000100F08D108B510F4007F14BF30202020AA
:103B8000FFF7E7FF08BD70470028B8BF4042704705
:103B900000B5FFF7D5FB024B18445DF804FB00BFEE
:103BA0000800000038B5204B204A9B1A102B39D949
:103BB000044601F0CDF904F1130020F00F021C4B74
:103BC000186858B34FF0FF340025294611E041B181
:103BD00003680B60044644F8042B01F0BAF9204650
:103BE00038BD0168124B1960F4E70368014653B110
:103BF000184643689342EAD09342F6D9A3423CBFA9
:103C00001C460546F1E74DB16B689B1A6B60A31A21
:103C1000EC18EA5001F09DF90434E0E701F099F95D
:103C20000024DCE70024DAE7602D0020600D00208E
:103C3000580000209AB330B594460F2A18D902468E
:103C40000B4640EA010414F0030F02D00CF1FF3CD4
:103C500011E019461046043204330C680568A54289
:103C600006D110461946ACF1040CBCF1040FF0D893
:103C7000BCF1010C0FD00A46034684441146184695
:103C800001330132047891F800E0744503D11846FD
:103C900011466345F2D100780B78C01A30BD002080
:103CA00070470CB400B587B008AA52F8043B0592DF
:103CB0000390002004900291194601A800F0D4F866
:103CC00007B05DF804EB02B07047037853B159B107
:103CD0000144034613F8012F12B18B42FAD10B466F
:103CE000181A70470346FBE70346F9E710B584B09E
:103CF0000C46114602900022039201941A4668462F
:103D000000F0B2F804B010BD844640EA010313F09D
:103D1000030F18D18446202A0BD32DE9F007B1E810
:103D2000F807A0E8F807A2F12002202AF7D2BDE8A0
:103D3000F007042A07D351F8043B40F8043BA2F1F2
:103D40000402042AF7D2002A05D011F8013B00F83A
:103D5000013B013AF9D1604670478446002A2DD0D4
:103D600010F0030F04D000F8011B013A26D0F7E74A
:103D7000C9B241EA012141EA0141202A12D3A2F14C
:103D800020022DE9F0030B460C460D460E460F4669
:103D900088468946A0E8FA03203AFBD2BDE8F00342
:103DA00020320BD0042A05D340F8041B043A05D076
:103DB000042AF9D200F8011B013AFBD16046704792
:103DC000024610F0030F16D111F0030F13D12DE9A5
:103DD000F0004FF001374FF0803351F8044BA4EB63
:103DE000070525EA04051D4002D142F8044BF4E71B
:103DF000A1F10401F0BC11F8013B02F8013B002BDA
:103E0000F9D1704700F1010110F0030F11D010F843
:103E1000012B002A23D010F0030F0AD010F8012B39
:103E2000002A1CD010F0030F03D010F8012B002A39
:103E300015D02DE970004FF001324FF0803350F86B
:103E4000044BA4EB020525EA04051D4000D1F6E76A
:103E5000A0F1040070BC10F8012B002AFBD1A0EBEC
:103E600001007047000000002DE9F04F2DED088B98
:103E700093B082460992002303600C4614F8011B9C
:103E8000002900F0E9879FED9C9B9FED9DBB9FED76
:103E90009EAB4F4600F0D2BF002507E05E2869D1F7
:103EA00045F4805501E045F040051C46234613F8D3
:103EB000010B3028F2D81F2837D9A0F12002102A90
:103EC00033D801A151F822F0A73E02002B3F020097
:103ED0002B3F02000D3F02002B3F02002B3F020050
:103EE0002B3F0200133F02002B3F02002B3F02003A
:103EF0002B3F0200193F02002B3F02001F3F020030
:103F00002B3F02002B3F0200253F020045F08005B9
:103F1000CBE745F40045C8E745F02005C5E745F087
:103F20001005C2E745F40075BFE72A2822D1099A97
:103F3000111D09911268002ABCBF524245F01005BC
:103F40001878A31C22EAE27204922E2827D00026B9
:103F5000742848D07A2846D06A2800F0C5806C289A
:103F600000F0D6804C2800F0E180682800F0EF8057
:103F70009B463BE0A0F13002D2B2092A88BF002262
:103F8000E0D8002202EB8202303800EB420213F844
:103F9000010BA0F13001C9B20929F3D9D2E7187891
:103FA0002A280AD1099A111D0991166858780233F6
:103FB000002ECDDB45F48075CAE70133A0F1300255
:103FC000D2B2092A88BF0026F4D8002606EB86065E
:103FD000303800EB460613F8010BA0F13002D2B2E4
:103FE000092AF3D9E4E79B461BF8010B782800F275
:103FF000A080DFE810F043079E009E009E009E0018
:104000009E009E009E009E009E009E009E009E00C0
:104010009E009E009E009E009E009E009E009E00B0
:104020009E009E009E009E009E009E009E009E00A0
:104030009E009E009E009E009E009E009E009E0090
:10404000BA009E009E009E009E009E009E009E0064
:104050009E009E009E009E009E009E009E009E0070
:104060009E009E009E009E009E009E009E009E0060
:104070009E009E009E009E009E009E009E009E0050
:104080000B0226022B029E009E009E009E009E00B8
:104090009E009E009E009E009E009E009E009E0030
:1040A0009E009E009E004E019E009E009E009E006F
:1040B0009E009E009E009E009E009E00C000A401E7
:1040C0000D0228022D029E00A4019E009E009E006B
:1040D0009E00D100900128019E009E00EC009E00F1
:1040E0009C019E009E00500145F002059B461BF876
:1040F000010B7BE7AFF30080000000000000E03F11
:104100000000000000005940A0C8EB85F3CCE17F1F
:1041100018786C2804D003F1010B45F0010565E720
:1041200045F0020503F1020B58785FE745F0010501
:104130009B46B24B1C68002C00F07C8609AB0193B7
:104140000096049B2A465146A04700F073BE18789B
:10415000682804D003F1010B45F0040546E745F05B
:10416000080503F1020B587840E725215046FFF778
:10417000D5FC00F05FBE099B1A1D09921C78049BB8
:1041800003F1FF38524641462846FFF7F0FC21462E
:104190005046FFF7C3FC47E015F0080F08D0DAF8E7
:1041A0000020099B191D09911B681A7000F042BE7E
:1041B00015F0020F099B03F1040209921B68DAF85B
:1041C00000201A601CBF00225A6000F033BE099B19
:1041D0001A1D09921B6802932B468948029A002AED
:1041E00018BF1046029023F4007513F4807F26D088
:1041F0003146FFF76AFD0446049BA3EB04085246D0
:1042000041462846FFF7B3FC671E6CB1DDE9026743
:104210003346013619785046FFF780FC013CF7D150
:10422000CDE902674FF0FF3715F0100F00F002865E
:10423000524641462020FFF78CFC00F0FBBDFFF703
:10424000E1FD0446D8E709990B1D09930A6800238C
:1042500010461946CDE9020115F0800F18BF23233F
:10426000059345F480750826DDE902783946424613
:1042700043463B4300F0BB850BAF002405F4005CD4
:10428000DFF88081DFF880E16346AC461D4600F030
:1042900061BD45F4005515F0800F08D043F2780257
:1042A00043F25803782818BF1A46059201E000230C
:1042B000059315F4807F01D025F4007515F4804F27
:1042C00064D015F0020F42D0099B073323F0070397
:1042D00003F108020992D3E90034CDE9023415F064
:1042E000040F3FD0DDE9022314B242F3C03122466D
:1042F0000B46CDE90223DDE902784246002A3BDA8B
:104300007B421C4668EB480122460B46CDE902235E
:104310002D23059352E015F0800F0CBF00233023AE
:10432000059315F4807FC9D025F40075C6E715F410
:10433000807F09D025F4007500230593BEE745F47E
:10434000804500230593B9E700230593B6E7099B51
:104350001A1D09921B681C46D91722460B46CDE947
:104360000223BCE715F0080FC5D09DF808400021D6
:1043700022460B46CDE9022315F0200F3BD115F064
:10438000400F059B18BF2023059317E015F0020F7F
:104390001CD0099B073323F0070303F1080209929D
:1043A000D3E90034CDE9023415F0040F18D0BDF87C
:1043B0000840002122460B46CDE9022315F4807FF8
:1043C00000F0448425F4007500F041BC099B1A1DDF
:1043D00009921C68002122460B46CDE90223E3E73F
:1043E00015F0080FEAD09DF80840002122460B4640
:1043F000CDE90223E2E72B230593DFE7EC0C002055
:1044000050340300DC330300EC33030045F4005563
:1044100045F48068099B073323F0070303F1080282
:10442000099293ED008B8DED028B18F4807F12D0F2
:1044300096B908F44066B6F5406F14BF0026012611
:104440000AE045F4005545F40068E3E745F40055FB
:1044500045F44068DEE70626B0EE480AF0EE680A4A
:10446000FFF710FB002840F0CB80B0EE480AF0EEDA
:10447000680AFFF711FB0890002840F0DE80B0EEDC
:10448000480AF0EE680AFFF711FB60B148F06008D7
:104490008DED068A18EE903A03F100430793DDE9AB
:1044A0000634CDE90234DDE9024511A845EC104B94
:1044B00000F0B8FD119B03EB4303B64A82FB0312E5
:1044C000DB17C3EBA20311930022002320462946E9
:1044D000FFF700FA002800F0BC8008F44063059361
:1044E000B3F5806F0AD0B3F5406F40F03282119B74
:1044F000B34203DA13F1040F80F22B821198B0F566
:104500009A7F40F0C28053EC1A2B20462946FFF7D1
:10451000DDF8CDE90201DDE9024500220023204655
:104520002946FFF7D7F9002848D145EC104BFFF793
:10453000A9FA002840F0B5800022974B2046294672
:10454000FFF7E2F9C0B1119B03F10109CDF8089022
:104550000022914B20462946FFF7B8F804460D4645
:1045600009F1010900228C4BFFF7CEF90028EDD1AB
:10457000029B1193CDE90245DDE902450022874BFC
:1045800020462946FFF7FAF9C0B1119B03F1FF3924
:10459000CDF808900022804B20462946FEF7FAFF0E
:1045A00004460D4609F1FF3900227C4BFFF7E6F97E
:1045B0000028EDD1029B1193CDE90245002E00F0B9
:1045C0006684059BB3F5406F00F088807042FFF76A
:1045D0007BFA51EC100B53EC192BFEF7DBFFDDE9F6
:1045E0000223FEF7B1FE04460D46CDE90245002246
:1045F000694BFFF789F9002800F06F8400F05FBC79
:104600000022002351EC180BFFF7B8F968B918F431
:10461000005F634B634A08BF134618F0200F08BFC2
:104620000133029328F48073D7E518F4005F5E4AE3
:104630005E4B18BF13460293F4E718F4005F5C4822
:104640005C4B08BF184628F48073CBE5119B0133FF
:10465000119311980130FFF737FA53EC102B2046D5
:104660002946FFF76FF90028F0D102E0119B013BCA
:1046700011931198FFF728FA53EC102B2046294686
:10468000FFF77CF90028F1D127E74042FFF71CFA39
:1046900053EC102B20462946FEF77CFFCDE90201A2
:1046A00039E70022002320462946FFF767F968B959
:1046B00018F4005F3A4B3B4A08BF134618F0200F2E
:1046C00008BF0133029328F4807386E518F4005F75
:1046D000354A364B18BF13460293F4E706F1FF390B
:1046E000C6F10100FFF7F0F951EC100B53EC192B58
:1046F000FEF750FFDDE90223FEF726FE04460D46D5
:10470000CDE902450022244BFFF7FEF808B14E46E2
:10471000D5E34E46DEE3102EA8BF1026DDE90245A4
:104720003046FFF7D1F953EC102B20462946FEF70F
:1047300031FFFFF73FF98146059151EA00030BD1A4
:1047400028F400630593049BA3F1050918F0800386
:1047500040F0D1830893D0E30A22002300F0FAFB53
:10476000134340F0C0830A240025013E22462B4615
:104770004846059900F0EEFB81460591002EDFD0FA
:1047800022462B4600F0E6FB1343EED0ABE30126B6
:104790001FE000BF67666666000024400000F03F2F
:1047A000683403007034030058340300603403009D
:1047B000783403007C3403000022C34BDDE902019E
:1047C000FEF7E8FECDE90201013C119409F1FF3941
:1047D0000226089B23EAE373089318F0600F18BFC2
:1047E00009F1FF391198FFF7CFF96328C8BF09F124
:1047F000FF39DDE9027838464146FFF7DBF8044629
:104800000D46FFF7F7F802460B4638464146FEF7DD
:10481000BDFECDE9020129EAE977059B13F4047F87
:1048200000F05A81059B13F0200F00F0638113F014
:10483000400F14BF2D212B215046FFF76FF9059B28
:1048400013F0100F00F0608106F10053013B9F4A06
:1048500002EBC3084FF03009013ED8F80030D8F819
:1048600004C0A8F108089C4275EB0C02C0F0598105
:1048700049460131C9B2E01A65EB0C0204461546FF
:10488000984272EB0C02F4D25046FFF747F9002E23
:10489000E2D1059B13F4006440F04581089B002B96
:1048A00040F05081059B13F0800F40F0EA82059B99
:1048B00013F4806F2FD013F4005F14BF45216521DE
:1048C0005046FFF72BF9119B002BC0F2A1812B2141
