:020000021000EC
:109000000000022075F101005DF101005FF1010037
:1090100061F1010063F1010065F101000000000051
:1090200000000000000000000000000067F10100E7
:1090300069F10100000000006BF101006DF1010019
:109040006FF101006FF101004D2602004D3002006A
:109050008D3E02006FF10100DD4C02006FF1010056
:109060006FF101006FF101006FF101006FF101007C
:109070006FF101006FF101006FF101006FF101006C
:109080006FF10100C57F02006FF101006FF1010077
:10909000058002006FF10100715602006FF10100BE
:1090A0006FF101006FF101006FF101006FF101003C
:1090B0006FF101006FF101000000000000000000EE
:1090C0006FF101006FF101006FF1010065300200E6
:1090D0006FF101006FF101006FF101006FF101000C
:1090E0006FF101000000000000000000000000001F
:1090F000000000006FF10100000000007D30020060
:10910000000000000000000000000000000000005F
:10911000000000000000000000000000000000004F
:10912000000000000000000000000000000000003F
:10913000000000000000000000000000000000002F
:10914000000000000000000000000000000000001F
:10915000000000000000000000000000000000000F
:1091600000000000000000000000000000000000FF
:1091700000000000000000000000000000000000EF
:1091800000000000000000000000000000000000DF
:1091900000000000000000000000000000000000CF
:1091A00000000000000000000000000000000000BF
:1091B00000000000000000000000000000000000AF
:1091C000000000000000000000000000000000009F
:1091D000000000000000000000000000000000008F
:1091E000000000000000000000000000000000007F
:1091F000000000000000000000000000000000006F
:10F00000354936480A1A02D0072291438D463449C1
:10F0100034480A1A06D00722914381F30988022254
:10F0200082F3148830483149314A00F044F83148BD
:10F030003149324A00F03FF831483249324A00F053
:10F040003AF832483249334A00F035F83248334909
:10F05000334A00F030F833483349344A00F02BF893
:10F0600033483449344A00F026F834483449002201
:10F0700000F02CF833483449002200F027F83348D8
:10F080003349091A082902DB002202604160314A33
:10F0900090471F481F49884205D00268043003B4D6
:10F0A000904703BCF7E700208646EC46002000218D
:10F0B000294A9047FEE7884207D0521A05D00378C4
:10F0C00001300B700131013AF9D17047884202D00A
:10F0D00002700130FAE770470000022000E00120D2
:10F0E0000000022000000220988E030080230020F0
:10F0F000D8230020D0F10100D0F101005C7A030098
:10F10000988E03008023002080230020487B03008A
:10F11000487B0300487B0300487B0300487B0300D7
:10F12000487B0300487B0300487B0300968E030066
:10F13000F08E0300D8230020D8230020D8230020FD
:10F14000F0330020F0330020F43300200834002096
:10F15000085400209DF10100A9FC0100FEE7FEE734
:10F16000FEE7FEE7FEE7FEE7FEE7FEE7FEE7FEE777
:10F1700000F002B8FFF7FCBF0F484FF007018843CB
:10F1800085460E4880470E48016841F470010160D1
:10F19000BFF34F8FBFF36F8FFFF732BF09480A49A4
:10F1A0000A4A884207D0521A05D0037801300B7002
:10F1B0000131013AF9D17047000002203D210200DF
:10F1C00088ED00E0487B030080230020802300209E
:10F1D00000B583B0094B1B88184605F0DDFC0346DB
:10F1E0000193019B002B04D0044B1B88184605F0AB
:10F1F000ABFC019B184603B05DF804FB862300209E
:10F2000000B583B00190019B002B05D0044B1B88F7
:10F210000121184605F02CFC00BF03B05DF804FB8B
:10F220008623002000B585B00190019B002B0AD0F9
:10F23000074B43F001030393019B9B010293039B44
:10F240000298984700E000BF05B05DF804FB00BFDE
:10F25000507B030000B583B00190019800F003FCDF
:10F2600000BF03B05DF804FB00B583B001900198C6
:10F27000FFF7D8FF00BF03B05DF804FB00B585B011
:10F280000190019B002B0AD0074B43F0010303932D
:10F29000019B9B010293039B0298984700E000BFEB
:10F2A00005B05DF804FB00BF807B030082B00190D5
:10F2B000019B1B681F2B02D84FF0A04306E0019B67
:10F2C0001B6803F01F02019B1A60024B184602B034
:10F2D000704700BF0003005000B585B0019008469C
:10F2E00011461A4603468DF803300B468DF802305E
:10F2F00013468DF8013001AB1846FFF7D7FF039096
:10F300009DF803209DF802305B001A439DF8013000
:10F310009B001A439DF818301B0242EA03019DF836
:10F320001C301B04019A1943039B02F5E07243F859
:10F33000221000BF05B05DF804FB82B00190019B74
:10F340000722C3F8002500BF02B0704782B00190C9
:10F35000019B0022C3F8002500BF02B0704700B532
:10F360008FB003900291009313468DF8073000236D
:10F370000D93029B09939DF807300A93009B0B9312
:10F380009DF840300C93039B043309A900221846D2
:10F3900003F0EEFD0D900D9B18460FB05DF804FBD9
:10F3A00000B583B00190019B002B0AD04FF47A7016
:10F3B000FFF764FF019B013B0193019B002BF5D1FB
:10F3C00000E000BF03B05DF804FB000000B585B0AD
:10F3D000264B1B689B680393039B4FF080421A6186
:10F3E000039B4FF0A0525A61039B002283F82C200C
:10F3F000039B0293039B1C330193029B03221A700D
:10F40000029B01221A73029B194A5A60029B022234
:10F410001A72019B03221A70019B08225A70019BE9
:10F420001D229A70019BFF22DA70019B01221A7142
:10F43000019BFF225A71019B4FF080429A60019B11
:10F4400000221A73019B00225A730A4A6B46126803
:10F45000114619800233120C1A706B461946262089
:10F4600005F042FA00BF05B05DF804FB94230020CC
:10F4700000F00240587B030000B585B00190019B6D
:10F480005B6803930398FFF758FF0023184605B005
:10F490005DF804FB00B585B00190019B5B680393A8
:10F4A0000398FFF753FF0023184605B05DF804FBEF
:10F4B00000B583B0104B1B681A690F4B1B685A626A
:10F4C0000D4B1B6818460C4B1B6803F11C010023F5
:10F4D000002203F065F80190019B002B04D0074A3D
:10F4E0008421019801F05BFC0220FFF759FF00BF67
:10F4F00003B05DF804FB00BF802300205C7B0300A9
:10F5000000B585B01D4B1B685A691C4B1B685A62BD
:10F510001A4B1B681846194B1B6803F11C0100238A
:10F52000002203F03DF80390039B002B04D0144A03
:10F530009621039801F033FC104B1B681B7F184683
:10F540000023019303230093002300220121FFF7EE
:10F55000C3FE0A4B1B685B7F1846002301930323FD
:10F560000093002301220121FFF7B6FE0220FFF7DE
:10F5700017FF00BF05B05DF804FB00BF802300202B
:10F580005C7B030000B589B0049103930346ADF89A
:10F5900016301346ADF81430BDF81620BDF81430FF
:10F5A000134401330793079BC82B01D904235BE065
:10F5B00000BF2F4B1B6893F82C30002BF9D12C4B3C
:10F5C0001B6893F82C30112B01D111234CE0284BF0
:10F5D0001B68112283F82C20254B1B681846FFF767
:10F5E0004BFF244B0693BDF816301A460499069833
:10F5F00008F002FFBDF81630069A13440693BDF8D2
:10F6000014301A460399069808F0F6FEBDF8143037
:10F61000069A1344069301220AA9069808F0ECFE04
:10F62000154B1B88184605F0A8F9144B00221A70D8
:10F630000F4B1B681846079BDAB2079BDBB200939F
:10F640000F4B0C49FFF78BFE094B1B681846FFF761
:10F6500021FF094B1B88184605F08FF9044B1B68E6
:10F66000002283F82C200023184609B05DF804FB23
:10F67000802300200C240020842300200824002064
:10F68000D424002000B589B0049103930346ADF85B
:10F6900016301346ADF81430BDF81620BDF81430FE
:10F6A00013440793079BC82B01D9042351E000BFE3
:10F6B0002A4B1B6893F82C30002BF9D1274B1B6881
:10F6C00093F82C30112B01D1112342E0234B1B68FE
:10F6D000112283F82C20214B1B681846FFF7CCFE23
:10F6E0001F4B0693BDF816301A460499069808F089
:10F6F00083FEBDF81630069A13440693BDF8143005
:10F700001A460399069808F077FE164B1B88184690
:10F7100005F033F9144B00221A70104B1B68184681
:10F72000079BDAB2079BDBB20093104B0C49FFF743
:10F7300016FE0A4B1B681846FFF7ACFE094B1B88E8
:10F74000184605F01AF9054B1B68002283F82C2097
:10F750000023184609B05DF804FB00BF8023002099
:10F760000C2400208423002008240020D42400201E
:10F7700000B589B0049103930346ADF816301346E3
:10F78000ADF81430BDF81620BDF8143013440793BB
:10F79000079BC82B01D9042363E000BF334B1B68D0
:10F7A00093F82C30002BF9D1304B1B6893F82C3098
:10F7B000112B01D1112354E02C4B1B68112283F82B
:10F7C0002C202A4B1B681846FFF756FE284B069341
:10F7D000BDF816301A460499069808F00DFEBDF8DB
:10F7E0001630069A13440693BDF814301A460021C9
:10F7F000069808F02AFEBDF81620BDF81430134410
:10F8000007931C4B1B88184605F0B7F81A4B0022CB
:10F810001A70164B1B681846079BDAB2079BDBB2BF
:10F820000093164B1249FFF79AFDBDF81630134AA4
:10F8300013440693BDF814301A460699039808F04D
:10F84000DBFD0A4B1B681846FFF724FE094B1B889B
:10F85000184605F092F8054B1B68002283F82C200F
:10F860000023184609B05DF804FB00BF8023002088
:10F870000C2400208423002008240020D42400200D
:10F8800000B585B00190019B002B0AD0074B43F0D7
:10F8900001030393019B9B010293039B02989847EA
:10F8A00000E000BF05B05DF804FB00BFB07B0300C3
:10F8B00082B00190019B1B681F2B02D84FF0A04320
:10F8C00006E0019B1B6803F01F02019B1A60024BBC
:10F8D000184602B0704700BF0003005000B585B065
:10F8E0000190084611461A4603468DF803300B4630
:10F8F0008DF8023013468DF8013001AB1846FFF742
:10F90000D7FF03909DF803209DF802305B001A4357
:10F910009DF801309B001A439DF818301B0242EA03
:10F9200003019DF81C301B04019A1943039B02F547
:10F93000E07243F8221000BF05B05DF804FB00B58B
:10F9400085B003900023019300230093002301223C
:10F9500001210398FFF7C2FF00BF05B05DF804FB6B
:10F9600000B585B003900B468DF80B309DF80B3039
:10F970000022019200220092002200210398FFF74A
:10F98000ADFF00BF05B05DF804FB00B585B0019088
:10F9900001AB1846FFF78CFF0390019B012202FA8E
:10F9A00003F31946039800F035F800BF05B05DF881
:10F9B00004FB00B585B0019001AB1846FFF778FF56
:10F9C0000390019B012202FA03F31946039800F009
:10F9D0002BF800BF05B05DF804FB00B585B00190C1
:10F9E00001AB1846FFF764FF0390039800F00AF894
:10F9F0000246019B22FA03F303F00103184605B007
:10FA00005DF804FB82B00190019BD3F810351846D5
:10FA100002B0704782B001900091019B009AC3F838
:10FA2000082500BF02B0704782B001900091019B91
:10FA3000009AC3F80C2500BF02B0704700B583B030
:10FA40000190019B002B0AD04FF47A70FFF718FF4A
:10FA5000019B013B0193019B002BF5D100E000BF0E
:10FA600003B05DF804FB00B583B001900198FFF787
:10FA7000E5FF00BF03B05DF804FB000000B583B0F4
:10FA800004F0CEFE0190019B0093009B002B04D05C
:10FA9000044A4121009801F082F900BF03B05DF8EB
:10FAA00004FB00BF887B030000B583B001900B46C8
:10FAB0008DF8033000F054F800BF03B05DF804FB8C
:10FAC00000B585B0134A01AB1268114619800233A4
:10FAD000120C1A7001238DF8053001AB0E4A19463D
:10FAE000222004F055FF0390039B0293029B002BFE
:10FAF00004D00A4A5721029801F051F9002122202E
:10FB000004F0B6FF3320FFF71AFF00BF05B05DF821
:10FB100004FB00BFA87B0300A9FA0100887B030057
:10FB200008B51920FFF70BFF1920FFF742FF02204D
:10FB3000FFF784FF00211920FFF712FF0220FFF7D3
:10FB40007DFF00BF08BD08B53320FFF71EFFC820AA
:10FB5000FFF796FE3320FFF72CFF00BF08BD000023
:10FB600008B506E0074B1B68002B02D0054B1B684D
:10FB7000984700F037F80346002BF3D100BF00BFD1
:10FB800008BD00BF9C25002008B5034B1B88184604
:10FB900004F0DAFF00BF08BD8623002008B5044B3F
:10FBA0001B880121184604F063FF00BF08BD00BF99
:10FBB0008623002000B583B0094B1B88184604F04B
:10FBC000EBFF03468DF807309DF80730002B01D07E
:10FBD000012300E00023184603B05DF804FB00BFDA
:10FBE0008623002008B5044B1B881846FFF7F5FE56
:10FBF0000346184608BD00BF8623002000B585B027
:10FC00000190FFF7D7FF03468DF80F30FFF7BCFFD9
:10FC1000064A019B13609DF80F30002B01D1FFF7BE
:10FC2000BDFF00BF05B05DF804FB00BF9C250020B0
:10FC300000B585B00190019B002B0AD0074B43F023
:10FC400001030393019B9B010293039B0298984736
:10FC500000E000BF05B05DF804FB00BFE07B0300DF
:10FC600000B583B00190019B002B0AD04FF47A704D
:10FC7000FFF7DEFF019B013B0193019B002BF5D1B8
:10FC800000E000BF03B05DF804FB000000B583B0E6
:10FC900001900199034800F0EDFF00BF03B05DF84B
:10FCA00004FB00BFD87B030008B5032002F035FC3D
:10FCB000FFF7E4FEFFF78AFBFFF702FF0220FFF7E2
:10FCC000CFFF00F005FCFEE700B587B003460A460B
:10FCD0008DF80F3013468DF80E309DF80F308DF8EB
:10FCE00014309DF80E308DF81530094B197805AA9F
:10FCF000002300930223074803F038FF0346002B3C
:10FD00000CBF01230023DBB2184607B05DF804FBEB
:10FD100098230020E87B030000B585B003460291DC
:10FD20008DF80F3013468DF80E309DF80E30012BF4
:10FD300006D99DF80F3063F07F03DBB28DF80F30EA
:10FD4000104B19780DF10F020123009301230E4887
:10FD500003F00CFF0346002B01D000230DE0094BFC
:10FD600019789DF80E30029A074803F027FF0346E2
:10FD7000002B0CBF01230023DBB2184605B05DF851
:10FD800004FB00BF98230020E87B030010B586B079
:10FD90002F4B02AC0FCB84E80F0002A900230022F6
:10FDA0002C4803F0F5FB0346002B01D000234BE069
:10FDB000284803F07FFC00238DF80730264B1922DA
:10FDC0001A700DF10703012219460F20FFF7A4FF57
:10FDD000034683F00103DBB2002B03D19DF807300B
:10FDE000332B15D01C4B18221A700DF1070301227A
:10FDF00019460F20FFF790FF034683F00103DBB2A3
:10FE0000002B03D19DF80730332B01D000231BE0DA
:10FE100057212020FFF758FF034683F00103DBB290
:10FE2000002B01D000230FE000212320FFF74CFF1F
:10FE3000034683F00103DBB2002B01D0002303E073
:10FE4000064B01221A700123184606B010BD00BFF0
:10FE5000F07B0300E87B030098230020A02500200E
:10FE600000B587B00390029101921E4B1B7883F07E
:10FE70000103DBB2002B01D000232FE004AB0622EC
:10FE800019462820FFF748FF034683F00103DBB241
:10FE9000002B01D0002321E09DF810301AB29DF80C
:10FEA00011301B021BB213431AB2039B1A809DF838
:10FEB00012301AB29DF813301B021BB213431AB250
:10FEC000029B1A809DF814301AB29DF815301B025F
:10FED0001BB213431AB2019B1A800123184607B0C4
:10FEE0005DF804FBA02500207ADF704700BF1846AC
:10FEF0007CDF704700BF18468FDF704700BF184691
:10FF0000A8DF704700BF1846AADF704700BF184639
:10FF1000AEDF704700BF1846B1DF704700BF18461C
:10FF200062DF704700BF184600B595B0039002919C
:10FF300004A8029B0093039B054A402108F029FA7C
:10FF400004AB1846FFF7A2FE00BF15B05DF804FB36
:10FF5000007C030000B585B001900091019B1B88D7
:10FF6000522B31D0522B37DC212B1AD0212B33DCF2
:10FF7000102B02D0112B08D02EE0019B9A88194B30
:10FF80001A801948FFF782FE27E0164B4FF6FF72E2
:10FF90001A801648FFF77AFE0321154806F082FE04
:10FFA0001BE000238DF80C3000238DF80D30019BF1
:10FFB0009B8803AA11461846FFF79EFF0346194681
:10FFC0000C48FFF7B1FF08E0064B18880023002219
:10FFD0000021FFF7A1FF00E000BF00BF05B05DF802
:10FFE00004FB00BF9A230020107C0300207C030048
:10FFF000B4250020347C030000B583B005F0B6FAC8
:020000022000DC
:10000000019001991548FFF78FFF019B002B01D04C
:1000100000231FE0002300936B461946012005F0E2
:1000200051FB019001990E48FFF77EFF019B002BC9
:1000300001D000230EE06B46184605F031FC01901C
:1000400001990848FFF770FF019B002B0CBF0123AB
:100050000023DBB2184603B05DF804FB407C0300CC
:100060004C7C0300587C030000B585B09DF8083037
:10007000012262F303038DF808309DF80830012255
:1000800062F307138DF80830234808F033FA03466B
:100090009AB202AB20491846FFF72AFF0390039B50
:1000A000002B05D003991D48FFF73EFF00232FE0EA
:1000B0006B4608220021184608F0C7F91023ADF856
:1000C00000303C23ADF802300023ADF804304FF48B
:1000D000C873ADF806306B461846FFF705FF03906E
:1000E000039B002B05D003990D48FFF71DFF00234C
:1000F0000EE000210B4807F01BF80390039B002B38
:1001000005D003990848FFF70FFF002300E0012303
:10011000184605B05DF804FB647C0300707C0300A6
:100120007C7C0300A4250020887C030010B59AB0D5
:100130005F4B15AC0FCB84E80F0015AB5D4918463B
:10014000FFF7EEFE1990199B002B05D019995A481C
:10015000FFF7EAFE0023A8E04FF47E43ADF85030ED
:10016000544B1B788DF8523014AB544A1946012079
:10017000FFF7C6FE1990199B002B05D0199950481E
:10018000FFF7D2FE002390E013AB032200211846B4
:1001900008F05BF99DF84C30012262F303038DF8FF
:1001A0004C309DF84C30012262F307138DF84C302F
:1001B0009DF84D30012262F303038DF84D309DF818
:1001C0004D30012262F307138DF84D309DF84E300B
:1001D000012262F342038DF84E300CAB1C22002149
:1001E000184608F032F99DF8303043F010038DF8CE
:1001F000303013AB11934FF60163ADF82C302D4B1B
:100200001B788DF82E300AAB03220021184608F027
:100210001CF99DF82830012262F303038DF8283081
:100220009DF82830012262F307138DF828309DF8DD
:1002300029306FF303038DF829309DF829306FF3CF
:1002400007138DF829309DF82A30012262F342030A
:100250008DF82A300023069307AB00221A605A60FB
:100260009A6001AB14220021184608F0EEF80BAB9F
:1002700001930AAB02931023ADF80C301023ADF8B4
:10028000103006AB05930D4B188801AA0CA90D4B35
:10029000FFF73AFE1990199B002B05D019990A48CF
:1002A000FFF742FE002300E0012318461AB010BDFC
:1002B000B87C0300AC260020947C0300AE2600200E
:1002C000A07C0300B0260020AC7C030000B5ADB0DC
:1002D0001D4B1A781D4B9A701C4B4FF47E421A80AE
:1002E0006B46AC220021184608F0AFF802238DF8C7
:1002F000003000238DF8023006238DF803300123EF
:10030000ADF84C30114B149301238DF87C30402311
:100310002293002323936B4619460D4806F0EDFB0C
:100320002B902B9B002B05D02B990A48FFF7FCFD47
:10033000002304E00121064806F0D2FB0123184601
:100340002DB05DF804FB00BFAC260020B8260020CD
:10035000B4250020C87C030000B583B0FFF74CFE35
:10036000034683F00103DBB2002B01D000232CE015
:10037000FFF77AFE034683F00103DBB2002B01D0C6
:10038000002322E0FFF7D2FE034683F00103DBB235
:10039000002B01D0002318E0FFF798FF034683F0FD
:1003A0000103DBB2002B01D000230EE0032109483A
:1003B00006F078FC019001990748FFF7B5FD019B15
:1003C000002B0CBF01230023DBB2184603B05DF8FD
:1003D00004FB00BFB4250020D47C030000B589B025
:1003E0000190154B1B884FF6FF7293421FD01023CC
:1003F000ADF81E3003AB10220021184608F025F896
:100400000E4B1B88ADF80C3001238DF80E30002305
:10041000ADF810300DF11E030593019B0693064BBA
:100420001B8803AA11461846FFF772FD00E000BFC3
:1004300009B05DF804FB00BF9A230020B02600201D
:1004400041DF704700BF184682B00190054B1B6822
:100450000A33044A1360044B01221A7000BF02B031
:10046000704700BFE0260020DC26002082B001900B
:100470000B46ADF80230BDF80230DAB2019B1A70BB
:10048000BDF802301B0A9AB2019B0133D2B21A7036
:1004900000BF02B0704782B001900091009BDAB2B9
:1004A000019B1A70009B1A0A019B0133D2B21A7089
:1004B000009B1A0C019B0233D2B21A70009B1A0ED9
:1004C000019B0333D2B21A7000BF02B07047000024
:1004D00000B58BB05D48FFF7D9FB07F099FD099097
:1004E000099B0893089B002B04D0594A2D2108989A
:1004F00000F055FCFFF74AFC034683F00103DBB232
:10050000002B03D05348FFF7C1FBFEE7FFF724FFA2
:10051000034683F00103DBB2002B03D04E48FFF704
:10052000B5FBFEE700F0F2F9034683F00103DBB20E
:10053000002B03D04948FFF7A9FBFEE7484A0121F9
:10054000484807F099FD0990099B0793079B002BEA
:1005500004D03F4A4021079800F021FC424B002282
:10056000A421184607F0B8FD0990099B0693069B45
:10057000002B04D0364A4221069800F010FC3B487C
:10058000FFF784FB3A4B1B78DBB2002B5BD0384B78
:1005900000221A700023ADF816300023ADF8143095
:1005A0000023ADF812300DF1120205A90DF116036A
:1005B0001846FFF755FC2F4B1B885A1C91B22D4A49
:1005C00011806A4619461046FFF750FF2A4B1A68F9
:1005D0006B46023311461846FFF75DFFBDF9163032
:1005E0009AB26B46063311461846FFF73FFFBDF936
:1005F00014309AB26B46083311461846FFF736FF9F
:10060000BDF912309AB26B460A3311461846FFF70D
:100610002DFF6B460C334FF0FF311846FFF73BFFC1
:100620006B461846FFF7DAFE124B1B88134AA2FBF3
:1006300003125209642101FB02F29B1A9BB2002BA8
:1006400001D100F0CDF8FFF7FBFE9BE7E47C03004F
:10065000F47C0300187D0300347D0300547D030007
:1006600049040200E07C0300BC260020707D0300EA
:10067000DC260020E4260020E02600201F85EB5128
:100680002DE9F04F8BB00390039BDB88182B03D927
:1006900000200AF029F882E0039BDB88002219463B
:1006A00040480AF0A3F83F4B00229A700A223E49C4
:1006B0003C4807F037FE0346002B03D000200AF029
:1006C00013F86CE000F0FCFACDE90801DDE908233D
:1006D0003649561843F100074FF000024FF000036F
:1006E000320A42EA07623B0A1346079309F0DCFF2D
:1006F0000246079B9B1A06932D4B1B68069A9A424B
:1007000002DA2B4A069B13602A4B1B680133294AE5
:100710001360079809F0AAFF079B00229A469346A8
:100720004FEA1A694FEA0A2828F4FF7424F00104FA
:1007300009F0FF0544F20103E318009345F10003BB
:100740000193DDE90034CDE90434DDE908231A48DA
:1007500000F0F5FADDE90423184800F0F0FA184B30
:100760001B785A1CD1B2164A1170164A9370002297
:100770001449142009F04CFF01220021142009F033
:1007800055FF032009F060FF0346002B07D00E4BF6
:100790001B6801330C4A1360002009F0A5FF0BB061
:1007A000BDE8F08FE8260020847D030004C17902B3
:1007B000C023002004270020B6230020BA230020F5
:1007C00000270020AC2300200827002000B583B0BC
:1007D0000190002009F088FF00BF03B05DF804FB22
:1007E00010B598B01B4B1B681793179B6FF0004216
:1007F000934206D102AB184A5021184607F0C9FDB2
:1008000020E0179B07EE903AF8EEE77A9FED137A17
:1008100067EE877AFDEEE77A17EE903A1693104B63
:100820001C68104B1A68169B0F4981FB0301891144
:10083000DB17CB1A02A80193009223460B4A5021E2
:1008400007F0A7FD02AB1846FFF720FA00BF18B06B
:1008500010BD00BFC0230020907D03006E34804097
:100860000427002008270020D34D6210AC7D030030
:1008700008B5FEF745FEFFF753F90220FFF7F3F83E
:100880001C4809F023FE0346002B04D01A48FFF74A
:10089000FDF900232BE000BF09F056FF0346002BB3
:1008A000FAD0002009F06CFE0346B3F1FF3F04D1FB
:1008B0001248FFF7EBF9002319E0114809F06CFE2C
:1008C0000346002B04D00F48FFF7E0F900230EE0A9
:1008D0000D4809F06DFE44F2010009F075FE44F286
:1008E000010009F083FE032009F03CFE01231846B5
:1008F00008BD00BFCC7B0300DC7D0300F07D03005E
:100900009C230020047E0300C423002000B585B092
:10091000FFF7AEFF034683F00103DBB2002B01D0EB
:10092000002322E01348FFF769F900230293002314
:10093000019300230093104B0F4A1049002009F047
:10094000F1FE012200210E4809F01CFF002009F0F1
:100950003BFF002009F0D4FEFFF720F9002009F04A
:10096000C3FE0848FFF792F90123184605B05DF869
:1009700004FB00BF71A70200CD0702008106020040
:1009800000D001241C7E030000B583B01F4B0193EF
:10099000019B02221A61019B02225A61019B1C4A9F
:1009A0009A61019B1B4ADA61019B4FF480621A62D3
:1009B000019B00229A62019B00225A62019B002245
:1009C000DA62019B124A9A64019B134ADA64019B22
:1009D00010221A65019B00229A65019B00225A652C
:1009E000019B0022DA65019B07330C49184607F08A
:1009F0005FFD019B0A49184607F05AFD019B202222
:100A00009A7100BF03B05DF804FB00BF0C27002003
:100A1000407E030084270020842B00204C7E0300AE
:100A2000507E030000B589B003900291019200232B
:100A30000693039BDB680593039B1B690493049A4D
:100A4000059B9A4205D9049A059BD31A013B07934B
:100A500007E0039B9A680499059BCB1A1344013B5A
:100A60000793039B9A68059BD31A079A934228BF62
:100A700013460793079A019B934228BF1346079397
:100A8000039B5A68059B1344079A0299184607F07E
:100A9000B3FC069A079B13440693029A079B1344E0
:100AA0000293019A079BD31A0193059A079B13445B
:100AB0000593039B9B68059A9A4201D100230593F5
:100AC000039B059ADA60019B002BB5D1069B184663
:100AD00009B05DF804FB00B589B003900291019262
:100AE000039BDB680793039B9A68079BD31A0693C3
:100AF000069A019B9A420ED9039B5A68079B13449E
:100B0000019A0299184607F077FC079A019B1A444C
:100B1000039BDA601AE0069B0593039B5A68079BC8
:100B20001344059A0299184607F066FC019A069B41
:100B3000D31A0593039B5868029A069B1344059A9F
:100B4000194607F059FC039B059ADA6000BF09B00B
:100B50005DF804FB86B00190019B1B690493019B27
:100B6000DB680393049A039B9A4208D8019B9A6816
:100B7000039BD21A049B1344013B059304E0049A9F
:100B8000039BD31A013B0593059B184606B070479B
:100B900000B589B0039002910192029B0693039BDA
:100BA0005A1C13465B001344DB00204A1344059390
:100BB000059B5B69022B29D0022B2ED8002B02D07B
:100BC000012B13D029E00598FFF7C4FF0490049A85
:100BD000019B9A4202D20023079321E0019B0793D5
:100BE000019A06990598FFF776FF19E00598FFF737
:100BF000B1FF0490019A049B934228BF13460793C8
:100C0000079A06990598FFF766FF09E0019A069989
:100C10000598FFF707FF079002E00023079300BF46
:100C2000079B184609B05DF804FB00BF0C270020A5
:100C300000B587B00390029101920D4B1B78002BF9
:100C400001D1FFF7A1FEEFF311834FF0200181F3F3
:100C500011880593019A02990398FFF799FF049070
:100C6000059B83F31188049B184607B05DF804FBCD
:100C70000C2700200FB400B5A3B025AB009301A84A
:100C8000009B249A802107F0A9FB2190219B802BB7
:100C900006DD01AB802219460020FFF7C9FF08E0FE
:100CA000219B002B05DD219A01AB19460020FFF79F
:100CB000BFFF219B184623B05DF804EB04B07047DA
:100CC000F0B585B04FF000024FF00003CDE90223EC
:100CD0006B46184609F0DCFC04238DF8073024E04D
:100CE000DDE902014FF000024FF000030B0243EA7E
:100CF00010630202CDE902239DF9073004AA1344D0
:100D000013F8103CDBB200221C461546DDE9022335
:100D100042EA040643EA0507CDE902679DF9073078
:100D2000DBB2013BDBB28DF807309DF90730002BB9
:100D3000D6DADDE902231046194605B0F0BD70B4DD
:100D400087B00390CDE9002300238DF817301DE014
:100D50009DF81730D900DDE90023C1F12006A1F18B
:100D6000200022FA01F403FA06F6344323FA00F0D5
:100D7000044323FA01F59DF81730039A1344E2B2B5
:100D80001A709DF8173001338DF817309DF8173021
:100D9000032BDDD900BF00BF07B070BC704700B5A2
:100DA00083B002900091019244F2010071466A46BC
:100DB00000F004F803B000BD00BF000030B58BB0F8
:100DC00007900691059272B600BF00F019FD00BFB2
:100DD00000F040FB0346002BFAD1079B44F20202CD
:100DE00093422FD0079B44F20202934269D8079B9B
:100DF00044F20102934237D0079B44F2010293422E
:100E00005FD8079B012B05D0079B41F2010293425B
:100E10000CD056E0394A3A4BD31ADB081B0443F096
:100E200001033849184600F0B9FA57E0334A344B09
:100E3000D31ADB081B0443F001033349184600F0C2
:100E4000ADFA4BE0059B09932C4A2D4BD31ADB08D6
:100E50001B0443F00100099B5B681A46099B1B6851
:100E60002A4900F0BAFA39E0059B0893234A244B3B
:100E7000D31ADB081B0443F00104089B9D68089B00
:100E80009B68184600F0DAFC03461846089B5B682E
:100E90001946089B1B68069A02920193009103462B
:100EA0002A461B49204600F0ACFA144A144BD31AC8
:100EB000DB081B0443F001031649184600F06EFAE4
:100EC0000CE00E4A0E4BD31ADB081B0443F001035F
:100ED000069A1149184600F06FFA00BF0F4B1B68C5
:100EE00003F00103002B00D000BE059A0699079875
:100EF00000F0ECFC00BF0BB030BD00BFD87A03009F
:100F0000B07A0300587E0300787E03009C7E0300C5
:100F1000B87E0300E07E0300F47E0300F0ED00E005
:100F200000B583B001900091019B1B681B6800997C
:100F30000198984700BF03B05DF804FB00B583B08B
:100F40000190019B1B685B680198984700BF03B044
:100F50005DF804FB00B583B00190019B1B689B68A2
:100F60000198984700BF03B05DF804FB82B0019080
:100F7000019BDB6801225A7100BF02B0704782B04A
:100F80000190019BDB685B79184602B0704784B022
:100F90000190009100238DF80F30019B1B7803F026
:100FA0000403DBB2002B24D0019B1B78C3F30103A5
:100FB000DBB2012B02D0022B0CD017E0009B1B6888
:100FC000019A1288C2F38312D2B213449A1C009B76
:100FD0001A600BE0009B1B68019A5288C2F38912C9
:100FE00092B213449A1C009B1A6000BF01238DF833
:100FF0000F309DF80F30184604B0704700B58BB025
:101000000023ADF826303B4800F03BFD3A4800F0A5
:1010100038FD3A4B9B680493394B1B680693049A3E
:10102000069B134002339B00344A13440433089355
:1010300004AB19460898FFF7AAFF0346002B09D016
:10104000049A069B134002339B002C4A134404333A
:101050000893EDE700BF0023079311E0049B5A1C9F
:101060000492069A1340079A920001A90A44234960
:1010700002339B000B445B681360079B01330793AB
:10108000079B012BEAD99DF80430C3F30103DBB2BF
:10109000012B10D0022B1CD1BDF80A30ADF8263040
:1010A000BDF80630C3F389139BB203339A08049B3F
:1010B000134404930EE0BDF80A30ADF82630BDF8B5
:1010C0000430C3F38313DBB21A46049B1344049326
:1010D00000E000BF084800F0E0FC0590059B002BF5
:1010E00002D0049B054A9360BDF8263018460BB029
:1010F0005DF804FB7C30002078300020642C002058
:10110000CC23002000B585B00021074800F02AFC60
:101110000390039B0293029B83F310030193019BB3
:10112000184605B05DF804FB8030002000B589B09A
:101130000390029101920093039B1B0C0693FFF70F
:10114000E1FF0790079B1904009B5A1C0A9B134060
:10115000069A0A431B4902339B000B445A60009ACB
:101160000A9B134002339B00164A13440433059331
:10117000039B03F00703D9B2059A137861F3C50303
:101180001370019B03F00F03D9B2059A138861F322
:1011900089131380029BC3F31501059A136861F349
:1011A0009F231360059A1378012161F301031370E3
:1011B000059A13786FF38203137000BF09B05DF8CE
:1011C00004FB00BF642C002000BF704700B58DB049
:1011D0000390029113468DF80730039B02330A9364
:1011E00001238DF8273000238DF81B300DF11B03F0
:1011F000184600F0D3FC404B5A68029B1A603F4BE4
:101200001A683D4B99683C4B5B68CB1A1344013319
:101210000B9314E001213A4800F003FCFFF7EEFEC7
:1012200007900799364800F0FCFB344B1A68324BA4
:101230009968314B5B68CB1A134401330B930A9ABC
:101240000B9B9A42E6D89DF82730002B48D000230C
:1012500005939DF80730002B17D09DF8143001221C
:1012600062F301038DF814309DF8143043F0040349
:101270008DF81430039B03F00F03DAB2BDF814307D
:1012800062F38913ADF8143016E09DF81430022291
:1012900062F301038DF814309DF8143043F0040319
:1012A0008DF81430039BC3F309039AB2BDF81630CE
:1012B00062F38F13ADF816300F4B5A680F4B1B6853
:1012C000134002339B000C4A134404330893059ADD
:1012D000089B1A60084B5A680A9B1344064A5360DD
:1012E0009DF81B30184600F063FC9DF82730184627
:1012F0000DB05DF804FB00BF642C0020CC2300205F
:101300008030002000B58BB00590049103920293C9
:10131000204B1B68079306AB012219460298FFF782
:1013200055FF0346002B24D0069B0233099300236C
:10133000089311E0089B9B00039A1A44099B591CCF
:10134000099107990B401268134902339B000B4423
:101350005A60089B01330893089A029B9A42E9D38A
:10136000069A079B00931346029A04990598FFF783
:10137000DDFE094B1B78002B05D000BF00F06AF89A
:101380000346002BFAD1FFF71FFF00BF0BB05DF83B
:1013900004FB00BFCC230020642C002000B583B0E8
:1013A000019000910023002200990198FFF7AAFF05
:1013B00000BF03B05DF804FB00B587B00390029155
:1013C0000192019B059305AA012302990398FFF757
:1013D00099FF00BF07B05DF804FB00B587B003902C
:1013E000029101920093019B0493009B059304AA30
:1013F000022302990398FFF785FF00BF07B05DF84D
:1014000004FB00B58BB00390029101920093019B05
:101410000593009B06930C9B07930D9B08930E9BD3
:10142000099305AA052302990398FFF76BFF00BFF4
:101430000BB05DF804FB0000054B9A68044B5B6839
:101440009A420CBF01230023DBB21846704700BF4D
:10145000642C002000B599B0FFF7EEFF0346002B87
:1014600001D00023C0E19B4B0022C3F81824BFF336
:101470004F8F00BF974B9B680493974B1B6810934B
:10148000049A109B134002339B00924A1344043386
:101490001193002317930023169300230F9304AB9B
:1014A00019461198FFF773FD0346002B19D0894B9D
:1014B000D3F81834002B14D1864B5A68049B9A42F7
:1014C00005D8844B5B68834A936000238CE1049ABF
:1014D000109B134002339B007E4A13440433119344
:1014E000DDE70023159311E0049B5A1C0492109A27
:1014F0001340159A920001A90A44764902339B00D1
:101500000B445B681360159B01331593159B012BEE
:10151000EAD99DF8043003F00303DBB2022B40F05C
:101520009C80BDF80630C3F389139BB20D93BDF8C0
:101530000630C3F389139BB2502B28BF50239BB2B4
:101540000C930C9BC3F309039AB2BDF8063062F307
:101550008F13ADF806300C9B08330B939DF80430C5
:10156000C3F3C203DBB20F930B995C4800F02EFB70
:101570001790179B002B00F0D380179800F0B7FB53
:1015800001A9169B0822179800F05BFC169B0833F4
:101590001693049BDA43109B134001339B000A937C
:1015A0000C9A0A9B9A4242D90A9B002B08D0049AB3
:1015B000109B134002339B00464A1344043300E05F
:1015C000474B08930A9B002B02D00A9BDBB201E039
:1015D0000C9BDBB28DF81F300A9B002B01D0404BD7
:1015E00000E0002306930A9B002B06D00C9BDAB286
:1015F0000A9BDBB2D31ADBB200E000238DF8173070
:101600009DF81F20169B0899179800F01AFC9DF86A
:101610001F30169A13441693069B002B16D09DF884
:101620001720169B0699179800F00BFC0EE0049A01
:10163000109B134002339B00264A13440433099342
:10164000169B0C9A0999179800F0FBFB0D9B03332E
:101650009A08049B1344049362E09DF8043003F05D
:101660000303DBB2012B5BD1BDF80430C3F383135A
:10167000DBB2062B28BF0623DAB2BDF8043062F3D2
:101680008913ADF80430BDF80430C3F38313DBB223
:1016900002330E939DF80430C3F3C203DBB20F9301
:1016A0000E9B9B0019460D4800F090FA1790179B6F
:1016B000002B35D0179800F01AFB01A9169B0822C1
:1016C000179800F0BEFB169B083316930023159362
:1016D0001DE000BF642C0020CC230020F433002048
:1016E000702C0020049B5A1C0492109A1340023361
:1016F0009B003F4A1344191D169B0422179800F0C3
:10170000A0FB169B04331693159B01331593BDF86C
:101710000430C3F38313DBB21A46159B9342E1D323
:10172000179B002B40D0324BD3F810341493304B1E
:10173000D3F81834002B1BD0179800F0E7FA4DE0CF
:1017400000238DF84F301498FFF719FC0346002B47
:1017500002D001238DF84F309DF84F30002B03D07D
:1017600017991498FFF7DCFB149BDB681B68149334
:10177000149B002BE4D1179800F0C8FA00238DF8D1
:1017800003300DF10303184600F008FA184BD3F8A4
:101790001834002B02D1049B154A93609DF8033046
:1017A000184600F005FA19E0114BD3F810341293E3
:1017B00006E01298FFF7CEFB129BDB681B681293C2
:1017C000129B002BF5D10B4A0B4BD31ADB081B04E1
:1017D00043F0020309491846FFF7E0FDFFF72CFE2E
:1017E000034683F00103DBB2184619B05DF804FB31
:1017F000642C0020D87A0300B07A0300107F030025
:1018000000B583B00C4BD3F8103401930A4B01227E
:101810001A7009E00198FFF7A9FB0198FFF78EFB0A
:10182000019BDB681B680193019B002BF2D100BF79
:1018300000BF03B05DF804FB642C002000B585B048
:101840000190019800F00EF80390039B002B01D04B
:10185000039B00E0024B184605B05DF804FB00BF97
:10186000247F030086B00190164B0593164B04931A
:101870001FE0049A059BD31ADB10DA0F13445B10A8
:10188000DB00059A13440393039B1B680293029A9F
:10189000019B9A4202D9039B04930AE0029A019B9E
:1018A0009A4203D2039B0833059302E0039B5B68D3
:1018B00004E0059A049B9A42DBD30023184606B045
:1018C000704700BF248303004C84030086B003905C
:1018D0000291019201238DF817309DF81730204AAC
:1018E000039B13601E4A029B53601D4A019B936039
:1018F000039B44F20102934212D0039B44F2020282
:10190000934220D1019B164AD360154BDB681B68BC
:10191000134A9361124BDB685B68114AD36112E092
:10192000019B0F4A13610E4B1B699B680C4A536164
:101930000B4B1B691B680A4A9361094B1B695B6867
:10194000074AD36100BF72B600BF00BF9DF81730D1
:10195000DBB2002BFAD162B600BF00BF06B0704701
:101960008430002010B487B001900091019B009A50
:1019700053E8004F104643E8000191F0000FF7D103
:10198000059404900391059B184607B05DF8044B3D
:10199000704710B487B001900091019B009A53E802
:1019A000004F44EA020043E8000191F0000FF6D135
:1019B000059404900391049B184607B05DF8044B0E
:1019C000704710B487B001900091019B009A53E8D2
:1019D000004F04EA020043E8000191F0000FF6D145
:1019E000059404900391059B184607B05DF8044BDD
:1019F000704710B487B001900091019B009A53E8A2
:101A0000004F04EA020043E8000191F0000FF6D114
:101A1000059404900391049B184607B05DF8044BAD
:101A2000704710B487B001900091019B009A53E871
:101A3000004F04EB020043E8000191F0000FF6D1E3
:101A4000059404900391049B184607B05DF8044B7D
:101A5000704710B487B001900091019B009A53E841
:101A6000004FA4EB020043E8000191F0000FF6D113
:101A7000059404900391049B184607B05DF8044B4D
:101A8000704700B583B0019001210198FFF781FFF5
:101A90000346184603B05DF804FB00B583B001901F
:101AA00000210198FFF78DFF0346184603B05DF84B
:101AB00004FB82B0EFF310830093009B019372B696
:101AC00000BF019B184602B0704762B600BF00BF5E
:101AD0007047000000B585B00190FFF7EAFF039062
:101AE000164B9B68002B1BD1144B01229A60144BA0
:101AF000D3F88020134B1340104A1360104B114A47
:101B0000C3F880200E4BD3F884300C4A53600C4B42
:101B10004FF0FF32C3F88420019B00221A7002E0CC
:101B2000019B01221A70039B002B01D1FFF7CDFF0F
:101B30000023184605B05DF804FB00BFA430002068
:101B400000E100E0FC06FFBD00B585B003468DF85E
:101B50000730104B9B68002B16D09DF80730002BE8
:101B600012D1FFF7A6FF03900B4A0A4B1B681360C4
:101B7000094A084B5B685360064B00229A60039B3E
:101B8000002B01D1FFF7A1FF0023184605B05DF837
:101B900004FB00BFA430002000E100E000B583B0EA
:101BA00001900198FFF796FF00BF03B05DF804FBBA
:101BB00000B583B003468DF807309DF8073018460E
:101BC000FFF7C2FF00BF03B05DF804FB00B58BB0A8
:101BD00001900091019B1B8A043B0793009A079B8D
:101BE0001344DA1C079BB2FBF3F38DF81B3001980A
:101BF00000F05BF90590059B002B01D1002338E034
:101C0000059B00221A71059B01225A71079B9AB20B
:101C1000059BDA80059B09939DF81B30013B0493DB
:101C2000099B019A1A60002308931DE0019800F0B7
:101C30003CF90390039B002B0ED0059B5B7901338D
:101C4000DAB2059B5A71099B039A1A60039B019AA9
:101C50001A60039B099304E0059800F00EF8002336
:101C600007E0089B01330893089A049B9A42DDD34E
:101C7000059B18460BB05DF804FB00B58BB00190D6
:101C8000019B0793079B5B798DF81B30019B0893A1
:101C90009DF81B30013B05930023099305E0089B49
:101CA0001B680893099B01330993099A059B9A4283
:101CB000F5D3089B1B680493019B089300230993A9
:101CC0000BE0089B1B6803930899049800F02BF91C
:101CD000039B0893099B013309939DF81B30099AD4
:101CE0009A42EED300BF00BF0BB05DF804FB00B515
:101CF00085B00190019B0393039B04330121184697
:101D0000FFF78FFE00BF05B05DF804FB00B587B09C
:101D10000190019B0593059B043301211846FFF7B1
:101D200098FE0346039303AB0493049B1B78002B9C
:101D300002D10198FFF7A1FF00BF07B05DF804FBD7
:101D400000B591B00390029101920093039B099317
:101D5000039B0F93099BDB881A46099B5B7902FB67
:101D600003F3043B0893099BDB880793009B1A1D30
:101D7000079BB2FBF3F30E93009B0433079AB3FB6C
:101D8000F2F2079901FB02F29B1A0D93019B1A686C
:101D9000009B1344089A9A4203D2089A009BD31AD4
:101DA00001E0019B1B680C93019B0C9A1A6005E0F3
:101DB0000F9B1B680F930E9B013B0E930E9B002BFA
:101DC000F6D100230B93079A0D9BD31A0A930A9A14
:101DD0000C9B934228BF13460A932AE0029A0B9B5E
:101DE000134406930F9A0D9B1344043305939DF8F7
:101DF0004830002B05D00A9A0599069806F0FCFA9F
:101E000004E00A9A0699059806F0F6FA00230D9365
:101E10000F9B1B680F930C9A0A9BD31A0C930B9A77
:101E20000A9B13440B93079A0C9B934228BF1346BB
:101E30000A930C9B002BD1D100BF00BF11B05DF8FD
:101E400004FB00B589B00590049103920293039BB3
:101E5000079307AA00230093029B04990598FFF7B4
:101E60006FFF00BF09B05DF804FB82B001900B4624
:101E70008DF80330019BDA689DF803300199098AD7
:101E800001FB03F31344184602B0704782B001907F
:101E90000091009B019AD2689B1A019A128AB3FBA7
:101EA000F2F3DBB2184602B0704700B585B001907E
:101EB0000023039300238DF80A300DF10A0318461E
:101EC000FFF76CFE019B1B681A68019B5B689A42D6
:101ED0001FD9019B1B681A68013A1A601B681B789E
:101EE00019460198FFF7C1FF0390019B9A68019B77
:101EF0001B681B68D31A8DF80B30019B1B681B797C
:101F00009DF80B209A4204D9019B1B689DF80B2079
:101F10001A719DF80A301846FFF74AFE039B1846CF
:101F200005B05DF804FB10B584B001900091009BF2
:101F3000039300238DF80B300DF10B031846FFF7C8
:101F40002DFE019B1B681C68621C1A600399019896
:101F5000FFF79CFF034623709DF80B301846FFF7F0
:101F600027FE00BF04B010BDBFF34F8F00BF064B6C
:101F7000DB6803F4E0620449044B1343CB60BFF316
:101F80004F8F00BF00BFFDE700ED00E00400FA0541
:101F900082B0114B1B680193104B1B680093019B8F
:101FA0000D2B14D1009B022B0DD0009B022B0CD8C3
:101FB000009B002B03D0009B012B02D005E00123E6
:101FC00006E0012304E0012302E0012300E00023F6
:101FD000184602B0704700BF3001001034010010F5
:101FE00082B0114B1B680193104B1B680093019B3F
:101FF0000D2B14D1009B022B0DD0009B022B0CD873
:10200000009B002B03D0009B012B02D005E0012395
:1020100006E0012304E0012302E0012300E00023A5
:10202000184602B0704700BF3001001034010010A4
:1020300082B0114B1B680193104B1B680093019BEE
:102040000D2B14D1009B022B0DD0009B022B0CD822
:10205000009B002B03D0009B012B02D005E0012345
:1020600006E0012304E0012302E0012300E0002355
:10207000184602B0704700BF300100103401001054
:1020800082B0114B1B680193104B1B680093019B9E
:102090000D2B14D1009B022B0DD0009B022B0CD8D2
:1020A000009B002B03D0009B012B02D005E00023F6
:1020B00006E0002304E0012302E0012300E0002306
:1020C000184602B0704700BF300100103401001004
:1020D00008B5FFF7D5FF0346002B07D04FF01023BC
:1020E0004FF08042D3F80832C2F8583500BF08BD1F
:1020F00000BF044BD3F80034002BFAD000BF00BF60
:10210000704700BF00E0014000B583B00190054A70
:10211000019BC2F80435FFF7EBFF00BF03B05DF889
:1021200004FB00BF00E00140024B034A1A6000BFFD
:10213000704700BFD02300200090D00308B5FFF700
:1021400027FF0346002B0ED04FF080430022C3F838
:102150000C214FF080430022C3F810214FF0804340
:102160000022C3F83825FFF73BFF0346002B76D04B
:102170004FF080535E4AD3F80434C2F820354FF054
:1021800080535B4AD3F80834C2F824354FF08053AB
:10219000574AD3F80C34C2F828354FF08053544ACC
:1021A000D3F81034C2F82C354FF08053504AD3F88E
:1021B0001434C2F830354FF080534D4AD3F81834F8
:1021C000C2F834354FF08053494AD3F81C34C2F872
:1021D00040354FF08053464AD3F82034C2F8443596
:1021E0004FF08053424AD3F82434C2F848354FF0B8
:1021F00080533F4AD3F82834C2F84C354FF080530F
:102200003B4AD3F82C34C2F850354FF08053384A4B
:10221000D3F83034C2F854354FF08053344AD3F8F1
:102220003434C2F860354FF08053314AD3F8383433
:10223000C2F864354FF080532D4AD3F83C34C2F8CD
:1022400068354FF080532A4AD3F84034C2F86C35D1
:102250004FF08053264AD3F84434C2F87035FFF764
:10226000E7FE0346002B0DD04FF08043D3F8003437
:1022700003F00103002B05D04FF080436FF0010203
:10228000C3F800241B4BD3F888301A4A43F4700378
:10229000C2F88830BFF34F8F00BFBFF36F8F00BF0E
:1022A000FFF716FF4FF01023D3F80032002B05DBA9
:1022B0004FF01023D3F80432002B15DA0120FFF77A
:1022C00023FF4FF010231222C3F80022FFF710FF64
:1022D0004FF010231222C3F80422FFF709FF002059
:1022E000FFF712FFFFF740FEFFF71EFF00BF08BD1C
:1022F00000C0004000ED00E082B00190019B1B682F
:102300001F2B02D84FF0A04306E0019B1B6803F08F
:102310001F02019B1A60024B184602B0704700BFB3
:102320000003005000B585B00190084611461A46DA
:1023300003468DF803300B468DF8023013468DF8B6
:10234000013001AB1846FFF7D7FF03909DF803203B
:102350009DF802305B001A439DF801309B001A4340
:102360009DF818301B0242EA03019DF81C301B0443
:10237000019A1943039B02F5E07243F8221000BF53
:1023800005B05DF804FB00B585B003900023019310
:10239000002300930023012201210398FFF7C2FFCD
:1023A00000BF05B05DF804FB00B585B003900B4697
:1023B0008DF80B309DF80B30002201920022009224
:1023C000002200210398FFF7ADFF00BF05B05DF8C4
:1023D00004FB00B585B0019001AB1846FFF78CFFF8
:1023E0000390019B012202FA03F31946039800F0BF
:1023F0002AF800BF05B05DF804FB00B585B0019078
:1024000001AB1846FFF778FF0390019B012202FA07
:1024100003F31946039800F020F800BF05B05DF8FB
:1024200004FB00B583B001900091009B002B03D109
:102430000198FFF7E2FF02E00198FFF7CAFF00BF33
:1024400003B05DF804FB82B001900091019B009AFB
:10245000C3F8082500BF02B0704782B00190009118
:10246000019B009AC3F80C2500BF02B07047000022
:1024700000B583B00190064A019B13441B780121EB
:102480001846FFF7CEFF00BF03B05DF804FB00BFA6
:102490004C84030000B583B00023019305E001984C
:1024A000FFF7E6FF019B01330193019B032BF6D954
:1024B00000BF00BF03B05DF804FB000000B583B0AF
:1024C0000023019309E0094A019B13441B78184635
:1024D000FFF759FF019B01330193019B032BF2D9B5
:1024E000FFF7D8FF00BF03B05DF804FB4C84030086
:1024F00000B583B00023019307E0022303211846AF
:10250000FFF752FF019B01330193019B002BF4D095
:1025100000BF00BF03B05DF804FB00B583B00190BD
:10252000019B03F00103002B01D0FFF7C7FF019BC4
:1025300003F00203002B01D0FFF7DAFF00BF03B066
:102540005DF804FB00B589B001900091009B0793F2
:10255000019B1B788DF80830019B5B680393019BFE
:102560009B68DBB28DF81030019BDB680593019B03
:102570001B69DBB28DF81830074A079B52F82330ED
:102580000649079A51F8221002AA1046984700BF40
:1025900009B05DF804FB00BFB0300020C03000205F
:1025A00010B58AB00390029101920093039B1B78AF
:1025B00009932249099B019A41F823202049099B4C
:1025C000009A41F82320002308931E4B04AC0FCB44
:1025D00084E80F00029B1B788DF81030029B5B781B
:1025E0008DF81130029B9B788DF81230029BDB78BE
:1025F0008DF81330029B1B798DF81530029B5B79A7
:102600008DF81630029B9B680693029B1B7B8DF80E
:102610001C30029B5B7B8DF81D30039B181D019BBA
:10262000002B01D0084A00E00022099B04A900F019
:10263000C5FA0890089B18460AB010BDB0300020BB
:10264000C0300020508403004525020008B5024B2D
:102650001B68984700BF08BDD030002082B00190B1
:10266000019B044A934201D1034B00E0002318462A
:1026700002B0704700200040D030002000B587B085
:10268000019000910198FFF7E9FF0490049B002B53
:1026900025D000238DF8173000238DF80B300DF175
:1026A0000B031846FFF77AFA049B1B79002B03D023
:1026B00001238DF8173005E0049B009A1A60049BF3
:1026C00001221A719DF80B301846FFF771FA9DF838
:1026D0001730002B03D011230393039B02E0002348
:1026E0000393039B184607B05DF804FB82B00346D2
:1026F0008DF807309DF90730002B0CDB9DF8073073
:1027000003F01F0205499DF907305B09012000FA1B
:1027100002F241F8232000BF02B0704700E100E060
:1027200082B0034600918DF807309DF90730002BE9
:102730000ADB009BDAB20C499DF907305201D2B294
:102740000B4483F800230BE0009BDAB207499DF8A5
:10275000073003F00F03043B5201D2B20B441A7648
:1027600000BF02B0704700BF00E100E000ED00E0F4
:1027700082B00190019B03F06043B3F1005F0CBF96
:1027800001230023DBB2184602B0704782B00190EB
:10279000019B1B0B5BB2184602B0704700B583B0BB
:1027A00003460A468DF8073013468DF806309DF82B
:1027B00006209DF9073011461846FFF7B1FF00BF0C
:1027C00003B05DF804FB00B583B003468DF8073015
:1027D0009DF907301846FFF789FF00BF03B05DF889
:1027E00004FB82B001900B468DF803309DF8033056
:1027F000019A134401221A6000BF02B0704784B0EE
:1028000001900B46ADF80230BDF80230019A134436
:1028100000221A60BDF80230019A13441B6803932A
:10282000039B00BF04B0704782B001900B46ADF827
:102830000230BDF80230019A13441B68002B14BF0C
:1028400001230023DBB2184602B0704782B001902A
:102850000091019B009AC3F8042300BF02B07047A7
:1028600082B001900091019B009AC3F8082300BF39
:1028700002B0704782B00190019B0722C3F8002587
:1028800000BF02B0704784B00390029101920093A0
:10289000039B029AC3F80825039B019AC3F80C25F1
:1028A000039B009AC3F8102500BF04B0704782B0A4
:1028B00001900091009A019BC3F8242500BF02B04B
:1028C000704784B0039002910192029A039BC3F86F
:1028D0004425039B019AC3F8482500BF04B0704704
:1028E00084B0039002910192029A039BC3F83425AD
:1028F000039B019AC3F8382500BF04B0704784B029
:1029000001900B468DF8033013468DF802309DF888
:102910000230002B14BF01230023DBB203939DF888
:102920000330032B10D0032B13DC012B02D0022B1E
:1029300005D00EE0039B43F0020303930AE0039BE0
:1029400043F00403039305E0039B43F00603039362
:1029500000E000BF019B039AC3F8542500BF04B0F8
:10296000704782B001900B468DF803309DF803202C
:10297000019BC3F8C02500BF02B0704782B0019030
:10298000019B0122C3F8502500BF02B0704782B0FE
:102990000190019B0022C3F8502500BF02B0704790
:1029A00082B00190019B0122C3F8402500BF02B014
:1029B000704782B00190019B0022C3F8402500BF00
:1029C00002B0704782B00190019B1B681F2B02D898
:1029D0004FF0A04306E0019B1B6803F01F02019B20
:1029E0001A60024B184602B0704700BF0003005047
:1029F00000B585B00190084611461A4603468DF889
:102A000003300B468DF8023013468DF8013001ABD0
:102A10001846FFF7D7FF03909DF803209DF802307A
:102A20005B001A439DF801309B001A439DF8183053
:102A30001B0242EA03019DF81C301B04019A194352
:102A4000039B02F5E07243F8221000BF05B05DF869
:102A500004FB00B585B0039000230193002300938D
:102A60000023012201210398FFF7C2FF00BF05B038
:102A70005DF804FB00B585B003900B468DF80B3074
:102A80009DF80B30002201920022009200220021CA
:102A90000398FFF7ADFF00BF05B05DF804FB00B57C
:102AA00085B0019001AB1846FFF78CFF0390019BA6
:102AB000012202FA03F31946039800F018F800BF48
:102AC00005B05DF804FB00B585B0019001AB184678
:102AD000FFF778FF0390019B012202FA03F31946E6
:102AE000039800F00EF800BF05B05DF804FB82B05B
:102AF00001900091019B009AC3F8082500BF02B025
:102B0000704782B001900091019B009AC3F80C2598
:102B100000BF02B07047000086B0019000911E4BCC
:102B20001B681E4A1360009B002B31D0019B009A4A
:102B300013440293019B23F4FF5323F01F030593D7
:102B4000059B5B0B9BB2012202FA03F30493002363
:102B50000393059B124A934203D94FF48073039366
:102B600012E0039A049B13430393049B5B000493BA
:102B7000059B03F500530593059A029B9A4203D2E5
:102B8000059B084A9342ECD3034A039B136000E081
:102B900000BF06B0704700BF000E00404431002067
:102BA000FFFF002000200120024A034B1B68136036
:102BB00000BF7047000E00404431002000B58DB0CA
:102BC0000590049103920293059B1B791A461346C4
:102BD000DB0013449B00664A13440A930A9B1B7F45
:102BE000002B03D008230793079BBDE0059B1B68C0
:102BF0000993059B1A68059B1B7919465D4B53F891
:102C0000213019461046FFF739FD0346002B03D04B
:102C100011230793079BA7E00A9B039A1A600A9B5C
:102C2000029A5A60049B1B7B012B05D8049B1B78DE
:102C30001846FFF748FF04E0049B1B781846FFF78F
:102C40002EFF049B1B78184600230193002300935A
:102C5000002300220121FFF7CBFE049B5B78FF2BB2
:102C600009D0049B5B780B930B98FFF72CFF0B9814
:102C7000FFF7EFFE02E04FF0FF330B93049B9B78CE
:102C8000FF2B07D0049B9B78089301210898FFF73E
:102C9000F1FE02E04FF0FF330893049B9A780A9B01
:102CA00083F82020049BDA780A9BDA77049BDB7890
:102CB000FF2B17D0049B1B79002B05D0049BDB78DE
:102CC0001846FFF700FF04E0049BDB781846FFF787
:102CD000E6FE049BDB781846FFF7BBFE049B1A79DF
:102CE0000A9B9A77049B1B781946089B0B9A0998B4
:102CF000FFF7C9FD049B9B6819460998FFF7D7FDAC
:102D0000049B197B049B5B7B1A460998FFF7F7FD30
:102D1000049B9B7919460998FFF723FE0998FFF752
:102D2000A9FD0A9B1B68002B15D0059B1B68184644
:102D3000FFF72CFD03461A46049B5B7919461046A3
:102D4000FFF72CFD059B1B681846FFF71FFD034688
:102D50001846FFF738FD0A9B00225A770A9B01228A
:102D60001A7700230793079B18460DB05DF804FB04
:102D7000D83000206C84030000B583B00190019B23
:102D8000DB7FFF2B0ED0019B9B7F002B05D0019B8F
:102D9000DB7F1846FFF797FE04E0019BDB7F1846B8
:102DA000FFF77DFE019B00225A77019B00221A72D9
:102DB000019B1B68019A02F10800019A52681146B2
:102DC000984700BF03B05DF804FB00B583B00190E5
:102DD0000B468DF803309DF8033083F00103DBB21E
:102DE000002B04D040210198FFF73AFD03E0402179
:102DF0000198FFF72BFD00BF03B05DF804FB00B5A1
:102E000083B001900091009B03F00103002B03D0DD
:102E10000198FFF7B3FD02E00198FFF7B8FD009BB2
:102E200003F00203002B03D00198FFF7B9FD02E085
:102E30000198FFF7BEFD00BF03B05DF804FB000082
:102E400000B587B00390029101920093019B1B682B
:102E5000002B0AD0019B1B681846FFF789FC03462C
:102E600083F00103DBB2002B0ED1019B9B68002B8A
:102E700011D0019B9B681846FFF77AFC034683F04C
:102E80000103DBB2002B06D0029B00225A771023ED
:102E90000593059B66E0019B1968019B5B681A46D8
:102EA0000398FFF70EFD019B9968019BDB681A46AA
:102EB0000398FFF715FD039B2C4A934207D1019B12
:102EC0001A68019B5B6819461046FFF725FE4FF410
:102ED0008C710398FFF793FC00990398FFF78FFF1D
:102EE000009B03F00803002B03D110210398FFF788
:102EF00078FC029B1B68002B25D100BF4FF48C711E
:102F00000398FFF791FC034683F00103DBB2002B2B
:102F1000F4D1039B154A934201D1FFF745FE029B72
:102F2000DB7FFF2B1BD0029B9B7F002B05D0029BDE
:102F3000DB7F1846FFF7C7FD11E0029BDB7F1846D9
:102F4000FFF7ADFD0BE0009B03F00403002B0CBF6B
:102F500001230023DBB219460398FFF736FF002355
:102F60000593059B184607B05DF804FB00F002408E
:102F700010B586B0039002910192039B1B791A460B
:102F80001346DB0013449B001F4A134404930023A1
:102F90000593049B5B7FDBB2002B03D011230593C9
:102FA000059B2EE0049B1B68002B07D0019B03F0C0
:102FB0001403002B02D1049B01225A77049B029A2E
:102FC00003F10C0413460FCB84E80F00049BDB7F56
:102FD000FF2B0ED0049B9B7F002B05D0049BDB7F37
:102FE0001846FFF75CFD04E0049BDB7F1846FFF703
:102FF0006AFD039B1868019B029A0499FFF720FF62
:103000000346184606B010BDD830002000B583B086
:10301000019000914FF48C710198FFF705FC034675
:10302000002B0DD0019B084A934201D1FFF7BCFD54
:103030004FF48C710198FFF7E2FB0098FFF79CFEBC
:1030400000BF03B05DF804FB00F0024008B503497F
:103050000348FFF7DBFF00BF08BD00BFD8300020EA
:103060000030004008B503490348FFF7CFFF00BF19
:1030700008BD00BFFC3000200030024008B5034905
:103080000348FFF7C3FF00BF08BD00BF2031002089
:1030900000F0024082B003468DF807309DF90730FA
:1030A000002B0CDB9DF8073003F01F0205499DF94A
:1030B00007305B09012000FA02F241F8232000BF2B
:1030C00002B0704700E100E082B003468DF807309F
:1030D0009DF90730002B0DDB9DF8073003F01F0230
:1030E00006499DF907305B09012000FA02F26033BE
:1030F00041F8232000BF02B0704700BF00E100E0AC
:1031000082B0034600918DF807309DF90730002BFF
:103110000ADB009BDAB20C499DF907305201D2B2AA
:103120000B4483F800230BE0009BDAB207499DF8BB
:10313000073003F00F03043B5201D2B20B441A765E
:1031400000BF02B0704700BF00E100E000ED00E00A
:1031500082B00190019B03F06043B3F1005F0CBFAC
:1031600001230023DBB2184602B0704782B0019001
:10317000019B1B0B5BB2184602B0704700B583B0D1
:1031800003460A468DF8073013468DF806309DF841
:1031900006209DF9073011461846FFF7B1FF00BF22
:1031A00003B05DF804FB00B583B003468DF807302B
:1031B0009DF907301846FFF76DFF00BF03B05DF8BB
:1031C00004FB00B583B003468DF807309DF9073046
:1031D0001846FFF779FF00BF03B05DF804FB82B02B
:1031E00001900B468DF803309DF80330019A13448B
:1031F00001221A6000BF02B0704784B001900B46F4
:10320000ADF80230BDF80230019A134400221A6072
:10321000BDF80230019A13441B680393039B00BF5F
:1032200004B0704782B001900B46ADF80230BDF893
:103230000230019A13441B68002B14BF01230023A2
:10324000DBB2184602B0704782B001900091019B3A
:10325000009AC3F8042300BF02B0704782B0019007
:103260000091019B009AC3F8082300BF02B0704789
:1032700082B00190019B0622C3F8002500BF02B076
:10328000704782B00190019B0022C3F8002500BF67
:1032900002B0704784B0039002910192039B029A9E
:1032A000C3F80825039B019AC3F80C2500BF04B09E
:1032B000704782B001900091019B009AC3F82425C9
:1032C00000BF02B0704784B00190019BD3F8C434B2
:1032D0000393019B039AC3F8C424039B184604B0CC
:1032E000704782B001900B468DF803309DF80320A3
:1032F000019BC3F8882500BF02B0704784B00390DB
:1033000002910192029A039BC3F84425039B019A00
:10331000C3F8482500BF04B0704784B00390029101
:103320000192029A039BC3F83425039B019AC3F8C8
:10333000382500BF04B0704782B001900091019B16
:10334000009AC3F8002200BF02B0704782B001901B
:10335000019BD3F84C35184602B0704782B00190FB
:10336000019BD3F80032184602B0704782B001903A
:10337000019BD3F83C35184602B0704782B00190EB
:10338000019B0122C3F8502500BF02B0704782B0F4
:103390000190019B0022C3F8502500BF02B0704786
:1033A00082B00190019B0122C3F8402500BF02B00A
:1033B000704782B00190019B0022C3F8402500BFF6
:1033C00002B0704782B00190019B1B681F2B02D88E
:1033D0004FF0A04306E0019B1B6803F01F02019B16
:1033E0001A60024B184602B0704700BF000300503D
:1033F00000B585B00190084611461A4603468DF87F
:1034000003300B468DF8023013468DF8013001ABC6
:103410001846FFF7D7FF03909DF803209DF8023070
:103420005B001A439DF801309B001A439DF8183049
:103430001B0242EA03019DF81C301B04019A194348
:10344000039B02F5E07243F8221000BF05B05DF85F
:1034500004FB84B0019003230393019B03F0010359
:10346000002B02D04FF402430393019B03F00203AD
:10347000002B02D048F201230393019B03F00403C5
:10348000002B02D048F202230393039B184604B09A
:103490007047000000B585B00190009101238DF8C0
:1034A0000F30009B1B7B032B56D801A252F823F050
:1034B000293502004135020001350200C134020005
:1034C000009B9B6803F48023002B07D00198FFF733
:1034D0003DFF0246009B1B699A420DD1009B9B68F1
:1034E00003F48023002B39D10198FFF72FFF024608
:1034F000009B5B699A4231D000238DF80F302DE09C
:103500000198FFF723FF0246009B1B699A4207D1EF
:103510000198FFF72BFF0246009B5B699A421FD080
:1035200000238DF80F301BE00198FFF70FFF0246D4
:10353000009B1B699A4215D000238DF80F3011E0D3
:103540000198FFF713FF0246009B1B699A420BD0BC
:1035500000238DF80F3007E000BF06E000BF04E055
:1035600000BF02E000BF00E000BF9DF80F3083F015
:103570000103DBB2002B05D00198FFF782FE019812
:10358000FFF776FE9DF80F30184605B05DF804FB96
:1035900000B58BB00590049103920293059B1B79B3
:1035A0001A46342302FB03F3404A13440793079B54
:1035B00093F82D30002B03D008230993099B70E06A
:1035C000059B1A68059B1B791946394B53F8213026
:1035D00019461046FFF752F80346002B03D011237B
:1035E0000993099B5DE0079B039A1A60079B029A67
:1035F0005A60079B00229A60079B002283F83020C4
:10360000079B002283F82F20049B5A7B079B83F89B
:103610003220049B186800230193062300930323A0
:1036200000220021FFF7E4FE049B58680023019369
:1036300006230093032300220021FFF7D9FE059BF8
:103640001B680893049B1968049B5B681A460898DA
:10365000FFF720FE049B9B6819460898FFF729FE98
:10366000079B1B68002B15D0059B1B681846FFF7AE
:103670007DFD03461A46049B1B7B19461046FFF747
:103680007DFD059B1B681846FFF770FD0346184635
:10369000FFF789FD079B012283F82D200023099362
:1036A000099B18460BB05DF804FB00BF48310020B1
:1036B0008084030000B585B00190019B1B791A46F8
:1036C000342302FB03F3084A13440393019B1B6852
:1036D0001846FFF7CDFD039B022283F82D2000BF83
:1036E00005B05DF804FB00BF4831002000B583B091
:1036F00001900091009B03F00103002B03D001987F
:10370000FFF73CFE02E00198FFF741FE009B03F04B
:103710000203002B03D00198FFF742FE02E001985C
:10372000FFF747FE00BF03B05DF804FB30B589B07A
:1037300003900291019200930023079308238DF8D0
:103740001B30039B002283F82E20019BDB68184668
:10375000FFF7FEFC034683F00103DBB2002B03D02E
:1037600010230793079BDDE1A9490298FFF776FD37
:10377000039B93F82F30DBB2002B09D0039B9B688F
:1037800019460298FFF760FD11230793079BC9E1D3
:10379000009B03F00403002B06D1009B03F01003F1
:1037A000002B01D1012300E0002303F00103DAB272
:1037B000039B83F82F20039B019A03F10C04154609
:1037C0000FCD0FC42B682360009B1B0903F001037E
:1037D000002B14BF01230023DAB2039B83F83020AF
:1037E000039B009A1A62019B5B7819460298FFF7C7
:1037F00078FD4FF482710298FFF7FFFC4FF492714D
:103800000298FFF7FAFC4FF4B0710298FFF7F5FC4D
:103810004FF4A4710298FFF7F0FC00990298FFF7AB
:1038200065FF019B1B78032B00F2BB8001A252F8BD
:1038300023F000BF2B39020073390200D338020095
:1038400045380200019B1B691846FFF781FC0346BF
:1038500083F00103DBB2002B03D010230793079BF7
:1038600060E14FF480710298FFF766FD019BD96813
:10387000019B5B681A460298FFF740FD4FF4A87160
:103880000298FFF7BAFC20210298FFF7A8FC082154
:103890000298FFF7A4FC00BF4FF4A8710298FFF74D
:1038A000C1FC034683F00103DBB2002BF4D14FF4DB
:1038B000A8710298FFF7A1FC019B1969019B9B6805
:1038C0001A460298FFF71AFD039B4FF480229A6074
:1038D0006AE0019BD968019B5B681A460298FFF772
:1038E0000DFD019B1B691846FFF732FC034683F070
:1038F0000103DBB2002B03D010230793079B11E1D8
:10390000019B1969019B9B681A460298FFF705FD08
:103910004FF484510298FFF70FFD039B02229A6037
:1039200020210298FFF75BFC3EE0019BD968019BD8
:103930005B681A460298FFF7E1FC009B03F0200346
:10394000002B09D04FF480710298FFF7F5FC039B20
:103950004FF480229A6007E04FF400710298FFF75D
:10396000EBFC039B02229A6020210298FFF737FCB0
:103970001AE0019BD968019B5B681A460298FFF721
:10398000CCFC4FF480510298FFF7D6FC039B022237
:103990009A6000238DF81B3020210298FFF71FFC4E
:1039A00002E00723079300BF009B03F00803002BEE
:1039B00009D1019B1B78032B05D09DF81B301946BC
:1039C0000298FFF70CFC039B1B68002B22D0009B86
:1039D00003F00403002B02D0039B00229A60009B9B
:1039E00003F04003002B05D1039B9B6843F00202C8
:1039F000039B9A60039B9B6843F40072039B9A604D
:103A0000039B9B6819460298FFF71EFC89E000BFE4
:103A100002029C0100238DF81A304FF4A471029821
:103A2000FFF700FC0346002B02D001238DF81A306B
:103A30004FF482710298FFF7F5FB0346002B07D085
:103A40004FF482710298FFF7D8FB01238DF81A30EA
:103A50004FF492710298FFF7E5FB0346002B38D034
:103A60004FF492710298FFF7C8FB4FF4B0710298BF
:103A7000FFF7D8FB03468DF819300298FFF76EFC6C
:103A800005909DF8193083F00103DBB2002B04D1BF
:103A9000059B03F40073002B0AD120210298FFF745
:103AA0009EFB14210298FFF79AFB00238DF81A3031
:103AB0009DF81930002B0CD0059B03F48073002B6C
:103AC00007D04FF4A4710298FFF797FB00238DF8FD
:103AD0001A309DF81A3083F00103DBB2002B9CD121
:103AE0000298FFF7F0FB0490039B002283F82F203D
:103AF000049B002B04D00498FFF7ABFC079010E068
:103B0000009B03F04003002B0BD103990298FFF7B1
:103B1000C1FC034683F00103DBB2002B01D0032379
:103B20000793079B184609B030BD00BF00B587B0AA
:103B300003900291019200230593039B1B791A467F
:103B4000342302FB03F3084A13440493039B1968CC
:103B5000019B029A0498FFF7E9FD0590059B184622
:103B600007B05DF804FB00BF4831002000B58BB002
:103B70000390019200930B468DF80B3000238DF8D3
:103B800014309DF80B308DF81530009B0693002300
:103B90000793019B0893002309939DF83030002B75
:103BA00001D0202200E0002205AB19460398FFF760
:103BB000BDFF034618460BB05DF804FB00B58BB0A3
:103BC0000390019200930B468DF80B3001238DF882
:103BD00014309DF80B308DF81530009B06930023B0
:103BE0000793019B08930023099305AB0022194614
:103BF0000398FFF79BFF034618460BB05DF804FBE4
:103C000030B58BB0019000914FF492710198FFF79D
:103C100009FB0346002B3ED04FF492710198FFF749
:103C2000ECFA4FF482710198FFF7FCFA034683F037
:103C30000103DBB2002B2ED0009B9B681946019834
:103C4000FFF70CFB009B02229A60009B9B681946C1
:103C50000198FFF7F9FA4FF4B0710198FFF7E2FA13
:103C6000034683F00103DBB2002B07D10198FFF775
:103C700075FB034603F40073002B07D12021019844
:103C8000FFF7ADFA14210198FFF7A9FA009B012272
:103C900083F82E20F6E04FF482710198FFF7C2FA04
:103CA0000346002B5DD04FF482710198FFF7A5FA0F
:103CB000009B1B6A03F04003002B1AD1009B93F872
:103CC0002E3083F00103DBB2002B12D00099019853
:103CD000FFF7E0FB0346002B14BF01230023DBB2F8
:103CE00083F00103DBB203F00103DAB2009B83F837
:103CF0002E20009B1B6A03F00403002B79D1009B4C
:103D000004AC03F10C050FCD0FC42B6823604FF4F6
:103D1000B0710198FFF771FA4FF4AE710198FFF797
:103D20006CFA009B93F8303083F00103DBB2002B78
:103D300004D1009B93F82E30002B5AD0002101981B
:103D4000FFF7FAFA009B00229A604F490198FFF7AB
:103D500085FA0198FFF70AFA03461846FFF731FA89
:103D600047E04FF4A4710198FFF747FA009B1B7BD3
:103D7000002B22D1009B04AC03F10C050FCD0FC426
:103D80002B682360009B93F8303083F00103DBB293
:103D9000002B2ED000210198FFF7CEFA009B0022C5
:103DA0009A6039490198FFF759FA0198FFF7DEF94F
:103DB00003461846FFF705FA1BE04FF4007101981F
:103DC000FFF7BAFA009B40F202229A602E4901984E
:103DD000FFF744FA009B9B6819460198FFF734FAF5
:103DE00008210198FFF7FBF920210198FFF7F7F967
:103DF00048E00198FFF767FA0990099B03F0020376
:103E0000002B03D001238DF80C301DE0099B03F03B
:103E10000403002B03D002238DF80C3014E0099B1F
:103E200003F00103002B03D003238DF80C300BE0CB
:103E3000009B93F82E30002B03D004238DF80C3018
:103E400002E000238DF80C30009B93F8303083F0B3
:103E50000103DBB2002B03D0009B002283F82F204C
:103E6000009B1B6A03F00403002B04D0009B93F813
:103E70002E30002B06D0009B1B68009A516803AAC5
:103E8000104698470BB030BD02029C0108B50349AB
:103E90004FF04020FFF7B4FE00BF08BD48310020BE
:103EA00082B003468DF807309DF90730002B0CDBFC
:103EB0009DF8073003F01F0205499DF907305B09A3
:103EC000012000FA02F241F8232000BF02B070473F
:103ED00000E100E082B0034600918DF807309DF9C3
:103EE0000730002B0ADB009BDAB20C499DF9073042
:103EF0005201D2B20B4483F800230BE0009BDAB2EC
:103F000007499DF8073003F00F03043B5201D2B27A
:103F10000B441A7600BF02B0704700BF00E100E01A
:103F200000ED00E082B00190019B1B0B5BB21846D4
:103F300002B0704700B583B003460A468DF80730DB
:103F400013468DF806309DF806209DF9073011467E
:103F50001846FFF7BFFF00BF03B05DF804FB00B5D4
:103F600083B003468DF807309DF907301846FFF7F8
:103F700097FF00BF03B05DF804FB00B583B00346B4
:103F8000ADF80630BDF80630184600F026F80346B6
:103F90001B68012B0CBF01230023DBB2184603B0C2
:103FA0005DF804FB00B585B00346ADF80630BDF8FA
:103FB0000630184600F011F803461A460023136035
:103FC000BDF80630184600F008F803461B68039356
:103FD000039B00BF05B05DF804FB82B00346ADF85B
:103FE0000630BDF8063003F1804303F5C0431846A0
:103FF00002B0704782B00190034A019BC2F80433BB
:1040000000BF02B0704700BF0060004082B0019066
:10401000034A019BC2F8083300BF02B0704700BFDB
:104020000060004082B00190034BD3F80423019B51
:104030001340184602B070470060004082B0019003
:10404000084A019B03F5A27352F82330054943F057
:104050000102019B03F5A27341F8232000BF02B0C7
:10406000704700BF0060004082B00190084A019B89
:1040700003F5A27352F82330054923F00102019B96
:1040800003F5A27341F8232000BF02B0704700BFC0
:104090000060004084B00390029113468DF8073011
:1040A000144A039B03F5A27352F82330114923F4F9
:1040B0004F3323F44073039A02F5A27241F8223081
:1040C0000C4A039B03F5A27352F82320029B1B02A8
:1040D00003F47C519DF807301B0403F440330B4379
:1040E00004491A43039B03F5A27341F8232000BF40
:1040F00004B070470060004082B00190054A019B07
:1041000003F5A27352F823301B0A03F03F0318464D
:1041100002B070470060004082B00190064A019BE7
:1041200003F5A27352F823301B0C03F00303DBB238
:10413000184602B0704700BF0060004084B0039092
:10414000029111461A460B468DF8073013468DF83A
:104150000630184A039B03F5A27352F82330154921
:1041600023F4991323F4F853039A02F5A27241F849
:104170002230104A039B03F5A27352F82320029BBE
:104180001B0203F47C519DF807301B0403F44033F9
:1041900019439DF806301B0503F480130B430549B2
:1041A0001A43039B03F5A27341F8232000BF04B018
:1041B000704700BF0060004082B00190019B1B6807
:1041C0001F2B02D84FF0A04306E0019B1B6803F0B1
:1041D0001F02019B1A60024B184602B0704700BFD5
:1041E0000003005000B585B00190084611461A46FC
:1041F00003468DF803300B468DF8023013468DF8D8
:10420000013001AB1846FFF7D7FF03909DF803205C
:104210009DF802305B001A439DF801309B001A4361
:104220009DF818301B0242EA03019DF81C301B0464
:10423000019A1943039B02F5E07243F8221000BF74
:1042400005B05DF804FB00B585B003900023019331
:10425000002300930023012201210398FFF7C2FFEE
:1042600000BF05B05DF804FB00B585B003900B46B8
:104270008DF80B309DF80B30002201920022009245
:10428000002200210398FFF7ADFF00BF05B05DF8E5
:1042900004FB00B585B0019001AB1846FFF78CFF19
:1042A0000390019A039B02F5E07253F8223023F049
:1042B00002030293019A039B02F5E072029943F80C
:1042C000221000BF05B05DF804FB00B585B0019079
:1042D0000B468DF8033001AB1846FFF76DFF0390D6
:1042E000019A039B02F5E07253F82230019A23F4FD
:1042F0004031039B02F5E07243F82210019A039BC0
:1043000002F5E07253F822309DF8032012041146A2
:10431000019A1943039B02F5E07243F8221000BF93
:1043200005B05DF804FB00B585B0019001AB1846FF
:10433000FFF742FF0390019B012202FA03F31946A3
:10434000039800F06DF800BF05B05DF804FB00B500
:1043500085B0019001AB1846FFF72EFF0390019B3B
:10436000012202FA03F31946039800F063F800BF34
:1043700005B05DF804FB00B585B0019001AB1846AF
:10438000FFF71AFF0390039BD3F804350293029BB7
:10439000DA43019B012101FA03F31A40039BC3F89E
:1043A0000825019B01229A40029B1A40039BC3F8F7
:1043B0000C2500BF05B05DF804FB00B585B0019089
:1043C00001AB1846FFF7F8FE0390039800F020F8C1
:1043D0000246019B22FA03F303F00103184605B0DD
:1043E0005DF804FB00B585B0019001AB1846FFF7FE
:1043F000E3FE0390019A039B02F5E07253F822302A
:104400001B0C03F00303DBB2184605B05DF804FB98
:1044100082B00190019BD3F81035184602B0704766
:1044200082B001900091019B009AC3F8082500BF5B
:1044300002B0704782B001900091019B009AC3F8CE
:104440000C2500BF02B0704788B003900291019222
:10445000164A05AB92E8030083E80300039B079329
:1044600019E0079B9B0008AA134453F80C3CD3F8AF
:104470002025019B1A60079B9B0008AA134453F850
:104480000C3C019A1268C3F82025019B0433019368
:10449000079B01330793039A029B1344079A9A429E
:1044A000DFD300BF00BF08B0704700BF84840300A3
:1044B00000B585B0019001AB1846FFF77DFE039073
:1044C000019B012202FA03F31A46039BC3F820253D
:1044D00000BF05B05DF804FB84B00190019B5B094F
:1044E000029300230393029B002B03D0029B012B1A
:1044F00004D007E04FF0FF33039303E040F2FF33B3
:10450000039300BF019B03F01F030193039A019BD8
:1045100022FA03F303F00103002B14BF012300234D
:10452000DBB2184604B0704784B001900091009B44
:104530000393019BDB080293019B03F007030193A4
:104540000122019B02FA03F30399029A0A441278AA
:104550001340184604B0704784B001900091009B4E
:104560000393019BDB080293019B03F00703019374
:10457000039A029B13441B785AB20121019B01FA52
:1045800003F35BB2134359B2039A029B1344CAB2BA
:104590001A7000BF04B0704782B00190074A019BB7
:1045A0001344243393F90030B3F1FF3F14BF0123C8
:1045B0000023DBB2184602B0704700BF7C310020F8
:1045C00082B001900C4A019B1344243393F90030CC
:1045D000002B09DB084A019B1344243393F9003074
:1045E000072B01DC012300E0002303F00103DBB211
:1045F000184602B0704700BF7C31002082B00190A5
:10460000064A019B1344243393F90030072BCCBF97
:1046100001230023DBB2184602B070477C31002032
:1046200082B00190064A019B1344243393F9003071
:10463000DB43DBB2DB09DBB2184602B0704700BFD8
:104640007C31002084B00390029101928DF80330F8
:10465000029B59B20E4A039B134424330A461A7034
:104660000B49029B019A41F823209DF8033083F007
:104670000103DBB2002B08D0029B083B039A51B226
:10468000034A13440A4683F84E2000BF04B0704723
:104690007C31002082B00190044A019B13442433F2
:1046A000FE221A7000BF02B0704700BF7C310020AC
:1046B00082B00190044A019B13442433FF221A70F4
:1046C00000BF02B0704700BF7C31002000B583B04E
:1046D000019004490198FFF73FFF00BF03B05DF868
:1046E00004FB00BFCB31002082B00190044A019B43
:1046F0001344243393F90030184602B0704700BFCA
:104700007C31002082B00190034A019B52F8233093
:10471000184602B0704700BF7C31002084B0019081
:10472000074A019B13444E3393F900308DF80F3044
:104730009DF80F3023F0C003184604B0704700BF47
:104740007C31002084B00190074A019B13444E3312
:1047500093F900308DF80F309DF80F309B09DBB2D4
:10476000184604B0704700BF7C31002000B589B006
:104770000390029113468DF80730FF238DF81F3008
:104780009DF80730002B01D0002300E0082305939B
:104790009DF80730002B01D0082300E00923049383
:1047A000059B069314E00F4A069B52F82330B3F1A1
:1047B000FF3F0AD19DF80730029A06990398FFF748
:1047C00041FF069B8DF81F3006E0069B01330693E0
:1047D000069A049B9A42E6D39DF91F30184609B009
:1047E0005DF804FB7C31002082B003468DF8073071
:1047F0009DF80730094A4FF0FF3142F823109DF829
:104800000730072B07D99DF80730083B034A1344AC
:10481000FF2283F84E2000BF02B070477C31002099
:1048200000B583B02D4B93F85530002B03D00823EF
:104830000093009B4EE000238DF8073011E09DF8B7
:1048400007301846FFF748FE0346002B04D09DF8BA
:1048500007301846FFF72CFF9DF8073001338DF81D
:1048600007309DF80730292BE9D900238DF8073050
:1048700009E09DF807301846FFF7B6FF9DF80730AE
:1048800001338DF807309DF80730082BF1D9062247
:104890000021134803F0D9FD1248FFF743FB0346FC
:1048A00007211846FFF746FB0E48FFF73BFB034680
:1048B0001846FFF754FB4FF4BE70FFF773FB4FF041
:1048C0000040FFF797FB054B012283F8552000239A
