:020000021000EC
:109000000000022075F101005DF101005FF1010037
:1090100061F1010063F1010065F101000000000051
:1090200000000000000000000000000067F10100E7
:1090300069F10100000000006BF101006DF1010019
:109040006FF101006FF10100551A0200911C02003E
:10905000D12A02006FF10100C93802006FF101004E
:109060006FF101006FF101006FF101006FF101007C
:109070006FF101006FF101006FF101006FF101006C
:109080006FF10100B16B02006FF101006FF101009F
:10909000F16B02006FF101005D4202006FF101000F
:1090A0006FF101006FF101006FF101006FF101003C
:1090B0006FF101006FF101000000000000000000EE
:1090C0006FF101006FF101006FF10100A91C0200B6
:1090D0006FF101006FF101006FF101006FF101000C
:1090E0006FF101000000000000000000000000001F
:1090F000000000006FF1010000000000C11C020030
:10910000000000000000000000000000000000005F
:10911000000000000000000000000000000000004F
:10912000000000000000000000000000000000003F
:10913000000000000000000000000000000000002F
:10914000000000000000000000000000000000001F
:10915000000000000000000000000000000000000F
:1091600000000000000000000000000000000000FF
:1091700000000000000000000000000000000000EF
:1091800000000000000000000000000000000000DF
:1091900000000000000000000000000000000000CF
:1091A00000000000000000000000000000000000BF
:1091B00000000000000000000000000000000000AF
:1091C000000000000000000000000000000000009F
:1091D000000000000000000000000000000000008F
:1091E000000000000000000000000000000000007F
:1091F000000000000000000000000000000000006F
:10F00000354936480A1A02D0072291438D463449C1
:10F0100034480A1A06D00722914381F30988022254
:10F0200082F3148830483149314A00F044F83148BD
:10F030003149324A00F03FF831483249324A00F053
:10F040003AF832483249334A00F035F83248334909
:10F05000334A00F030F833483349344A00F02BF893
:10F0600033483449344A00F026F834483449002201
:10F0700000F02CF833483449002200F027F83348D8
:10F080003349091A082902DB002202604160314A33
:10F0900090471F481F49884205D00268043003B4D6
:10F0A000904703BCF7E700208646EC46002000218D
:10F0B000294A9047FEE7884207D0521A05D00378C4
:10F0C00001300B700131013AF9D17047884202D00A
:10F0D00002700130FAE770470000022000E00120D2
:10F0E0000000022000000220287603008023002078
:10F0F000A4230020D0F10100D0F10100FC62030044
:10F10000287603008023002080230020E86303008A
:10F11000E8630300E8630300E8630300E8630300B7
:10F12000E8630300E8630300E86303002676030056
:10F130004C760300A4230020A4230020A423002055
:10F14000903100209031002094310020A83100201F
:10F15000A85100209DF10100DDF50100FEE7FEE76A
:10F16000FEE7FEE7FEE7FEE7FEE7FEE7FEE7FEE777
:10F1700000F002B8FFF7FCBF0F484FF007018843CB
:10F1800085460E4880470E48016841F470010160D1
:10F19000BFF34F8FBFF36F8FFFF732BF09480A49A4
:10F1A0000A4A884207D0521A05D0037801300B7002
:10F1B0000131013AF9D17047000002204D160200DA
:10F1C00088ED00E0E8630300802300208023002016
:10F1D00000B583B0094B1B88184604F0D3FA0346E8
:10F1E0000193019B002B04D0044B1B88184604F0AC
:10F1F000A1FA019B184603B05DF804FB80230020B0
:10F2000000B583B00190019B002B05D0044B1B88F7
:10F210000121184604F022FA00BF03B05DF804FB98
:10F220008023002000B585B00190019B002B0AD0FF
:10F23000074B43F001030393019B9B010293039B44
:10F240000298984700E000BF05B05DF804FB00BFDE
:10F25000F063030000B583B00190019800F006F957
:10F2600000BF03B05DF804FB00B583B001900198C6
:10F27000FFF7D8FF00BF03B05DF804FB00B585B011
:10F28000264B1B689B680393039B4FF080421A61D7
:10F29000039B4FF0A0525A61039B002283F82C205D
:10F2A000039B0293039B1C330193029B03221A705E
:10F2B000029B01221A73029B194A5A60029B022286
:10F2C0001A72019B03221A70019B08225A70019B3B
:10F2D0001D229A70019BFF22DA70019B01221A7194
:10F2E000019BFF225A71019B4FF080429A60019B63
:10F2F00000221A73019B00225A730A4A6B46126855
:10F30000114619800233120C1A706B4619462620DA
:10F3100004F0EAF800BF05B05DF804FB902300207C
:10F3200000F00240F863030000B585B00190019B36
:10F33000002B0AD0074B43F001030393019B9B0171
:10F340000293039B0298984700E000BF05B05DF868
:10F3500004FB00BF5064030082B00190019B1B6856
:10F360001F2B02D84FF0A04306E0019B1B6803F05F
:10F370001F02019B1A60024B184602B0704700BF83
:10F380000003005000B585B00190084611461A46AA
:10F3900003468DF803300B468DF8023013468DF886
:10F3A000013001AB1846FFF7D7FF03909DF803200B
:10F3B0009DF802305B001A439DF801309B001A4310
:10F3C0009DF818301B0242EA03019DF81C301B0413
:10F3D000019A1943039B02F5E07243F8221000BF23
:10F3E00005B05DF804FB00B585B0039000230193E0
:10F3F000002300930023012201210398FFF7C2FF9D
:10F4000000BF05B05DF804FB00B585B0019001AB0D
:10F410001846FFF7A1FF0390039800F00AF8024690
:10F42000019B22FA03F303F00103184605B05DF8CF
:10F4300004FB82B00190019BD3F81035184602B04E
:10F44000704700B583B00190019B002B0AD04FF4A8
:10F450007A70FFF769FF019B013B0193019B002B31
:10F46000F5D100E000BF03B05DF804FB00B583B048
:10F4700001900198FFF7E5FF00BF03B05DF804FBC2
:10F4800000B583B003F0CCFF0190019B0093009B7B
:10F49000002B04D0044A4121009800F009FF00BF6E
:10F4A00003B05DF804FB00BF2064030000B583B027
:10F4B00001900B468DF8033000F034F800BF03B024
:10F4C0005DF804FB00B585B0134A01AB1268114624
:10F4D00019800233120C1A7001238DF8053001AB2C
:10F4E0000E4A1946222004F049F80390039B029328
:10F4F000029B002B04D00A4A5721029800F0D8FE44
:10F500000021222004F0AAF83320FFF76CFF00BF8F
:10F5100005B05DF804FB00BF40640300ADF40100DA
:10F520002064030008B506E0074B1B68002B02D0DF
:10F53000054B1B68984700F009F80346002BF3D1F0
:10F5400000BF00BF08BD00BFD423002008B5044B96
:10F550001B881846FFF758FF0346184608BD00BF32
:10F560008023002000B585B00190019B002B0AD0BC
:10F57000074B43F001030393019B9B010293039B01
:10F580000298984700E000BF05B05DF804FB00BF9B
:10F590006064030000B583B00190019B002B0AD08A
:10F5A0004FF47A70FFF7DEFF019B013B0193019B53
:10F5B000002BF5D100E000BF03B05DF804FB0000B4
:10F5C00000B583B001900199034800F04BFE00BFE5
:10F5D00003B05DF804FB00BF5864030008B50320C6
:10F5E00002F023FAFFF74CFFFFF748FEFFF76AFF30
:10F5F0000220FFF7CFFF00F005FCFEE700B587B063
:10F6000003460A468DF80F3013468DF80E309DF8EC
:10F610000F308DF814309DF80E308DF81530094BF1
:10F62000197805AA002300930223074803F0C0F8C5
:10F630000346002B0CBF01230023DBB2184607B0A2
:10F640005DF804FB942300206864030000B585B0D6
:10F65000034602918DF80F3013468DF80E309DF859
:10F660000E30012B06D99DF80F3063F07F03DBB21B
:10F670008DF80F30104B19780DF10F020123009314
:10F6800001230E4803F094F80346002B01D0002319
:10F690000DE0094B19789DF80E30029A074803F0E7
:10F6A000AFF80346002B0CBF01230023DBB2184642
:10F6B00005B05DF804FB00BF9423002068640300DC
:10F6C00010B586B02F4B02AC0FCB84E80F0002A917
:10F6D000002300222C4802F07DFD0346002B01D0C0
:10F6E00000234BE0284802F007FE00238DF8073086
:10F6F000264B19221A700DF10703012219460F201B
:10F70000FFF7A4FF034683F00103DBB2002B03D114
:10F710009DF80730332B15D01C4B18221A700DF1B1
:10F720000703012219460F20FFF790FF034683F0DD
:10F730000103DBB2002B03D19DF80730332B01D03E
:10F7400000231BE057212020FFF758FF034683F0DA
:10F750000103DBB2002B01D000230FE000212320A6
:10F76000FFF74CFF034683F00103DBB2002B01D00F
:10F77000002303E0064B01221A700123184606B04D
:10F7800010BD00BF70640300686403009423002070
:10F79000D823002000B587B00390029101921E4B40
:10F7A0001B7883F00103DBB2002B01D000232FE094
:10F7B00004AB062219462820FFF748FF034683F0D2
:10F7C0000103DBB2002B01D0002321E09DF81030B3
:10F7D0001AB29DF811301B021BB213431AB2039BDD
:10F7E0001A809DF812301AB29DF813301B021BB21A
:10F7F00013431AB2029B1A809DF814301AB29DF876
:10F8000015301B021BB213431AB2019B1A8001234D
:10F81000184607B05DF804FBD82300207ADF704754
:10F8200000BF18467CDF704700BF18468FDF704767
:10F8300000BF1846A8DF704700BF1846AADF704710
:10F8400000BF1846AEDF704700BF1846B1DF7047F3
:10F8500000BF184662DF704700BF184600B595B07C
:10F860000390029104A8029B0093039B054A402148
:10F8700007F04EFB04AB1846FFF7A2FE00BF15B021
:10F880005DF804FB8064030000B585B00190009131
:10F89000019B1B88522B31D0522B37DC212B1AD0E5
:10F8A000212B33DC102B02D0112B08D02EE0019B32
:10F8B0009A88194B1A801948FFF782FE27E0164BE9
:10F8C0004FF6FF721A801648FFF77AFE032115489B
:10F8D00005F0DEFF1BE000238DF80C3000238DF8CF
:10F8E0000D30019B9B8803AA11461846FFF79EFF27
:10F8F000034619460C48FFF7B1FF08E0064B18888D
:10F90000002300220021FFF7A1FF00E000BF00BF9D
:10F9100005B05DF804FB00BF96230020906403004F
:10F92000A0640300EC230020B464030000B583B09E
:10F9300004F012FC019001991548FFF78FFF019B1D
:10F94000002B01D000231FE0002300936B461946D3
:10F95000012004F0ADFC019001990E48FFF77EFFF5
:10F96000019B002B01D000230EE06B46184604F0EB
:10F970008DFD019001990848FFF770FF019B002B56
:10F980000CBF01230023DBB2184603B05DF804FB73
:10F99000C0640300CC640300D864030000B585B0E4
:10F9A0009DF80830012262F303038DF808309DF8BA
:10F9B0000830012262F307138DF80830234807F05E
:10F9C00058FB03469AB202AB20491846FFF72AFFBC
:10F9D0000390039B002B05D003991D48FFF73EFFC2
:10F9E00000232FE06B4608220021184607F0ECFAAE
:10F9F0001023ADF800303C23ADF802300023ADF801
:10FA000004304FF4C873ADF806306B461846FFF764
:10FA100005FF0390039B002B05D003990D48FFF7CA
:10FA20001DFF00230EE000210B4806F077F903903C
:10FA3000039B002B05D003990848FFF70FFF002315
:10FA400000E00123184605B05DF804FBE464030000
:10FA5000F0640300FC640300DC230020086503005D
:10FA600010B59AB05F4B15AC0FCB84E80F0015AB07
:10FA70005D491846FFF7EEFE1990199B002B05D043
:10FA800019995A48FFF7EAFE0023A8E04FF47E4395
:10FA9000ADF85030544B1B788DF8523014AB544AAB
:10FAA00019460120FFF7C6FE1990199B002B05D0BF
:10FAB00019995048FFF7D2FE002390E013AB0322C0
:10FAC0000021184607F080FA9DF84C30012262F3BD
:10FAD00003038DF84C309DF84C30012262F307137C
:10FAE0008DF84C309DF84D30012262F303038DF800
:10FAF0004D309DF84D30012262F307138DF84D30E3
:10FB00009DF84E30012262F342038DF84E300CAB6B
:10FB10001C220021184607F057FA9DF8303043F0B8
:10FB200010038DF8303013AB11934FF60163ADF82D
:10FB30002C302D4B1B788DF82E300AAB0322002180
:10FB4000184607F041FA9DF82830012262F30303BA
:10FB50008DF828309DF82830012262F307138DF8C4
:10FB600028309DF829306FF303038DF829309DF874
:10FB700029306FF307138DF829309DF82A300122C0
:10FB800062F342038DF82A300023069307AB00226C
:10FB90001A605A609A6001AB14220021184607F0DF
:10FBA00013FA0BAB01930AAB02931023ADF80C30A0
:10FBB0001023ADF8103006AB05930D4B188801AA41
:10FBC0000CA90D4BFFF73AFE1990199B002B05D09D
:10FBD00019990A48FFF742FE002300E00123184666
:10FBE0001AB010BD38650300E4240020146503003A
:10FBF000E624002020650300E82400202C65030093
:10FC000000B5ADB01D4B1A781D4B9A701C4B4FF4CC
:10FC10007E421A806B46AC220021184607F0D4F9C8
:10FC200002238DF8003000238DF8023006238DF872
:10FC300003300123ADF84C30114B149301238DF8A0
:10FC40007C3040232293002323936B4619460D48B2
:10FC500005F049FD2B902B9B002B05D02B990A48D2
:10FC6000FFF7FCFD002304E00121064805F02EFD0E
:10FC7000012318462DB05DF804FB00BFE4240020EA
:10FC8000F0240020EC2300204865030000B583B079
:10FC9000FFF74CFE034683F00103DBB2002B01D0DB
:10FCA00000232CE0FFF77AFE034683F00103DBB26A
:10FCB000002B01D0002322E0FFF7D2FE034683F0A1
:10FCC0000103DBB2002B01D0002318E0FFF798FFFF
:10FCD000034683F00103DBB2002B01D000230EE0CA
:10FCE0000321094805F0D4FD019001990748FFF769
:10FCF000B5FD019B002B0CBF01230023DBB218468E
:10FD000003B05DF804FB00BFEC2300205465030042
:10FD100000B589B00190154B1B884FF6FF729342D6
:10FD20001FD01023ADF81E3003AB1022002118465F
:10FD300007F04AF90E4B1B88ADF80C3001238DF803
:10FD40000E300023ADF810300DF11E030593019B1A
:10FD50000693064B1B8803AA11461846FFF772FD4F
:10FD600000E000BF09B05DF804FB00BF962300204F
:10FD7000E824002041DF704700BF184682B00190A0
:10FD8000054B1B680A33044A1360044B01221A70A6
:10FD900000BF02B0704700BF1825002014250020C6
:10FDA00082B001900B46ADF80230BDF80230DAB2F5
:10FDB000019B1A70BDF802301B0A9AB2019B0133F5
:10FDC000D2B21A7000BF02B0704782B001900091A9
:10FDD000009BDAB2019B1A70009B1A0A019B013347
:10FDE000D2B21A70009B1A0C019B0233D2B21A7065
:10FDF000009B1A0E019B0333D2B21A7000BF02B0EF
:10FE00007047000000B58BB05048FFF7D9FB06F0F3
:10FE1000F5FE0990099B0893089B002B04D04C4ADF
:10FE20002C21089800F044FAFFF74AFC034683F0BF
:10FE30000103DBB2002B03D04648FFF7C1FBFEE70E
:10FE4000FFF724FF034683F00103DBB2002B03D04E
:10FE50004148FFF7B5FBFEE7404A0121404806F064
:10FE600001FF0990099B0793079B002B04D0384A98
:10FE70003A21079800F01CFA3A4B0022A4211846B8
:10FE800006F020FF0990099B0693069B002B04D0E7
:10FE90002F4A3C21069800F00BFA3348FFF790FBFD
:10FEA000324B1B78DBB2002B4CD0304B00221A7047
:10FEB0000023ADF816300023ADF814300023ADF860
:10FEC00012300DF1120205A90DF116031846FFF7C5
:10FED00061FC274B1B885A1C91B2254A11806A4647
:10FEE00019461046FFF75CFF224B1A686B46023337
:10FEF00011461846FFF769FFBDF916309AB26B46F6
:10FF0000063311461846FFF74BFFBDF914309AB27D
:10FF10006B46083311461846FFF742FFBDF9123011
:10FF20009AB26B460A3311461846FFF739FF6B4603
:10FF30000C334FF0FF311846FFF747FF6B4618466A
:10FF4000FFF7E6FEFFF716FFAAE700BF64650300B0
:10FF50007465030098650300B46503007DFD01002E
:10FF600060650300F4240020D465030014250020FC
:10FF70001C2500201825002000B583B01F4B0193DD
:10FF8000019B02221A61019B02225A61019B1C4AB9
:10FF90009A61019B1B4ADA61019B4FF480621A62ED
:10FFA000019B00229A62019B00225A62019B00225F
:10FFB000DA62019B124A9A64019B134ADA64019B3C
:10FFC00010221A65019B00229A65019B00225A6546
:10FFD000019B0022DA65019B07330C49184607F0A4
:10FFE00026F8019B0A49184607F021F8019B2022B8
:10FFF0009A7100BF03B05DF804FB00BF202500200C
:020000022000DC
:10000000E86503009825002098290020F465030086
:10001000F865030000B589B00390029101920023B6
:100020000693039BDB680593039B1B690493049A67
:10003000059B9A4205D9049A059BD31A013B079365
:1000400007E0039B9A680499059BCB1A1344013B74
:100050000793039B9A68059BD31A079A934228BF7C
:1000600013460793079A019B934228BF13460793B1
:10007000039B5A68059B1344079A0299184606F099
:100080007AFF069A079B13440693029A079B134430
:100090000293019A079BD31A0193059A079B134475
:1000A0000593039B9B68059A9A4201D1002305930F
:1000B000039B059ADA60019B002BB5D1069B18467D
:1000C00009B05DF804FB00B589B00390029101927C
:1000D000039BDB680793039B9A68079BD31A0693DD
:1000E000069A019B9A420ED9039B5A68079B1344B8
:1000F000019A0299184606F03EFF079A019B1A449E
:10010000039BDA601AE0069B0593039B5A68079BE2
:100110001344059A0299184606F02DFF019A069B92
:10012000D31A0593039B5868029A069B1344059AB9
:10013000194606F020FF039B059ADA6000BF09B05C
:100140005DF804FB86B00190019B1B690493019B41
:10015000DB680393049A039B9A4208D8019B9A6830
:10016000039BD21A049B1344013B059304E0049AB9
:10017000039BD31A013B0593059B184606B07047B5
:1001800000B589B0039002910192029B0693039BF4
:100190005A1C13465B001344DB00204A13440593AA
:1001A000059B5B69022B29D0022B2ED8002B02D095
:1001B000012B13D029E00598FFF7C4FF0490049A9F
:1001C000019B9A4202D20023079321E0019B0793EF
:1001D000019A06990598FFF776FF19E00598FFF751
:1001E000B1FF0490019A049B934228BF13460793E2
:1001F000079A06990598FFF766FF09E0019A0699A4
:100200000598FFF707FF079002E00023079300BF60
:10021000079B184609B05DF804FB00BF20250020AD
:1002200000B587B00390029101920D4B1B78002B13
:1002300001D1FFF7A1FEEFF311834FF0200181F30D
:1002400011880593019A02990398FFF799FF04908A
:10025000059B83F31188049B184607B05DF804FBE7
:10026000202500200FB400B5A3B025AB009301A852
:10027000009B249A802106F070FE2190219B802B08
:1002800006DD01AB802219460020FFF7C9FF08E018
:10029000219B002B05DD219A01AB19460020FFF7B9
:1002A000BFFF219B184623B05DF804EB04B07047F4
:1002B00000B583B002900091019244F201007146B2
:1002C0006A4600F003F803B000BD00BF30B58BB044
:1002D00007900691059272B600BF00F019FD00BFAD
:1002E00000F040FB0346002BFAD1079B44F20202C8
:1002F00093422FD0079B44F20202934269D8079B96
:1003000044F20102934237D0079B44F20102934228
:100310005FD8079B012B05D0079B41F20102934256
:100320000CD056E0394A3A4BD31ADB081B0443F091
:1003300001033849184600F0B9FA57E0334A344B04
:10034000D31ADB081B0443F001033349184600F0BD
:10035000ADFA4BE0059B09932C4A2D4BD31ADB08D1
:100360001B0443F00100099B5B681A46099B1B684C
:100370002A4900F0BAFA39E0059B0893234A244B36
:10038000D31ADB081B0443F00104089B9D68089BFB
:100390009B68184600F0DAFC03461846089B5B6829
:1003A0001946089B1B68069A029201930091034626
:1003B0002A461B49204600F0ACFA144A144BD31AC3
:1003C000DB081B0443F001031649184600F06EFADF
:1003D0000CE00E4A0E4BD31ADB081B0443F001035A
:1003E000069A1149184600F06FFA00BF0F4B1B68C0
:1003F00003F00103002B00D000BE059A0699079870
:1004000000F0ECFC00BF0BB030BD00BF7863030010
:100410005063030000660300206603004466030087
:1004200060660300886603009C660300F0ED00E050
:1004300000B583B001900091019B1B681B68009977
:100440000198984700BF03B05DF804FB00B583B086
:100450000190019B1B685B680198984700BF03B03F
:100460005DF804FB00B583B00190019B1B689B689D
:100470000198984700BF03B05DF804FB82B001907B
:10048000019BDB6801225A7100BF02B0704782B045
:100490000190019BDB685B79184602B0704784B01D
:1004A0000190009100238DF80F30019B1B7803F021
:1004B0000403DBB2002B24D0019B1B78C3F30103A0
:1004C000DBB2012B02D0022B0CD017E0009B1B6883
:1004D000019A1288C2F38312D2B213449A1C009B71
:1004E0001A600BE0009B1B68019A5288C2F38912C4
:1004F00092B213449A1C009B1A6000BF01238DF82E
:100500000F309DF80F30184604B0704700B58BB01F
:100510000023ADF826303B4800F03BFD3A4800F0A0
:1005200038FD3A4B9B680493394B1B680693049A39
:10053000069B134002339B00344A13440433089350
:1005400004AB19460898FFF7AAFF0346002B09D011
:10055000049A069B134002339B002C4A1344043335
:100560000893EDE700BF0023079311E0049B5A1C9A
:100570000492069A1340079A920001A90A4423495B
:1005800002339B000B445B681360079B01330793A6
:10059000079B012BEAD99DF80430C3F30103DBB2BA
:1005A000012B10D0022B1CD1BDF80A30ADF826303B
:1005B000BDF80630C3F389139BB203339A08049B3A
:1005C000134404930EE0BDF80A30ADF82630BDF8B0
:1005D0000430C3F38313DBB21A46049B1344049321
:1005E00000E000BF084800F0E0FC0590059B002BF0
:1005F00002D0049B054A9360BDF8263018460BB024
:100600005DF804FB902E00208C2E0020782A00201C
:100610009823002000B585B00021074800F02AFC8F
:100620000390039B0293029B83F310030193019BAE
:10063000184605B05DF804FB942E002000B589B083
:100640000390029101920093039B1B0C0693FFF70A
:10065000E1FF0790079B1904009B5A1C0A9B13405B
:10066000069A0A431B4902339B000B445A60009AC6
:100670000A9B134002339B00164A1344043305932C
:10068000039B03F00703D9B2059A137861F3C503FE
:100690001370019B03F00F03D9B2059A138861F31D
:1006A00089131380029BC3F31501059A136861F344
:1006B0009F231360059A1378012161F301031370DE
:1006C000059A13786FF38203137000BF09B05DF8C9
:1006D00004FB00BF782A002000BF704700B58DB032
:1006E0000390029113468DF80730039B02330A935F
:1006F00001238DF8273000238DF81B300DF11B03EB
:10070000184600F0D3FC404B5A68029B1A603F4BDE
:100710001A683D4B99683C4B5B68CB1A1344013314
:100720000B9314E001213A4800F003FCFFF7EEFEC2
:1007300007900799364800F0FCFB344B1A68324B9F
:100740009968314B5B68CB1A134401330B930A9AB7
:100750000B9B9A42E6D89DF82730002B48D0002307
:1007600005939DF80730002B17D09DF81430012217
:1007700062F301038DF814309DF8143043F0040344
:100780008DF81430039B03F00F03DAB2BDF8143078
:1007900062F38913ADF8143016E09DF8143002228C
:1007A00062F301038DF814309DF8143043F0040314
:1007B0008DF81430039BC3F309039AB2BDF81630C9
:1007C00062F38F13ADF816300F4B5A680F4B1B684E
:1007D000134002339B000C4A134404330893059AD8
:1007E000089B1A60084B5A680A9B1344064A5360D8
:1007F0009DF81B30184600F063FC9DF82730184622
:100800000DB05DF804FB00BF782A0020982300207B
:10081000942E002000B58BB00590049103920293B2
:10082000204B1B68079306AB012219460298FFF77D
:1008300055FF0346002B24D0069B02330993002367
:10084000089311E0089B9B00039A1A44099B591CCA
:10085000099107990B401268134902339B000B441E
:100860005A60089B01330893089A029B9A42E9D385
:10087000069A079B00931346029A04990598FFF77E
:10088000DDFE094B1B78002B05D000BF00F06AF895
:100890000346002BFAD1FFF71FFF00BF0BB05DF836
:1008A00004FB00BF98230020782A002000B583B005
:1008B000019000910023002200990198FFF7AAFF00
:1008C00000BF03B05DF804FB00B587B00390029150
:1008D0000192019B059305AA012302990398FFF752
:1008E00099FF00BF07B05DF804FB00B587B0039027
:1008F000029101920093019B0493009B059304AA2B
:10090000022302990398FFF785FF00BF07B05DF847
:1009100004FB00B58BB00390029101920093019B00
:100920000593009B06930C9B07930D9B08930E9BCE
:10093000099305AA052302990398FFF76BFF00BFEF
:100940000BB05DF804FB0000054B9A68044B5B6834
:100950009A420CBF01230023DBB21846704700BF48
:10096000782A002000B599B0FFF7EEFF0346002B70
:1009700001D00023C0E19B4B0022C3F81824BFF331
:100980004F8F00BF974B9B680493974B1B68109346
:10099000049A109B134002339B00924A1344043381
:1009A0001193002317930023169300230F9304AB96
:1009B00019461198FFF773FD0346002B19D0894B98
:1009C000D3F81834002B14D1864B5A68049B9A42F2
:1009D00005D8844B5B68834A936000238CE1049ABA
:1009E000109B134002339B007E4A1344043311933F
:1009F000DDE70023159311E0049B5A1C0492109A22
:100A00001340159A920001A90A44764902339B00CB
:100A10000B445B681360159B01331593159B012BE9
:100A2000EAD99DF8043003F00303DBB2022B40F057
:100A30009C80BDF80630C3F389139BB20D93BDF8BB
:100A40000630C3F389139BB2502B28BF50239BB2AF
:100A50000C930C9BC3F309039AB2BDF8063062F302
:100A60008F13ADF806300C9B08330B939DF80430C0
:100A7000C3F3C203DBB20F930B995C4800F02EFB6B
:100A80001790179B002B00F0D380179800F0B7FB4E
:100A900001A9169B0822179800F05BFC169B0833EF
:100AA0001693049BDA43109B134001339B000A9377
:100AB0000C9A0A9B9A4242D90A9B002B08D0049AAE
:100AC000109B134002339B00464A1344043300E05A
:100AD000474B08930A9B002B02D00A9BDBB201E034
:100AE0000C9BDBB28DF81F300A9B002B01D0404BD2
:100AF00000E0002306930A9B002B06D00C9BDAB281
:100B00000A9BDBB2D31ADBB200E000238DF817306A
:100B10009DF81F20169B0899179800F01AFC9DF865
:100B20001F30169A13441693069B002B16D09DF87F
:100B30001720169B0699179800F00BFC0EE0049AFC
:100B4000109B134002339B00264A1344043309933D
:100B5000169B0C9A0999179800F0FBFB0D9B033329
:100B60009A08049B1344049362E09DF8043003F058
:100B70000303DBB2012B5BD1BDF80430C3F3831355
:100B8000DBB2062B28BF0623DAB2BDF8043062F3CD
:100B90008913ADF80430BDF80430C3F38313DBB21E
:100BA00002330E939DF80430C3F3C203DBB20F93FC
:100BB0000E9B9B0019460D4800F090FA1790179B6A
:100BC000002B35D0179800F01AFB01A9169B0822BC
:100BD000179800F0BEFB169B08331693002315935D
:100BE0001DE000BF782A00209823002094310020C7
:100BF000842A0020049B5A1C0492109A134002334A
:100C00009B003F4A1344191D169B0422179800F0BD
:100C1000A0FB169B04331693159B01331593BDF867
:100C20000430C3F38313DBB21A46159B9342E1D31E
:100C3000179B002B40D0324BD3F810341493304B19
:100C4000D3F81834002B1BD0179800F0E7FA4DE0CA
:100C500000238DF84F301498FFF719FC0346002B42
:100C600002D001238DF84F309DF84F30002B03D078
:100C700017991498FFF7DCFB149BDB681B6814932F
:100C8000149B002BE4D1179800F0C8FA00238DF8CC
:100C900003300DF10303184600F008FA184BD3F89F
:100CA0001834002B02D1049B154A93609DF8033041
:100CB000184600F005FA19E0114BD3F810341293DE
:100CC00006E01298FFF7CEFB129BDB681B681293BD
:100CD000129B002BF5D10B4A0B4BD31ADB081B04DC
:100CE00043F0020309491846FFF7E0FDFFF72CFE29
:100CF000034683F00103DBB2184619B05DF804FB2C
:100D0000782A00207863030050630300B86603006C
:100D100000B583B00C4BD3F8103401930A4B012279
:100D20001A7009E00198FFF7A9FB0198FFF78EFB05
:100D3000019BDB681B680193019B002BF2D100BF74
:100D400000BF03B05DF804FB782A002000B585B031
:100D50000190019800F00EF80390039B002B01D046
:100D6000039B00E0024B184605B05DF804FB00BF92
:100D7000CC66030086B00190164B0593164B049386
:100D80001FE0049A059BD31ADB10DA0F13445B10A3
:100D9000DB00059A13440393039B1B680293029A9A
:100DA000019B9A4202D9039B04930AE0029A019B99
:100DB0009A4203D2039B0833059302E0039B5B68CE
:100DC00004E0059A049B9A42DBD30023184606B040
:100DD000704700BFCC6A0300F46B030086B0039039
:100DE0000291019201238DF817309DF81730204AA7
:100DF000039B13601E4A029B53601D4A019B936034
:100E0000039B44F20102934212D0039B44F202027C
:100E1000934220D1019B164AD360154BDB681B68B7
:100E2000134A9361124BDB685B68114AD36112E08D
:100E3000019B0F4A13610E4B1B699B680C4A53615F
:100E40000B4B1B691B680A4A9361094B1B695B6862
:100E5000074AD36100BF72B600BF00BF9DF81730CC
:100E6000DBB2002BFAD162B600BF00BF06B07047FC
:100E7000982E002010B487B001900091019B009A39
:100E800053E8004F104643E8000191F0000FF7D1FE
:100E9000059404900391059B184607B05DF8044B38
:100EA000704710B487B001900091019B009A53E8FD
:100EB000004F44EA020043E8000191F0000FF6D130
:100EC000059404900391049B184607B05DF8044B09
:100ED000704710B487B001900091019B009A53E8CD
:100EE000004F04EA020043E8000191F0000FF6D140
:100EF000059404900391059B184607B05DF8044BD8
:100F0000704710B487B001900091019B009A53E89C
:100F1000004F04EA020043E8000191F0000FF6D10F
:100F2000059404900391049B184607B05DF8044BA8
:100F3000704710B487B001900091019B009A53E86C
:100F4000004F04EB020043E8000191F0000FF6D1DE
:100F5000059404900391049B184607B05DF8044B78
:100F6000704710B487B001900091019B009A53E83C
:100F7000004FA4EB020043E8000191F0000FF6D10E
:100F8000059404900391049B184607B05DF8044B48
:100F9000704700B583B0019001210198FFF781FFF0
:100FA0000346184603B05DF804FB00B583B001901A
:100FB00000210198FFF78DFF0346184603B05DF846
:100FC00004FB82B0EFF310830093009B019372B691
:100FD00000BF019B184602B0704762B600BF00BF59
:100FE0007047000000B585B00190FFF7EAFF03905D
:100FF000164B9B68002B1BD1144B01229A60144B9B
:10100000D3F88020134B1340104A1360104B114A41
:10101000C3F880200E4BD3F884300C4A53600C4B3D
:101020004FF0FF32C3F88420019B00221A7002E0C7
:10103000019B01221A70039B002B01D1FFF7CDFF0A
:101040000023184605B05DF804FB00BFB82E002051
:1010500000E100E0FC06FFBD00B585B003468DF859
:101060000730104B9B68002B16D09DF80730002BE3
:1010700012D1FFF7A6FF03900B4A0A4B1B681360BF
:10108000094A084B5B685360064B00229A60039B39
:10109000002B01D1FFF7A1FF0023184605B05DF832
:1010A00004FB00BFB82E002000E100E000B583B0D3
:1010B00001900198FFF796FF00BF03B05DF804FBB5
:1010C00000B583B003468DF807309DF80730184609
:1010D000FFF7C2FF00BF03B05DF804FB00B58BB0A3
:1010E00001900091019B1B8A043B0793009A079B88
:1010F0001344DA1C079BB2FBF3F38DF81B30019805
:1011000000F05BF90590059B002B01D1002338E02E
:10111000059B00221A71059B01225A71079B9AB206
:10112000059BDA80059B09939DF81B30013B0493D6
:10113000099B019A1A60002308931DE0019800F0B2
:101140003CF90390039B002B0ED0059B5B79013388
:10115000DAB2059B5A71099B039A1A60039B019AA4
:101160001A60039B099304E0059800F00EF8002331
:1011700007E0089B01330893089A049B9A42DDD349
:10118000059B18460BB05DF804FB00B58BB00190D1
:10119000019B0793079B5B798DF81B30019B08939C
:1011A0009DF81B30013B05930023099305E0089B44
:1011B0001B680893099B01330993099A059B9A427E
:1011C000F5D3089B1B680493019B089300230993A4
:1011D0000BE0089B1B6803930899049800F02BF917
:1011E000039B0893099B013309939DF81B30099ACF
:1011F0009A42EED300BF00BF0BB05DF804FB00B510
:1012000085B00190019B0393039B04330121184691
:10121000FFF78FFE00BF05B05DF804FB00B587B097
:101220000190019B0593059B043301211846FFF7AC
:1012300098FE0346039303AB0493049B1B78002B97
:1012400002D10198FFF7A1FF00BF07B05DF804FBD2
:1012500000B591B00390029101920093039B099312
:10126000039B0F93099BDB881A46099B5B7902FB62
:1012700003F3043B0893099BDB880793009B1A1D2B
:10128000079BB2FBF3F30E93009B0433079AB3FB67
:10129000F2F2079901FB02F29B1A0D93019B1A6867
:1012A000009B1344089A9A4203D2089A009BD31ACF
:1012B00001E0019B1B680C93019B0C9A1A6005E0EE
:1012C0000F9B1B680F930E9B013B0E930E9B002BF5
:1012D000F6D100230B93079A0D9BD31A0A930A9A0F
:1012E0000C9B934228BF13460A932AE0029A0B9B59
:1012F000134406930F9A0D9B1344043305939DF8F2
:101300004830002B05D00A9A0599069805F033FE5F
:1013100004E00A9A0699059805F02DFE00230D9326
:101320000F9B1B680F930C9A0A9BD31A0C930B9A72
:101330000A9B13440B93079A0C9B934228BF1346B6
:101340000A930C9B002BD1D100BF00BF11B05DF8F8
:1013500004FB00B589B00590049103920293039BAE
:10136000079307AA00230093029B04990598FFF7AF
:101370006FFF00BF09B05DF804FB82B001900B461F
:101380008DF80330019BDA689DF803300199098AD2
:1013900001FB03F31344184602B0704782B001907A
:1013A0000091009B019AD2689B1A019A128AB3FBA2
:1013B000F2F3DBB2184602B0704700B585B0019079
:1013C0000023039300238DF80A300DF10A03184619
:1013D000FFF76CFE019B1B681A68019B5B689A42D1
:1013E0001FD9019B1B681A68013A1A601B681B7899
:1013F00019460198FFF7C1FF0390019B9A68019B72
:101400001B681B68D31A8DF80B30019B1B681B7976
:101410009DF80B209A4204D9019B1B689DF80B2074
:101420001A719DF80A301846FFF74AFE039B1846CA
:1014300005B05DF804FB10B584B001900091009BED
:10144000039300238DF80B300DF10B031846FFF7C3
:101450002DFE019B1B681C68621C1A600399019891
:10146000FFF79CFF034623709DF80B301846FFF7EB
:1014700027FE00BF04B010BDBFF34F8F00BF064B67
:10148000DB6803F4E0620449044B1343CB60BFF311
:101490004F8F00BF00BFFDE700ED00E00400FA053C
:1014A00082B0114B1B680193104B1B680093019B8A
:1014B0000D2B14D1009B022B0DD0009B022B0CD8BE
:1014C000009B002B03D0009B012B02D005E00123E1
:1014D00006E0012304E0012302E0012300E00023F1
:1014E000184602B0704700BF3001001034010010F0
:1014F00082B0114B1B680193104B1B680093019B3A
:101500000D2B14D1009B022B0DD0009B022B0CD86D
:10151000009B002B03D0009B012B02D005E0012390
:1015200006E0012304E0012302E0012300E00023A0
:10153000184602B0704700BF30010010340100109F
:1015400082B0114B1B680193104B1B680093019BE9
:101550000D2B14D1009B022B0DD0009B022B0CD81D
:10156000009B002B03D0009B012B02D005E0012340
:1015700006E0012304E0012302E0012300E0002350
:10158000184602B0704700BF30010010340100104F
:1015900082B0114B1B680193104B1B680093019B99
:1015A0000D2B14D1009B022B0DD0009B022B0CD8CD
:1015B000009B002B03D0009B012B02D005E00023F1
:1015C00006E0002304E0012302E0012300E0002301
:1015D000184602B0704700BF3001001034010010FF
:1015E00008B5FFF7D5FF0346002B07D04FF01023B7
:1015F0004FF08042D3F80832C2F8583500BF08BD1A
:1016000000BF044BD3F80034002BFAD000BF00BF5A
:10161000704700BF00E0014000B583B00190054A6B
:10162000019BC2F80435FFF7EBFF00BF03B05DF884
:1016300004FB00BF00E00140024B034A1A6000BFF8
:10164000704700BF9C2300200090D00308B5FFF72F
:1016500027FF0346002B0ED04FF080430022C3F833
:101660000C214FF080430022C3F810214FF080433B
:101670000022C3F83825FFF73BFF0346002B76D046
:101680004FF080535E4AD3F80434C2F820354FF04F
:1016900080535B4AD3F80834C2F824354FF08053A6
:1016A000574AD3F80C34C2F828354FF08053544AC7
:1016B000D3F81034C2F82C354FF08053504AD3F889
:1016C0001434C2F830354FF080534D4AD3F81834F3
:1016D000C2F834354FF08053494AD3F81C34C2F86D
:1016E00040354FF08053464AD3F82034C2F8443591
:1016F0004FF08053424AD3F82434C2F848354FF0B3
:1017000080533F4AD3F82834C2F84C354FF0805309
:101710003B4AD3F82C34C2F850354FF08053384A46
:10172000D3F83034C2F854354FF08053344AD3F8EC
:101730003434C2F860354FF08053314AD3F838342E
:10174000C2F864354FF080532D4AD3F83C34C2F8C8
:1017500068354FF080532A4AD3F84034C2F86C35CC
:101760004FF08053264AD3F84434C2F87035FFF75F
:10177000E7FE0346002B0DD04FF08043D3F8003432
:1017800003F00103002B05D04FF080436FF00102FE
:10179000C3F800241B4BD3F888301A4A43F4700373
:1017A000C2F88830BFF34F8F00BFBFF36F8F00BF09
:1017B000FFF716FF4FF01023D3F80032002B05DBA4
:1017C0004FF01023D3F80432002B15DA0120FFF775
:1017D00023FF4FF010231222C3F80022FFF710FF5F
:1017E0004FF010231222C3F80422FFF709FF002054
:1017F000FFF712FFFFF740FEFFF71EFF00BF08BD17
:1018000000C0004000ED00E082B00190019B1B6829
:101810001F2B02D84FF0A04306E0019B1B6803F08A
:101820001F02019B1A60024B184602B0704700BFAE
:101830000003005000B585B00190084611461A46D5
:1018400003468DF803300B468DF8023013468DF8B1
:10185000013001AB1846FFF7D7FF03909DF8032036
:101860009DF802305B001A439DF801309B001A433B
:101870009DF818301B0242EA03019DF81C301B043E
:10188000019A1943039B02F5E07243F8221000BF4E
:1018900005B05DF804FB00B585B00390002301930B
:1018A000002300930023012201210398FFF7C2FFC8
:1018B00000BF05B05DF804FB00B585B003900B4692
:1018C0008DF80B309DF80B3000220192002200921F
:1018D000002200210398FFF7ADFF00BF05B05DF8BF
:1018E00004FB00B585B0019001AB1846FFF78CFFF3
:1018F0000390019B012202FA03F31946039800F0BA
:101900002AF800BF05B05DF804FB00B585B0019072
:1019100001AB1846FFF778FF0390019B012202FA02
:1019200003F31946039800F020F800BF05B05DF8F6
:1019300004FB00B583B001900091009B002B03D104
:101940000198FFF7E2FF02E00198FFF7CAFF00BF2E
:1019500003B05DF804FB82B001900091019B009AF6
:10196000C3F8082500BF02B0704782B00190009113
:10197000019B009AC3F80C2500BF02B0704700001D
:1019800000B583B00190064A019B13441B780121E6
:101990001846FFF7CEFF00BF03B05DF804FB00BFA1
:1019A000F46B030000B583B00023019305E00198B8
:1019B000FFF7E6FF019B01330193019B032BF6D94F
:1019C00000BF00BF03B05DF804FB000000B583B0AA
:1019D0000023019309E0094A019B13441B78184630
:1019E000FFF759FF019B01330193019B032BF2D9B0
:1019F000FFF7D8FF00BF03B05DF804FBF46B0300F2
:101A000000B583B00023019307E0022303211846A9
:101A1000FFF752FF019B01330193019B002BF4D090
:101A200000BF00BF03B05DF804FB00B583B00190B8
:101A3000019B03F00103002B01D0FFF7C7FF019BBF
:101A400003F00203002B01D0FFF7DAFF00BF03B061
:101A50005DF804FB08B5024B1B68984700BF08BD42
:101A6000C42E002082B00190019B044A934201D110
:101A7000034B00E00023184602B0704700200040EE
:101A8000C42E002000B587B0019000910198FFF7A7
:101A9000E9FF0490049B002B25D000238DF817301C
:101AA00000238DF80B300DF10B031846FFF7FEFAFB
:101AB000049B1B79002B03D001238DF8173005E020
:101AC000049B009A1A60049B01221A719DF80B3046
:101AD0001846FFF7F5FA9DF81730002B03D01123B5
:101AE0000393039B02E000230393039B184607B074
:101AF0005DF804FB84B001900B46ADF80230BDF8F0
:101B00000230019A134400221A60BDF80230019A93
:101B100013441B680393039B00BF04B0704782B05B
:101B200001900B46ADF80230BDF80230019A134423
:101B30001B68002B14BF01230023DBB2184602B040
:101B40007047000082B00190019B1B681F2B02D8D8
:101B50004FF0A04306E0019B1B6803F01F02019BAE
:101B60001A60024B184602B0704700BF00030050D5
:101B700000B585B0019001AB1846FFF7E3FF039075
:101B8000019B012202FA03F31946039800F018F8AA
:101B900000BF05B05DF804FB00B585B0019001AB56
:101BA0001846FFF7CFFF0390019B012202FA03F3CF
:101BB0001946039800F00EF800BF05B05DF804FB6D
:101BC00082B001900091019B009AC3F8082500BFE4
:101BD00002B0704782B001900091019B009AC3F857
:101BE0000C2500BF02B07047024A034B1B6813600C
:101BF00000BF7047000E0040382F002000B583B0B2
:101C00000190019BDB7FFF2B0ED0019B9B7F002B64
:101C100005D0019BDB7F1846FFF7BEFF04E0019B68
:101C2000DB7F1846FFF7A4FF019B00225A77019B38
:101C300000221A72019B1B68019A02F10800019AA6
:101C400052681146984700BF03B05DF804FB0000DE
:101C500000B583B0019000914FF48C710198FFF7AB
:101C60005EFF0346002B0DD0019B084A934201D131
:101C7000FFF7BAFF4FF48C710198FFF73BFF009814
:101C8000FFF7BCFF00BF03B05DF804FB00F00240AB
:101C900008B503490348FFF7DBFF00BF08BD00BFDD
:101CA000CC2E00200030004008B503490348FFF760
:101CB000CFFF00BF08BD00BFF02E00200030024063
:101CC00008B503490348FFF7C3FF00BF08BD00BFC5
:101CD000142F002000F0024082B003468DF8073038
:101CE0009DF90730002B0CDB9DF8073003F01F0235
:101CF00005499DF907305B09012000FA02F241F81D
:101D0000232000BF02B0704700E100E082B003462C
:101D10008DF807309DF90730002B0DDB9DF807305B
:101D200003F01F0206499DF907305B09012000FA04
:101D300002F2603341F8232000BF02B0704700BFB9
:101D400000E100E082B0034600918DF807309DF974
:101D50000730002B0ADB009BDAB20C499DF90730F3
:101D60005201D2B20B4483F800230BE0009BDAB29D
:101D700007499DF8073003F00F03043B5201D2B22C
:101D80000B441A7600BF02B0704700BF00E100E0CC
:101D900000ED00E082B00190019B03F06043B3F1DD
:101DA000005F0CBF01230023DBB2184602B070476E
:101DB00082B00190019B1B0B5BB2184602B07047CA
:101DC00000B583B003460A468DF8073013468DF8F8
:101DD00006309DF806209DF9073011461846FFF79A
:101DE000B1FF00BF03B05DF804FB00B583B003464C
:101DF0008DF807309DF907301846FFF76DFF00BFDB
:101E000003B05DF804FB00B583B003468DF80730DE
:101E10009DF907301846FFF779FF00BF03B05DF862
:101E200004FB82B001900B468DF803309DF803301F
:101E3000019A134401221A6000BF02B0704784B0B7
:101E400001900B46ADF80230BDF80230019A134400
:101E500000221A60BDF80230019A13441B680393F4
:101E6000039B00BF04B0704782B001900B46ADF8F1
:101E70000230BDF80230019A13441B68002B14BFD6
:101E800001230023DBB2184602B0704782B00190F4
:101E90000091019B009AC3F8042300BF02B0704771
:101EA00082B001900091019B009AC3F8082300BF03
:101EB00002B0704782B00190019B0622C3F8002552
:101EC00000BF02B0704782B00190019B0022C3F8AE
:101ED000002500BF02B0704784B0039002910192C8
:101EE000039B029AC3F80825039B019AC3F80C25AB
:101EF00000BF04B0704782B001900091019B009A2E
:101F0000C3F8242500BF02B0704784B00190019B44
:101F1000D3F8C4340393019B039AC3F8C424039BEE
:101F2000184604B0704782B001900B468DF803301C
:101F30009DF80320019BC3F8882500BF02B07047BD
:101F400084B0039002910192029A039BC3F8442546
:101F5000039B019AC3F8482500BF04B0704784B0C2
:101F6000039002910192029A039BC3F83425039BCC
:101F7000019AC3F8382500BF04B0704782B00190C1
:101F80000091019B009AC3F8002200BF02B0704785
:101F900082B00190019BD3F84C35184602B07047CF
:101FA00082B00190019BD3F80032184602B070470E
:101FB00082B00190019BD3F83C35184602B07047BF
:101FC00082B00190019B0122C3F8502500BF02B0EE
:101FD000704782B00190019B0022C3F8502500BFDA
:101FE00002B0704782B00190019B0122C3F84025E6
:101FF00000BF02B0704782B00190019B0022C3F87D
:10200000402500BF02B0704782B00190019B1B6861
:102010001F2B02D84FF0A04306E0019B1B6803F082
:102020001F02019B1A60024B184602B0704700BFA6
:102030000003005000B585B00190084611461A46CD
:1020400003468DF803300B468DF8023013468DF8A9
:10205000013001AB1846FFF7D7FF03909DF803202E
:102060009DF802305B001A439DF801309B001A4333
:102070009DF818301B0242EA03019DF81C301B0436
:10208000019A1943039B02F5E07243F8221000BF46
:1020900005B05DF804FB84B0019003230393019B1A
:1020A00003F00103002B02D04FF402430393019B82
:1020B00003F00203002B02D048F201230393019B9B
:1020C00003F00403002B02D048F202230393039B86
:1020D000184604B07047000000B585B0019000912B
:1020E00001238DF80F30009B1B7B032B56D801A2D8
:1020F00052F823F06D2102008521020045210200E3
:1021000005210200009B9B6803F48023002B07D06D
:102110000198FFF73DFF0246009B1B699A420DD1D3
:10212000009B9B6803F48023002B39D10198FFF7B3
:102130002FFF0246009B5B699A4231D000238DF845
:102140000F302DE00198FFF723FF0246009B1B692B
:102150009A4207D10198FFF72BFF0246009B5B696B
:102160009A421FD000238DF80F301BE00198FFF733
:102170000FFF0246009B1B699A4215D000238DF881
:102180000F3011E00198FFF713FF0246009B1B6917
:102190009A420BD000238DF80F3007E000BF06E015
:1021A00000BF04E000BF02E000BF00E000BF9DF8F8
:1021B0000F3083F00103DBB2002B05D00198FFF74D
:1021C00082FE0198FFF776FE9DF80F30184605B0A5
:1021D0005DF804FB00B58BB0059004910392029367
:1021E000059B1B791A46342302FB03F3404A134430
:1021F0000793079B93F82D30002B03D008230993F6
:10220000099B70E0059B1A68059B1B791946394BA1
:1022100053F8213019461046FFF734FC0346002BD3
:1022200003D011230993099B5DE0079B039A1A6071
:10223000079B029A5A60079B00229A60079B002224
:1022400083F83020079B002283F82F20049B5A7BC1
:10225000079B83F83220049B186800230193062310
:102260000093032300220021FFF7E4FE049B58683B
:102270000023019306230093032300220021FFF78C
:10228000D9FE059B1B680893049B1968049B5B6837
:102290001A460898FFF720FE049B9B681946089889
:1022A000FFF729FE079B1B68002B15D0059B1B68B9
:1022B0001846FFF77DFD03461A46049B1B7B194613
:1022C0001046FFF77DFD059B1B681846FFF770FD64
:1022D00003461846FFF789FD079B012283F82D204E
:1022E00000230993099B18460BB05DF804FB00BF5F
:1022F0003C2F00200C6C030000B585B00190019BC1
:102300001B791A46342302FB03F3084A1344039350
:10231000019B1B681846FFF7CDFD039B022283F843
:102320002D2000BF05B05DF804FB00BF3C2F00204E
:1023300000B583B001900091009B03F00103002BD6
:1023400003D00198FFF73CFE02E00198FFF741FE41
:10235000009B03F00203002B03D00198FFF742FE1D
:1023600002E00198FFF747FE00BF03B05DF804FBF1
:1023700030B589B003900291019200930023079336
:1023800008238DF81B30039B002283F82E20019B2D
:10239000DB681846FFF7FEFC034683F00103DBB25F
:1023A000002B03D010230793079BDDE1A949029876
:1023B000FFF776FD039B93F82F30DBB2002B09D09B
:1023C000039B9B6819460298FFF760FD1123079352
:1023D000079BC9E1009B03F00403002B06D1009B7F
:1023E00003F01003002B01D1012300E0002303F0D0
:1023F0000103DAB2039B83F82F20039B019A03F1B8
:102400000C0415460FCD0FC42B682360009B1B09DD
:1024100003F00103002B14BF01230023DAB2039B56
:1024200083F83020039B009A1A62019B5B7819465F
:102430000298FFF778FD4FF482710298FFF7FFFCD6
:102440004FF492710298FFF7FAFC4FF4B0710298C2
:10245000FFF7F5FC4FF4A4710298FFF7F0FC009928
:102460000298FFF765FF019B1B78032B00F2BB80EE
:1024700001A252F823F000BF6F250200B725020029
:102480001725020089240200019B1B691846FFF7EB
:1024900081FC034683F00103DBB2002B03D0102341
:1024A0000793079B60E14FF480710298FFF766FD88
:1024B000019BD968019B5B681A460298FFF740FDB3
:1024C0004FF4A8710298FFF7BAFC20210298FFF799
:1024D000A8FC08210298FFF7A4FC00BF4FF4A871E4
:1024E0000298FFF7C1FC034683F00103DBB2002B27
:1024F000F4D14FF4A8710298FFF7A1FC019B196970
:10250000019B9B681A460298FFF71AFD039B4FF444
:1025100080229A606AE0019BD968019B5B681A4639
:102520000298FFF70DFD019B1B691846FFF732FC6F
:10253000034683F00103DBB2002B03D01023079383
:10254000079B11E1019B1969019B9B681A46029840
:10255000FFF705FD4FF484510298FFF70FFD039B31
:1025600002229A6020210298FFF75BFC3EE0019B6B
:10257000D968019B5B681A460298FFF7E1FC009B53
:1025800003F02003002B09D04FF480710298FFF76D
:10259000F5FC039B4FF480229A6007E04FF4007132
:1025A0000298FFF7EBFC039B02229A60202102981D
:1025B000FFF737FC1AE0019BD968019B5B681A465C
:1025C0000298FFF7CCFC4FF480510298FFF7D6FC3D
:1025D000039B02229A6000238DF81B302021029871
:1025E000FFF71FFC02E00723079300BF009B03F0E7
:1025F0000803002B09D1019B1B78032B05D09DF804
:102600001B3019460298FFF70CFC039B1B68002B3C
:1026100022D0009B03F00403002B02D0039B002276
:102620009A60009B03F04003002B05D1039B9B683D
:1026300043F00202039B9A60039B9B6843F4007281
:10264000039B9A60039B9B6819460298FFF71EFC48
:1026500089E000BF02029C0100238DF81A304FF47C
:10266000A4710298FFF700FC0346002B02D001235F
:102670008DF81A304FF482710298FFF7F5FB03468C
:10268000002B07D04FF482710298FFF7D8FB01238B
:102690008DF81A304FF492710298FFF7E5FB03466C
:1026A000002B38D04FF492710298FFF7C8FB4FF41B
:1026B000B0710298FFF7D8FB03468DF819300298E5
:1026C000FFF76EFC05909DF8193083F00103DBB233
:1026D000002B04D1059B03F40073002B0AD12021A9
:1026E0000298FFF79EFB14210298FFF79AFB002344
:1026F0008DF81A309DF81930002B0CD0059B03F48F
:102700008073002B07D04FF4A4710298FFF797FB5A
:1027100000238DF81A309DF81A3083F00103DBB2E4
:10272000002B9CD10298FFF7F0FB0490039B002242
:1027300083F82F20049B002B04D00498FFF7ABFCF8
:10274000079010E0009B03F04003002B0BD103998E
:102750000298FFF7C1FC034683F00103DBB2002BB4
:1027600001D003230793079B184609B030BD00BF73
:1027700000B587B003900291019200230593039B5B
:102780001B791A46342302FB03F3084A13440493CB
:10279000039B1968019B029A0498FFF7E9FD0590D5
:1027A000059B184607B05DF804FB00BF3C2F0020D6
:1027B00000B58BB00390019200930B468DF80B305F
:1027C00000238DF814309DF80B308DF81530009BE8
:1027D000069300230793019B0893002309939DF818
:1027E0003030002B01D0202200E0002205AB19463A
:1027F0000398FFF7BDFF034618460BB05DF804FBD6
:1028000000B58BB00390019200930B468DF80B300E
:1028100001238DF814309DF80B308DF81530009B96
:10282000069300230793019B08930023099305ABAC
:10283000002219460398FFF79BFF034618460BB08A
:102840005DF804FB30B58BB0019000914FF49271AC
:102850000198FFF709FB0346002B3ED04FF492711D
:102860000198FFF7ECFA4FF482710198FFF7FCFA38
:10287000034683F00103DBB2002B2ED0009B9B6844
:1028800019460198FFF70CFB009B02229A60009BFF
:102890009B6819460198FFF7F9FA4FF4B071019857
:1028A000FFF7E2FA034683F00103DBB2002B07D106
:1028B0000198FFF775FB034603F40073002B07D163
:1028C00020210198FFF7ADFA14210198FFF7A9FA2A
:1028D000009B012283F82E20F6E04FF482710198CC
:1028E000FFF7C2FA0346002B5DD04FF482710198C6
:1028F000FFF7A5FA009B1B6A03F04003002B1AD1D7
:10290000009B93F82E3083F00103DBB2002B12D032
:1029100000990198FFF7E0FB0346002B14BF012349
:102920000023DBB283F00103DBB203F00103DAB270
:10293000009B83F82E20009B1B6A03F00403002BEE
:1029400079D1009B04AC03F10C050FCD0FC42B68AB
:1029500023604FF4B0710198FFF771FA4FF4AE7134
:102960000198FFF76CFA009B93F8303083F0010375
:10297000DBB2002B04D1009B93F82E30002B5AD0F1
:1029800000210198FFF7FAFA009B00229A604F4954
:102990000198FFF785FA0198FFF70AFA03461846EF
:1029A000FFF731FA47E04FF4A4710198FFF747FAB7
:1029B000009B1B7B002B22D1009B04AC03F10C0578
:1029C0000FCD0FC42B682360009B93F8303083F049
:1029D0000103DBB2002B2ED000210198FFF7CEFAC5
:1029E000009B00229A6039490198FFF759FA019833
:1029F000FFF7DEF903461846FFF705FA1BE04FF430
:102A000000710198FFF7BAFA009B40F202229A6027
:102A10002E490198FFF744FA009B9B6819460198DC
:102A2000FFF734FA08210198FFF7FBF920210198FC
:102A3000FFF7F7F948E00198FFF767FA0990099B5B
:102A400003F00203002B03D001238DF80C301DE0AE
:102A5000099B03F00403002B03D002238DF80C30F4
:102A600014E0099B03F00103002B03D003238DF82E
:102A70000C300BE0009B93F82E30002B03D0042386
:102A80008DF80C3002E000238DF80C30009B93F899
:102A9000303083F00103DBB2002B03D0009B002217
:102AA00083F82F20009B1B6A03F00403002B04D043
:102AB000009B93F82E30002B06D0009B1B68009AD9
:102AC000516803AA104698470BB030BD02029C0122
:102AD00008B503494FF04020FFF7B4FE00BF08BD22
:102AE0003C2F002082B003468DF807309DF9073057
:102AF000002B0CDB9DF8073003F01F0205499DF900
:102B000007305B09012000FA02F241F8232000BFE0
:102B100002B0704700E100E082B0034600918DF8FA
:102B200007309DF90730002B0ADB009BDAB20C4915
:102B30009DF907305201D2B20B4483F800230BE019
:102B4000009BDAB207499DF8073003F00F03043BFE
:102B50005201D2B20B441A7600BF02B0704700BFD8
:102B600000E100E000ED00E082B00190019B1B0B52
:102B70005BB2184602B0704700B583B003460A4600
:102B80008DF8073013468DF806309DF806209DF924
:102B9000073011461846FFF7BFFF00BF03B05DF8CE
:102BA00004FB00B583B003468DF807309DF907306C
:102BB0001846FFF797FF00BF03B05DF804FB00B5B0
:102BC00083B00346ADF80630BDF80630184600F075
:102BD00026F803461B68012B0CBF01230023DBB240
:102BE000184603B05DF804FB00B585B00346ADF8A8
:102BF0000630BDF80630184600F011F803461A46B4
:102C000000231360BDF80630184600F008F80346AC
:102C10001B680393039B00BF05B05DF804FB82B003
:102C20000346ADF80630BDF8063003F1804303F5E6
:102C3000C043184602B0704782B00190034A019B1E
:102C4000C2F8043300BF02B0704700BF006000400C
:102C500082B00190034A019BC2F8083300BF02B062
:102C6000704700BF0060004082B00190034BD3F872
:102C70000423019B1340184602B0704700600040D7
:102C800082B00190084A019B03F5A27352F82330E9
:102C9000054943F00102019B03F5A27341F823208B
:102CA00000BF02B0704700BF0060004082B00190DA
:102CB000084A019B03F5A27352F82330054923F01B
:102CC0000102019B03F5A27341F8232000BF02B06B
:102CD000704700BF0060004084B00390029113462B
:102CE0008DF80730144A039B03F5A27352F8233082
:102CF000114923F44F3323F44073039A02F5A2726F
:102D000041F822300C4A039B03F5A27352F82320AA
:102D1000029B1B0203F47C519DF807301B0403F453
:102D200040330B4304491A43039B03F5A27341F854
:102D3000232000BF04B070470060004082B00190C3
:102D4000054A019B03F5A27352F823301B0A03F0D6
:102D50003F03184602B070470060004082B0019007
:102D6000064A019B03F5A27352F823301B0C03F0B3
:102D70000303DBB2184602B0704700BF006000409A
:102D800084B00390029111461A460B468DF8073025
:102D900013468DF80630184A039B03F5A27352F8C8
:102DA0002330154923F4991323F4F853039A02F5B9
:102DB000A27241F82230104A039B03F5A27352F825
:102DC0002320029B1B0203F47C519DF807301B0457
:102DD00003F4403319439DF806301B0503F48013B8
:102DE0000B4305491A43039B03F5A27341F82320C3
:102DF00000BF04B0704700BF0060004082B0019087
:102E0000019B1B681F2B02D84FF0A04306E0019BDB
:102E10001B6803F01F02019B1A60024B184602B0A8
:102E2000704700BF0003005000B585B00190084610
:102E300011461A4603468DF803300B468DF80230D2
:102E400013468DF8013001AB1846FFF7D7FF03900A
:102E50009DF803209DF802305B001A439DF8013075
:102E60009B001A439DF818301B0242EA03019DF8AB
:102E70001C301B04019A1943039B02F5E07243F8CE
:102E8000221000BF05B05DF804FB00B585B00390CB
:102E900000230193002300930023012201210398C2
:102EA000FFF7C2FF00BF05B05DF804FB00B585B0B9
:102EB00003900B468DF80B309DF80B3000220192E9
:102EC00000220092002200210398FFF7ADFF00BF0F
:102ED00005B05DF804FB00B585B0019001AB184664
:102EE000FFF78CFF0390019A039B02F5E07253F801
:102EF000223023F002030293019A039B02F5E07251
:102F0000029943F8221000BF05B05DF804FB00B53C
:102F100085B001900B468DF8033001AB1846FFF7E2
:102F20006DFF0390019A039B02F5E07253F8223083
:102F3000019A23F44031039B02F5E07243F822101A
:102F4000019A039B02F5E07253F822309DF80320AA
:102F500012041146019A1943039B02F5E07243F8EB
:102F6000221000BF05B05DF804FB00B585B00190EC
:102F700001AB1846FFF742FF0390019B012202FAC2
:102F800003F31946039800F04BF800BF05B05DF855
:102F900004FB00B585B0019001AB1846FFF72EFF8A
:102FA0000390019B012202FA03F31946039800F0F3
:102FB00041F800BF05B05DF804FB00B585B0019095
:102FC00001AB1846FFF71AFF0390039800F020F8B2
:102FD0000246019B22FA03F303F00103184605B0F1
:102FE0005DF804FB00B585B0019001AB1846FFF712
:102FF00005FF0390019A039B02F5E07253F822301B
:103000001B0C03F00303DBB2184605B05DF804FBAC
:1030100082B00190019BD3F81035184602B070477A
:1030200082B001900091019B009AC3F8082500BF6F
:1030300002B0704782B001900091019B009AC3F8E2
:103040000C2500BF02B0704788B003900291019236
:10305000164A05AB92E8030083E80300039B07933D
:1030600019E0079B9B0008AA134453F80C3CD3F8C3
:103070002025019B1A60079B9B0008AA134453F864
:103080000C3C019A1268C3F82025019B043301937C
:10309000079B01330793039A029B1344079A9A42B2
:1030A000DFD300BF00BF08B0704700BF106C030043
:1030B00000B585B0019001AB1846FFF79FFE039065
:1030C000019B012202FA03F31A46039BC3F8202551
:1030D00000BF05B05DF804FB84B00190019B5B0963
:1030E000029300230393029B002B03D0029B012B2E
:1030F00004D007E04FF0FF33039303E040F2FF33C7
:10310000039300BF019B03F01F030193039A019BEC
:1031100022FA03F303F00103002B14BF0123002361
:10312000DBB2184604B0704784B001900091009B58
:103130000393019BDB080293019B03F007030193B8
:103140000122019B02FA03F30399029A0A441278BE
:103150001340184604B0704784B001900091009B62
:103160000393019BDB080293019B03F00703019388
:10317000039A029B13441B785AB20121019B01FA66
:1031800003F35BB2134359B2039A029B1344CAB2CE
:103190001A7000BF04B0704782B00190074A019BCB
:1031A0001344243393F90030B3F1FF3F14BF0123DC
:1031B0000023DBB2184602B0704700BF702F00201A
:1031C00082B001900C4A019B1344243393F90030E0
:1031D000002B09DB084A019B1344243393F9003088
:1031E000072B01DC012300E0002303F00103DBB225
:1031F000184602B0704700BF702F002082B00190C7
:10320000064A019B1344243393F90030072BCCBFAB
:1032100001230023DBB2184602B07047702F002054
:1032200082B00190064A019B1344243393F9003085
:10323000DB43DBB2DB09DBB2184602B0704700BFEC
:10324000702F002084B00390029101928DF803301A
:10325000029B59B20E4A039B134424330A461A7048
:103260000B49029B019A41F823209DF8033083F01B
:103270000103DBB2002B08D0029B083B039A51B23A
:10328000034A13440A4683F84E2000BF04B0704737
:10329000702F002082B00190044A019B1344243314
:1032A000FE221A7000BF02B0704700BF702F0020CE
:1032B00082B00190044A019B13442433FF221A7008
:1032C00000BF02B0704700BF702F002000B583B070
:1032D000019004490198FFF73FFF00BF03B05DF87C
:1032E00004FB00BFBF2F002082B00190044A019B65
:1032F0001344243393F90030184602B0704700BFDE
:10330000702F002082B00190034A019B52F82330B5
:10331000184602B0704700BF702F002084B00190A3
:10332000074A019B13444E3393F900308DF80F3058
:103330009DF80F3023F0C003184604B0704700BF5B
:10334000702F002084B00190074A019B13444E3334
:1033500093F900308DF80F309DF80F309B09DBB2E8
:10336000184604B0704700BF702F002000B589B028
:103370000390029113468DF80730FF238DF81F301C
:103380009DF80730002B01D0002300E008230593AF
:103390009DF80730002B01D0082300E00923049397
:1033A000059B069314E00F4A069B52F82330B3F1B5
:1033B000FF3F0AD19DF80730029A06990398FFF75C
:1033C00041FF069B8DF81F3006E0069B01330693F4
:1033D000069A049B9A42E6D39DF91F30184609B01D
:1033E0005DF804FB702F002082B003468DF8073093
:1033F0009DF80730094A4FF0FF3142F823109DF83D
:103400000730072B07D99DF80730083B034A1344C0
:10341000FF2283F84E2000BF02B07047702F0020BB
:1034200000B583B02D4B93F85530002B03D0082303
:103430000093009B4EE000238DF8073011E09DF8CB
:1034400007301846FFF748FE0346002B04D09DF8CE
:1034500007301846FFF72CFF9DF8073001338DF831
:1034600007309DF80730292BE9D900238DF8073064
:1034700009E09DF807301846FFF7B6FF9DF80730C2
:1034800001338DF807309DF80730082BF1D906225B
:103490000021134803F098FD1248FFF765FB03462F
:1034A00007211846FFF768FB0E48FFF75DFB034650
:1034B0001846FFF776FB4FF4BE70FFF795FB4FF011
:1034C0000040FFF7B9FB054B012283F8552000238C
:1034D0000093009B184603B05DF804FB702F00209A
:1034E000BF2F00200060004000B585B00190009122
:1034F000002303930198FFF74FFE0346002B02D0F1
:103500000823039334E0009B9B78002B19D0012201
:1035100000210198FFF72AFF03468DF80B309DF933
:103520000B30B3F1FF3F09D09DF90B00009B1A78D7
:10353000009B5B780199FFF723FC05E004230393CC
:1035400002E00198FFF7A6FE039B002B10D1009B21
:103550005B78012B03D10198FFF707FD02E001988A
:10356000FFF717FD0198FFF790FC0198FFF7AEFEFB
:10357000039B184605B05DF804FB000000B587B05A
:10358000039002910192002305930398FFF748FEF0
:103590000346002B02D00823059357E0029B9B783B
:1035A000C3F34003DBB21A4601990398FFF7DEFE2E
:1035B00003468DF813309DF91330B3F1FF3F43D02C
:1035C000029B9B78C3F38003DBB283F00103DBB281
:1035D000002B13D0029B9B7803F00103DBB2002B7E
:1035E00003D00398FFF777FC05E0029B5B78194650
:1035F0000398FFF75BFC0398FFF768FE029B9B783C
:1036000003F00203DBB2002B08D09DF91300029BEC
:103610001B781A460399FFF75FFB17E09DF91330FB
:10362000083B0D4A134493F94E10029B1B789B01F3
:103630005AB29DF91330083B0A4351B2064A13446B
:103640000A4683F84E2001E004230593059B1846A3
:1036500007B05DF804FB00BF702F002000B589B0F3
:1036600001900B468DF803300198FFF7C7FD034624
:10367000002B2AD00198FFF737FE0346083B184677
:10368000FFF760FE03468DF80F309DF80F30032BD7
:103690000BD10198FFF791FC0346002B01D00323C7
:1036A00000E002238DF81F3008E09DF80F30012B59
:1036B00001D1022300E003238DF81F309DF81F3055
:1036C00019460198FFF723FC30E00198FFF778FDD9
:1036D0000346002B2AD00198FFF706FE0346069307
:1036E000069B9BB240339BB29B00ADF81630069B05
:1036F0001846FFF7C5FABDF816301846FFF774FAFA
:103700009DF80330002B11D00198FFF7EDFD034623
:103710001846FFF7F7FD0490049B002B06D001220A
:10372000069B02FA03F31846FFF786FA00BF09B0BA
:103730005DF804FB00B585B001900198FFF75EFDD0
:103740000346002B04D000210198FFF7E0FB15E0B1
:103750000198FFF735FD0346002B0FD00198FFF7C6
:10376000C3FD03460393039B1846FFF79FFA01220C
:10377000039B02FA03F31846FFF76AFA00BF05B08D
:103780005DF804FB00B583B001900198FFF715FCCC
:103790000346002B14BF01230023DBB2184603B0FD
:1037A0005DF804FB00B585B00190019A022100206C
:1037B000FFF74AFC002303930BE0039B9B00019A55
:1037C00013441B68002B01D0012306E0039B013347
:1037D0000393039B012BF0D90023184605B05DF835
:1037E00004FB000000B587B00190002305935BE067
:1037F000344A059B13444E3393F90030B3F1FF3F35
:103800004ED00598FFF78AFD049001990498FFF7C0
:103810008BFC0346002B44D00598FFF793FD03462D
:103820008DF80F300498FFF7DDFB03468DF80E305E
:103830009DF80E30022B01D1032300E002238DF806
:103840000D309DF80D3019460498FFF760FB049881
:10385000FFF72EFC0498FFF747FD03461846FFF7D5
:1038600051FD0290029B002B1BD09DF80F30032BC3
:103870000FD09DF80E30022B03D19DF80F30012B95
:1038800007D09DF80E30032B0BD19DF80F30022B83
:1038900007D19DF80F20029B11460498984700E03D
:1038A00000BF059B01330593059B002BA0D0019819
:1038B000FFF778FF0346002B97D100BF00BF07B08A
:1038C0005DF804FB702F002000B58BB00023089337
:1038D00001AB00221A605A604FF48073ADF81A30C1
:1038E000012309930023079321E0BDF81A301846FD
:1038F000FFF765F90346002B0ED00998FFF7B4F9DE
:103900000346002B08D0BDF81A301846FFF76CF9B3
:10391000089A099B13430893099B5B000993BDF820
:103920001A300433ADF81A30079B01330793079B15
:10393000072BDAD94FF4BE70FFF741F90346002B8D
:103940000DD04FF4BE70FFF74FF9089B43F00043D2
:10395000089301AB1A4602210020FFF775FB089B74
:10396000DBB2002B29D0012309930023079321E028
:10397000099A089B1340002B16D00798FFF7DEF931
:1039800005900798FFF7EAF903468DF8133007987A
:10399000FFF7B8FC0390039B002B05D09DF8132084
:1039A000039B114605989847099B5B000993079B69
:1039B00001330793079B072BDAD9089B002B03DA07
:1039C00001AB1846FFF70EFF00BF0BB05DF804FB1C
:1039D00082B003468DF807309DF90730002B13DBCA
:1039E0009DF8073003F01F0209499DF907305B0974
:1039F000012000FA02F2203341F82320BFF34F8F59
:103A000000BFBFF36F8F00BF00BF02B0704700BFA1
:103A100000E100E0044BD3F80034002B14BF012375
:103A20000023DBB2184670470000014008B5FFF7DD
:103A3000F1FF034683F00103DBB2002B04D000F05A
:103A400033FA024B00229A7000BF08BDC82F002035
:103A500000B583B000230193184B1B78002B02D0D4
:103A6000852301931CE0154B00229A60134B002222
:103A70005A60124B00221A61104B0022DA60104883
:103A800000F0ECF9019000F0BBFB034683F001036A
:103A9000DBB2002B01D000F0F9F9084B01221A70BB
:103AA000FFF7B8FF0346002B02D0044B01229A70A7
:103AB000019B184603B05DF804FB00BFC82F00202F
:103AC000713B020084B00190019B1B680393039B30
:103AD000002B03D0039B1A68019B1A60039B1846B6
:103AE00004B0704700B583B000238DF807300DF1A6
:103AF00007031846FDF7DAFA094BDB68013B084A71
:103B0000D360074BDB68002B01D1FFF78FFF9DF8D7
:103B100007301846FDF7D4FA00BF03B05DF804FB88
:103B2000C82F002000B585B003468DF807309DF8FA
:103B30000730002B02D10C4B039301E00B4B039396
:103B40000398FFF7BFFF0290029B002B06D0029B59
:103B50005B689DF8072010469847F1E700BF00BF5B
:103B600005B05DF804FB00BFD02F0020D82F002047
:103B700000B583B003468DF807309DF80730002B61
:103B800005D10A4B01225A700020FFF7CBFF9DF8A8
:103B90000730012B05D1054B01229A700120FFF758
:103BA000C1FF00BF03B05DF804FB00BFC82F0020B9
:103BB00000B583B001900091019B002B05D1054B0E
:103BC00001225A700020FFF7ADFF00BF03B05DF87F
:103BD00004FB00BFC82F002000B585B0034600914C
:103BE0008DF807309DF80730032B29D0032B2CDCF0
:103BF000002B02D0012B04D027E00020FFF7E8FEC5
:103C000024E000238DF80F300DF10F031846FDF767
:103C10004DFA104B1B7883F00103DBB2002B01D06F
:103C2000FFF716FF0B4BDB6801330A4AD360094BE1
:103C300001229A709DF80F301846FDF741FA05E011
:103C400000F024F9FFF74EFF00E000BF00BF05B011
:103C50005DF804FBC82F002082B003468DF80730C2
:103C60009DF90730002B0CDB9DF8073003F01F0295
:103C700005499DF907305B09012000FA02F241F87D
:103C8000232000BF02B0704700E100E082B003468D
:103C900000918DF807309DF90730002B0ADB009B5F
:103CA000DAB20C499DF907305201D2B20B4483F8C5
:103CB00000230BE0009BDAB207499DF8073003F0C0
:103CC0000F03043B5201D2B20B441A7600BF02B07C
:103CD000704700BF00E100E000ED00E082B001901D
:103CE000019B1B0B5BB2184602B0704700B583B056
:103CF00003460A468DF8073013468DF806309DF8C6
:103D000006209DF9073011461846FFF7BFFF00BF98
:103D100003B05DF804FB00B583B003468DF80730AF
:103D20009DF907301846FFF797FF00BF03B05DF815
:103D300004FB000082B003468DF807300F4A9DF95E
:103D40000730002B00DA1F335B115BB252F82320DF
:103D50009DF90730594203F01F0301F01F0158BFBE
:103D60004B425BB222FA03F303F00103002B14BFB2
:103D700001230023DBB2184602B0704700E100E0E7
:103D800082B001904FF08042019BC2F8083300BF1F
:103D900002B0704782B003468DF807309DF80730B7
:103DA00003F1804301221A6000BF02B0704784B063
:103DB0000346ADF80630BDF8063003F1804300221B
:103DC0001A60BDF8063003F180431B680393039B20
:103DD00000BF04B0704782B001904FF08042019B59
:103DE000C2F8183500BF02B070474FF08043D3F8D7
:103DF00018341B0C03F00103002B14BF0123002314
:103E0000DBB21846704700B583B006238DF8073043
:103E10004FF08040FFF762FF03461846FFF78AFF26
:103E2000034683F00103DBB2002B13D04FF0804038
:103E3000FFF754FF03461A469DF80730194610460F
:103E4000FFF754FF4FF08040FFF748FF0346184646
:103E5000FFF761FF00BF03B05DF804FB84B0019081
:103E600000230393084B1B79002B02D08523039377
:103E700005E0054A019B1360034B01221A71039B65
:103E8000184604B0704700BFDC2F002008B5FFF7CC
:103E9000BAFF0120FFF79FFF024B01221A7000BFFB
:103EA00008BD00BFE42F002008B50220FFF768FF1F
:103EB0004FF48270FFF77BFF0C20FFF76BFF00BF12
:103EC000FFF793FF0346002BFAD100BF00BF08BDE8
:103ED00082B003468DF807309DF90730002B0CDBCC
:103EE0009DF8073003F01F0205499DF907305B0973
:103EF000012000FA02F241F8232000BF02B070470F
:103F000000E100E082B003468DF807309DF90730EC
:103F1000002B09DB0B4A9DF90730134493F800335B
:103F2000DBB25B09DBB20AE0074A9DF8073003F019
:103F30000F03043B13441B7EDBB25B09DBB2184664
:103F400002B0704700E100E000ED00E082B00190B7
:103F5000019B5B68184602B0704710DF704700BFD6
:103F60001846000082B003468DF807309DF90730EF
:103F70001F2B0CDC9DF907300F4A22FA03F303F0E4
:103F80000103002B14BF01230023DBB210E09DF9D5
:103F900007303F2B0BDC9DF90730203B012202FA52
:103FA00003F3002B14BF01230023DBB200E0012345
:103FB000184602B0704700BFFC06FFBD82B00190FA
:103FC000019B072B07D8EC22019B42FA03F303F075
:103FD0000103002B01D1002300E00123184602B0A9
:103FE0007047000000B583B003468DF807309DF997
:103FF00007301846FFF7B6FF0346002B02D142F206
:1040000001032EE09DF907301846FFF77BFF0346BA
:104010001846FFF7D3FF0346002B02D142F20203FA
:104020001FE0124B9B68002B15D09DF907305B09F0
:104030000E4A52F823209DF8073003F01F03012198
:1040400001FA03F319469DF907305B090A43074952
:1040500041F8232004E09DF907301846FFF738FFA8
:104060000023184603B05DF804FB00BFB82E002003
:1040700000B587B003468DF8073002AB14491846E7
:1040800002F056FE17E002AB1846FFF75FFF0590FF
:10409000059B1B680493059B59689DF80720049BAA
:1040A000104698470346002B01D111230BE002ABC9
:1040B000184602F055FE02AB1846FFF747FF0346CD
:1040C000002BE0D10023184607B05DF804FB00BFC9
:1040D000886C030000B587B003468DF8073002AB4B
:1040E0001149184602F024FE12E002AB1846FFF711
:1040F0002DFF0590059B1B680493059B59689DF84F
:104100000720049B1046984702AB184602F028FE91
:1041100002AB1846FFF71AFF0346002BE5D100BF9C
:1041200000BF07B05DF804FB946C030000B583B0DA
:104130001620FFF757FF0190019B0093009B002B77
:1041400004D0044AA1210098FCF7B2F800BF03B0E4
:104150005DF804FB386C030000B585B0234B1B7879
:10416000002B01D008233CE0214B01221A700020D3
:10417000FFF77EFF0346112B01D1002331E0002021
:10418000FFF7A8FF1B4B1B68029300238DF8073035
:104190000DF107031846FCF789FF02AB16491846D4
:1041A000FFF7DBFE0390039B002B0CBF01230023D2
:1041B000DAB20E4B1A709DF807301846FCF780FFF4
:1041C000039B002B01D0039B0BE0094B00221A70CC
:1041D0000A4B00221A70FFF7A9FF0120FFF77AFFB0
:1041E0000023184605B05DF804FB00BFE52F002052
:1041F000E72F0020846C0300CD020200E62F002090
:10420000014B1B7818467047E52F002000B585B09C
:104210006B461149184602F08BFD10E06B461846BC
:10422000FFF794FE0390039B1B680293039B5A685D
:10423000029B104698476B46184602F091FD6B466C
:104240001846FFF783FE0346002BE7D100BF00BFEF
:1042500005B05DF804FB00BFA06C030008B5FFF7D4
:10426000D5FF00BF08BD60DF704700BF184669DF9B
:10427000704700BF184661DF704700BF184682B024
:104280000190019B5B68184602B0704782B00190B4
:10429000019B002B01D10E2304E0044B1A46019B25
:1042A0001A600023184602B0704700BF8023002028
:1042B00010B586B0034600918DF807300098FFF7DF
:1042C000E5FF0590059B002B01D0059BBEE002ABEE
:1042D0000C220021184602F077FE9DF807308DF879
:1042E000083001238DF80A300623ADF80C30009B0E
:1042F0001A6802AB19462020FFF7B9FF0590059B0D
:10430000002B0FD0534A544BD31ADB081B0443F045
:1043100001040598FCF71AFD03461A464F4920464A
:10432000FCF7D2FA02AB0C220021184602F04CFE38
:1043300001238DF80930009B1A6802AB1946402012
:10434000FFF795FF0590059B002B0FD0414A424B8C
:10435000D31ADB081B0443F001040598FCF7F6FCB4
:1043600003461A463E492046FCF7AEFA02AB0C2241
:104370000021184602F028FE01238DF80830009B2A
:104380001A6802AB19460120FFF771FF0590059BE3
:10439000002B0FD02F4A304BD31ADB081B0443F0FD
:1043A00001040598FCF7D2FC03461A462D49204625
:1043B000FCF78AFA02AB0C220021184602F004FE38
:1043C0004FF4B0630293009B1A6802AB1946A12018
:1043D000FFF74DFF0590059B002B0FD01D4A1E4B8C
:1043E000D31ADB081B0443F001040598FCF7AEFC6C
:1043F00003461A461C492046FCF766FA02AB0C221B
:104400000021184602F0E0FD9DF808306FF300032C
:104410008DF80830009B1A6802AB1946A020FFF700
:1044200026FF0590059B002B0FD00A4A0A4BD31A92
:10443000DB081B0443F001040598FCF787FC0346E6
:104440001A460A492046FCF73FFA0023184606B0F0
:1044500010BD00BF9863030050630300B86C0300F5
:10446000006D03004C6D0300986D0300EC6D0300BC
:1044700082B04FF08053D3F80C319B020193019B23
:1044800003F10053184602B07047000010B584B025
:104490000190019B1B6803930198FFF7E4FE0290D3
:1044A000019B1B68039A9A4229D2224A224BD31AB3
:1044B000DB081B0443F0020320491846FCF7F6F919
:1044C0001C4A1D4BD31ADB081B0443F00200019B5E
:1044D0001B68039A1A49FCF708FA164A164BD31AB6
:1044E000DB081B0443F00204FFF7C2FF0246019BF6
:1044F0001B68D31A1A4613492046FCF7E5F9029BBC
:10450000002B03D1104B01221A700FE0094A0A4B0D
:10451000D31ADB081B0443F001040298FCF716FCD5
:1045200003461A4609492046FCF7CEF9029B184675
:1045300004B010BD9863030050630300406E030095
:10454000706E0300A46E0300E82F0020D06E0300FD
:1045500000B597B00190234B1B7883F00103DBB2C9
:10456000002B3AD13423ADF846300DF1460202ABB0
:1045700011461846FFF77FFE1590159B002B03D0C0
:10458000159B052B22D129E002AB14930FAB1649E2
:10459000184602F0CDFB11E00FAB1846FFF76FFE97
:1045A0001390139B1B681293139B5A68129B11461E
:1045B000149898470FAB184602F0D2FB0FAB184681
:1045C000FFF75DFE0346002BE6D1CBE7074A40F23A
:1045D0003B111598FBF76CFE00E000BF17B05DF8CB
:1045E00004FB00BFE82F0020406F0300F06E0300C3
:1045F00082B00190019B5B68184602B070474BDFA8
:10460000704700BF1846000000B589B0019004ABA8
:104610001846FFF7F4FF0790079B002B03D0079B7A
:10462000052B20D124E002AB1349184602F080FB91
:1046300011E002AB1846FFF7DBFF0690069B1B68F4
:104640000593049A069B5968059B1046984702AB50
:10465000184602F085FB02AB1846FFF7C9FF034678
:10466000002BE6D1D3E7054A6B210798FBF720FE24
:1046700000BF09B05DF804FBA86F0300586F03008A
:104680006DDF704700BF184679DF704700BF1846DE
:104690007DDF704700BF184664DF704700BF1846D3
:1046A00082B003460091ADF80630BDF80630DAB2AC
:1046B000009B1A70BDF806301B0A9AB2009B0133AA
:1046C000D2B21A700223184602B0704700B589B002
:1046D000039002911346ADF80630029B1B8803F14C
:1046E0000902BDF806309A4201D90C2353E004AB0D
:1046F0001846FFF7C5FF0790079B0693069B002B04
:1047000001D0069B47E0029B1B881A46039B13447B
:1047100008221A70029B1B8801339AB2029B1A80EE
:10472000029B1B881A46039B13441B221A70029B90
:104730001B8801339AB2029B1A80029B1B881A467F
:10474000039B981804AB01330622194602F013FCB0
:10475000029B1B8806339AB2029B1A809DF8103088
:1047600023F00103DBB2002B07D1029B1B881A4602
:10477000039B134400221A7006E0029B1B881A4612
:10478000039B134401221A70029B1B8801339AB2C7
:10479000029B1A800023184609B05DF804FB00B59F
:1047A00089B0039002910192ADF80230039B1B780F
:1047B000012B05D1039B5B78002B01D1072392E0ED
:1047C000019B1B889A1CBDF802309A420ED8039BAD
:1047D0001B78012B0CD1019B1B881A46039B5B782D
:1047E00013449A1CBDF802309A4201D90C237AE096
:1047F000019B1B88BDF80220D31A9BB2023BADF887
:104800001C30BDF81C30ADF81230019B1B88023300
:10481000029A13440DF1120211461846FFF738FFB1
:104820000690069B0593059B002B01D0059B5AE043
:10483000039B1B78022B06D0039B5B789AB2BDF8D2
:1048400012309A4209D3BDF81230BDF81C209A42AA
:1048500003D309238DF81F3017E008238DF81F308C
:10486000039B1B78012B0CD1039B5B789BB2BDF89B
:104870001C209A4205D3039B5B789BB2ADF81230A3
:1048800003E0BDF81C30ADF81230BDF81230FE2B3D
:1048900001D90C2327E0BDF81230DAB2019B1B8846
:1048A0001946029B0B440132D2B21A70019B1B883D
:1048B00001339AB2019B1A80019B1B881A46029B06
:1048C00013449DF81F201A70019B1B8801339AB274
