:020000021000EC
:109000000000022075F101005DF101005FF1010037
:1090100061F1010063F1010065F101000000000051
:1090200000000000000000000000000067F10100E7
:1090300069F10100000000006BF101006DF1010019
:109040006FF101006FF10100411B02004125020098
:109050008D2A02006FF10100DD3802006FF101007E
:109060006FF101006FF101006FF101006FF101007C
:109070006FF101006FF101006FF101006FF101006C
:109080006FF10100594C02006FF101006FF1010016
:10909000994C02006FF10100513F02006FF1010095
:1090A0006FF101006FF101006FF101006FF101003C
:1090B0006FF101006FF101000000000000000000EE
:1090C0006FF101006FF101006FF1010059250200FD
:1090D0006FF101006FF101006FF101006FF101000C
:1090E0006FF101000000000000000000000000001F
:1090F000000000006FF10100000000007125020077
:10910000000000000000000000000000000000005F
:10911000000000000000000000000000000000004F
:10912000000000000000000000000000000000003F
:10913000000000000000000000000000000000002F
:10914000000000000000000000000000000000001F
:10915000000000000000000000000000000000000F
:1091600000000000000000000000000000000000FF
:1091700000000000000000000000000000000000EF
:1091800000000000000000000000000000000000DF
:1091900000000000000000000000000000000000CF
:1091A00000000000000000000000000000000000BF
:1091B00000000000000000000000000000000000AF
:1091C000000000000000000000000000000000009F
:1091D000000000000000000000000000000000008F
:1091E000000000000000000000000000000000007F
:1091F000000000000000000000000000000000006F
:10F00000354936480A1A02D0072291438D463449C1
:10F0100034480A1A06D00722914381F30988022254
:10F0200082F3148830483149314A00F044F83148BD
:10F030003149324A00F03FF831483249324A00F053
:10F040003AF832483249334A00F035F83248334909
:10F05000334A00F030F833483349344A00F02BF893
:10F0600033483449344A00F026F834483449002201
:10F0700000F02CF833483449002200F027F83348D8
:10F080003349091A082902DB002202604160314A33
:10F0900090471F481F49884205D00268043003B4D6
:10F0A000904703BCF7E700208646EC46002000218D
:10F0B000294A9047FEE7884207D0521A05D00378C4
:10F0C00001300B700131013AF9D17047884202D00A
:10F0D00002700130FAE770470000022000E00120D2
:10F0E0000000022000000220585803008023002066
:10F0F000DC230020D0F10100D0F1010068460300BC
:10F100005858030080230020802300203C47030040
:10F110003C4703003C4703003C4703003C470300D7
:10F120003C4703003C4703003C470300565803009C
:10F13000B4580300DC230020DC230020DC23002063
:10F14000C0320020C0320020C4320020D83200205B
:10F15000D85200209DF1010019FC0100FEE7FEE7F6
:10F16000FEE7FEE7FEE7FEE7FEE7FEE7FEE7FEE777
:10F1700000F002B8FFF7FCBF0F484FF007018843CB
:10F1800085460E4880470E48016841F470010160D1
:10F19000BFF34F8FBFF36F8FFFF732BF09480A49A4
:10F1A0000A4A884207D0521A05D0037801300B7002
:10F1B0000131013AF9D170470000022031160200F6
:10F1C00088ED00E03C4703008023002080230020DE
:10F1D00000B583B0094B1B88184604F0DDFA0346DE
:10F1E0000193019B002B04D0044B1B88184604F0AC
:10F1F000ABFA019B184603B05DF804FB86230020A0
:10F2000000B583B00190019B002B05D0044B1B88F7
:10F210000121184604F02CFA00BF03B05DF804FB8E
:10F220008623002000B585B00190019B002B0AD0F9
:10F23000074B43F001030393019B9B010293039B44
:10F240000298984700E000BF05B05DF804FB00BFDE
:10F250004047030000B583B00190019800F003FC23
:10F2600000BF03B05DF804FB00B583B001900198C6
:10F27000FFF7D8FF00BF03B05DF804FB00B585B011
:10F280000190019B002B0AD0074B43F0010303932D
:10F29000019B9B010293039B0298984700E000BFEB
:10F2A00005B05DF804FB00BF7047030082B0019019
:10F2B000019B1B681F2B02D84FF0A04306E0019B67
:10F2C0001B6803F01F02019B1A60024B184602B034
:10F2D000704700BF0003005000B585B0019008469C
:10F2E00011461A4603468DF803300B468DF802305E
:10F2F00013468DF8013001AB1846FFF7D7FF039096
:10F300009DF803209DF802305B001A439DF8013000
:10F310009B001A439DF818301B0242EA03019DF836
:10F320001C301B04019A1943039B02F5E07243F859
:10F33000221000BF05B05DF804FB82B00190019B74
:10F340000722C3F8002500BF02B0704782B00190C9
:10F35000019B0022C3F8002500BF02B0704700B532
:10F360008FB003900291009313468DF8073000236D
:10F370000D93029B09939DF807300A93009B0B9312
:10F380009DF840300C93039B043309A900221846D2
:10F3900003F068F80D900D9B18460FB05DF804FB64
:10F3A00000B583B00190019B002B0AD04FF47A7016
:10F3B000FFF764FF019B013B0193019B002BF5D1FB
:10F3C00000E000BF03B05DF804FB000000B585B0AD
:10F3D000264B1B689B680393039B4FF080421A6186
:10F3E000039B4FF0A0525A61039B002283F82C200C
:10F3F000039B0293039B1C330193029B03221A700D
:10F40000029B01221A73029B194A5A60029B022234
:10F410001A72019B03221A70019B08225A70019BE9
:10F420001D229A70019BFF22DA70019B01221A7142
:10F43000019BFF225A71019B4FF080429A60019B11
:10F4400000221A73019B00225A730A4A6B46126803
:10F45000114619800233120C1A706B461946262089
:10F4600004F042F800BF05B05DF804FB94230020CF
:10F4700000F002404847030000B585B00190019BB1
:10F480005B6803930398FFF758FF0023184605B005
:10F490005DF804FB00B585B00190019B5B680393A8
:10F4A0000398FFF753FF0023184605B05DF804FBEF
:10F4B00000B583B0104B1B681A690F4B1B685A626A
:10F4C0000D4B1B6818460C4B1B6803F11C010023F5
:10F4D000002202F0DFFA0190019B002B04D0074AC2
:10F4E0008421019800F0D5FE0220FFF759FF00BFEC
:10F4F00003B05DF804FB00BF802300204C470300ED
:10F5000000B585B01D4B1B685A691C4B1B685A62BD
:10F510001A4B1B681846194B1B6803F11C0100238A
:10F52000002202F0B7FA0390039B002B04D0144A88
:10F530009621039800F0ADFE104B1B681B7F184608
:10F540000023019303230093002300220121FFF7EE
:10F55000C3FE0A4B1B685B7F1846002301930323FD
:10F560000093002301220121FFF7B6FE0220FFF7DE
:10F5700017FF00BF05B05DF804FB00BF802300202B
:10F580004C47030000B589B0049103930346ADF8DE
:10F5900016301346ADF81430BDF81620BDF81430FF
:10F5A000134401330793079BC82B01D904235BE065
:10F5B00000BF2F4B1B6893F82C30002BF9D12C4B3C
:10F5C0001B6893F82C30112B01D111234CE0284BF0
:10F5D0001B68112283F82C20254B1B681846FFF767
:10F5E0004BFF244B0693BDF816301A460499069833
:10F5F00006F072F8BDF81630069A13440693BDF86B
:10F6000014301A460399069806F066F8BDF81430CF
:10F61000069A1344069301220AA9069806F05CF89C
:10F62000154B1B88184603F0A8FF144B00221A70D4
:10F630000F4B1B681846079BDAB2079BDBB200939F
:10F640000F4B0C49FFF78BFE094B1B681846FFF761
:10F6500021FF094B1B88184603F08FFF044B1B68E2
:10F66000002283F82C200023184609B05DF804FB23
:10F670008023002010240020842300200C2400205C
:10F68000D824002000B589B0049103930346ADF857
:10F6900016301346ADF81430BDF81620BDF81430FE
:10F6A00013440793079BC82B01D9042351E000BFE3
:10F6B0002A4B1B6893F82C30002BF9D1274B1B6881
:10F6C00093F82C30112B01D1112342E0234B1B68FE
:10F6D000112283F82C20214B1B681846FFF7CCFE23
:10F6E0001F4B0693BDF816301A460499069805F08C
:10F6F000F3FFBDF81630069A13440693BDF8143094
:10F700001A460399069805F0E7FF164B1B88184622
:10F7100003F033FF144B00221A70104B1B6818467D
:10F72000079BDAB2079BDBB20093104B0C49FFF743
:10F7300016FE0A4B1B681846FFF7ACFE094B1B88E8
:10F74000184603F01AFF054B1B68002283F82C2093
:10F750000023184609B05DF804FB00BF8023002099
:10F7600010240020842300200C240020D824002012
:10F7700000B589B0049103930346ADF816301346E3
:10F78000ADF81430BDF81620BDF8143013440793BB
:10F79000079BC82B01D9042363E000BF334B1B68D0
:10F7A00093F82C30002BF9D1304B1B6893F82C3098
:10F7B000112B01D1112354E02C4B1B68112283F82B
:10F7C0002C202A4B1B681846FFF756FE284B069341
:10F7D000BDF816301A460499069805F07DFFBDF86D
:10F7E0001630069A13440693BDF814301A460021C9
:10F7F000069805F09AFFBDF81620BDF814301344A2
:10F8000007931C4B1B88184603F0B7FE1A4B0022C7
:10F810001A70164B1B681846079BDAB2079BDBB2BF
:10F820000093164B1249FFF79AFDBDF81630134AA4
:10F8300013440693BDF814301A460699039805F050
:10F840004BFF0A4B1B681846FFF724FE094B1B8829
:10F85000184603F092FE054B1B68002283F82C200B
:10F860000023184609B05DF804FB00BF8023002088
:10F8700010240020842300200C240020D824002001
:10F8800000B585B00190019B002B0AD0074B43F0D7
:10F8900001030393019B9B010293039B02989847EA
:10F8A00000E000BF05B05DF804FB00BFA047030007
:10F8B00082B00190019B1B681F2B02D84FF0A04320
:10F8C00006E0019B1B6803F01F02019B1A60024BBC
:10F8D000184602B0704700BF0003005000B585B065
:10F8E0000190084611461A4603468DF803300B4630
:10F8F0008DF8023013468DF8013001AB1846FFF742
:10F90000D7FF03909DF803209DF802305B001A4357
:10F910009DF801309B001A439DF818301B0242EA03
:10F9200003019DF81C301B04019A1943039B02F547
:10F93000E07243F8221000BF05B05DF804FB00B58B
:10F9400085B003900023019300230093002301223C
:10F9500001210398FFF7C2FF00BF05B05DF804FB6B
:10F9600000B585B003900B468DF80B309DF80B3039
:10F970000022019200220092002200210398FFF74A
:10F98000ADFF00BF05B05DF804FB00B585B0019088
:10F9900001AB1846FFF78CFF0390019B012202FA8E
:10F9A00003F31946039800F035F800BF05B05DF881
:10F9B00004FB00B585B0019001AB1846FFF778FF56
:10F9C0000390019B012202FA03F31946039800F009
:10F9D0002BF800BF05B05DF804FB00B585B00190C1
:10F9E00001AB1846FFF764FF0390039800F00AF894
:10F9F0000246019B22FA03F303F00103184605B007
:10FA00005DF804FB82B00190019BD3F810351846D5
:10FA100002B0704782B001900091019B009AC3F838
:10FA2000082500BF02B0704782B001900091019B91
:10FA3000009AC3F80C2500BF02B0704700B583B030
:10FA40000190019B002B0AD04FF47A70FFF718FF4A
:10FA5000019B013B0193019B002BF5D100E000BF0E
:10FA600003B05DF804FB00B583B001900198FFF787
:10FA7000E5FF00BF03B05DF804FB000000B583B0F4
:10FA800003F0CEFC0190019B0093009B002B04D05F
:10FA9000044A4121009800F0FCFB00BF03B05DF870
:10FAA00004FB00BF7847030000B583B001900B460C
:10FAB0008DF8033000F054F800BF03B05DF804FB8C
:10FAC00000B585B0134A01AB1268114619800233A4
:10FAD000120C1A7001238DF8053001AB0E4A19463D
:10FAE000222003F055FD0390039B0293029B002B01
:10FAF00004D00A4A5721029800F0CBFB00212220B3
:10FB000003F0B6FD3320FFF71AFF00BF05B05DF824
:10FB100004FB00BF98470300A9FA010078470300DF
:10FB200008B51920FFF70BFF1920FFF742FF02204D
:10FB3000FFF784FF00211920FFF712FF0220FFF7D3
:10FB40007DFF00BF08BD08B53320FFF71EFFC820AA
:10FB5000FFF796FE3320FFF72CFF00BF08BD000023
:10FB600008B506E0074B1B68002B02D0054B1B684D
:10FB7000984700F009F80346002BF3D100BF00BFFF
:10FB800008BD00BFA025002008B5044B1B881846FF
:10FB9000FFF723FF0346184608BD00BF8623002059
:10FBA00000B585B00190019B002B0AD0074B43F0B4
:10FBB00001030393019B9B010293039B02989847C7
:10FBC00000E000BF05B05DF804FB00BFD0470300B4
:10FBD00000B583B00190019B002B0AD04FF47A70DE
:10FBE000FFF7DEFF019B013B0193019B002BF5D149
:10FBF00000E000BF03B05DF804FB000000B583B077
:10FC000001900199034800F08DF900BF03B05DF841
:10FC100004FB00BFC847030008B5032001F0F7FE4E
:10FC2000FFF72CFFFFF7D2FBFFF74AFF0220FFF799
:10FC3000CFFF00F09DF9FEE700B583B01F4B0193A5
:10FC4000019B02221A61019B02225A61019B1C4AFC
:10FC50009A61019B1B4ADA61019B4FF480621A6230
:10FC6000019B00229A62019B00225A62019B0022A2
:10FC7000DA62019B124A9A64019B134ADA64019B7F
:10FC800010221A65019B00229A65019B00225A6589
:10FC9000019B0022DA65019B07330C49184605F0E9
:10FCA00077FD019B0A49184605F072FD019B202251
:10FCB0009A7100BF03B05DF804FB00BFA4250020CB
:10FCC000D84703001C2600201C2A0020E44703001C
:10FCD000E847030000B589B0039002910192002328
:10FCE0000693039BDB680593039B1B690493049AAB
:10FCF000059B9A4205D9049A059BD31A013B0793A9
:10FD000007E0039B9A680499059BCB1A1344013BB7
:10FD10000793039B9A68059BD31A079A934228BFBF
:10FD200013460793079A019B934228BF13460793F4
:10FD3000039B5A68059B1344079A0299184605F0DD
:10FD4000CBFC069A079B13440693029A079B134425
:10FD50000293019A079BD31A0193059A079B1344B8
:10FD60000593039B9B68059A9A4201D10023059352
:10FD7000039B059ADA60019B002BB5D1069B1846C0
:10FD800009B05DF804FB00B589B0039002910192BF
:10FD9000039BDB680793039B9A68079BD31A069320
:10FDA000069A019B9A420ED9039B5A68079B1344FB
:10FDB000019A0299184605F08FFC079A019B1A4494
:10FDC000039BDA601AE0069B0593039B5A68079B26
:10FDD0001344059A0299184605F07EFC019A069B89
:10FDE000D31A0593039B5868029A069B1344059AFD
:10FDF000194605F071FC039B059ADA6000BF09B053
:10FE00005DF804FB86B00190019B1B690493019B84
:10FE1000DB680393049A039B9A4208D8019B9A6873
:10FE2000039BD21A049B1344013B059304E0049AFC
:10FE3000039BD31A013B0593059B184606B07047F8
:10FE400000B589B0039002910192029B0693039B37
:10FE50005A1C13465B001344DB00204A13440593ED
:10FE6000059B5B69022B29D0022B2ED8002B02D0D8
:10FE7000012B13D029E00598FFF7C4FF0490049AE2
:10FE8000019B9A4202D20023079321E0019B079332
:10FE9000019A06990598FFF776FF19E00598FFF794
:10FEA000B1FF0490019A049B934228BF1346079325
:10FEB000079A06990598FFF766FF09E0019A0699E7
:10FEC0000598FFF707FF079002E00023079300BFA4
:10FED000079B184609B05DF804FB00BFA42500206D
:10FEE00000B587B00390029101920D4B1B78002B57
:10FEF00001D1FFF7A1FEEFF311834FF0200181F351
:10FF000011880593019A02990398FFF799FF0490CD
:10FF1000059B83F31188049B184607B05DF804FB2A
:10FF2000A42500200FB400B5A3B025AB009301A811
:10FF3000009B249A802105F0C1FB2190219B802BFE
:10FF400006DD01AB802219460020FFF7C9FF08E05B
:10FF5000219B002B05DD219A01AB19460020FFF7FC
:10FF6000BFFF219B184623B05DF804EB04B0704737
:10FF700000B58BB08248FFF741FEFFF7C1FAFFF7EB
:10FF8000CFFD0220FFF76FFD7E4807F06BF800BF42
:10FF900007F088F90346002BFAD0002007F0BCF8E0
:10FFA0000346B3F1FF3F03D17748FFF727FEFEE793
:10FFB000032007F0D3F9754807F0BAF80346002B81
:10FFC00003D07348FFF71AFEFEE7724807F0BCF84B
:10FFD00044F2010007F0C4F844F2010007F0D2F83F
:10FFE000F02007F087F94FF4C87007F049F90320B3
:10FFF00007F084F8684B1A78684B9A70802007F0F5
:020000022000DC
:10000000BFF9002265490C2007F0CEF8012200213B
:100010000C2007F0D7F8022007F0E2F80023604A2E
:100020000021604800F0F5F85B4B1B780133DAB231
:10003000594B1A705B4B1B6803F48043002B00F094
:100040008C804FF4804007F09BF907F0CFF903460E
:10005000ADF82630BDF82630142B00F28180BDF8B3
:10006000263000221946504807F056F94E4B002220
:100070009A700A224D494C4805F0C4FA0346002BF9
:100080006ED107F0BFF8089007F0CEF8079007F0A0
:1000900051F9034607EE903AB8EEE77ADFED446A8D
:1000A000C7EE267ACDED067A03AB1946414800F03B
:1000B0008FF802AB1946404800F08AF8079A089B6F
:1000C000D31A0593029A039BD31A0493059B07EE58
:1000D000903AB8EEE77A049B07EE903AF8EEE76ABA
:1000E000B7EE006ADDED067A76EE677A66EEA77AFD
:1000F00077EE677A17EE900A05F092F94FF000025A
:100100004FF0804304F0CAFF02460B4610461946E2
:1001100017A3D3E9002304F025FF02460B46274925
:10012000C1E90023254BD3E9000113A3D3E9002340
:1001300004F018FF02460B462149C1E90023204B79
:10014000D3E90023CDE900231E4A10211E4805F003
:1001500090FA1D48FFF752FD02E01C4807F010F925
:100160004FF47A70FFF77FFC44E700BFAFF30080E5
:10017000FA48CE3B1835B13D0000001319DDB141FE
:10018000F0470300BC470300044803009823002005
:1001900018480300C82300202C2A0020A823002090
:1001A00000D02734442A0020302A0020B423002025
:1001B0000000804C3A2A00203E2A0020482A0020D5
:1001C000502A00202C480300582A00200090273491
:1001D00084B001900091009B00221A6000230393D9
:1001E00010E0009B1A68039B01990B441B78194689
:1001F000039BDB0001FA03F31A44009B1A60039B84
:1002000001330393039B032BEBDD00BF00BF04B05E
:10021000704700B587B003900291019200930023CC
:10022000059300230493019B002B14D00AE0009B4C
:10023000002B07D007F0C8F80490049A009B1340E5
:10024000002B15D107F0AEF80590059A019B1340DD
:10025000002BECD00DE0009B002B0AD000BF07F074
:10026000B3F80490049A009B1340002BF7D000E0F1
:1002700000BF039B002B02D0039B059A1A60029BD0
:10028000002B02D0029B049A1A6000BF07B05DF8F1
:1002900004FB00B583B002900091019244F201008A
:1002A00071466A4600F004F803B000BD00BF0000CC
:1002B00030B58BB007900691059272B600BF00F082
:1002C00019FD00BF00F040FB0346002BFAD1079B4D
:1002D00044F2020293422FD0079B44F2020293425F
:1002E00069D8079B44F20102934237D0079B44F23E
:1002F000010293425FD8079B012B05D0079B41F277
:10030000010293420CD056E0394A3A4BD31ADB082B
:100310001B0443F001033849184600F0B9FA57E0CE
:10032000334A344BD31ADB081B0443F0010333492F
:10033000184600F0ADFA4BE0059B09932C4A2D4B73
:10034000D31ADB081B0443F00100099B5B681A46C3
:10035000099B1B682A4900F0BAFA39E0059B08930B
:10036000234A244BD31ADB081B0443F00104089BE7
:100370009D68089B9B68184600F0DAFC0346184607
:10038000089B5B681946089B1B68069A02920193BA
:10039000009103462A461B49204600F0ACFA144A55
:1003A000144BD31ADB081B0443F00103164918460B
:1003B00000F06EFA0CE00E4A0E4BD31ADB081B0459
:1003C00043F00103069A1149184600F06FFA00BF86
:1003D0000F4B1B6803F00103002B00D000BE059AF1
:1003E0000699079800F0ECFC00BF0BB030BD00BFD1
:1003F000E4460300BC4603003C4803005C4803009D
:10040000804803009C480300C4480300D848030008
:10041000F0ED00E000B583B001900091019B1B68F6
:100420001B6800990198984700BF03B05DF804FB72
:1004300000B583B00190019B1B685B6801989847E9
:1004400000BF03B05DF804FB00B583B00190019BD1
:100450001B689B680198984700BF03B05DF804FBD8
:1004600082B00190019BDB6801225A7100BF02B08B
:10047000704782B00190019BDB685B79184602B03F
:10048000704784B00190009100238DF80F30019BDC
:100490001B7803F00403DBB2002B24D0019B1B78F4
:1004A000C3F30103DBB2012B02D0022B0CD017E007
:1004B000009B1B68019A1288C2F38312D2B21344C4
:1004C0009A1C009B1A600BE0009B1B68019A5288E3
:1004D000C2F3891292B213449A1C009B1A6000BFA7
:1004E00001238DF80F309DF80F30184604B0704787
:1004F00000B58BB00023ADF826303B4800F03BFD43
:100500003A4800F038FD3A4B9B680493394B1B681E
:100510000693049A069B134002339B00344A13440B
:100520000433089304AB19460898FFF7AAFF034663
:10053000002B09D0049A069B134002339B002C4ADF
:10054000134404330893EDE700BF0023079311E041
:10055000049B5A1C0492069A1340079A920001A920
:100560000A44234902339B000B445B681360079BDA
:1005700001330793079B012BEAD99DF80430C3F39D
:100580000103DBB2012B10D0022B1CD1BDF80A30C5
:10059000ADF82630BDF80630C3F389139BB20333A0
:1005A0009A08049B134404930EE0BDF80A30ADF89A
:1005B0002630BDF80430C3F38313DBB21A46049B24
:1005C0001344049300E000BF084800F0E0FC0590ED
:1005D000059B002B02D0049B054A9360BDF8263092
:1005E00018460BB05DF804FB502F00204C2F002064
:1005F000382B0020D023002000B585B0002107480B
:1006000000F02AFC0390039B0293029B83F31003E8
:100610000193019B184605B05DF804FB542F0020A0
:1006200000B589B00390029101920093039B1B0CCB
:100630000693FFF7E1FF0790079B1904009B5A1CE4
:100640000A9B1340069A0A431B4902339B000B4442
:100650005A60009A0A9B134002339B00164A1344C7
:1006600004330593039B03F00703D9B2059A13786B
:1006700061F3C5031370019B03F00F03D9B2059A10
:10068000138861F389131380029BC3F31501059A44
:10069000136861F39F231360059A1378012161F3B6
:1006A00001031370059A13786FF38203137000BF70
:1006B00009B05DF804FB00BF382B002000BF704775
:1006C00000B58DB00390029113468DF80730039B5F
:1006D00002330A9301238DF8273000238DF81B3055
:1006E0000DF11B03184600F0D3FC404B5A68029BE7
:1006F0001A603F4B1A683D4B99683C4B5B68CB1ABC
:10070000134401330B9314E001213A4800F003FC39
:10071000FFF7EEFE07900799364800F0FCFB344BDC
:100720001A68324B9968314B5B68CB1A134401331A
:100730000B930A9A0B9B9A42E6D89DF82730002B20
:1007400048D0002305939DF80730002B17D09DF863
:100750001430012262F301038DF814309DF8143037
:1007600043F004038DF81430039B03F00F03DAB257
:10077000BDF8143062F38913ADF8143016E09DF81B
:100780001430022262F301038DF814309DF8143006
:1007900043F004038DF81430039BC3F309039AB2AA
:1007A000BDF8163062F38F13ADF816300F4B5A6850
:1007B0000F4B1B68134002339B000C4A1344043355
:1007C0000893059A089B1A60084B5A680A9B1344C1
:1007D000064A53609DF81B30184600F063FC9DF8F4
:1007E000273018460DB05DF804FB00BF382B002001
:1007F000D0230020542F002000B58BB00590049129
:1008000003920293204B1B68079306AB0122194603
:100810000298FFF755FF0346002B24D0069B0233B6
:1008200009930023089311E0089B9B00039A1A4444
:10083000099B591C099107990B401268134902330F
:100840009B000B445A60089B01330893089A029B53
:100850009A42E9D3069A079B00931346029A049999
:100860000598FFF7DDFE094B1B78002B05D000BF74
:1008700000F06AF80346002BFAD1FFF71FFF00BF14
:100880000BB05DF804FB00BFD0230020382B002004
:1008900000B583B0019000910023002200990198D7
:1008A000FFF7AAFF00BF03B05DF804FB00B587B0F7
:1008B000039002910192019B059305AA01230299DD
:1008C0000398FFF799FF00BF07B05DF804FB00B580
:1008D00087B00390029101920093019B0493009BC7
:1008E000059304AA022302990398FFF785FF00BF2E
:1008F00007B05DF804FB00B58BB003900291019244
:100900000093019B0593009B06930C9B07930D9B03
:1009100008930E9B099305AA052302990398FFF7F4
:100920006BFF00BF0BB05DF804FB0000054B9A683D
:10093000044B5B689A420CBF01230023DBB21846CC
:10094000704700BF382B002000B599B0FFF7EEFFCD
:100950000346002B01D00023C0E19B4B0022C3F8CB
:100960001824BFF34F8F00BF974B9B680493974B9E
:100970001B681093049A109B134002339B00924A09
:100980001344043311930023179300231693002379
:100990000F9304AB19461198FFF773FD0346002B24
:1009A00019D0894BD3F81834002B14D1864B5A68D0
:1009B000049B9A4205D8844B5B68834A936000236A
:1009C0008CE1049A109B134002339B007E4A13442F
:1009D00004331193DDE70023159311E0049B5A1CA7
:1009E0000492109A1340159A920001A90A4476497C
:1009F00002339B000B445B681360159B0133159316
:100A0000159B012BEAD99DF8043003F00303DBB2F8
:100A1000022B40F09C80BDF80630C3F389139BB2D3
:100A20000D93BDF80630C3F389139BB2502B28BF3A
:100A300050239BB20C930C9BC3F309039AB2BDF8ED
:100A4000063062F38F13ADF806300C9B08330B931E
:100A50009DF80430C3F3C203DBB20F930B995C48DB
:100A600000F02EFB1790179B002B00F0D3801798F7
:100A700000F0B7FB01A9169B0822179800F05BFC59
:100A8000169B08331693049BDA43109B13400133E3
:100A90009B000A930C9A0A9B9A4242D90A9B002B0C
:100AA00008D0049A109B134002339B00464A13441B
:100AB000043300E0474B08930A9B002B02D00A9BAB
:100AC000DBB201E00C9BDBB28DF81F300A9B002BE0
:100AD00001D0404B00E0002306930A9B002B06D078
:100AE0000C9BDAB20A9BDBB2D31ADBB200E0002324
:100AF0008DF817309DF81F20169B0899179800F065
:100B00001AFC9DF81F30169A13441693069B002B6F
:100B100016D09DF81720169B0699179800F00BFC2D
:100B20000EE0049A109B134002339B00264A1344A4
:100B300004330993169B0C9A0999179800F0FBFB54
:100B40000D9B03339A08049B1344049362E09DF8C1
:100B5000043003F00303DBB2012B5BD1BDF804309A
:100B6000C3F38313DBB2062B28BF0623DAB2BDF82A
:100B7000043062F38913ADF80430BDF80430C3F3D8
:100B80008313DBB202330E939DF80430C3F3C20328
:100B9000DBB20F930E9B9B0019460D4800F090FAB4
:100BA0001790179B002B35D0179800F01AFB01A95E
:100BB000169B0822179800F0BEFB169B083316936D
:100BC000002315931DE000BF382B0020D023002008
:100BD000C4320020442B0020049B5A1C0492109A1B
:100BE000134002339B003F4A1344191D169B0422F5
:100BF000179800F0A0FB169B04331693159B013346
:100C00001593BDF80430C3F38313DBB21A46159B6A
:100C10009342E1D3179B002B40D0324BD3F81034D2
:100C20001493304BD3F81834002B1BD0179800F0D6
:100C3000E7FA4DE000238DF84F301498FFF719FCC8
:100C40000346002B02D001238DF84F309DF84F3022
:100C5000002B03D017991498FFF7DCFB149BDB687B
:100C60001B681493149B002BE4D1179800F0C8FA6A
:100C700000238DF803300DF10303184600F008FA45
:100C8000184BD3F81834002B02D1049B154A9360FB
:100C90009DF80330184600F005FA19E0114BD3F81F
:100CA0001034129306E01298FFF7CEFB129BDB681C
:100CB0001B681293129B002BF5D10B4A0B4BD31AD6
:100CC000DB081B0443F0020309491846FFF7E0FD67
:100CD000FFF72CFE034683F00103DBB2184619B080
:100CE0005DF804FB382B0020E4460300BC460300FB
:100CF000F448030000B583B00C4BD3F810340193D3
:100D00000A4B01221A7009E00198FFF7A9FB01982C
:100D1000FFF78EFB019BDB681B680193019B002B97
:100D2000F2D100BF00BF03B05DF804FB382B0020F8
:100D300000B585B00190019800F00EF80390039B78
:100D4000002B01D0039B00E0024B184605B05DF874
:100D500004FB00BF0849030086B00190164B0593C1
:100D6000164B04931FE0049A059BD31ADB10DA0F8D
:100D700013445B10DB00059A13440393039B1B6829
:100D80000293029A019B9A4202D9039B04930AE0C0
:100D9000029A019B9A4203D2039B0833059302E017
:100DA000039B5B6804E0059A049B9A42DBD3002313
:100DB000184606B0704700BF084D0300304E0300D0
:100DC00086B003900291019201238DF817309DF8AF
:100DD0001730204A039B13601E4A029B53601D4A32
:100DE000019B9360039B44F20102934212D0039B48
:100DF00044F20202934220D1019B164AD360154B64
:100E0000DB681B68134A9361124BDB685B68114A0D
:100E1000D36112E0019B0F4A13610E4B1B699B6863
:100E20000C4A53610B4B1B691B680A4A9361094BBF
:100E30001B695B68074AD36100BF72B600BF00BF81
:100E40009DF81730DBB2002BFAD162B600BF00BFAD
:100E500006B07047582F002010B487B00190009161
:100E6000019B009A53E8004F104643E8000191F0BF
:100E7000000FF7D1059404900391059B184607B025
:100E80005DF8044B704710B487B001900091019B4E
:100E9000009A53E8004F44EA020043E8000191F051
:100EA000000FF6D1059404900391049B184607B0F7
:100EB0005DF8044B704710B487B001900091019B1E
:100EC000009A53E8004F04EA020043E8000191F061
:100ED000000FF6D1059404900391059B184607B0C6
:100EE0005DF8044B704710B487B001900091019BEE
:100EF000009A53E8004F04EA020043E8000191F031
:100F0000000FF6D1059404900391049B184607B096
:100F10005DF8044B704710B487B001900091019BBD
:100F2000009A53E8004F04EB020043E8000191F0FF
:100F3000000FF6D1059404900391049B184607B066
:100F40005DF8044B704710B487B001900091019B8D
:100F5000009A53E8004FA4EB020043E8000191F02F
:100F6000000FF6D1059404900391049B184607B036
:100F70005DF8044B704700B583B0019001210198E2
:100F8000FFF781FF0346184603B05DF804FB00B588
:100F900083B0019000210198FFF78DFF03461846AA
:100FA00003B05DF804FB82B0EFF310830093009B65
:100FB000019372B600BF019B184602B0704762B63B
:100FC00000BF00BF7047000000B585B00190FFF77B
:100FD000EAFF0390164B9B68002B1BD1144B012298
:100FE0009A60144BD3F88020134B1340104A1360BF
:100FF000104B114AC3F880200E4BD3F884300C4AB2
:1010000053600C4B4FF0FF32C3F88420019B002249
:101010001A7002E0019B01221A70039B002B01D180
:10102000FFF7CDFF0023184605B05DF804FB00BFB5
:10103000782F002000E100E0FC06FFBD00B585B080
:1010400003468DF80730104B9B68002B16D09DF897
:101050000730002B12D1FFF7A6FF03900B4A0A4B73
:101060001B681360094A084B5B685360064B0022FB
:101070009A60039B002B01D1FFF7A1FF00231846C4
:1010800005B05DF804FB00BF782F002000E100E010
:1010900000B583B001900198FFF796FF00BF03B041
:1010A0005DF804FB00B583B003468DF807309DF86A
:1010B00007301846FFF7C2FF00BF03B05DF804FB1E
:1010C00000B58BB001900091019B1B8A043B0793F4
:1010D000009A079B1344DA1C079BB2FBF3F38DF8CD
:1010E0001B30019800F05BF90590059B002B01D1A6
:1010F000002338E0059B00221A71059B01225A71DA
:10110000079B9AB2059BDA80059B09939DF81B30DB
:10111000013B0493099B019A1A60002308931DE088
:10112000019800F03CF90390039B002B0ED0059B27
:101130005B790133DAB2059B5A71099B039A1A60F5
:10114000039B019A1A60039B099304E0059800F041
:101150000EF8002307E0089B01330893089A049BCC
:101160009A42DDD3059B18460BB05DF804FB00B531
:101170008BB00190019B0793079B5B798DF81B3027
:10118000019B08939DF81B30013B059300230993B5
:1011900005E0089B1B680893099B01330993099A92
:1011A000059B9A42F5D3089B1B680493019B089307
:1011B000002309930BE0089B1B680393089904988C
:1011C00000F02BF9039B0893099B013309939DF8C9
:1011D0001B30099A9A42EED300BF00BF0BB05DF8F6
:1011E00004FB00B585B00190019B0393039B04337E
:1011F00001211846FFF78FFE00BF05B05DF804FB24
:1012000000B587B00190019B0593059B0433012134
:101210001846FFF798FE0346039303AB0493049B21
:101220001B78002B02D10198FFF7A1FF00BF07B088
:101230005DF804FB00B591B0039002910192009318
:10124000039B0993039B0F93099BDB881A46099B19
:101250005B7902FB03F3043B0893099BDB8807934C
:10126000009B1A1D079BB2FBF3F30E93009B043304
:10127000079AB3FBF2F2079901FB02F29B1A0D9356
:10128000019B1A68009B1344089A9A4203D2089A59
:10129000009BD31A01E0019B1B680C93019B0C9AE5
:1012A0001A6005E00F9B1B680F930E9B013B0E938A
:1012B0000E9B002BF6D100230B93079A0D9BD31A9C
:1012C0000A930A9A0C9B934228BF13460A932AE07A
:1012D000029A0B9B134406930F9A0D9B13440433FD
:1012E00005939DF84830002B05D00A9A0599069879
:1012F00004F0F2F904E00A9A0699059804F0ECF972
:1013000000230D930F9B1B680F930C9A0A9BD31A13
:101310000C930B9A0A9B13440B93079A0C9B9342D2
:1013200028BF13460A930C9B002BD1D100BF00BFEE
:1013300011B05DF804FB00B589B0059004910392EB
:101340000293039B079307AA00230093029B04992F
:101350000598FFF76FFF00BF09B05DF804FB82B08E
:1013600001900B468DF80330019BDA689DF803303D
:101370000199098A01FB03F31344184602B0704730
:1013800082B001900091009B019AD2689B1A019A49
:10139000128AB3FBF2F3DBB2184602B0704700B515
:1013A00085B001900023039300238DF80A300DF1DE
:1013B0000A031846FFF76CFE019B1B681A68019B25
:1013C0005B689A421FD9019B1B681A68013A1A6030
:1013D0001B681B7819460198FFF7C1FF0390019B1A
:1013E0009A68019B1B681B68D31A8DF80B30019B10
:1013F0001B681B799DF80B209A4204D9019B1B683E
:101400009DF80B201A719DF80A301846FFF74AFE26
:10141000039B184605B05DF804FB10B584B001903D
:101420000091009B039300238DF80B300DF10B030B
:101430001846FFF72DFE019B1B681C68621C1A6092
:1014400003990198FFF79CFF034623709DF80B302A
:101450001846FFF727FE00BF04B010BDBFF34F8F43
:1014600000BF064BDB6803F4E0620449044B1343FE
:10147000CB60BFF34F8F00BF00BFFDE700ED00E082
:101480000400FA0582B0114B1B680193104B1B68D6
:101490000093019B0D2B14D1009B022B0DD0009BC0
:1014A000022B0CD8009B002B03D0009B012B02D0F9
:1014B00005E0012306E0012304E0012302E001230B
:1014C00000E00023184602B0704700BF3001001052
:1014D0003401001082B0114B1B680193104B1B6844
:1014E0000093019B0D2B14D1009B022B0DD0009B70
:1014F000022B0CD8009B002B03D0009B012B02D0A9
:1015000005E0012306E0012304E0012302E00123BA
:1015100000E00023184602B0704700BF3001001001
:101520003401001082B0114B1B680193104B1B68F3
:101530000093019B0D2B14D1009B022B0DD0009B1F
:10154000022B0CD8009B002B03D0009B012B02D058
:1015500005E0012306E0012304E0012302E001236A
:1015600000E00023184602B0704700BF30010010B1
:101570003401001082B0114B1B680193104B1B68A3
:101580000093019B0D2B14D1009B022B0DD0009BCF
:10159000022B0CD8009B002B03D0009B012B02D008
:1015A00005E0002306E0002304E0012302E001231C
:1015B00000E00023184602B0704700BF3001001061
:1015C0003401001008B5FFF7D5FF0346002B07D004
:1015D0004FF010234FF08042D3F80832C2F858354C
:1015E00000BF08BD00BF044BD3F80034002BFAD075
:1015F00000BF00BF704700BF00E0014000B583B0EE
:101600000190054A019BC2F80435FFF7EBFF00BFCC
:1016100003B05DF804FB00BF00E00140024B034A49
:101620001A6000BF704700BFD42300200090D00391
:1016300008B5FFF727FF0346002B0ED04FF080437D
:101640000022C3F80C214FF080430022C3F8102180
:101650004FF080430022C3F83825FFF73BFF0346D5
:10166000002B76D04FF080535E4AD3F80434C2F892
:1016700020354FF080535B4AD3F80834C2F8243544
:101680004FF08053574AD3F80C34C2F828354FF046
:101690008053544AD3F81034C2F82C354FF080539D
:1016A000504AD3F81434C2F830354FF080534D4AC5
:1016B000D3F81834C2F834354FF08053494AD3F880
:1016C0001C34C2F840354FF08053464AD3F82034DA
:1016D000C2F844354FF08053424AD3F82434C2F85C
:1016E00048354FF080533F4AD3F82834C2F84C3580
:1016F0004FF080533B4AD3F82C34C2F850354FF0AA
:101700008053384AD3F83034C2F854354FF0805300
:10171000344AD3F83434C2F860354FF08053314A3C
:10172000D3F83834C2F864354FF080532D4AD3F8DB
:101730003C34C2F868354FF080532A4AD3F840341D
:10174000C2F86C354FF08053264AD3F84434C2F8BF
:101750007035FFF7E7FE0346002B0DD04FF08043B6
:10176000D3F8003403F00103002B05D04FF0804381
:101770006FF00102C3F800241B4BD3F888301A4ADB
:1017800043F47003C2F88830BFF34F8F00BFBFF33C
:101790006F8F00BFFFF716FF4FF01023D3F8003212
:1017A000002B05DB4FF01023D3F80432002B15DAA1
:1017B0000120FFF723FF4FF010231222C3F800226D
:1017C000FFF710FF4FF010231222C3F80422FFF797
:1017D00009FF0020FFF712FFFFF740FEFFF71EFF93
:1017E00000BF08BD00C0004000ED00E082B00190E5
:1017F000019B1B681F2B02D84FF0A04306E0019B02
:101800001B6803F01F02019B1A60024B184602B0CE
:10181000704700BF0003005000B585B00190084636
:1018200011461A4603468DF803300B468DF80230F8
:1018300013468DF8013001AB1846FFF7D7FF039030
:101840009DF803209DF802305B001A439DF801309B
:101850009B001A439DF818301B0242EA03019DF8D1
:101860001C301B04019A1943039B02F5E07243F8F4
:10187000221000BF05B05DF804FB00B585B00390F1
:1018800000230193002300930023012201210398E8
:10189000FFF7C2FF00BF05B05DF804FB00B585B0DF
:1018A00003900B468DF80B309DF80B30002201920F
:1018B00000220092002200210398FFF7ADFF00BF35
:1018C00005B05DF804FB00B585B0019001AB18468A
:1018D000FFF78CFF0390019B012202FA03F31946E4
:1018E000039800F02AF800BF05B05DF804FB00B5CE
:1018F00085B0019001AB1846FFF778FF0390019B7C
:10190000012202FA03F31946039800F020F800BF01
:1019100005B05DF804FB00B583B001900091009B19
:10192000002B03D10198FFF7E2FF02E00198FFF7D7
:10193000CAFF00BF03B05DF804FB82B001900091C4
:10194000019B009AC3F8082500BF02B0704782B01F
:1019500001900091019B009AC3F80C2500BF02B0D2
:101960007047000000B583B00190064A019B134404
:101970001B7801211846FFF7CEFF00BF03B05DF8CA
:1019800004FB00BF304E030000B583B00023019379
:1019900005E00198FFF7E6FF019B01330193019BEE
:1019A000032BF6D900BF00BF03B05DF804FB0000B5
:1019B00000B583B00023019309E0094A019B134459
:1019C0001B781846FFF759FF019B01330193019BD8
:1019D000032BF2D9FFF7D8FF00BF03B05DF804FB7B
:1019E000304E030000B583B00023019307E00223CB
:1019F00003211846FFF752FF019B01330193019B1E
:101A0000002BF4D000BF00BF03B05DF804FB00B5AD
:101A100083B00190019B03F00103002B01D0FFF77D
:101A2000C7FF019B03F00203002B01D0FFF7DAFF91
:101A300000BF03B05DF804FB00B589B001900091D0
:101A4000009B0793019B1B788DF80830019B5B6816
:101A50000393019B9B68DBB28DF81030019BDB6820
:101A60000593019B1B69DBB28DF81830074A079B71
:101A700052F823300649079A51F8221002AA10465C
:101A8000984700BF09B05DF804FB00BF842F002019
:101A9000942F002010B58AB0039002910192009318
:101AA000039B1B7809932249099B019A41F8232043
:101AB0002049099B009A41F82320002308931E4BDC
:101AC00004AC0FCB84E80F00029B1B788DF810301C
:101AD000029B5B788DF81130029B9B788DF8123059
:101AE000029BDB788DF81330029B1B798DF8153043
:101AF000029B5B798DF81630029B9B680693029BD4
:101B00001B7B8DF81C30029B5B7B8DF81D30039B8B
:101B1000181D019B002B01D0084A00E00022099B00
:101B200004A900F0C5FA0890089B18460AB010BD39
:101B3000842F0020942F0020344E0300391A020015
:101B400008B5024B1B68984700BF08BDA42F0020B2
:101B500082B00190019B044A934201D1034B00E003
:101B60000023184602B0704700200040A42F002038
:101B700000B587B0019000910198FFF7E9FF04904C
:101B8000049B002B25D000238DF8173000238DF8FF
:101B90000B300DF10B031846FFF77AFA049B1B7903
:101BA000002B03D001238DF8173005E0049B009A29
:101BB0001A60049B01221A719DF80B301846FFF73A
:101BC00071FA9DF81730002B03D011230393039B68
:101BD00002E000230393039B184607B05DF804FB63
:101BE00082B003468DF807309DF90730002B0CDBDF
:101BF0009DF8073003F01F0205499DF907305B0986
:101C0000012000FA02F241F8232000BF02B0704721
:101C100000E100E082B0034600918DF807309DF9A5
:101C20000730002B0ADB009BDAB20C499DF9073024
:101C30005201D2B20B4483F800230BE0009BDAB2CE
:101C400007499DF8073003F00F03043B5201D2B25D
:101C50000B441A7600BF02B0704700BF00E100E0FD
:101C600000ED00E082B00190019B03F06043B3F10E
:101C7000005F0CBF01230023DBB2184602B070479F
:101C800082B00190019B1B0B5BB2184602B07047FB
:101C900000B583B003460A468DF8073013468DF829
:101CA00006309DF806209DF9073011461846FFF7CB
:101CB000B1FF00BF03B05DF804FB00B583B003467D
:101CC0008DF807309DF907301846FFF789FF00BFF0
:101CD00003B05DF804FB82B001900B468DF8033031
:101CE0009DF80330019A134401221A6000BF02B02C
:101CF000704784B001900B46ADF80230BDF8023059
:101D0000019A134400221A60BDF80230019A13446C
:101D10001B680393039B00BF04B0704782B001901F
:101D20000B46ADF80230BDF80230019A13441B682F
:101D3000002B14BF01230023DBB2184602B070470A
:101D400082B001900091019B009AC3F8042300BF68
:101D500002B0704782B001900091019B009AC3F8D5
:101D6000082300BF02B0704782B00190019B072298
:101D7000C3F8002500BF02B0704784B00390029101
:101D800001920093039B029AC3F80825039B019AD2
:101D9000C3F80C25039B009AC3F8102500BF04B0BC
:101DA000704782B001900091009A019BC3F82425EE
:101DB00000BF02B0704784B0039002910192029A72
:101DC000039BC3F84425039B019AC3F8482500BF31
:101DD00004B0704784B0039002910192029A039B71
:101DE000C3F83425039B019AC3F8382500BF04B01B
:101DF000704784B001900B468DF8033013468DF880
:101E000002309DF80230002B14BF01230023DBB207
:101E100003939DF80330032B10D0032B13DC012B0D
:101E200002D0022B05D00EE0039B43F00203039384
:101E30000AE0039B43F00403039305E0039B43F094
:101E40000603039300E000BF019B039AC3F85425E7
:101E500000BF04B0704782B001900B468DF803308C
:101E60009DF80320019BC3F8C02500BF02B0704756
:101E700082B00190019B0122C3F8502500BF02B03F
:101E8000704782B00190019B0022C3F8502500BF2B
:101E900002B0704782B00190019B0122C3F8402537
:101EA00000BF02B0704782B00190019B0022C3F8CE
:101EB000402500BF02B0704782B00190019B1B68B3
:101EC0001F2B02D84FF0A04306E0019B1B6803F0D4
:101ED0001F02019B1A60024B184602B0704700BFF8
:101EE0000003005000B585B00190084611461A461F
:101EF00003468DF803300B468DF8023013468DF8FB
:101F0000013001AB1846FFF7D7FF03909DF803207F
:101F10009DF802305B001A439DF801309B001A4384
:101F20009DF818301B0242EA03019DF81C301B0487
:101F3000019A1943039B02F5E07243F8221000BF97
:101F400005B05DF804FB00B585B003900023019354
:101F5000002300930023012201210398FFF7C2FF11
:101F600000BF05B05DF804FB00B585B003900B46DB
:101F70008DF80B309DF80B30002201920022009268
:101F8000002200210398FFF7ADFF00BF05B05DF808
:101F900004FB00B585B0019001AB1846FFF78CFF3C
:101FA0000390019B012202FA03F31946039800F003
:101FB00018F800BF05B05DF804FB00B585B00190CE
:101FC00001AB1846FFF778FF0390019B012202FA4C
:101FD00003F31946039800F00EF800BF05B05DF852
:101FE00004FB82B001900091019B009AC3F8082580
:101FF00000BF02B0704782B001900091019B009A2F
:10200000C3F80C2500BF02B07047000086B00190F5
:1020100000911E4B1B681E4A1360009B002B31D0A1
:10202000019B009A13440293019B23F4FF5323F076
:102030001F030593059B5B0B9BB2012202FA03F37E
:10204000049300230393059B124A934203D94FF450
:102050008073039312E0039A049B13430393049B3E
:102060005B000493059B03F500530593059A029BBF
:102070009A4203D2059B084A9342ECD3034A039B3E
:10208000136000E000BF06B0704700BF000E0040C4
:1020900018300020FFFF002000200120024A034BDF
:1020A0001B68136000BF7047000E0040183000200E
:1020B00000B58DB00590049103920293059B1B79A6
:1020C0001A461346DB0013449B00664A13440A93E6
:1020D0000A9B1B7F002B03D008230793079BBDE0BF
:1020E000059B1B680993059B1A68059B1B7919467C
:1020F0005D4B53F8213019461046FFF739FD034672
:10210000002B03D011230793079BA7E00A9B039A98
:102110001A600A9B029A5A60049B1B7B012B05D80C
:10212000049B1B781846FFF748FF04E0049B1B78CC
:102130001846FFF72EFF049B1B78184600230193D7
:1021400000230093002300220121FFF7CBFE049B14
:102150005B78FF2B09D0049B5B780B930B98FFF700
:102160002CFF0B98FFF7EFFE02E04FF0FF330B93CD
:10217000049B9B78FF2B07D0049B9B78089301213D
:102180000898FFF7F1FE02E04FF0FF330893049B3D
:102190009A780A9B83F82020049BDA780A9BDA77E6
:1021A000049BDB78FF2B17D0049B1B79002B05D0F9
:1021B000049BDB781846FFF700FF04E0049BDB7804
:1021C0001846FFF7E6FE049BDB781846FFF7BBFED8
:1021D000049B1A790A9B9A77049B1B781946089BE3
:1021E0000B9A0998FFF7C9FD049B9B68194609984B
:1021F000FFF7D7FD049B197B049B5B7B1A4609986C
:10220000FFF7F7FD049B9B7919460998FFF723FE1A
:102210000998FFF7A9FD0A9B1B68002B15D0059BA9
:102220001B681846FFF72CFD03461A46049B5B7992
:1022300019461046FFF72CFD059B1B681846FFF753
:102240001FFD03461846FFF738FD0A9B00225A7708
:102250000A9B01221A7700230793079B18460DB0AB
:102260005DF804FBAC2F0020504E030000B583B096
:102270000190019BDB7FFF2B0ED0019B9B7F002BEE
:1022800005D0019BDB7F1846FFF797FE04E0019B1A
:10229000DB7F1846FFF77DFE019B00225A77019BEA
:1022A00000221A72019B1B68019A02F10800019A30
:1022B00052681146984700BF03B05DF804FB00B5B3
:1022C00083B001900B468DF803309DF8033083F006
:1022D0000103DBB2002B04D040210198FFF73AFD47
:1022E00003E040210198FFF72BFD00BF03B05DF82C
:1022F00004FB00B583B001900091009B03F0010343
:10230000002B03D00198FFF7B3FD02E00198FFF71F
:10231000B8FD009B03F00203002B03D00198FFF7E8
:10232000B9FD02E00198FFF7BEFD00BF03B05DF804
:1023300004FB000000B587B0039002910192009366
:10234000019B1B68002B0AD0019B1B681846FFF7F6
:1023500089FC034683F00103DBB2002B0ED1019B05
:102360009B68002B11D0019B9B681846FFF77AFCF5
:10237000034683F00103DBB2002B06D0029B002250
:102380005A7710230593059B66E0019B1968019B12
:102390005B681A460398FFF70EFD019B9968019B45
:1023A000DB681A460398FFF715FD039B2C4A9342FE
:1023B00007D1019B1A68019B5B6819461046FFF71D
:1023C00025FE4FF48C710398FFF793FC0099039856
:1023D000FFF78FFF009B03F00803002B03D11021B0
:1023E0000398FFF778FC029B1B68002B25D100BFE8
:1023F0004FF48C710398FFF791FC034683F00103BF
:10240000DBB2002BF4D1039B154A934201D1FFF7B5
:1024100045FE029BDB7FFF2B1BD0029B9B7F002B8B
:1024200005D0029BDB7F1846FFF7C7FD11E0029B3A
:10243000DB7F1846FFF7ADFD0BE0009B03F00403C4
:10244000002B0CBF01230023DBB219460398FFF7D2
:1024500036FF00230593059B184607B05DF804FB83
:1024600000F0024010B586B0039002910192039BE8
:102470001B791A461346DB0013449B001F4A134482
:10248000049300230593049B5B7FDBB2002B03D0F6
:1024900011230593059B2EE0049B1B68002B07D09E
:1024A000019B03F01403002B02D1049B01225A77F5
:1024B000049B029A03F10C0413460FCB84E80F002F
:1024C000049BDB7FFF2B0ED0049B9B7F002B05D052
:1024D000049BDB7F1846FFF75CFD04E0049BDB7F79
:1024E0001846FFF76AFD039B1868019B029A04993E
:1024F000FFF720FF0346184606B010BDAC2F0020A2
:1025000000B583B0019000914FF48C710198FFF7F2
:1025100005FC0346002B0DD0019B084A934201D1D4
:10252000FFF7BCFD4FF48C710198FFF7E2FB0098B8
:10253000FFF79CFE00BF03B05DF804FB00F0024013
:1025400008B503490348FFF7DBFF00BF08BD00BF24
:10255000AC2F00200030004008B503490348FFF7C6
:10256000CFFF00BF08BD00BFD02F002000300240C9
:1025700008B503490348FFF7C3FF00BF08BD00BF0C
:10258000F42F002000F0024082B003468DF807309F
:102590009DF90730002B0DDB9DF8073003F01F027B
:1025A00006499DF907305B09012000FA02F2603309
:1025B00041F8232000BF02B0704700BF00E100E0F7
:1025C00082B00190019B1B0B5BB2184602B07047B2
:1025D00000B583B003468DF807309DF907301846E3
:1025E000FFF7D2FF00BF03B05DF804FB82B001909B
:1025F0000B468DF803309DF80330019A13440122F5
:102600001A6000BF02B0704784B001900B46ADF86D
:102610000230BDF80230019A134400221A60BDF85E
:102620000230019A13441B680393039B00BF04B05C
:10263000704782B001900B46ADF80230BDF8023011
:10264000019A13441B68002B14BF01230023DBB243
:10265000184602B0704782B001900091019B009A29
:10266000C3F8042300BF02B0704782B0019000910C
:10267000019B009AC3F8082300BF02B0704782B0E4
:102680000190019B0622C3F8002500BF02B07047ED
:1026900082B00190019B0022C3F8002500BF02B068
:1026A000704784B00190019BD3F8C4340393019B1D
:1026B000039AC3F8C424039B184604B0704782B041
:1026C00001900091019B009AC3F8002200BF02B064
:1026D000704782B00190019BD3F84C35184602B088
:1026E000704782B00190019BD3F80032184602B0C7
:1026F000704782B00190019BD3F83C35184602B078
:102700007047000000B585B00190009101238DF85D
:102710000F30009B1B7B032B56D801A252F823F0ED
:1027200099270200B1270200712702003127020019
:10273000009B9B6803F48023002B07D00198FFF7D0
:10274000C8FF0246009B1B699A420DD1009B9B6803
:1027500003F48023002B39D10198FFF7BAFF02461A
:10276000009B5B699A4231D000238DF80F302DE039
:102770000198FFF7AEFF0246009B1B699A4207D102
:102780000198FFF7B6FF0246009B5B699A421FD093
:1027900000238DF80F301BE00198FFF79AFF0246E7
:1027A000009B1B699A4215D000238DF80F3011E071
:1027B0000198FFF79EFF0246009B1B699A420BD0CF
:1027C00000238DF80F3007E000BF06E000BF04E0F3
:1027D00000BF02E000BF00E000BF9DF80F3083F0B3
:1027E0000103DBB2002B05D00198FFF751FF0198E0
:1027F000FFF745FF9DF80F30184605B05DF804FB64
:1028000030B58BB0019000914FF492710198FFF7B1
:1028100010FF0346002B3ED04FF492710198FFF752
:10282000F3FE4FF482710198FFF703FF034683F034
:102830000103DBB2002B2ED0009B9B681946019848
:10284000FFF713FF009B02229A60009B9B681946CA
:102850000198FFF700FF4FF4B0710198FFF7E9FE10
:10286000034683F00103DBB2002B07D10198FFF789
:1028700038FF034603F40073002B07D12021019891
:10288000FFF7B4FE14210198FFF7B0FE009B012270
:1028900083F82E20F6E04FF482710198FFF7C9FE0D
:1028A0000346002B5DD04FF482710198FFF7ACFE18
:1028B000009B1B6A03F04003002B1AD1009B93F886
:1028C0002E3083F00103DBB2002B12D00099019867
:1028D000FFF718FF0346002B14BF01230023DBB2D0
:1028E00083F00103DBB203F00103DAB2009B83F84B
:1028F0002E20009B1B6A03F00403002B79D1009B60
:1029000004AC03F10C050FCD0FC42B6823604FF40A
:10291000B0710198FFF778FE4FF4AE710198FFF7A0
:1029200073FE009B93F8303083F00103DBB2002B81
:1029300004D1009B93F82E30002B5AD0002101982F
:10294000FFF7BDFE009B00229A604F490198FFF7F8
:102950008CFE0198FFF734FE03461846FFF738FE59
:1029600047E04FF4A4710198FFF74EFE009B1B7BDC
:10297000002B22D1009B04AC03F10C050FCD0FC43A
:102980002B682360009B93F8303083F00103DBB2A7
:10299000002B2ED000210198FFF791FE009B002212
:1029A0009A6039490198FFF760FE0198FFF708FE29
:1029B00003461846FFF70CFE1BE04FF40071019828
:1029C000FFF77DFE009B40F202229A602E4901989B
:1029D000FFF74BFE009B9B6819460198FFF73BFEF3
:1029E00008210198FFF702FE20210198FFF7FEFD64
:1029F00048E00198FFF755FE0990099B03F0020398
:102A0000002B03D001238DF80C301DE0099B03F04F
:102A10000403002B03D002238DF80C3014E0099B33
:102A200003F00103002B03D003238DF80C300BE0DF
:102A3000009B93F82E30002B03D004238DF80C302C
:102A400002E000238DF80C30009B93F8303083F0C7
:102A50000103DBB2002B03D0009B002283F82F2060
:102A6000009B1B6A03F00403002B04D0009B93F827
:102A70002E30002B06D0009B1B68009A516803AAD9
:102A8000104698470BB030BD02029C0108B50349BF
:102A90004FF04020FFF7B4FE00BF08BD1C300020FF
:102AA00082B003468DF807309DF90730002B0CDB10
:102AB0009DF8073003F01F0205499DF907305B09B7
:102AC000012000FA02F241F8232000BF02B0704753
:102AD00000E100E082B0034600918DF807309DF9D7
:102AE0000730002B0ADB009BDAB20C499DF9073056
:102AF0005201D2B20B4483F800230BE0009BDAB200
:102B000007499DF8073003F00F03043B5201D2B28E
:102B10000B441A7600BF02B0704700BF00E100E02E
:102B200000ED00E082B00190019B1B0B5BB21846E8
:102B300002B0704700B583B003460A468DF80730EF
:102B400013468DF806309DF806209DF90730114692
:102B50001846FFF7BFFF00BF03B05DF804FB00B5E8
:102B600083B003468DF807309DF907301846FFF70C
:102B700097FF00BF03B05DF804FB00B583B00346C8
:102B8000ADF80630BDF80630184600F026F80346CA
:102B90001B68012B0CBF01230023DBB2184603B0D6
:102BA0005DF804FB00B585B00346ADF80630BDF80E
:102BB0000630184600F011F803461A460023136049
:102BC000BDF80630184600F008F803461B6803936A
:102BD000039B00BF05B05DF804FB82B00346ADF86F
:102BE0000630BDF8063003F1804303F5C0431846B4
:102BF00002B0704782B00190034A019BC2F80433CF
:102C000000BF02B0704700BF0060004082B001907A
:102C1000034A019BC2F8083300BF02B0704700BFEF
:102C20000060004082B00190034BD3F80423019B65
:102C30001340184602B070470060004082B0019017
:102C4000084A019B03F5A27352F82330054943F06B
:102C50000102019B03F5A27341F8232000BF02B0DB
:102C6000704700BF0060004082B00190084A019B9D
:102C700003F5A27352F82330054923F00102019BAA
:102C800003F5A27341F8232000BF02B0704700BFD4
:102C90000060004084B00390029113468DF8073025
:102CA000144A039B03F5A27352F82330114923F40D
:102CB0004F3323F44073039A02F5A27241F8223095
:102CC0000C4A039B03F5A27352F82320029B1B02BC
:102CD00003F47C519DF807301B0403F440330B438D
:102CE00004491A43039B03F5A27341F8232000BF54
:102CF00004B070470060004082B00190054A019B1B
:102D000003F5A27352F823301B0A03F03F03184661
:102D100002B070470060004082B00190064A019BFB
:102D200003F5A27352F823301B0C03F00303DBB24C
:102D3000184602B0704700BF0060004084B00390A6
:102D4000029111461A460B468DF8073013468DF84E
:102D50000630184A039B03F5A27352F82330154935
:102D600023F4991323F4F853039A02F5A27241F85D
:102D70002230104A039B03F5A27352F82320029BD2
:102D80001B0203F47C519DF807301B0403F440330D
:102D900019439DF806301B0503F480130B430549C6
:102DA0001A43039B03F5A27341F8232000BF04B02C
:102DB000704700BF0060004082B00190019B1B681B
:102DC0001F2B02D84FF0A04306E0019B1B6803F0C5
:102DD0001F02019B1A60024B184602B0704700BFE9
:102DE0000003005000B585B00190084611461A4610
:102DF00003468DF803300B468DF8023013468DF8EC
:102E0000013001AB1846FFF7D7FF03909DF8032070
:102E10009DF802305B001A439DF801309B001A4375
:102E20009DF818301B0242EA03019DF81C301B0478
:102E3000019A1943039B02F5E07243F8221000BF88
:102E400005B05DF804FB00B585B003900023019345
:102E5000002300930023012201210398FFF7C2FF02
:102E600000BF05B05DF804FB00B585B003900B46CC
:102E70008DF80B309DF80B30002201920022009259
:102E8000002200210398FFF7ADFF00BF05B05DF8F9
:102E900004FB00B585B0019001AB1846FFF78CFF2D
:102EA0000390019A039B02F5E07253F8223023F05D
:102EB00002030293019A039B02F5E072029943F820
:102EC000221000BF05B05DF804FB00B585B001908D
:102ED0000B468DF8033001AB1846FFF76DFF0390EA
:102EE000019A039B02F5E07253F82230019A23F411
:102EF0004031039B02F5E07243F82210019A039BD4
:102F000002F5E07253F822309DF8032012041146B6
:102F1000019A1943039B02F5E07243F8221000BFA7
:102F200005B05DF804FB00B585B0019001AB184613
:102F3000FFF742FF0390019B012202FA03F31946B7
:102F4000039800F06DF800BF05B05DF804FB00B514
:102F500085B0019001AB1846FFF72EFF0390019B4F
:102F6000012202FA03F31946039800F063F800BF48
:102F700005B05DF804FB00B585B0019001AB1846C3
:102F8000FFF71AFF0390039BD3F804350293029BCB
:102F9000DA43019B012101FA03F31A40039BC3F8B2
:102FA0000825019B01229A40029B1A40039BC3F80B
:102FB0000C2500BF05B05DF804FB00B585B001909D
:102FC00001AB1846FFF7F8FE0390039800F020F8D5
:102FD0000246019B22FA03F303F00103184605B0F1
:102FE0005DF804FB00B585B0019001AB1846FFF712
:102FF000E3FE0390019A039B02F5E07253F822303E
:103000001B0C03F00303DBB2184605B05DF804FBAC
:1030100082B00190019BD3F81035184602B070477A
:1030200082B001900091019B009AC3F8082500BF6F
:1030300002B0704782B001900091019B009AC3F8E2
:103040000C2500BF02B0704788B003900291019236
:10305000164A05AB92E8030083E80300039B07933D
:1030600019E0079B9B0008AA134453F80C3CD3F8C3
:103070002025019B1A60079B9B0008AA134453F864
:103080000C3C019A1268C3F82025019B043301937C
:10309000079B01330793039A029B1344079A9A42B2
:1030A000DFD300BF00BF08B0704700BF644E03000D
:1030B00000B585B0019001AB1846FFF77DFE039087
:1030C000019B012202FA03F31A46039BC3F8202551
:1030D00000BF05B05DF804FB84B00190019B5B0963
:1030E000029300230393029B002B03D0029B012B2E
:1030F00004D007E04FF0FF33039303E040F2FF33C7
:10310000039300BF019B03F01F030193039A019BEC
:1031100022FA03F303F00103002B14BF0123002361
:10312000DBB2184604B0704784B001900091009B58
:103130000393019BDB080293019B03F007030193B8
:103140000122019B02FA03F30399029A0A441278BE
:103150001340184604B0704784B001900091009B62
:103160000393019BDB080293019B03F00703019388
:10317000039A029B13441B785AB20121019B01FA66
:1031800003F35BB2134359B2039A029B1344CAB2CE
:103190001A7000BF04B0704782B00190074A019BCB
:1031A0001344243393F90030B3F1FF3F14BF0123DC
:1031B0000023DBB2184602B0704700BF5030002039
:1031C00082B001900C4A019B1344243393F90030E0
:1031D000002B09DB084A019B1344243393F9003088
:1031E000072B01DC012300E0002303F00103DBB225
:1031F000184602B0704700BF5030002082B00190E6
:10320000064A019B1344243393F90030072BCCBFAB
:1032100001230023DBB2184602B070475030002073
:1032200082B00190064A019B1344243393F9003085
:10323000DB43DBB2DB09DBB2184602B0704700BFEC
:103240005030002084B00390029101928DF8033039
:10325000029B59B20E4A039B134424330A461A7048
:103260000B49029B019A41F823209DF8033083F01B
:103270000103DBB2002B08D0029B083B039A51B23A
:10328000034A13440A4683F84E2000BF04B0704737
:103290005030002082B00190044A019B1344243333
:1032A000FE221A7000BF02B0704700BF50300020ED
:1032B00082B00190044A019B13442433FF221A7008
:1032C00000BF02B0704700BF5030002000B583B08F
:1032D000019004490198FFF73FFF00BF03B05DF87C
:1032E00004FB00BF9F30002082B00190044A019B84
:1032F0001344243393F90030184602B0704700BFDE
:103300005030002082B00190034A019B52F82330D4
:10331000184602B0704700BF5030002084B00190C2
:10332000074A019B13444E3393F900308DF80F3058
:103330009DF80F3023F0C003184604B0704700BF5B
:103340005030002084B00190074A019B13444E3353
:1033500093F900308DF80F309DF80F309B09DBB2E8
:10336000184604B0704700BF5030002000B589B047
:103370000390029113468DF80730FF238DF81F301C
:103380009DF80730002B01D0002300E008230593AF
:103390009DF80730002B01D0082300E00923049397
:1033A000059B069314E00F4A069B52F82330B3F1B5
:1033B000FF3F0AD19DF80730029A06990398FFF75C
:1033C00041FF069B8DF81F3006E0069B01330693F4
:1033D000069A049B9A42E6D39DF91F30184609B01D
:1033E0005DF804FB5030002082B003468DF80730B2
:1033F0009DF80730094A4FF0FF3142F823109DF83D
:103400000730072B07D99DF80730083B034A1344C0
:10341000FF2283F84E2000BF02B0704750300020DA
:1034200000B583B02D4B93F85530002B03D0082303
:103430000093009B4EE000238DF8073011E09DF8CB
:1034400007301846FFF748FE0346002B04D09DF8CE
:1034500007301846FFF72CFF9DF8073001338DF831
:1034600007309DF80730292BE9D900238DF8073064
:1034700009E09DF807301846FFF7B6FF9DF80730C2
:1034800001338DF807309DF80730082BF1D906225B
:103490000021134802F049F91248FFF743FB0346A5
:1034A00007211846FFF746FB0E48FFF73BFB034694
:1034B0001846FFF754FB4FF4BE70FFF773FB4FF055
:1034C0000040FFF797FB054B012283F855200023AE
:1034D0000093009B184603B05DF804FB50300020B9
:1034E0009F3000200060004000B585B00190009141
:1034F000002303930198FFF74FFE0346002B02D0F1
:103500000823039334E0009B9B78002B19D0012201
:1035100000210198FFF72AFF03468DF80B309DF933
:103520000B30B3F1FF3F09D09DF90B00009B1A78D7
:10353000009B5B780199FFF701FC05E004230393EE
:1035400002E00198FFF7A6FE039B002B10D1009B21
:103550005B78012B03D10198FFF7E5FC02E00198AD
:10356000FFF7F5FC0198FFF76EFC0198FFF7AEFE40
:10357000039B184605B05DF804FB00B583B00190CD
:103580000198FFF7F8FC00BF03B05DF804FB0000F2
:1035900000B587B003900291019200230593039830
:1035A000FFF73EFE0346002B02D00823059357E0A9
:1035B000029B9B78C3F34003DBB21A460199039840
:1035C000FFF7D4FE03468DF813309DF91330B3F1A5
:1035D000FF3F43D0029B9B78C3F38003DBB283F0B1
:1035E0000103DBB2002B13D0029B9B7803F0010395
:1035F000DBB2002B03D00398FFF74BFC05E0029BE6
:103600005B7819460398FFF72FFC0398FFF75EFEDF
:10361000029B9B7803F00203DBB2002B08D09DF9DC
:103620001300029B1B781A460399FFF733FB17E040
:103630009DF91330083B0D4A134493F94E10029B39
:103640001B789B015AB29DF91330083B0A4351B2D3
:10365000064A13440A4683F84E2001E004230593EA
:10366000059B184607B05DF804FB00BF50300020F2
:1036700000B589B001900B468DF803300198FFF733
:10368000BDFD0346002B2AD00198FFF72DFE03460F
:10369000083B1846FFF756FE03468DF80F309DF89D
:1036A0000F30032B0BD10198FFF787FC0346002B4B
:1036B00001D0032300E002238DF81F3008E09DF8BD
:1036C0000F30012B01D1022300E003238DF81F30BE
:1036D0009DF81F3019460198FFF7F7FB30E001987D
:1036E000FFF76EFD0346002B2AD00198FFF7FCFD83
:1036F00003460693069B9BB240339BB29B00ADF8FA
:103700001630069B1846FFF799FABDF81630184692
:10371000FFF748FA9DF80330002B11D00198FFF70E
:10372000E3FD03461846FFF7EDFD0490049B002BD4
:1037300006D00122069B02FA03F31846FFF75AFA55
:1037400000BF09B05DF804FB00B585B00190019899
:10375000FFF754FD0346002B04D000210198FFF72A
:10376000B4FB15E00198FFF72BFD0346002B0FD0AB
:103770000198FFF7B9FD03460393039B1846FFF733
:1037800073FA0122039B02FA03F31846FFF73EFA8D
:1037900000BF05B05DF804FB00B583B0019001984F
:1037A000FFF70BFC0346002B14BF01230023DBB201
:1037B000184603B05DF804FB00B585B00190019A8E
:1037C00002210020FFF740FC002303930BE0039B42
:1037D0009B00019A13441B68002B01D0012306E0D3
:1037E000039B01330393039B012BF0D9002318465D
:1037F00005B05DF804FB000000B587B00190002320
:1038000005935BE0344A059B13444E3393F9003033
:10381000B3F1FF3F4ED00598FFF780FD049001996A
:103820000498FFF781FC0346002B44D00598FFF76E
:1038300089FD03468DF80F300498FFF7D3FB03464C
:103840008DF80E309DF80E30022B01D1032300E0DD
:1038500002238DF80D309DF80D3019460498FFF7BE
:1038600034FB0498FFF724FC0498FFF73DFD034662
:103870001846FFF747FD0290029B002B1BD09DF8D6
:103880000F30032B0FD09DF80E30022B03D19DF883
:103890000F30012B07D09DF80E30032B0BD19DF874
:1038A0000F30022B07D19DF80F20029B1146049880
:1038B000984700E000BF059B01330593059B002B53
:1038C000A0D00198FFF778FF0346002B97D100BFE7
:1038D00000BF07B05DF804FB5030002000B58BB08E
:1038E0000023089301AB00221A605A604FF48073E2
:1038F000ADF81A30012309930023079321E0BDF8A6
:103900001A301846FFF739F90346002B0ED00998F4
:10391000FFF788F90346002B08D0BDF81A30184687
:10392000FFF740F9089A099B13430893099B5B0032
:103930000993BDF81A300433ADF81A30079B0133F0
:103940000793079B072BDAD94FF4BE70FFF715F9E1
:103950000346002B0DD04FF4BE70FFF723F9089BF0
:1039600043F00043089301AB1A4602210020FFF701
:103970006BFB089BDBB2002B29D0012309930023AA
:10398000079321E0099A089B1340002B16D0079853
:10399000FFF7B2F905900798FFF7BEF903468DF8D7
:1039A00013300798FFF7AEFC0390039B002B05D064
:1039B0009DF81320039B114605989847099B5B00CF
:1039C0000993079B01330793079B072BDAD9089BC1
:1039D000002B03DA01AB1846FFF70EFF00BF0BB058
:1039E0005DF804FB82B003468DF807309DF907307F
:1039F000002B13DB9DF8073003F01F0209499DF9E6
:103A000007305B09012000FA02F2203341F823203D
:103A1000BFF34F8F00BFBFF36F8F00BF00BF02B077
:103A2000704700BF00E100E0044BD3F80034002BE6
:103A300014BF01230023DBB2184670470000014089
:103A400008B5FFF7F1FF034683F00103DBB2002B5B
:103A500004D000F033FA024B00229A7000BF08BD78
:103A6000A830002000B583B000230193184B1B78C9
:103A7000002B02D0852301931CE0154B00229A6095
:103A8000134B00225A60124B00221A61104B002285
:103A9000DA60104800F0ECF9019000F02BFA0346D0
:103AA00083F00103DBB2002B01D000F0F9F9084BE1
:103AB00001221A70FFF7B8FF0346002B02D0044B17
:103AC00001229A70019B184603B05DF804FB00BF09
:103AD000A8300020853B020084B00190019B1B6848
:103AE0000393039B002B03D0039B1A68019B1A606E
:103AF000039B184604B0704700B583B000238DF8CF
:103B000007300DF107031846FDF7C2FA094BDB68D1
:103B1000013B084AD360074BDB68002B01D1FFF75C
:103B20008FFF9DF807301846FDF7BCFA00BF03B0C1
:103B30005DF804FBA830002000B585B003468DF881
:103B400007309DF80730002B02D10C4B039301E0A6
:103B50000B4B03930398FFF7BFFF0290029B002BD0
:103B600006D0029B5B689DF8072010469847F1E756
:103B700000BF00BF05B05DF804FB00BFB0300020FF
:103B8000B830002000B583B003468DF807309DF8AB
:103B90000730002B05D10A4B01225A700020FFF795
:103BA000CBFF9DF80730012B05D1054B01229A7000
:103BB0000120FFF7C1FF00BF03B05DF804FB00BFA9
:103BC000A830002000B583B001900091019B002B2C
:103BD00005D1054B01225A700020FFF7ADFF00BF51
:103BE00003B05DF804FB00BFA830002000B585B02D
:103BF000034600918DF807309DF80730032B29D03C
:103C0000032B2CDC002B02D0012B04D027E000205A
:103C1000FFF7E8FE24E000238DF80F300DF10F03CD
:103C20001846FDF735FA104B1B7883F00103DBB221
:103C3000002B01D0FFF716FF0B4BDB6801330A4A5C
:103C4000D360094B01229A709DF80F301846FDF79A
:103C500029FA05E000F024F9FFF74EFF00E000BF6D
:103C600000BF05B05DF804FBA830002082B0034619
:103C70008DF807309DF90730002B0CDB9DF80730DD
:103C800003F01F0205499DF907305B09012000FA86
:103C900002F241F8232000BF02B0704700E100E0CB
:103CA00082B0034600918DF807309DF90730002B54
:103CB0000ADB009BDAB20C499DF907305201D2B2FF
:103CC0000B4483F800230BE0009BDAB207499DF810
:103CD000073003F00F03043B5201D2B20B441A76B3
:103CE00000BF02B0704700BF00E100E000ED00E05F
:103CF00082B00190019B1B0B5BB2184602B070476B
:103D000000B583B003460A468DF8073013468DF898
:103D100006309DF806209DF9073011461846FFF73A
:103D2000BFFF00BF03B05DF804FB00B583B00346DE
:103D30008DF807309DF907301846FFF797FF00BF51
:103D400003B05DF804FB000082B003468DF8073035
:103D50000F4A9DF90730002B00DA1F335B115BB26D
:103D600052F823209DF90730594203F01F0301F058
:103D70001F0158BF4B425BB222FA03F303F0010369
:103D8000002B14BF01230023DBB2184602B070479A
:103D900000E100E082B001904FF08042019BC2F848
:103DA000083300BF02B0704782B003468DF8073079
:103DB0009DF8073003F1804301221A6000BF02B072
:103DC000704784B00346ADF80630BDF8063003F105
:103DD000804300221A60BDF8063003F180431B685F
:103DE0000393039B00BF04B0704782B001904FF073
:103DF0008042019BC2F8183500BF02B070474FF0F7
:103E00008043D3F818341B0C03F00103002B14BFBC
:103E100001230023DBB21846704700B583B00623A8
:103E20008DF807304FF08040FFF762FF03461846D9
:103E3000FFF78AFF034683F00103DBB2002B13D0A8
:103E40004FF08040FFF754FF03461A469DF80730B5
:103E500019461046FFF754FF4FF08040FFF748FF28
:103E600003461846FFF761FF00BF03B05DF804FB8F
:103E700084B0019000230393084B1B79002B02D0E0
:103E80008523039305E0054A019B1360034B012240
:103E90001A71039B184604B0704700BFBC30002065
:103EA00008B5FFF7BAFF0120FFF79FFF024B012281
:103EB0001A7000BF08BD00BFC430002008B5022042
:103EC000FFF768FF4FF48270FFF77BFF0C20FFF7CE
:103ED0006BFF00BFFFF793FF0346002BFAD100BF33
:103EE00000BF08BD82B00190019B5B68184602B01C
:103EF00070470000014B1B7818467047C530002002
:103F000000B585B06B461149184600F0CAFE10E0B6
:103F10006B461846FFF7E6FF0390039B1B6802936E
:103F2000039B5A68029B104698476B46184600F060
:103F3000D0FE6B461846FFF7D5FF0346002BE7D1AE
:103F400000BF00BF05B05DF804FB00BFDC4E0300FE
:103F500008B5FFF7D5FF00BF08BD61DF704700BFA0
:103F6000184682B00190019B5B68184602B070470A
:103F700000B597B00190234B1B7883F00103DBB2AF
:103F8000002B3AD13423ADF846300DF1460202AB96
:103F900011461846FFF7E1FF1590159B002B03D043
:103FA000159B052B22D129E002AB14930FAB1649C8
:103FB000184600F076FE11E00FAB1846FFF7D1FF70
:103FC0001390139B1B681293139B5A68129B114604
:103FD000149898470FAB184600F07BFE0FAB1846BD
:103FE000FFF7BFFF0346002BE6D1CBE7074A40F2BD
:103FF0003B111598FCF74DF900E000BF17B05DF8D4
:1040000004FB00BFC63000207C5103002C5103008C
:1040100082B00190019B5B68184602B070474BDF8D
:10402000704700BF1846000000B589B0019004AB8E
:104030001846FFF7F4FF0790079B002B03D0079B60
:10404000052B20D124E002AB1349184600F029FECD
:1040500011E002AB1846FFF7DBFF0690069B1B68DA
:104060000593049A069B5968059B1046984702AB36
:10407000184600F02EFE02AB1846FFF7C9FF0346B4
:10408000002BE6D1D3E7054A6B210798FCF701F92D
:1040900000BF09B05DF804FBE45103009451030034
:1040A00030B58FB00190009100230293009B002B4C
:1040B0001AD000230D9314E06B460D99184600F0BA
:1040C0008EF90346002B09D0029B5A1C02920D9ACE
:1040D00092B25B000EA90B4423F82C2C0D9B0133EC
:1040E0000D930D9B132BE7D9019B1D4602AC0FCC02
:1040F0000FC50FCC0FC594E8070085E807000198AD
:104100000FB030BD00B583B00346ADF80630BDF842
:104110000630132B01D900230CE0BDF806301946F8
:10412000064800F02BF9BDF806301946044800F0A7
:1041300025F90123184603B05DF804FBD0300020B8
:10414000CC30002000B585B00346ADF80630002322
:1041500003930DE0039B9B00094A13440433BDF80D
:1041600006201146184600F021F9039B0133039302
:10417000039B1D2BEED900BF00BF05B05DF804FB0B
:10418000C830002000B583B00346ADF80630BDF856
:1041900006301946034800F009F900BF03B05DF886
:1041A00004FB00BFD030002030B59BB0184B9B689B
:1041B000DB431893164B5A6818AB11461846FCF7A8
:1041C00092FE189A6B4611461846FFF769FF0DAC30
:1041D0006D460FCD0FC40FCD0FC495E8070084E8DE
:1041E0000700002319930BE0199B5B001AAA1344E4
:1041F00033F8303C1846FFF7A5FF199B013319939C
:104200000D9B199A9A42EFD300BF00BF1BB030BD7F
:10421000C830002000B583B001900B46ADF80230E5
:1042200013468DF801309DF80130002B06D0BDF803
:1042300002301946019800F0A1F805E0BDF80230FF
:104240001946019800F0B2F800BF03B05DF804FB16
:1042500000B585B001900091019B9B88ADF80E30B0
:10426000019B1B88103B0A2B7BD801A252F823F03C
:104270009D420200C3420200634302006343020006
:10428000634302006343020063430200634302008E
:10429000634302002D430200CF420200FFF784FF78
:1042A000BDF80E301846FFF72DFF034683F00103DB
:1042B000DBB2002B52D02D4AF0210420FBF7E9FF9E
:1042C0004CE0BDF80E301846FFF75CFF49E0019B5B
:1042D0001B7AC3F30313DBB28DF80D309DF80D305C
:1042E000032B8CBF01230023DAB2BDF80E30194630
:1042F0001F48FFF78FFF9DF80D30022B8CBF012365
:104300000023DAB2BDF80E3019461A48FFF782FFD3
:104310009DF80D30012B8CBF01230023DAB2BDF8CC
:104320000E3019461448FFF775FF1AE0019B1B7AFF
:10433000002B15D1019B5B7AC3F3C003DBB2002BCA
:1043400014BF012300238DF80C309DF80C20BDF81C
:104350000E3019460648FFF75DFF01E000BF00E0A0
:1043600000BF00BF05B05DF804FB00BF645203004E
:10437000E0300020DC300020D830002000B585B0CF
:1043800001900091009B5B099B00019A1A44009BDD
:1043900003F01F03012101FA03F319461046FCF74D
:1043A00072FD039000BF05B05DF804FB00B585B059
:1043B00001900091009B5B099B00019A1A44009BAD
:1043C00003F01F03012101FA03F3DB4319461046F2
:1043D000FCF789FD039000BF05B05DF804FB82B0D7
:1043E00001900091009B5B099B00019A13441A689D
:1043F000009B03F01F0322FA03F303F00103002BD9
:1044000014BF01230023DBB2184602B0704700003E
:1044100082B003468DF807309DF90730002B0CDB86
:104420009DF8073003F01F0205499DF907305B092D
:10443000012000FA02F241F8232000BF02B07047C9
:1044400000E100E082B003468DF807309DF90730A7
:10445000002B13DB9DF8073003F01F0209499DF97B
:1044600007305B09012000FA02F2203341F82320D3
:10447000BFF34F8F00BFBFF36F8F00BF00BF02B00D
:10448000704700BF00E100E082B003468DF80730BE
:104490009DF90730002B0DDB9DF8073003F01F025C
:1044A00006499DF907305B09012000FA02F240330A
:1044B00041F8232000BF02B0704700BF00E100E0D8
:1044C00082B003468DF807309DF90730002B0DDBD5
:1044D0009DF8073003F01F0206499DF907305B097C
:1044E000012000FA02F2603341F8232000BF02B03D
:1044F000704700BF00E100E000B585B00190019B6E
:10450000002B0AD0074B43F001030393019B9B014F
:104510000293039B0298984700E000BF05B05DF846
:1045200004FB00BFB052030008B50D4B4FF48032BE
:10453000C3F844230A4B4FF48032C3F804231120FC
:10454000FFF7BEFF1120FFF763FF054B01221A6042
:104550002F20FFF7D1FF034B01221A7000BF08BDC7
:10456000001001406232002008B51120FFF76AFFF9
:104570000E4B4FF48032C3F848230C4B4FF480327B
:10458000C3F80823094B01225A602F20FFF7B4FF1C
:10459000064B01229A60064B00221A602F20FFF77B
:1045A000ABFF044B00221A7000BF08BD0010014091
:1045B0005432002062320020024BD3F804351846F2
:1045C000704700BF0010014082B001900091019A35
:1045D000009BD31A23F07F43184602B070470000B7
:1045E00082B00190034A019BC2F8403500BF02B07F
:1045F000704700BF0010014086B00190284B1B6837
:10460000002B03D1264A019B136045E0019B1A68E9
:10461000234B1B681B689A4210D8214B1B681968F2
:10462000019B1A681E4B1B688A1A1A601C4B1A6879
:10463000019BDA611A4A019B13602DE0019B1B6804
:104640000393174B1B680593154B1B68049309E0F4
:10465000049B1B68039AD31A0393049B0593049B42
:10466000DB690493049B002B04D0049B1B68039A12
:104670009A42EDD8049B002B05D0049B1A68039B3B
:10468000D21A049B1A60019B039A1A60019B049A38
:10469000DA61059B019ADA6100BF06B0704700BF7E
:1046A0005032002000B587B001902A4B1B6803935D
:1046B000284B1B680593059B049308E0049A019B13
:1046C0009A4208D0049B0593049BDB690493049BE6
:1046D000002BF3D100E000BF049B002B01D100238D
:1046E00033E0059A049B9A4214D11A4B1B68DB698C
:1046F000184A1360174B1B68002B0BD1164B012275
:104700009A60164B00221A60154B01221A702F2056
:10471000FFF7F2FE049B1B680293049BDA69059B7A
:10472000DA61059BDB690493049B002B05D0049B95
:104730001A68029B1A44049B1A60064B1B68039A72
:104740009A4214BF01230023DBB2184607B05DF87C
:1047500004FB00BF50320020001001405432002002
:104760006332002008B51120FFF78EFE00BF08BDA0
:1047700008B51420FFF788FE00BF08BD00B583B060
:104780000190019B5B69019A92691046984700BFAE
:1047900003B05DF804FB000000B585B02B4B1B682F
:1047A000002B4ED000230193FFF706FF0246284B53
:1047B0001B6819461046FFF707FF0290234B1B6842
:1047C00003931DE0039B1B68029A9A421CD3039B30
:1047D0001B68029AD31A0293039B1B68019A134425
:1047E0000193039B0093039BDB690393009B1B7C5A
:1047F000002B05D0009B00221A740098FFF7BEFF23
:10480000039B002BDED100E000BF124B1A78124B45
:104810001B789A420CD1104B1B780133DAB20E4B45
:104820001A700D4B1B78022B02D10B4B00221A7011
:10483000094B1B781946094A019B42F82130FFF7C2
:1048400097FF00BF05B05DF804FB00BF50320020A9
:1048500054320020603200206132002058320020A3
:1048600082B00190184B1A78184B1B789A4223D0CB
:10487000154B1B780133DAB2134B1A70124B1B78AD
:10488000022B02D1104B00221A700F4B1B781A46D4
:104890000F4B53F82220019B1A60019B1A680D4BA5
:1048A0001B6813440B4A13600A4B1B6823F07F43B9
:1048B000084A1360012303E0019B00221A600023D1
:1048C000184602B0704700BF6032002061320020FD
